{
  "address": "0x81fE037039fB2B42EA14cBA56832E2655C2b64A4",
  "abi": [
    {
      "inputs": [
        {
          "internalType": "contract IClearingHouse",
          "name": "_clearingHouse",
          "type": "address"
        }
      ],
      "stateMutability": "nonpayable",
      "type": "constructor"
    },
    {
      "inputs": [
        {
          "internalType": "uint8",
          "name": "paramIndex",
          "type": "uint8"
        }
      ],
      "name": "ClearingHouseViewer_ZeroAddressConstructor",
      "type": "error"
    },
    {
      "inputs": [],
      "name": "PRBMathSD59x18__AbsInputTooSmall",
      "type": "error"
    },
    {
      "inputs": [],
      "name": "PRBMathSD59x18__DivInputTooSmall",
      "type": "error"
    },
    {
      "inputs": [
        {
          "internalType": "uint256",
          "name": "rAbs",
          "type": "uint256"
        }
      ],
      "name": "PRBMathSD59x18__DivOverflow",
      "type": "error"
    },
    {
      "inputs": [
        {
          "internalType": "uint256",
          "name": "prod1",
          "type": "uint256"
        }
      ],
      "name": "PRBMath__MulDivFixedPointOverflow",
      "type": "error"
    },
    {
      "inputs": [
        {
          "internalType": "uint256",
          "name": "prod1",
          "type": "uint256"
        },
        {
          "internalType": "uint256",
          "name": "denominator",
          "type": "uint256"
        }
      ],
      "name": "PRBMath__MulDivOverflow",
      "type": "error"
    },
    {
      "inputs": [],
      "name": "clearingHouse",
      "outputs": [
        {
          "internalType": "contract IClearingHouse",
          "name": "",
          "type": "address"
        }
      ],
      "stateMutability": "view",
      "type": "function"
    },
    {
      "inputs": [
        {
          "internalType": "uint256",
          "name": "idx",
          "type": "uint256"
        }
      ],
      "name": "getBaseDust",
      "outputs": [
        {
          "internalType": "uint256",
          "name": "",
          "type": "uint256"
        }
      ],
      "stateMutability": "view",
      "type": "function"
    },
    {
      "inputs": [
        {
          "internalType": "uint256",
          "name": "idx",
          "type": "uint256"
        },
        {
          "internalType": "uint256",
          "name": "vQuoteAmountToSpend",
          "type": "uint256"
        }
      ],
      "name": "getExpectedVBaseAmount",
      "outputs": [
        {
          "internalType": "uint256",
          "name": "",
          "type": "uint256"
        }
      ],
      "stateMutability": "view",
      "type": "function"
    },
    {
      "inputs": [
        {
          "internalType": "uint256",
          "name": "idx",
          "type": "uint256"
        },
        {
          "internalType": "uint256",
          "name": "vBaseAmountToSpend",
          "type": "uint256"
        }
      ],
      "name": "getExpectedVQuoteAmount",
      "outputs": [
        {
          "internalType": "uint256",
          "name": "",
          "type": "uint256"
        }
      ],
      "stateMutability": "view",
      "type": "function"
    },
    {
      "inputs": [
        {
          "internalType": "uint256",
          "name": "idx",
          "type": "uint256"
        }
      ],
      "name": "getGlobalPosition",
      "outputs": [
        {
          "components": [
            {
              "internalType": "uint128",
              "name": "timeOfLastTrade",
              "type": "uint128"
            },
            {
              "internalType": "uint128",
              "name": "timeOfLastTwapUpdate",
              "type": "uint128"
            },
            {
              "internalType": "int256",
              "name": "cumFundingRate",
              "type": "int256"
            },
            {
              "internalType": "int256",
              "name": "blockStartPrice",
              "type": "int256"
            },
            {
              "internalType": "uint256",
              "name": "totalTradingFeesGrowth",
              "type": "uint256"
            },
            {
              "internalType": "uint256",
              "name": "totalLiquidityProvided",
              "type": "uint256"
            },
            {
              "internalType": "uint256",
              "name": "totalBaseFeesGrowth",
              "type": "uint256"
            },
            {
              "internalType": "uint256",
              "name": "totalQuoteFeesGrowth",
              "type": "uint256"
            }
          ],
          "internalType": "struct LibPerpetual.GlobalPosition",
          "name": "",
          "type": "tuple"
        }
      ],
      "stateMutability": "view",
      "type": "function"
    },
    {
      "inputs": [
        {
          "internalType": "uint256",
          "name": "idx",
          "type": "uint256"
        }
      ],
      "name": "getInsuranceFee",
      "outputs": [
        {
          "internalType": "int256",
          "name": "",
          "type": "int256"
        }
      ],
      "stateMutability": "view",
      "type": "function"
    },
    {
      "inputs": [
        {
          "internalType": "address",
          "name": "user",
          "type": "address"
        },
        {
          "internalType": "uint256",
          "name": "marketIdx",
          "type": "uint256"
        },
        {
          "internalType": "uint256",
          "name": "tokenIdx",
          "type": "uint256"
        }
      ],
      "name": "getLpBalance",
      "outputs": [
        {
          "internalType": "int256",
          "name": "",
          "type": "int256"
        }
      ],
      "stateMutability": "view",
      "type": "function"
    },
    {
      "inputs": [
        {
          "internalType": "uint256",
          "name": "idx",
          "type": "uint256"
        },
        {
          "internalType": "address",
          "name": "account",
          "type": "address"
        }
      ],
      "name": "getLpFundingPayments",
      "outputs": [
        {
          "internalType": "int256",
          "name": "",
          "type": "int256"
        }
      ],
      "stateMutability": "view",
      "type": "function"
    },
    {
      "inputs": [
        {
          "internalType": "uint256",
          "name": "idx",
          "type": "uint256"
        },
        {
          "internalType": "address",
          "name": "account",
          "type": "address"
        }
      ],
      "name": "getLpPosition",
      "outputs": [
        {
          "components": [
            {
              "internalType": "int256",
              "name": "openNotional",
              "type": "int256"
            },
            {
              "internalType": "int256",
              "name": "positionSize",
              "type": "int256"
            },
            {
              "internalType": "int256",
              "name": "cumFundingRate",
              "type": "int256"
            },
            {
              "internalType": "uint256",
              "name": "liquidityBalance",
              "type": "uint256"
            },
            {
              "internalType": "uint256",
              "name": "totalTradingFeesGrowth",
              "type": "uint256"
            },
            {
              "internalType": "uint256",
              "name": "totalBaseFeesGrowth",
              "type": "uint256"
            },
            {
              "internalType": "uint256",
              "name": "totalQuoteFeesGrowth",
              "type": "uint256"
            }
          ],
          "internalType": "struct LibPerpetual.LiquidityProviderPosition",
          "name": "",
          "type": "tuple"
        }
      ],
      "stateMutability": "view",
      "type": "function"
    },
    {
      "inputs": [
        {
          "internalType": "uint256",
          "name": "idx",
          "type": "uint256"
        },
        {
          "internalType": "address",
          "name": "account",
          "type": "address"
        }
      ],
      "name": "getLpPositionAfterWithdrawal",
      "outputs": [
        {
          "components": [
            {
              "internalType": "int256",
              "name": "openNotional",
              "type": "int256"
            },
            {
              "internalType": "int256",
              "name": "positionSize",
              "type": "int256"
            },
            {
              "internalType": "int256",
              "name": "cumFundingRate",
              "type": "int256"
            }
          ],
          "internalType": "struct LibPerpetual.TraderPosition",
          "name": "",
          "type": "tuple"
        }
      ],
      "stateMutability": "view",
      "type": "function"
    },
    {
      "inputs": [
        {
          "internalType": "uint256",
          "name": "idx",
          "type": "uint256"
        },
        {
          "internalType": "address",
          "name": "account",
          "type": "address"
        }
      ],
      "name": "getLpReserveValue",
      "outputs": [
        {
          "internalType": "int256",
          "name": "",
          "type": "int256"
        }
      ],
      "stateMutability": "view",
      "type": "function"
    },
    {
      "inputs": [
        {
          "internalType": "uint256",
          "name": "idx",
          "type": "uint256"
        },
        {
          "internalType": "address",
          "name": "account",
          "type": "address"
        }
      ],
      "name": "getLpUnrealizedPnL",
      "outputs": [
        {
          "internalType": "int256",
          "name": "",
          "type": "int256"
        }
      ],
      "stateMutability": "view",
      "type": "function"
    },
    {
      "inputs": [
        {
          "internalType": "uint256",
          "name": "idx",
          "type": "uint256"
        }
      ],
      "name": "getMarket",
      "outputs": [
        {
          "internalType": "contract ICryptoSwap",
          "name": "",
          "type": "address"
        }
      ],
      "stateMutability": "view",
      "type": "function"
    },
    {
      "inputs": [
        {
          "internalType": "uint256",
          "name": "idx",
          "type": "uint256"
        },
        {
          "internalType": "address",
          "name": "trader",
          "type": "address"
        },
        {
          "internalType": "uint256",
          "name": "iter",
          "type": "uint256"
        }
      ],
      "name": "getProposedAmount",
      "outputs": [
        {
          "internalType": "uint256",
          "name": "amountIn",
          "type": "uint256"
        },
        {
          "internalType": "uint256",
          "name": "amountOut",
          "type": "uint256"
        }
      ],
      "stateMutability": "view",
      "type": "function"
    },
    {
      "inputs": [
        {
          "internalType": "address",
          "name": "user",
          "type": "address"
        },
        {
          "internalType": "uint256",
          "name": "marketIdx",
          "type": "uint256"
        },
        {
          "internalType": "uint256",
          "name": "tokenIdx",
          "type": "uint256"
        }
      ],
      "name": "getTraderBalance",
      "outputs": [
        {
          "internalType": "int256",
          "name": "",
          "type": "int256"
        }
      ],
      "stateMutability": "view",
      "type": "function"
    },
    {
      "inputs": [
        {
          "internalType": "uint256",
          "name": "idx",
          "type": "uint256"
        },
        {
          "internalType": "address",
          "name": "account",
          "type": "address"
        }
      ],
      "name": "getTraderFundingPayments",
      "outputs": [
        {
          "internalType": "int256",
          "name": "",
          "type": "int256"
        }
      ],
      "stateMutability": "view",
      "type": "function"
    },
    {
      "inputs": [
        {
          "internalType": "uint256",
          "name": "idx",
          "type": "uint256"
        },
        {
          "internalType": "address",
          "name": "account",
          "type": "address"
        }
      ],
      "name": "getTraderPosition",
      "outputs": [
        {
          "components": [
            {
              "internalType": "int256",
              "name": "openNotional",
              "type": "int256"
            },
            {
              "internalType": "int256",
              "name": "positionSize",
              "type": "int256"
            },
            {
              "internalType": "int256",
              "name": "cumFundingRate",
              "type": "int256"
            }
          ],
          "internalType": "struct LibPerpetual.TraderPosition",
          "name": "",
          "type": "tuple"
        }
      ],
      "stateMutability": "view",
      "type": "function"
    },
    {
      "inputs": [
        {
          "internalType": "uint256",
          "name": "idx",
          "type": "uint256"
        },
        {
          "internalType": "address",
          "name": "account",
          "type": "address"
        }
      ],
      "name": "getTraderReserveValue",
      "outputs": [
        {
          "internalType": "int256",
          "name": "",
          "type": "int256"
        }
      ],
      "stateMutability": "view",
      "type": "function"
    },
    {
      "inputs": [
        {
          "internalType": "uint256",
          "name": "idx",
          "type": "uint256"
        },
        {
          "internalType": "address",
          "name": "account",
          "type": "address"
        }
      ],
      "name": "getTraderUnrealizedPnL",
      "outputs": [
        {
          "internalType": "int256",
          "name": "",
          "type": "int256"
        }
      ],
      "stateMutability": "view",
      "type": "function"
    },
    {
      "inputs": [
        {
          "internalType": "uint256",
          "name": "idx",
          "type": "uint256"
        }
      ],
      "name": "indexPrice",
      "outputs": [
        {
          "internalType": "int256",
          "name": "",
          "type": "int256"
        }
      ],
      "stateMutability": "view",
      "type": "function"
    },
    {
      "inputs": [
        {
          "internalType": "uint256",
          "name": "idx",
          "type": "uint256"
        },
        {
          "internalType": "address",
          "name": "account",
          "type": "address"
        },
        {
          "internalType": "int256",
          "name": "ratio",
          "type": "int256"
        },
        {
          "internalType": "bool",
          "name": "isTrader",
          "type": "bool"
        }
      ],
      "name": "marginIsValid",
      "outputs": [
        {
          "internalType": "bool",
          "name": "",
          "type": "bool"
        }
      ],
      "stateMutability": "view",
      "type": "function"
    },
    {
      "inputs": [
        {
          "internalType": "uint256",
          "name": "idx",
          "type": "uint256"
        },
        {
          "internalType": "address",
          "name": "account",
          "type": "address"
        },
        {
          "internalType": "bool",
          "name": "isTrader",
          "type": "bool"
        }
      ],
      "name": "marginRatio",
      "outputs": [
        {
          "internalType": "int256",
          "name": "",
          "type": "int256"
        }
      ],
      "stateMutability": "view",
      "type": "function"
    },
    {
      "inputs": [
        {
          "internalType": "uint256",
          "name": "idx",
          "type": "uint256"
        }
      ],
      "name": "marketPrice",
      "outputs": [
        {
          "internalType": "uint256",
          "name": "",
          "type": "uint256"
        }
      ],
      "stateMutability": "view",
      "type": "function"
    }
  ],
  "transactionHash": "0x64c23900615e1b5de5a89f7c77e1e4a10259c751ac2fa48e638ff0ef49ae2062",
  "args": [
    "0x9893AFB20987973bFbA9469EA7B288A9827c99cb"
  ],
  "solcInputHash": "0e343dabaf86f1433359bcaf3343f5ad",
  "bytecode": "0x608060405234801561001057600080fd5b5060405162001f6a38038062001f6a83398101604081905261003191610084565b6001600160a01b03811661005f57604051632c9334bd60e11b81526000600482015260240160405180910390fd5b600080546001600160a01b0319166001600160a01b03929092169190911790556100b2565b600060208284031215610095578081fd5b81516001600160a01b03811681146100ab578182fd5b9392505050565b611ea880620000c26000396000f3fe608060405234801561001057600080fd5b506004361061014d5760003560e01c806359e39aab116100c3578063d25540ee1161007c578063d25540ee146103b6578063d67f9326146103c9578063eb44fdd3146103f1578063ed2633b514610404578063f5c7b13b14610417578063f82a61ec1461042a57600080fd5b806359e39aab146102b457806366e910dd146102e95780636ccc242f146102fc57806384c76b6a1461030f57806387a9540114610322578063cc2923c51461033557600080fd5b806326b59eae1161011557806326b59eae146102325780632e15ce52146102455780633adec5a7146102585780634af6d8f21461026b57806351aa4c9d1461027e578063549c0cff1461029157600080fd5b80630af96800146101525780630cd4ff3a146101825780631fb4ef67146101a35780631fdbc3c8146101b657806324012fcd1461021f575b600080fd5b600054610165906001600160a01b031681565b6040516001600160a01b0390911681526020015b60405180910390f35b610195610190366004611c6c565b61043d565b604051908152602001610179565b6101956101b1366004611c54565b61053f565b6101c96101c4366004611c6c565b61062c565b6040516101799190600060e082019050825182526020830151602083015260408301516040830152606083015160608301526080830151608083015260a083015160a083015260c083015160c083015292915050565b61019561022d366004611c6c565b610763565b610195610240366004611d56565b610810565b610195610253366004611a4d565b61093a565b610195610266366004611c54565b610a55565b610195610279366004611c6c565b610b0a565b61019561028c366004611d56565b610bb7565b6102a461029f366004611cd8565b610ce1565b6040519015158152602001610179565b6102c76102c2366004611c6c565b610cfa565b6040805182518152602080840151908201529181015190820152606001610179565b6102c76102f7366004611c6c565b610e16565b61019561030a366004611c6c565b610ee6565b61019561031d366004611a4d565b610f93565b610195610330366004611c6c565b611058565b610348610343366004611c54565b611116565b60405161017991906000610100820190506001600160801b038084511683528060208501511660208401525060408301516040830152606083015160608301526080830151608083015260a083015160a083015260c083015160c083015260e083015160e083015292915050565b6101956103c4366004611c6c565b61125d565b6103dc6103d7366004611d1f565b61131b565b60408051928352602083019190915201610179565b6101656103ff366004611c54565b61143d565b610195610412366004611c9b565b61152a565b610195610425366004611c54565b6115e4565b610195610438366004611c54565b611699565b60008054604051632cd0f65560e11b8152600481018590526001600160a01b03909116906359a1ecaa9060240160206040518083038186803b15801561048257600080fd5b505afa158015610496573d6000803e3d6000fd5b505050506040513d601f19601f820116820180604052508101906104ba9190611a81565b604051634074327f60e11b81526001600160a01b03848116600483015291909116906380e864fe906024015b60206040518083038186803b1580156104fe57600080fd5b505afa158015610512573d6000803e3d6000fd5b505050506040513d601f19601f820116820180604052508101906105369190611a9d565b90505b92915050565b60008054604051632cd0f65560e11b8152600481018490526001600160a01b03909116906359a1ecaa9060240160206040518083038186803b15801561058457600080fd5b505afa158015610598573d6000803e3d6000fd5b505050506040513d601f19601f820116820180604052508101906105bc9190611a81565b6001600160a01b03166310bace8c6040518163ffffffff1660e01b815260040160206040518083038186803b1580156105f457600080fd5b505afa158015610608573d6000803e3d6000fd5b505050506040513d601f19601f820116820180604052508101906105399190611a9d565b61066c6040518060e00160405280600081526020016000815260200160008152602001600081526020016000815260200160008152602001600081525090565b600054604051632cd0f65560e11b8152600481018590526001600160a01b03909116906359a1ecaa9060240160206040518083038186803b1580156106b057600080fd5b505afa1580156106c4573d6000803e3d6000fd5b505050506040513d601f19601f820116820180604052508101906106e89190611a81565b60405163cefc499360e01b81526001600160a01b038481166004830152919091169063cefc49939060240160e06040518083038186803b15801561072b57600080fd5b505afa15801561073f573d6000803e3d6000fd5b505050506040513d601f19601f820116820180604052508101906105369190611b5e565b60008054604051632cd0f65560e11b8152600481018590526001600160a01b03909116906359a1ecaa9060240160206040518083038186803b1580156107a857600080fd5b505afa1580156107bc573d6000803e3d6000fd5b505050506040513d601f19601f820116820180604052508101906107e09190611a81565b60405163aa407ae160e01b81526001600160a01b038481166004830152919091169063aa407ae1906024016104e6565b60008054604051632cd0f65560e11b8152600481018590526001600160a01b03909116906359a1ecaa9060240160206040518083038186803b15801561085557600080fd5b505afa158015610869573d6000803e3d6000fd5b505050506040513d601f19601f8201168201806040525081019061088d9190611a81565b6001600160a01b03166380f556056040518163ffffffff1660e01b815260040160206040518083038186803b1580156108c557600080fd5b505afa1580156108d9573d6000803e3d6000fd5b505050506040513d601f19601f820116820180604052508101906108fd9190611a81565b60405163556d6e9f60e01b81526000600482015260016024820152604481018490526001600160a01b03919091169063556d6e9f906064016104e6565b60008060009054906101000a90046001600160a01b03166001600160a01b031663fbfa77cf6040518163ffffffff1660e01b815260040160206040518083038186803b15801561098957600080fd5b505afa15801561099d573d6000803e3d6000fd5b505050506040513d601f19601f820116820180604052508101906109c19190611a81565b60405163170ae72960e11b81526001600160a01b03868116600483015260248201869052604482018590529190911690632e15ce52906064015b60206040518083038186803b158015610a1357600080fd5b505afa158015610a27573d6000803e3d6000fd5b505050506040513d601f19601f82011682018060405250810190610a4b9190611a9d565b90505b9392505050565b60008054604051632cd0f65560e11b8152600481018490526001600160a01b03909116906359a1ecaa9060240160206040518083038186803b158015610a9a57600080fd5b505afa158015610aae573d6000803e3d6000fd5b505050506040513d601f19601f82011682018060405250810190610ad29190611a81565b6001600160a01b03166345a153886040518163ffffffff1660e01b815260040160206040518083038186803b1580156105f457600080fd5b60008054604051632cd0f65560e11b8152600481018590526001600160a01b03909116906359a1ecaa9060240160206040518083038186803b158015610b4f57600080fd5b505afa158015610b63573d6000803e3d6000fd5b505050506040513d601f19601f82011682018060405250810190610b879190611a81565b604051632d3eb79b60e01b81526001600160a01b0384811660048301529190911690632d3eb79b906024016104e6565b60008054604051632cd0f65560e11b8152600481018590526001600160a01b03909116906359a1ecaa9060240160206040518083038186803b158015610bfc57600080fd5b505afa158015610c10573d6000803e3d6000fd5b505050506040513d601f19601f82011682018060405250810190610c349190611a81565b6001600160a01b03166380f556056040518163ffffffff1660e01b815260040160206040518083038186803b158015610c6c57600080fd5b505afa158015610c80573d6000803e3d6000fd5b505050506040513d601f19601f82011682018060405250810190610ca49190611a81565b60405163556d6e9f60e01b81526001600482015260006024820152604481018490526001600160a01b03919091169063556d6e9f906064016104e6565b600082610cef86868561152a565b121595945050505050565b610d1e60405180606001604052806000815260200160008152602001600081525090565b600054604051632cd0f65560e11b8152600481018590526001600160a01b03909116906359a1ecaa9060240160206040518083038186803b158015610d6257600080fd5b505afa158015610d76573d6000803e3d6000fd5b505050506040513d601f19601f82011682018060405250810190610d9a9190611a81565b6040516306387ded60e51b81526001600160a01b038481166004830152919091169063c70fbda0906024015b60606040518083038186803b158015610dde57600080fd5b505afa158015610df2573d6000803e3d6000fd5b505050506040513d601f19601f820116820180604052508101906105369190611bed565b610e3a60405180606001604052806000815260200160008152602001600081525090565b600054604051632cd0f65560e11b8152600481018590526001600160a01b03909116906359a1ecaa9060240160206040518083038186803b158015610e7e57600080fd5b505afa158015610e92573d6000803e3d6000fd5b505050506040513d601f19601f82011682018060405250810190610eb69190611a81565b604051630f272c5b60e31b81526001600160a01b038481166004830152919091169063793962d890602401610dc6565b60008054604051632cd0f65560e11b8152600481018590526001600160a01b03909116906359a1ecaa9060240160206040518083038186803b158015610f2b57600080fd5b505afa158015610f3f573d6000803e3d6000fd5b505050506040513d601f19601f82011682018060405250810190610f639190611a81565b604051633b6234db60e11b81526001600160a01b03848116600483015291909116906376c469b6906024016104e6565b60008060009054906101000a90046001600160a01b03166001600160a01b031663fbfa77cf6040518163ffffffff1660e01b815260040160206040518083038186803b158015610fe257600080fd5b505afa158015610ff6573d6000803e3d6000fd5b505050506040513d601f19601f8201168201806040525081019061101a9190611a81565b604051634263b5b560e11b81526001600160a01b038681166004830152602482018690526044820185905291909116906384c76b6a906064016109fb565b60008060009054906101000a90046001600160a01b03166001600160a01b031663fbfa77cf6040518163ffffffff1660e01b815260040160206040518083038186803b1580156110a757600080fd5b505afa1580156110bb573d6000803e3d6000fd5b505050506040513d601f19601f820116820180604052508101906110df9190611a81565b6040516387a9540160e01b8152600481018590526001600160a01b03848116602483015291909116906387a95401906044016104e6565b61117060405180610100016040528060006001600160801b0316815260200160006001600160801b031681526020016000815260200160008152602001600081526020016000815260200160008152602001600081525090565b600054604051632cd0f65560e11b8152600481018490526001600160a01b03909116906359a1ecaa9060240160206040518083038186803b1580156111b457600080fd5b505afa1580156111c8573d6000803e3d6000fd5b505050506040513d601f19601f820116820180604052508101906111ec9190611a81565b6001600160a01b0316639027b59e6040518163ffffffff1660e01b81526004016101006040518083038186803b15801561122557600080fd5b505afa158015611239573d6000803e3d6000fd5b505050506040513d601f19601f820116820180604052508101906105399190611ab5565b60008060009054906101000a90046001600160a01b03166001600160a01b031663fbfa77cf6040518163ffffffff1660e01b815260040160206040518083038186803b1580156112ac57600080fd5b505afa1580156112c0573d6000803e3d6000fd5b505050506040513d601f19601f820116820180604052508101906112e49190611a81565b60405163692aa07760e11b8152600481018590526001600160a01b038481166024830152919091169063d25540ee906044016104e6565b600080600061132a8686610e16565b602001519050600081131561135557611342816116ba565b925061134e8684610bb7565b9150611434565b600061136861136383611e2a565b6116ba565b905061137d61137688610a55565b82906116c5565b93506000600a61138e86600d611df0565b6113989190611dd0565b90506000600a6113a9876007611df0565b6113b39190611dd0565b905060005b878110156114175760026113cc8484611db8565b6113d69190611dd0565b96506113e28a88610810565b9550838614156113f157611417565b8386101561140157869150611405565b8692505b8061140f81611e0f565b9150506113b8565b50828510156114305781955061142d8987610810565b94505b5050505b50935093915050565b60008054604051632cd0f65560e11b8152600481018490526001600160a01b03909116906359a1ecaa9060240160206040518083038186803b15801561148257600080fd5b505afa158015611496573d6000803e3d6000fd5b505050506040513d601f19601f820116820180604052508101906114ba9190611a81565b6001600160a01b03166380f556056040518163ffffffff1660e01b815260040160206040518083038186803b1580156114f257600080fd5b505afa158015611506573d6000803e3d6000fd5b505050506040513d601f19601f820116820180604052508101906105399190611a81565b600080826115425761153c8585610cfa565b5161154e565b61154c8585610e16565b515b90508061156657670de0b6b3a7640000915050610a4e565b60008361157c57611577868661125d565b611586565b6115868686611058565b905060008461159e57611599878761043d565b6115a8565b6115a88787610ee6565b90506000856115c0576115bb8888610763565b6115ca565b6115ca8888610b0a565b90506115d8838383876116d1565b98975050505050505050565b60008054604051632cd0f65560e11b8152600481018490526001600160a01b03909116906359a1ecaa9060240160206040518083038186803b15801561162957600080fd5b505afa15801561163d573d6000803e3d6000fd5b505050506040513d601f19601f820116820180604052508101906116619190611a81565b6001600160a01b031663a5f1ac9a6040518163ffffffff1660e01b815260040160206040518083038186803b1580156105f457600080fd5b60008054610539906116b59084906001600160a01b0316610e16565b602001515b600061053982611703565b6000610536838361175e565b60006116fa6116df8361176a565b846116ea8789611d77565b6116f49190611d77565b90611775565b95945050505050565b60008082121561175a5760405162461bcd60e51b815260206004820181905260248201527f53616665436173743a2076616c7565206d75737420626520706f73697469766560448201526064015b60405180910390fd5b5090565b60006105368383611781565b600061053982611843565b6000610536838361187f565b60008080600019848609848602925082811083820303915050670de0b6b3a764000081106117c55760405163698d9a0160e11b815260048101829052602401611751565b600080670de0b6b3a76400008688099150506706f05b59d3b1ffff8111826117ff5780670de0b6b3a7640000850401945050505050610539565b620400008285030493909111909103600160ee1b02919091177faccb18165bd6fe31ae1cf318dc5b51eee0e1ba569b88cd74c1773b91fac106690201905092915050565b6000600160ff1b82141561186a57604051631d0742e360e21b815260040160405180910390fd5b600082126118785781610539565b5060000390565b6000600160ff1b8314806118965750600160ff1b82145b156118b45760405163b3c754a360e01b815260040160405180910390fd5b600080600085126118c557846118ca565b846000035b9150600084126118da57836118df565b836000035b905060006118f683670de0b6b3a764000084611945565b90506001600160ff1b0381111561192357604051637cb4bef560e01b815260048101829052602401611751565b60001980871390861380821860011461193c57826115d8565b6115d883611e2a565b60008080600019858709858702925082811083820303915050806000141561198e5783828161198457634e487b7160e01b600052601260045260246000fd5b0492505050610a4e565b8381106119b857604051631dcf306360e21b81526004810182905260248101859052604401611751565b60008486880960026001871981018816978890046003810283188082028403028082028403028082028403028082028403028082028403029081029092039091026000889003889004909101858311909403939093029303949094049190911702949350505050565b80358015158114611a3157600080fd5b919050565b80516001600160801b0381168114611a3157600080fd5b600080600060608486031215611a61578283fd5b8335611a6c81611e5a565b95602085013595506040909401359392505050565b600060208284031215611a92578081fd5b8151610a4e81611e5a565b600060208284031215611aae578081fd5b5051919050565b6000610100808385031215611ac8578182fd5b6040519081019067ffffffffffffffff82118183101715611af757634e487b7160e01b83526041600452602483fd5b81604052611b0484611a36565b8152611b1260208501611a36565b602082015260408401516040820152606084015160608201526080840151608082015260a084015160a082015260c084015160c082015260e084015160e0820152809250505092915050565b600060e08284031215611b6f578081fd5b60405160e0810181811067ffffffffffffffff82111715611b9e57634e487b7160e01b83526041600452602483fd5b8060405250825181526020830151602082015260408301516040820152606083015160608201526080830151608082015260a083015160a082015260c083015160c08201528091505092915050565b600060608284031215611bfe578081fd5b6040516060810181811067ffffffffffffffff82111715611c2d57634e487b7160e01b83526041600452602483fd5b80604052508251815260208301516020820152604083015160408201528091505092915050565b600060208284031215611c65578081fd5b5035919050565b60008060408385031215611c7e578182fd5b823591506020830135611c9081611e5a565b809150509250929050565b600080600060608486031215611caf578081fd5b833592506020840135611cc181611e5a565b9150611ccf60408501611a21565b90509250925092565b60008060008060808587031215611ced578182fd5b843593506020850135611cff81611e5a565b925060408501359150611d1460608601611a21565b905092959194509250565b600080600060608486031215611d33578081fd5b833592506020840135611d4581611e5a565b929592945050506040919091013590565b60008060408385031215611d68578182fd5b50508035926020909101359150565b600080821280156001600160ff1b0384900385131615611d9957611d99611e44565b600160ff1b8390038412811615611db257611db2611e44565b50500190565b60008219821115611dcb57611dcb611e44565b500190565b600082611deb57634e487b7160e01b81526012600452602481fd5b500490565b6000816000190483118215151615611e0a57611e0a611e44565b500290565b6000600019821415611e2357611e23611e44565b5060010190565b6000600160ff1b821415611e4057611e40611e44565b0390565b634e487b7160e01b600052601160045260246000fd5b6001600160a01b0381168114611e6f57600080fd5b5056fea2646970667358221220768fc1ec399dbe8d4d2852e778ad81d096ebe162ab1c4a1251cc93538f744c0064736f6c63430008040033",
  "devdoc": {
    "kind": "dev",
    "methods": {
      "getBaseDust(uint256)": {
        "returns": {
          "_0": "Base balance of Governance. 18 decimals"
        }
      },
      "getExpectedVBaseAmount(uint256,uint256)": {
        "details": "It's up to the client to apply a reduction of this amount (e.g. -1%) to then use it as `minAmount` in `extendPosition`TODO: store market address to avoid second call",
        "params": {
          "idx": "Index of the perpetual market",
          "vQuoteAmountToSpend": "Amount of vQuote to be exchanged against some vBase. 18 decimals"
        }
      },
      "getExpectedVQuoteAmount(uint256,uint256)": {
        "details": "It's up to the client to apply a reduction of this amount (e.g. -1%) to then use it as `minAmount` in `extendPosition`TODO: store market address to avoid second call",
        "params": {
          "idx": "Index of the perpetual market",
          "vBaseAmountToSpend": "Amount of vBase to be exchanged against some vQuote. 18 decimals"
        }
      },
      "getGlobalPosition(uint256)": {
        "params": {
          "idx": "Index of the perpetual market"
        }
      },
      "getLpBalance(address,uint256,uint256)": {
        "params": {
          "marketIdx": "Index of the perpetual market",
          "tokenIdx": "Token to get the balance of",
          "user": "LP to get the balance of"
        }
      },
      "getLpFundingPayments(uint256,address)": {
        "params": {
          "account": "Lp to get the funding payments",
          "idx": "Index of the perpetual market"
        }
      },
      "getLpPosition(uint256,address)": {
        "params": {
          "account": "Address to get the LP position from",
          "idx": "Index of the perpetual market"
        }
      },
      "getLpPositionAfterWithdrawal(uint256,address)": {
        "params": {
          "account": "Liquidity Provider"
        },
        "returns": {
          "_0": "(Active) Liquidity Provider position"
        }
      },
      "getLpReserveValue(uint256,address)": {
        "params": {
          "account": "Address to get the portfolio value from",
          "idx": "Index of the perpetual market"
        }
      },
      "getLpUnrealizedPnL(uint256,address)": {
        "params": {
          "account": "Lp to get the unrealized PnL from",
          "idx": "Index of the perpetual market"
        }
      },
      "getMarket(uint256)": {
        "params": {
          "idx": "Index of the perpetual market"
        }
      },
      "getProposedAmount(uint256,address,uint256)": {
        "details": "Solidity implementation to minimize the node calls once has to make when finding proposed amountShould not be called from another contract",
        "params": {
          "idx": "Index of the perpetual market",
          "iter": "Maximum iterations",
          "trader": "Account"
        },
        "returns": {
          "amountIn": "Amount of tokens to swap. 18 decimals",
          "amountOut": "Amount of tokens to receive from the swap. 18 decimals"
        }
      },
      "getTraderBalance(address,uint256,uint256)": {
        "params": {
          "marketIdx": "Index of the perpetual market",
          "tokenIdx": "Token to get the balance of",
          "user": "Trader to get the balance of"
        }
      },
      "getTraderFundingPayments(uint256,address)": {
        "params": {
          "account": "Trader to get the funding payments",
          "idx": "Index of the perpetual market"
        }
      },
      "getTraderPosition(uint256,address)": {
        "params": {
          "account": "Address to get the trading position from",
          "idx": "Index of the perpetual market"
        }
      },
      "getTraderReserveValue(uint256,address)": {
        "params": {
          "account": "Address to get the portfolio value from",
          "idx": "Index of the perpetual market"
        }
      },
      "getTraderUnrealizedPnL(uint256,address)": {
        "params": {
          "account": "Trader to get the unrealized PnL from",
          "idx": "Index of the perpetual market"
        }
      },
      "indexPrice(uint256)": {
        "params": {
          "idx": "Index of the perpetual market"
        }
      },
      "marginIsValid(uint256,address,int256,bool)": {
        "params": {
          "account": "Account of the position to get the margin ratio from",
          "idx": "Index of the perpetual market",
          "isTrader": "True if the user is a trader, False if the user is a liquidity provider",
          "ratio": "Proposed ratio to compare the position against"
        },
        "returns": {
          "_0": "True if the position exceeds margin ratio, false otherwise"
        }
      },
      "marginRatio(uint256,address,bool)": {
        "params": {
          "account": "Account of the position to get the margin ratio from",
          "idx": "Index of the perpetual market",
          "isTrader": "True if the user is a trader, False if the user is a liquidity provider"
        },
        "returns": {
          "_0": "Margin ratio of the position (in 1e18)"
        }
      },
      "marketPrice(uint256)": {
        "params": {
          "idx": "Index of the perpetual market"
        }
      }
    },
    "title": "Clearing House Helper Contract",
    "version": 1
  },
  "userdoc": {
    "errors": {
      "ClearingHouseViewer_ZeroAddressConstructor(uint8)": [
        {
          "notice": "Emitted when the zero address is provided as a parameter in the constructor"
        }
      ],
      "PRBMathSD59x18__AbsInputTooSmall()": [
        {
          "notice": "Emitted when the input is MIN_SD59x18."
        }
      ],
      "PRBMathSD59x18__DivInputTooSmall()": [
        {
          "notice": "Emitted when one of the inputs is MIN_SD59x18."
        }
      ],
      "PRBMathSD59x18__DivOverflow(uint256)": [
        {
          "notice": "Emitted when one of the intermediary unsigned results overflows SD59x18."
        }
      ],
      "PRBMath__MulDivFixedPointOverflow(uint256)": [
        {
          "notice": "Emitted when the result overflows uint256."
        }
      ],
      "PRBMath__MulDivOverflow(uint256,uint256)": [
        {
          "notice": "Emitted when the result overflows uint256."
        }
      ]
    },
    "kind": "user",
    "methods": {
      "getBaseDust(uint256)": {
        "notice": "Get the current (base) dust balance"
      },
      "getExpectedVBaseAmount(uint256,uint256)": {
        "notice": "Return amount for vBase one would receive for exchanging `vQuoteAmountToSpend` in a select market (excluding slippage)"
      },
      "getExpectedVQuoteAmount(uint256,uint256)": {
        "notice": "Return amount for vQuote one would receive for exchanging `vBaseAmountToSpend` in a select market (excluding slippage)"
      },
      "getLpBalance(address,uint256,uint256)": {
        "notice": "Get LP balance"
      },
      "getLpFundingPayments(uint256,address)": {
        "notice": "Calculate missed funding payments"
      },
      "getLpPosition(uint256,address)": {
        "notice": "Get Lp position"
      },
      "getLpPositionAfterWithdrawal(uint256,address)": {
        "notice": "Get the (active) position of a liquidity provider after withdrawing liquidity"
      },
      "getLpReserveValue(uint256,address)": {
        "notice": "Get the portfolio value of an Lp"
      },
      "getProposedAmount(uint256,address,uint256)": {
        "notice": "Get the proposed amount needed to close a position"
      },
      "getTraderBalance(address,uint256,uint256)": {
        "notice": "Get trader balance"
      },
      "getTraderFundingPayments(uint256,address)": {
        "notice": "Calculate missed funding payments"
      },
      "getTraderPosition(uint256,address)": {
        "notice": "Get trader position"
      },
      "getTraderReserveValue(uint256,address)": {
        "notice": "Get the portfolio value of a trader"
      },
      "indexPrice(uint256)": {
        "notice": "Return the current off-chain exchange rate for vBase/vQuote"
      },
      "marginIsValid(uint256,address,int256,bool)": {
        "notice": "Approximately determine whether or not a position is valid for a given margin ratio (incl. an estimate of pending funding payments)"
      },
      "marginRatio(uint256,address,bool)": {
        "notice": "Get the (approximate) margin ratio of a trading position (given that, for now, 1 trading position = 1 address) incl. an estimate of pending funding payments"
      },
      "marketPrice(uint256)": {
        "notice": "Return the last traded price (used for TWAP)"
      }
    },
    "notice": "Utility functions to easily extract data from Perpetual Contracts",
    "version": 1
  },
  "storageLayout": {
    "storage": [
      {
        "astId": 3754,
        "contract": "contracts/ClearingHouseViewer.sol:ClearingHouseViewer",
        "label": "clearingHouse",
        "offset": 0,
        "slot": "0",
        "type": "t_contract(IClearingHouse)9658"
      }
    ],
    "types": {
      "t_contract(IClearingHouse)9658": {
        "encoding": "inplace",
        "label": "contract IClearingHouse",
        "numberOfBytes": "20"
      }
    }
  }
}