{
  "address": "0x7945B597DFEb2929cD1dD668bA7B3a513e123316",
  "abi": [
    {
      "inputs": [
        {
          "internalType": "contract IERC20Metadata",
          "name": "_token",
          "type": "address"
        },
        {
          "internalType": "contract IVault",
          "name": "_vault",
          "type": "address"
        }
      ],
      "stateMutability": "nonpayable",
      "type": "constructor"
    },
    {
      "inputs": [],
      "name": "IncreOwnable_NotOwner",
      "type": "error"
    },
    {
      "inputs": [],
      "name": "IncreOwnable_NotPendingOwner",
      "type": "error"
    },
    {
      "inputs": [],
      "name": "IncreOwnable_TransferZeroAddress",
      "type": "error"
    },
    {
      "inputs": [],
      "name": "Insurance_ClearingHouseZeroAddress",
      "type": "error"
    },
    {
      "inputs": [],
      "name": "Insurance_InsufficientBalance",
      "type": "error"
    },
    {
      "inputs": [],
      "name": "Insurance_InsufficientInsurance",
      "type": "error"
    },
    {
      "inputs": [],
      "name": "Insurance_SenderNotClearingHouse",
      "type": "error"
    },
    {
      "inputs": [],
      "name": "Insurance_SenderNotVault",
      "type": "error"
    },
    {
      "inputs": [
        {
          "internalType": "uint8",
          "name": "paramIndex",
          "type": "uint8"
        }
      ],
      "name": "Insurance_ZeroAddressConstructor",
      "type": "error"
    },
    {
      "inputs": [
        {
          "internalType": "uint256",
          "name": "prod1",
          "type": "uint256"
        }
      ],
      "name": "PRBMath__MulDivFixedPointOverflow",
      "type": "error"
    },
    {
      "anonymous": false,
      "inputs": [
        {
          "indexed": false,
          "internalType": "contract IClearingHouse",
          "name": "newClearingHouse",
          "type": "address"
        }
      ],
      "name": "ClearingHouseChanged",
      "type": "event"
    },
    {
      "anonymous": false,
      "inputs": [
        {
          "indexed": false,
          "internalType": "uint256",
          "name": "amount",
          "type": "uint256"
        }
      ],
      "name": "InsuranceRemoved",
      "type": "event"
    },
    {
      "anonymous": false,
      "inputs": [
        {
          "indexed": false,
          "internalType": "uint256",
          "name": "amount",
          "type": "uint256"
        }
      ],
      "name": "SettleDebt",
      "type": "event"
    },
    {
      "anonymous": false,
      "inputs": [
        {
          "indexed": false,
          "internalType": "uint256",
          "name": "amount",
          "type": "uint256"
        }
      ],
      "name": "SystemDebtGenerated",
      "type": "event"
    },
    {
      "anonymous": false,
      "inputs": [
        {
          "indexed": true,
          "internalType": "address",
          "name": "sender",
          "type": "address"
        },
        {
          "indexed": true,
          "internalType": "address",
          "name": "recipient",
          "type": "address"
        }
      ],
      "name": "TransferOwner",
      "type": "event"
    },
    {
      "anonymous": false,
      "inputs": [
        {
          "indexed": true,
          "internalType": "address",
          "name": "sender",
          "type": "address"
        },
        {
          "indexed": true,
          "internalType": "address",
          "name": "recipient",
          "type": "address"
        }
      ],
      "name": "TransferOwnerClaim",
      "type": "event"
    },
    {
      "inputs": [],
      "name": "claimOwner",
      "outputs": [],
      "stateMutability": "nonpayable",
      "type": "function"
    },
    {
      "inputs": [],
      "name": "clearingHouse",
      "outputs": [
        {
          "internalType": "contract IClearingHouse",
          "name": "",
          "type": "address"
        }
      ],
      "stateMutability": "view",
      "type": "function"
    },
    {
      "inputs": [],
      "name": "owner",
      "outputs": [
        {
          "internalType": "address",
          "name": "",
          "type": "address"
        }
      ],
      "stateMutability": "view",
      "type": "function"
    },
    {
      "inputs": [],
      "name": "pendingOwner",
      "outputs": [
        {
          "internalType": "address",
          "name": "",
          "type": "address"
        }
      ],
      "stateMutability": "view",
      "type": "function"
    },
    {
      "inputs": [
        {
          "internalType": "uint256",
          "name": "amount",
          "type": "uint256"
        }
      ],
      "name": "removeInsurance",
      "outputs": [],
      "stateMutability": "nonpayable",
      "type": "function"
    },
    {
      "inputs": [
        {
          "internalType": "contract IClearingHouse",
          "name": "newClearingHouse",
          "type": "address"
        }
      ],
      "name": "setClearingHouse",
      "outputs": [],
      "stateMutability": "nonpayable",
      "type": "function"
    },
    {
      "inputs": [
        {
          "internalType": "uint256",
          "name": "amount",
          "type": "uint256"
        }
      ],
      "name": "settleDebt",
      "outputs": [],
      "stateMutability": "nonpayable",
      "type": "function"
    },
    {
      "inputs": [],
      "name": "systemBadDebt",
      "outputs": [
        {
          "internalType": "uint256",
          "name": "",
          "type": "uint256"
        }
      ],
      "stateMutability": "view",
      "type": "function"
    },
    {
      "inputs": [],
      "name": "token",
      "outputs": [
        {
          "internalType": "contract IERC20Metadata",
          "name": "",
          "type": "address"
        }
      ],
      "stateMutability": "view",
      "type": "function"
    },
    {
      "inputs": [
        {
          "internalType": "address",
          "name": "recipient",
          "type": "address"
        },
        {
          "internalType": "bool",
          "name": "direct",
          "type": "bool"
        }
      ],
      "name": "transferOwner",
      "outputs": [],
      "stateMutability": "nonpayable",
      "type": "function"
    },
    {
      "inputs": [],
      "name": "vault",
      "outputs": [
        {
          "internalType": "contract IVault",
          "name": "",
          "type": "address"
        }
      ],
      "stateMutability": "view",
      "type": "function"
    }
  ],
  "transactionHash": "0x885794b13ff4f51b6722d40d20e266fcbd19ce11eb6fc99448c4073577b40235",
  "args": [
    "0x0fc75C7aFBe5b2dBb980539aa2775902b53fcaF1",
    "0xE859bDC7975C90dC178F041b0647B40C52548bbE"
  ],
  "solcInputHash": "0e343dabaf86f1433359bcaf3343f5ad",
  "bytecode": "0x608060405234801561001057600080fd5b50604051610e26380380610e2683398101604081905261002f91610127565b600080546001600160a01b0319163390811782556040519091907f5bb496b3f951b55d3a1d8e479725a4d25bdc7644fc355f0b71c540354820a1c5908290a360016002556001600160a01b0382166100a2576040516343da8c9b60e01b8152600060048201526024015b60405180910390fd5b6001600160a01b0381166100cc576040516343da8c9b60e01b815260016004820152602401610099565b6001600160a01b0381166100f6576040516343da8c9b60e01b815260026004820152602401610099565b600380546001600160a01b039384166001600160a01b03199182161790915560048054929093169116179055610178565b60008060408385031215610139578182fd5b825161014481610160565b602084015190925061015581610160565b809150509250929050565b6001600160a01b038116811461017557600080fd5b50565b610c9f806101876000396000f3fe608060405234801561001057600080fd5b50600436106100a95760003560e01c80638da5cb5b116100715780638da5cb5b14610125578063a2d97b7414610138578063cf81afaa1461014b578063e30c39781461015e578063fbfa77cf14610171578063fc0c546a1461018457600080fd5b80630af96800146100ae57806327a0bb33146100de5780633bd1adec146100f3578063449323d8146100fb57806373bc6c9f1461010e575b600080fd5b6005546100c1906001600160a01b031681565b6040516001600160a01b0390911681526020015b60405180910390f35b6100f16100ec366004610b4f565b610197565b005b6100f1610306565b6100f1610109366004610b33565b610389565b61011760065481565b6040519081526020016100d5565b6000546100c1906001600160a01b031681565b6100f1610146366004610b4f565b61042f565b6100f1610159366004610adf565b610668565b6001546100c1906001600160a01b031681565b6004546100c1906001600160a01b031681565b6003546100c1906001600160a01b031681565b6004546001600160a01b031633146101c2576040516395d87ba960e01b815260040160405180910390fd5b6003546040516370a0823160e01b81523060048201526000916001600160a01b0316906370a082319060240160206040518083038186803b15801561020657600080fd5b505afa15801561021a573d6000803e3d6000fd5b505050506040513d601f19601f8201168201806040525081019061023e9190610b67565b90506000818311156102ae5750806102568184610be6565b600660008282546102679190610bce565b909155507f552b11cf8b56c31e8b93a0edba54fb3e7df76355b9589263d2e5b7ece7d722f290506102988385610be6565b60405190815260200160405180910390a16102b1565b50815b6040518181527f5b5d911bd2a8a4832606408367e167dd6131ee6e9312c4481539fc85935c13829060200160405180910390a1600454600354610301916001600160a01b03918216911683610759565b505050565b6001546001600160a01b0316331461033157604051636d0c59cb60e01b815260040160405180910390fd5b6000805460405133926001600160a01b03909216917f5bb496b3f951b55d3a1d8e479725a4d25bdc7644fc355f0b71c540354820a1c591a3600080546001600160a01b03199081163317909155600180549091169055565b6000546001600160a01b031633146103b457604051637d369bab60e11b815260040160405180910390fd5b6001600160a01b0381166103db5760405163013ada8560e51b815260040160405180910390fd5b600580546001600160a01b0319166001600160a01b0383169081179091556040519081527fd0654f5900f9e7e4e605a19334306e6a2786bbf960ac0484a4c12feb6428fe2f9060200160405180910390a150565b6000546001600160a01b0316331461045a57604051637d369bab60e11b815260040160405180910390fd5b6000600460009054906101000a90046001600160a01b03166001600160a01b031663b26025aa6040518163ffffffff1660e01b815260040160206040518083038186803b1580156104aa57600080fd5b505afa1580156104be573d6000803e3d6000fd5b505050506040513d601f19601f820116820180604052508101906104e29190610b67565b6003546040516370a0823160e01b81523060048201529192506000916001600160a01b03909116906370a082319060240160206040518083038186803b15801561052b57600080fd5b505afa15801561053f573d6000803e3d6000fd5b505050506040513d601f19601f820116820180604052508101906105639190610b67565b90506105f5600560009054906101000a90046001600160a01b03166001600160a01b0316637d5d95356040518163ffffffff1660e01b815260040160206040518083038186803b1580156105b657600080fd5b505afa1580156105ca573d6000803e3d6000fd5b505050506040513d601f19601f820116820180604052508101906105ee9190610b67565b83906107ab565b6105ff8483610be6565b101561061e576040516355a299a960e11b815260040160405180910390fd5b6040518381527f72bf0414a0ef58085c552e0481124322b66511733d37fa0482fd454ec21873d49060200160405180910390a1600354610301906001600160a01b03163385610759565b6000546001600160a01b0316331461069357604051637d369bab60e11b815260040160405180910390fd5b6001600160a01b0382166106ba5760405163755a183760e01b815260040160405180910390fd5b801561070c57600080546001600160a01b0319166001600160a01b0384169081178255604051909133917f5bb496b3f951b55d3a1d8e479725a4d25bdc7644fc355f0b71c540354820a1c59190a35050565b600180546001600160a01b0319166001600160a01b03841690811790915560405133907f87f5c8846f4c51400fa448cfb84edcec5cc0f333b6d20a5b903e050823dcb66790600090a35050565b604080516001600160a01b038416602482015260448082018490528251808303909101815260649091019091526020810180516001600160e01b031663a9059cbb60e01b1790526103019084906107c0565b60006107b78383610897565b90505b92915050565b6000610815826040518060400160405280602081526020017f5361666545524332303a206c6f772d6c6576656c2063616c6c206661696c6564815250856001600160a01b03166108a39092919063ffffffff16565b80519091501561030157808060200190518101906108339190610b17565b6103015760405162461bcd60e51b815260206004820152602a60248201527f5361666545524332303a204552433230206f7065726174696f6e20646964206e6044820152691bdd081cdd58d8d9595960b21b60648201526084015b60405180910390fd5b60006107b783836108bc565b60606108b2848460008561097e565b90505b9392505050565b60008080600019848609848602925082811083820303915050670de0b6b3a764000081106109005760405163698d9a0160e11b81526004810182905260240161088e565b600080670de0b6b3a76400008688099150506706f05b59d3b1ffff81118261093a5780670de0b6b3a76400008504019450505050506107ba565b620400008285030493909111909103600160ee1b02919091177faccb18165bd6fe31ae1cf318dc5b51eee0e1ba569b88cd74c1773b91fac106690201905092915050565b6060824710156109df5760405162461bcd60e51b815260206004820152602660248201527f416464726573733a20696e73756666696369656e742062616c616e636520666f6044820152651c8818d85b1b60d21b606482015260840161088e565b843b610a2d5760405162461bcd60e51b815260206004820152601d60248201527f416464726573733a2063616c6c20746f206e6f6e2d636f6e7472616374000000604482015260640161088e565b600080866001600160a01b03168587604051610a499190610b7f565b60006040518083038185875af1925050503d8060008114610a86576040519150601f19603f3d011682016040523d82523d6000602084013e610a8b565b606091505b5091509150610a9b828286610aa6565b979650505050505050565b60608315610ab55750816108b5565b825115610ac55782518084602001fd5b8160405162461bcd60e51b815260040161088e9190610b9b565b60008060408385031215610af1578182fd5b8235610afc81610c43565b91506020830135610b0c81610c5b565b809150509250929050565b600060208284031215610b28578081fd5b81516108b581610c5b565b600060208284031215610b44578081fd5b81356108b581610c43565b600060208284031215610b60578081fd5b5035919050565b600060208284031215610b78578081fd5b5051919050565b60008251610b91818460208701610bfd565b9190910192915050565b6020815260008251806020840152610bba816040850160208701610bfd565b601f01601f19169190910160400192915050565b60008219821115610be157610be1610c2d565b500190565b600082821015610bf857610bf8610c2d565b500390565b60005b83811015610c18578181015183820152602001610c00565b83811115610c27576000848401525b50505050565b634e487b7160e01b600052601160045260246000fd5b6001600160a01b0381168114610c5857600080fd5b50565b8015158114610c5857600080fdfea2646970667358221220d6d3f8327efa85aa70c2bb9d2f75910e9d7c09206eb0e58afc8b9fab2c7abe3f64736f6c63430008040033",
  "devdoc": {
    "kind": "dev",
    "methods": {
      "removeInsurance(uint256)": {
        "details": "Only be called by the owner of the contract"
      },
      "settleDebt(uint256)": {
        "params": {
          "amount": "Amount of tokens withdrawn for settlement"
        }
      },
      "transferOwner(address,bool)": {
        "params": {
          "direct": "If 'true', ownership is directly transferred.",
          "recipient": "Account granted `owner` access control."
        }
      }
    },
    "version": 1
  },
  "userdoc": {
    "errors": {
      "IncreOwnable_NotOwner()": [
        {
          "notice": "Emitted when the sender is not the owner"
        }
      ],
      "IncreOwnable_NotPendingOwner()": [
        {
          "notice": "Emitted when the sender is not the pending owner"
        }
      ],
      "IncreOwnable_TransferZeroAddress()": [
        {
          "notice": "Emitted when the proposed owner is equal to the zero address"
        }
      ],
      "Insurance_ClearingHouseZeroAddress()": [
        {
          "notice": "Emitted when the proposed clearingHouse address is equal to the zero address"
        }
      ],
      "Insurance_InsufficientBalance()": [
        {
          "notice": "Emitted when the balance of the vault is less than the amount to be settled"
        }
      ],
      "Insurance_InsufficientInsurance()": [
        {
          "notice": "Emitted when locked insurance falls below insurance ratio"
        }
      ],
      "Insurance_SenderNotClearingHouse()": [
        {
          "notice": "Emitted when the sender is not the clearingHouse address"
        }
      ],
      "Insurance_SenderNotVault()": [
        {
          "notice": "Emitted when the sender is not the vault address"
        }
      ],
      "Insurance_ZeroAddressConstructor(uint8)": [
        {
          "notice": "Emitted when the zero address is provided as a parameter in the constructor"
        }
      ],
      "PRBMath__MulDivFixedPointOverflow(uint256)": [
        {
          "notice": "Emitted when the result overflows uint256."
        }
      ]
    },
    "events": {
      "ClearingHouseChanged(address)": {
        "notice": "Emitted when a new ClearingHouse is connected to the issuer"
      },
      "InsuranceRemoved(uint256)": {
        "notice": "Emitted when (exceeding) insurance reserves are withdrawn by governance"
      },
      "SettleDebt(uint256)": {
        "notice": "Emitted when a bail out is asked for by the Vault"
      },
      "SystemDebtGenerated(uint256)": {
        "notice": "Emitted when a bail out cant be fully served"
      }
    },
    "kind": "user",
    "methods": {
      "claimOwner()": {
        "notice": "`pendingOwner` can claim `owner` account."
      },
      "clearingHouse()": {
        "notice": "ClearingHouse contract"
      },
      "removeInsurance(uint256)": {
        "notice": "Withdraw remaining balance of the contract"
      },
      "settleDebt(uint256)": {
        "notice": "Settle bad debt generated by the vault"
      },
      "systemBadDebt()": {
        "notice": "Debt which could not be settled by insurance"
      },
      "token()": {
        "notice": "Insurance token"
      },
      "transferOwner(address,bool)": {
        "notice": "Transfer `owner` account."
      },
      "vault()": {
        "notice": "Vault contract"
      }
    },
    "notice": "Pays out Vault in case of default",
    "version": 1
  },
  "storageLayout": {
    "storage": [
      {
        "astId": 12395,
        "contract": "contracts/Insurance.sol:Insurance",
        "label": "owner",
        "offset": 0,
        "slot": "0",
        "type": "t_address"
      },
      {
        "astId": 12397,
        "contract": "contracts/Insurance.sol:Insurance",
        "label": "pendingOwner",
        "offset": 0,
        "slot": "1",
        "type": "t_address"
      },
      {
        "astId": 253,
        "contract": "contracts/Insurance.sol:Insurance",
        "label": "_status",
        "offset": 0,
        "slot": "2",
        "type": "t_uint256"
      },
      {
        "astId": 4484,
        "contract": "contracts/Insurance.sol:Insurance",
        "label": "token",
        "offset": 0,
        "slot": "3",
        "type": "t_contract(IERC20Metadata)931"
      },
      {
        "astId": 4488,
        "contract": "contracts/Insurance.sol:Insurance",
        "label": "vault",
        "offset": 0,
        "slot": "4",
        "type": "t_contract(IVault)10684"
      },
      {
        "astId": 4492,
        "contract": "contracts/Insurance.sol:Insurance",
        "label": "clearingHouse",
        "offset": 0,
        "slot": "5",
        "type": "t_contract(IClearingHouse)9658"
      },
      {
        "astId": 4495,
        "contract": "contracts/Insurance.sol:Insurance",
        "label": "systemBadDebt",
        "offset": 0,
        "slot": "6",
        "type": "t_uint256"
      }
    ],
    "types": {
      "t_address": {
        "encoding": "inplace",
        "label": "address",
        "numberOfBytes": "20"
      },
      "t_contract(IClearingHouse)9658": {
        "encoding": "inplace",
        "label": "contract IClearingHouse",
        "numberOfBytes": "20"
      },
      "t_contract(IERC20Metadata)931": {
        "encoding": "inplace",
        "label": "contract IERC20Metadata",
        "numberOfBytes": "20"
      },
      "t_contract(IVault)10684": {
        "encoding": "inplace",
        "label": "contract IVault",
        "numberOfBytes": "20"
      },
      "t_uint256": {
        "encoding": "inplace",
        "label": "uint256",
        "numberOfBytes": "32"
      }
    }
  }
}