{
  "address": "0xA68480a789c5964C09f1c6D68BF2C78028945A0c",
  "abi": [
    {
      "inputs": [
        {
          "internalType": "contract IVBase",
          "name": "_vBase",
          "type": "address"
        },
        {
          "internalType": "contract IVQuote",
          "name": "_vQuote",
          "type": "address"
        },
        {
          "internalType": "contract ICryptoSwap",
          "name": "_market",
          "type": "address"
        },
        {
          "internalType": "contract IClearingHouse",
          "name": "_clearingHouse",
          "type": "address"
        },
        {
          "internalType": "int256",
          "name": "_insuranceFee",
          "type": "int256"
        },
        {
          "internalType": "int256",
          "name": "_perpTradingFee",
          "type": "int256"
        }
      ],
      "stateMutability": "nonpayable",
      "type": "constructor"
    },
    {
      "inputs": [],
      "name": "PRBMathSD59x18__AbsInputTooSmall",
      "type": "error"
    },
    {
      "inputs": [],
      "name": "PRBMathSD59x18__DivInputTooSmall",
      "type": "error"
    },
    {
      "inputs": [
        {
          "internalType": "uint256",
          "name": "rAbs",
          "type": "uint256"
        }
      ],
      "name": "PRBMathSD59x18__DivOverflow",
      "type": "error"
    },
    {
      "inputs": [],
      "name": "PRBMathSD59x18__MulInputTooSmall",
      "type": "error"
    },
    {
      "inputs": [
        {
          "internalType": "uint256",
          "name": "rAbs",
          "type": "uint256"
        }
      ],
      "name": "PRBMathSD59x18__MulOverflow",
      "type": "error"
    },
    {
      "inputs": [
        {
          "internalType": "uint256",
          "name": "prod1",
          "type": "uint256"
        }
      ],
      "name": "PRBMath__MulDivFixedPointOverflow",
      "type": "error"
    },
    {
      "inputs": [
        {
          "internalType": "uint256",
          "name": "prod1",
          "type": "uint256"
        },
        {
          "internalType": "uint256",
          "name": "denominator",
          "type": "uint256"
        }
      ],
      "name": "PRBMath__MulDivOverflow",
      "type": "error"
    },
    {
      "inputs": [],
      "name": "Perpetual_AttemptReducePosition",
      "type": "error"
    },
    {
      "inputs": [],
      "name": "Perpetual_ExcessivePriceImpact",
      "type": "error"
    },
    {
      "inputs": [
        {
          "internalType": "int256",
          "name": "fee",
          "type": "int256"
        }
      ],
      "name": "Perpetual_InsuranceFeeExcessive",
      "type": "error"
    },
    {
      "inputs": [
        {
          "internalType": "int256",
          "name": "fee",
          "type": "int256"
        }
      ],
      "name": "Perpetual_InsuranceFeeInsufficient",
      "type": "error"
    },
    {
      "inputs": [],
      "name": "Perpetual_LPOpenPosition",
      "type": "error"
    },
    {
      "inputs": [],
      "name": "Perpetual_LPWithdrawExceedsBalance",
      "type": "error"
    },
    {
      "inputs": [
        {
          "internalType": "uint256",
          "name": "tokenIndex",
          "type": "uint256"
        }
      ],
      "name": "Perpetual_MarketBalanceTooLow",
      "type": "error"
    },
    {
      "inputs": [],
      "name": "Perpetual_MarketEqualFees",
      "type": "error"
    },
    {
      "inputs": [],
      "name": "Perpetual_NoOpenPosition",
      "type": "error"
    },
    {
      "inputs": [],
      "name": "Perpetual_ProposedAmountExceedsMaxMarketPrice",
      "type": "error"
    },
    {
      "inputs": [],
      "name": "Perpetual_ProposedAmountExceedsPositionSize",
      "type": "error"
    },
    {
      "inputs": [],
      "name": "Perpetual_SenderNotClearingHouse",
      "type": "error"
    },
    {
      "inputs": [],
      "name": "Perpetual_SenderNotClearingHouseOwner",
      "type": "error"
    },
    {
      "inputs": [
        {
          "internalType": "int256",
          "name": "fee",
          "type": "int256"
        }
      ],
      "name": "Perpetual_TradingFeeExcessive",
      "type": "error"
    },
    {
      "inputs": [
        {
          "internalType": "int256",
          "name": "fee",
          "type": "int256"
        }
      ],
      "name": "Perpetual_TradingFeeInsufficient",
      "type": "error"
    },
    {
      "inputs": [
        {
          "internalType": "uint256",
          "name": "tokenIndex",
          "type": "uint256"
        }
      ],
      "name": "Perpetual_VirtualTokenApprovalConstructor",
      "type": "error"
    },
    {
      "inputs": [
        {
          "internalType": "uint256",
          "name": "paramIndex",
          "type": "uint256"
        }
      ],
      "name": "Perpetual_ZeroAddressConstructor",
      "type": "error"
    },
    {
      "anonymous": false,
      "inputs": [
        {
          "indexed": false,
          "internalType": "uint256",
          "name": "vBaseAmount",
          "type": "uint256"
        }
      ],
      "name": "DustGenerated",
      "type": "event"
    },
    {
      "anonymous": false,
      "inputs": [
        {
          "indexed": false,
          "internalType": "int256",
          "name": "cumulativeFundingRate",
          "type": "int256"
        },
        {
          "indexed": false,
          "internalType": "int256",
          "name": "fundingRate",
          "type": "int256"
        }
      ],
      "name": "FundingRateUpdated",
      "type": "event"
    },
    {
      "anonymous": false,
      "inputs": [
        {
          "indexed": false,
          "internalType": "int256",
          "name": "newInsuranceFee",
          "type": "int256"
        }
      ],
      "name": "InsuranceFeeChanged",
      "type": "event"
    },
    {
      "anonymous": false,
      "inputs": [
        {
          "indexed": false,
          "internalType": "string",
          "name": "errorMessage",
          "type": "string"
        }
      ],
      "name": "Log",
      "type": "event"
    },
    {
      "anonymous": false,
      "inputs": [
        {
          "indexed": false,
          "internalType": "address",
          "name": "account",
          "type": "address"
        }
      ],
      "name": "Paused",
      "type": "event"
    },
    {
      "anonymous": false,
      "inputs": [
        {
          "indexed": false,
          "internalType": "int256",
          "name": "newTradingFee",
          "type": "int256"
        }
      ],
      "name": "TradingFeeChanged",
      "type": "event"
    },
    {
      "anonymous": false,
      "inputs": [
        {
          "indexed": false,
          "internalType": "int256",
          "name": "newOracleTwap",
          "type": "int256"
        },
        {
          "indexed": false,
          "internalType": "int256",
          "name": "newMarketTwap",
          "type": "int256"
        }
      ],
      "name": "TwapUpdated",
      "type": "event"
    },
    {
      "anonymous": false,
      "inputs": [
        {
          "indexed": false,
          "internalType": "address",
          "name": "account",
          "type": "address"
        }
      ],
      "name": "Unpaused",
      "type": "event"
    },
    {
      "inputs": [],
      "name": "clearingHouse",
      "outputs": [
        {
          "internalType": "contract IClearingHouse",
          "name": "",
          "type": "address"
        }
      ],
      "stateMutability": "view",
      "type": "function"
    },
    {
      "inputs": [
        {
          "internalType": "address",
          "name": "account",
          "type": "address"
        },
        {
          "internalType": "uint256",
          "name": "amount",
          "type": "uint256"
        },
        {
          "internalType": "enum LibPerpetual.Side",
          "name": "direction",
          "type": "uint8"
        },
        {
          "internalType": "uint256",
          "name": "minAmount",
          "type": "uint256"
        }
      ],
      "name": "extendPosition",
      "outputs": [
        {
          "internalType": "int256",
          "name": "openNotional",
          "type": "int256"
        },
        {
          "internalType": "int256",
          "name": "positionSize",
          "type": "int256"
        },
        {
          "internalType": "int256",
          "name": "tradingFees",
          "type": "int256"
        }
      ],
      "stateMutability": "nonpayable",
      "type": "function"
    },
    {
      "inputs": [],
      "name": "getGlobalPosition",
      "outputs": [
        {
          "components": [
            {
              "internalType": "uint128",
              "name": "timeOfLastTrade",
              "type": "uint128"
            },
            {
              "internalType": "uint128",
              "name": "timeOfLastTwapUpdate",
              "type": "uint128"
            },
            {
              "internalType": "int256",
              "name": "cumFundingRate",
              "type": "int256"
            },
            {
              "internalType": "int256",
              "name": "blockStartPrice",
              "type": "int256"
            },
            {
              "internalType": "uint256",
              "name": "totalTradingFeesGrowth",
              "type": "uint256"
            },
            {
              "internalType": "uint256",
              "name": "totalLiquidityProvided",
              "type": "uint256"
            },
            {
              "internalType": "uint256",
              "name": "totalBaseFeesGrowth",
              "type": "uint256"
            },
            {
              "internalType": "uint256",
              "name": "totalQuoteFeesGrowth",
              "type": "uint256"
            }
          ],
          "internalType": "struct LibPerpetual.GlobalPosition",
          "name": "",
          "type": "tuple"
        }
      ],
      "stateMutability": "view",
      "type": "function"
    },
    {
      "inputs": [],
      "name": "getInsuranceFee",
      "outputs": [
        {
          "internalType": "int256",
          "name": "",
          "type": "int256"
        }
      ],
      "stateMutability": "view",
      "type": "function"
    },
    {
      "inputs": [
        {
          "internalType": "address",
          "name": "account",
          "type": "address"
        }
      ],
      "name": "getLpFundingPayments",
      "outputs": [
        {
          "internalType": "int256",
          "name": "upcomingFundingPayment",
          "type": "int256"
        }
      ],
      "stateMutability": "view",
      "type": "function"
    },
    {
      "inputs": [
        {
          "internalType": "address",
          "name": "account",
          "type": "address"
        }
      ],
      "name": "getLpPosition",
      "outputs": [
        {
          "components": [
            {
              "internalType": "int256",
              "name": "openNotional",
              "type": "int256"
            },
            {
              "internalType": "int256",
              "name": "positionSize",
              "type": "int256"
            },
            {
              "internalType": "int256",
              "name": "cumFundingRate",
              "type": "int256"
            },
            {
              "internalType": "uint256",
              "name": "liquidityBalance",
              "type": "uint256"
            },
            {
              "internalType": "uint256",
              "name": "totalTradingFeesGrowth",
              "type": "uint256"
            },
            {
              "internalType": "uint256",
              "name": "totalBaseFeesGrowth",
              "type": "uint256"
            },
            {
              "internalType": "uint256",
              "name": "totalQuoteFeesGrowth",
              "type": "uint256"
            }
          ],
          "internalType": "struct LibPerpetual.LiquidityProviderPosition",
          "name": "",
          "type": "tuple"
        }
      ],
      "stateMutability": "view",
      "type": "function"
    },
    {
      "inputs": [
        {
          "internalType": "address",
          "name": "account",
          "type": "address"
        }
      ],
      "name": "getLpPositionAfterWithdrawal",
      "outputs": [
        {
          "components": [
            {
              "internalType": "int256",
              "name": "openNotional",
              "type": "int256"
            },
            {
              "internalType": "int256",
              "name": "positionSize",
              "type": "int256"
            },
            {
              "internalType": "int256",
              "name": "cumFundingRate",
              "type": "int256"
            }
          ],
          "internalType": "struct LibPerpetual.TraderPosition",
          "name": "",
          "type": "tuple"
        }
      ],
      "stateMutability": "view",
      "type": "function"
    },
    {
      "inputs": [
        {
          "internalType": "address",
          "name": "account",
          "type": "address"
        }
      ],
      "name": "getLpTradingFees",
      "outputs": [
        {
          "internalType": "uint256",
          "name": "tradingFeesEarned",
          "type": "uint256"
        }
      ],
      "stateMutability": "view",
      "type": "function"
    },
    {
      "inputs": [
        {
          "internalType": "address",
          "name": "account",
          "type": "address"
        }
      ],
      "name": "getLpUnrealizedPnL",
      "outputs": [
        {
          "internalType": "int256",
          "name": "pnl",
          "type": "int256"
        }
      ],
      "stateMutability": "view",
      "type": "function"
    },
    {
      "inputs": [],
      "name": "getMarketTwap",
      "outputs": [
        {
          "internalType": "int256",
          "name": "",
          "type": "int256"
        }
      ],
      "stateMutability": "view",
      "type": "function"
    },
    {
      "inputs": [],
      "name": "getOracleTwap",
      "outputs": [
        {
          "internalType": "int256",
          "name": "",
          "type": "int256"
        }
      ],
      "stateMutability": "view",
      "type": "function"
    },
    {
      "inputs": [],
      "name": "getTotalLiquidityProvided",
      "outputs": [
        {
          "internalType": "uint256",
          "name": "",
          "type": "uint256"
        }
      ],
      "stateMutability": "view",
      "type": "function"
    },
    {
      "inputs": [
        {
          "internalType": "address",
          "name": "account",
          "type": "address"
        }
      ],
      "name": "getTraderFundingPayments",
      "outputs": [
        {
          "internalType": "int256",
          "name": "upcomingFundingPayment",
          "type": "int256"
        }
      ],
      "stateMutability": "view",
      "type": "function"
    },
    {
      "inputs": [
        {
          "internalType": "address",
          "name": "account",
          "type": "address"
        }
      ],
      "name": "getTraderPosition",
      "outputs": [
        {
          "components": [
            {
              "internalType": "int256",
              "name": "openNotional",
              "type": "int256"
            },
            {
              "internalType": "int256",
              "name": "positionSize",
              "type": "int256"
            },
            {
              "internalType": "int256",
              "name": "cumFundingRate",
              "type": "int256"
            }
          ],
          "internalType": "struct LibPerpetual.TraderPosition",
          "name": "",
          "type": "tuple"
        }
      ],
      "stateMutability": "view",
      "type": "function"
    },
    {
      "inputs": [
        {
          "internalType": "address",
          "name": "account",
          "type": "address"
        }
      ],
      "name": "getTraderUnrealizedPnL",
      "outputs": [
        {
          "internalType": "int256",
          "name": "pnl",
          "type": "int256"
        }
      ],
      "stateMutability": "view",
      "type": "function"
    },
    {
      "inputs": [],
      "name": "getTradingFee",
      "outputs": [
        {
          "internalType": "int256",
          "name": "",
          "type": "int256"
        }
      ],
      "stateMutability": "view",
      "type": "function"
    },
    {
      "inputs": [],
      "name": "indexPrice",
      "outputs": [
        {
          "internalType": "int256",
          "name": "",
          "type": "int256"
        }
      ],
      "stateMutability": "view",
      "type": "function"
    },
    {
      "inputs": [],
      "name": "market",
      "outputs": [
        {
          "internalType": "contract ICryptoSwap",
          "name": "",
          "type": "address"
        }
      ],
      "stateMutability": "view",
      "type": "function"
    },
    {
      "inputs": [],
      "name": "marketPrice",
      "outputs": [
        {
          "internalType": "uint256",
          "name": "",
          "type": "uint256"
        }
      ],
      "stateMutability": "view",
      "type": "function"
    },
    {
      "inputs": [],
      "name": "pause",
      "outputs": [],
      "stateMutability": "nonpayable",
      "type": "function"
    },
    {
      "inputs": [],
      "name": "paused",
      "outputs": [
        {
          "internalType": "bool",
          "name": "",
          "type": "bool"
        }
      ],
      "stateMutability": "view",
      "type": "function"
    },
    {
      "inputs": [
        {
          "internalType": "address",
          "name": "account",
          "type": "address"
        },
        {
          "internalType": "uint256",
          "name": "wadAmount",
          "type": "uint256"
        },
        {
          "internalType": "uint256",
          "name": "minLpAmount",
          "type": "uint256"
        }
      ],
      "name": "provideLiquidity",
      "outputs": [
        {
          "internalType": "int256",
          "name": "tradingFees",
          "type": "int256"
        }
      ],
      "stateMutability": "nonpayable",
      "type": "function"
    },
    {
      "inputs": [
        {
          "internalType": "address",
          "name": "account",
          "type": "address"
        },
        {
          "internalType": "uint256",
          "name": "proposedAmount",
          "type": "uint256"
        },
        {
          "internalType": "uint256",
          "name": "minAmount",
          "type": "uint256"
        }
      ],
      "name": "reducePosition",
      "outputs": [
        {
          "internalType": "int256",
          "name": "vQuoteProceeds",
          "type": "int256"
        },
        {
          "internalType": "int256",
          "name": "vBaseAmount",
          "type": "int256"
        },
        {
          "internalType": "int256",
          "name": "profit",
          "type": "int256"
        }
      ],
      "stateMutability": "nonpayable",
      "type": "function"
    },
    {
      "inputs": [
        {
          "internalType": "address",
          "name": "account",
          "type": "address"
        },
        {
          "internalType": "uint256",
          "name": "liquidityAmountToRemove",
          "type": "uint256"
        },
        {
          "internalType": "uint256[2]",
          "name": "minVTokenAmounts",
          "type": "uint256[2]"
        },
        {
          "internalType": "uint256",
          "name": "proposedAmount",
          "type": "uint256"
        },
        {
          "internalType": "uint256",
          "name": "minAmount",
          "type": "uint256"
        }
      ],
      "name": "removeLiquidity",
      "outputs": [
        {
          "internalType": "int256",
          "name": "profit",
          "type": "int256"
        },
        {
          "internalType": "uint256",
          "name": "reductionRatio",
          "type": "uint256"
        }
      ],
      "stateMutability": "nonpayable",
      "type": "function"
    },
    {
      "inputs": [
        {
          "internalType": "int256",
          "name": "newInsuranceFee",
          "type": "int256"
        }
      ],
      "name": "setInsuranceFee",
      "outputs": [],
      "stateMutability": "nonpayable",
      "type": "function"
    },
    {
      "inputs": [
        {
          "internalType": "int256",
          "name": "newTradingFee",
          "type": "int256"
        }
      ],
      "name": "setTradingFee",
      "outputs": [],
      "stateMutability": "nonpayable",
      "type": "function"
    },
    {
      "inputs": [
        {
          "internalType": "address",
          "name": "account",
          "type": "address"
        }
      ],
      "name": "settleLp",
      "outputs": [
        {
          "internalType": "int256",
          "name": "fundingPayments",
          "type": "int256"
        }
      ],
      "stateMutability": "nonpayable",
      "type": "function"
    },
    {
      "inputs": [
        {
          "internalType": "address",
          "name": "account",
          "type": "address"
        }
      ],
      "name": "settleTrader",
      "outputs": [
        {
          "internalType": "int256",
          "name": "fundingPayments",
          "type": "int256"
        }
      ],
      "stateMutability": "nonpayable",
      "type": "function"
    },
    {
      "inputs": [],
      "name": "unpause",
      "outputs": [],
      "stateMutability": "nonpayable",
      "type": "function"
    },
    {
      "inputs": [],
      "name": "vBase",
      "outputs": [
        {
          "internalType": "contract IVBase",
          "name": "",
          "type": "address"
        }
      ],
      "stateMutability": "view",
      "type": "function"
    },
    {
      "inputs": [],
      "name": "vQuote",
      "outputs": [
        {
          "internalType": "contract IVQuote",
          "name": "",
          "type": "address"
        }
      ],
      "stateMutability": "view",
      "type": "function"
    }
  ],
  "transactionHash": "0x647446bc9905b8b3cc0bedda8b2e4c290798b2f0d882449621d14f679b6d6e64",
  "args": [
    "0x23c1c427b1FDBe271eb715B080AB2C92F1d4B5C0",
    "0x457901AC17450b6448F85ccbD362aF10910634B4",
    "0xFD484A99d21CA118f22871134f467B1ca3F842Aa",
    "0x9893AFB20987973bFbA9469EA7B288A9827c99cb",
    "10000000000000000",
    "10000000000000000"
  ],
  "solcInputHash": "0e343dabaf86f1433359bcaf3343f5ad",
  "bytecode": "0x60806040523480156200001157600080fd5b5060405162004aa438038062004aa48339810160408190526200003491620008d7565b6000805460ff191690556001600160a01b0386166200006e57604051630ff5573560e11b8152600060048201526024015b60405180910390fd5b6001600160a01b0385166200009a57604051630ff5573560e11b81526001600482015260240162000065565b6001600160a01b038416620000c657604051630ff5573560e11b81526002600482015260240162000065565b6001600160a01b038316620000f257604051630ff5573560e11b81526003600482015260240162000065565b600380546001600160a01b038881166001600160a01b031992831681179093556004805489831690841617815560068054898416908516811790915560058054938916939094169290921790925560405163095ea7b360e01b815291820152600019602482015263095ea7b390604401602060405180830381600087803b1580156200017d57600080fd5b505af115801562000192573d6000803e3d6000fd5b505050506040513d601f19601f82011682018060405250810190620001b89190620008b5565b620001da576040516333bdd5fb60e11b81526001600482015260240162000065565b6004805460405163095ea7b360e01b81526001600160a01b0387811693820193909352600019602482015291169063095ea7b390604401602060405180830381600087803b1580156200022c57600080fd5b505af115801562000241573d6000803e3d6000fd5b505050506040513d601f19601f82011682018060405250810190620002679190620008b5565b62000289576040516333bdd5fb60e11b81526000600482015260240162000065565b6200040c866001600160a01b03166358c0994a6040518163ffffffff1660e01b815260040160206040518083038186803b158015620002c757600080fd5b505afa158015620002dc573d6000803e3d6000fd5b505050506040513d601f19601f8201168201806040525081019062000302919062000952565b6200038c866001600160a01b031663c146bf946040518163ffffffff1660e01b815260040160206040518083038186803b1580156200034057600080fd5b505afa15801562000355573d6000803e3d6000fd5b505050506040513d601f19601f820116820180604052508101906200037b919062000952565b6200056160201b62001fac1760201c565b601091909155601381905560408051610100810182526001600160801b034216808252602082018190526000928201839052606082018490526080820183905260a0820183905260c0820183905260e0909101829052600160801b8102176007556008819055600991909155600a819055600b819055600c819055600d55565b62000417826200057f565b6200042281620006d2565b600660009054906101000a90046001600160a01b03166001600160a01b031663ee8de6756040518163ffffffff1660e01b815260040160206040518083038186803b1580156200047157600080fd5b505afa15801562000486573d6000803e3d6000fd5b505050506040513d601f19601f82011682018060405250810190620004ac919062000952565b600660009054906101000a90046001600160a01b03166001600160a01b03166392526c0c6040518163ffffffff1660e01b815260040160206040518083038186803b158015620004fb57600080fd5b505afa15801562000510573d6000803e3d6000fd5b505050506040513d601f19601f8201168201806040525081019062000536919062000952565b1462000555576040516307a4f52d60e01b815260040160405180910390fd5b50505050505062000984565b600062000579826200081f60201b62001fbd1760201c565b92915050565b600560009054906101000a90046001600160a01b03166001600160a01b031663893d20e86040518163ffffffff1660e01b815260040160206040518083038186803b158015620005ce57600080fd5b505afa158015620005e3573d6000803e3d6000fd5b505050506040513d601f19601f820116820180604052508101906200060991906200088f565b6001600160a01b0316336001600160a01b0316146200063b576040516302b45f1960e61b815260040160405180910390fd5b66038d7ea4c68000811215620006685760405163401eda4760e01b81526004810182905260240162000065565b670429d069189e00008113156200069657604051634eb5274960e11b81526004810182905260240162000065565b60028190556040518181527fef28986cbeea1cfa825493dd6fbd7516f7a3c29e5768fe75301d23055a3ea1bc906020015b60405180910390a150565b600560009054906101000a90046001600160a01b03166001600160a01b031663893d20e86040518163ffffffff1660e01b815260040160206040518083038186803b1580156200072157600080fd5b505afa15801562000736573d6000803e3d6000fd5b505050506040513d601f19601f820116820180604052508101906200075c91906200088f565b6001600160a01b0316336001600160a01b0316146200078e576040516302b45f1960e61b815260040160405180910390fd5b66038d7ea4c68000811215620007bb576040516317566f0560e01b81526004810182905260240162000065565b670429d069189e0000811315620007e957604051632600eb9960e01b81526004810182905260240162000065565b60018190556040518181527f5a87dbe22e27a84149d288703849709529ac46ee9095f32ec6d21ca85b6edb2790602001620006c7565b60006001600160ff1b038211156200088b5760405162461bcd60e51b815260206004820152602860248201527f53616665436173743a2076616c756520646f65736e27742066697420696e2061604482015267371034b73a191a9b60c11b606482015260840162000065565b5090565b600060208284031215620008a1578081fd5b8151620008ae816200096b565b9392505050565b600060208284031215620008c7578081fd5b81518015158114620008ae578182fd5b60008060008060008060c08789031215620008f0578182fd5b8651620008fd816200096b565b602088015190965062000910816200096b565b604088015190955062000923816200096b565b606088015190945062000936816200096b565b809350506080870151915060a087015190509295509295509295565b60006020828403121562000964578081fd5b5051919050565b6001600160a01b03811681146200098157600080fd5b50565b61411080620009946000396000f3fe608060405234801561001057600080fd5b50600436106101e55760003560e01c806376c469b61161010f578063a5f1ac9a116100a2578063cefc499311610071578063cefc499314610478578063d57ba73c146104e1578063daa53bc1146104e9578063fa9c7b9a146104fc57600080fd5b8063a5f1ac9a14610437578063aa407ae11461043f578063c5f1916c14610452578063c70fbda01461046557600080fd5b806380f55605116100de57806380f556051461039e5780638456cb59146103b157806389fd335b146103b95780639027b59e146103c157600080fd5b806376c469b61461033b578063793962d81461034e5780637f564fea1461038357806380e864fe1461038b57600080fd5b80633876d05511610187578063553b655711610156578063553b6557146102ec5780635b57398c146102ff5780635c975abb1461031257806369395df41461032857600080fd5b80633876d055146102b45780633f4ba83a146102c757806345a15388146102d15780634bc36bd6146102d957600080fd5b806316d183f0116101c357806316d183f0146102585780631bd8db03146102865780632bb9c9581461028e5780632d3eb79b146102a157600080fd5b80630666c268146101ea5780630af968001461021757806310bace8c14610242575b600080fd5b6101fd6101f8366004613d66565b61050f565b604080519283526020830191909152015b60405180910390f35b60055461022a906001600160a01b031681565b6040516001600160a01b03909116815260200161020e565b61024a61089f565b60405190815260200161020e565b61026b610266366004613e03565b610921565b6040805193845260208401929092529082015260600161020e565b60015461024a565b61024a61029c366004613e03565b610ab7565b61024a6102af366004613d2e565b610fb9565b61024a6102c2366004613d2e565b61107e565b6102cf611237565b005b61024a6112f8565b60045461022a906001600160a01b031681565b6102cf6102fa366004613e37565b61133d565b61026b61030d366004613db9565b611487565b60005460ff16604051901515815260200161020e565b61024a610336366004613d2e565b61161e565b61024a610349366004613d2e565b6116cf565b61036161035c366004613d2e565b61171a565b604080518251815260208084015190820152918101519082015260600161020e565b60105461024a565b61024a610399366004613d2e565b611780565b60065461022a906001600160a01b031681565b6102cf61189a565b61024a611959565b6103c9611a0e565b60405161020e91906000610100820190506001600160801b038084511683528060208501511660208401525060408301516040830152606083015160608301526080830151608083015260a083015160a083015260c083015160c083015260e083015160e083015292915050565b60025461024a565b61024a61044d366004613d2e565b611ac7565b60035461022a906001600160a01b031681565b610361610473366004613d2e565b611bd7565b61048b610486366004613d2e565b611ce0565b60405161020e9190600060e082019050825182526020830151602083015260408301516040830152606083015160608301526080830151608083015260a083015160a083015260c083015160c083015292915050565b60135461024a565b6102cf6104f7366004613e37565b611d8c565b61024a61050a366004613d2e565b611ecf565b60008061051e60005460ff1690565b156105445760405162461bcd60e51b815260040161053b90613eab565b60405180910390fd5b6005546001600160a01b0316331461056f5760405163080e4ebb60e01b815260040160405180910390fd5b6001600160a01b0387166000908152601560205260409020600761059161202b565b81600301548811156105b6576040516311a3c16760e11b815260040160405180910390fd5b6105c86105c38383612082565b611fac565b6105d29085613ee9565b9350600080610703846040518060e001604052908160008201548152602001600182015481526020016002820154815260200160038201548152602001600482015481526020016005820154815260200160068201548152505084604051806101000160405290816000820160009054906101000a90046001600160801b03166001600160801b03166001600160801b031681526020016000820160109054906101000a90046001600160801b03166001600160801b03166001600160801b0316815260200160018201548152602001600282015481526020016003820154815260200160048201548152602001600582015481526020016006820154815250508c8c6002806020026040519081016040528092919082600260200280828437600092019190915250612185915050565b9150915061071e84600301548b61269190919063ffffffff16565b9450600080610798604051806060016040528061074561073d8b611fac565b8a549061269d565b61074e88611fac565b6107589190613ee9565b81526020016107746107698b611fac565b60018b01549061269d565b61077d87611fac565b6107879190613ee9565b815260200160008152508b8b6126a9565b9150915060006107a78261272a565b90506107b38184614026565b6107bd908a613ee9565b98506107c885611fac565b8760000160008282546107db9190613ee9565b909155506107ea905084611fac565b8760010160008282546107fd9190613ee9565b925050819055508c8760030160008282546108189190614065565b9091555050600186015460028801556003870154610873576001600160a01b038e1660009081526015602052604081208181556001810182905560028101829055600381018290556004810182905560058101829055600601555b848660040160008282546108879190614065565b92505081905550505050505050509550959350505050565b60035460408051632c604ca560e11b815290516000926001600160a01b0316916358c0994a916004808301926020929190829003018186803b1580156108e457600080fd5b505afa1580156108f8573d6000803e3d6000fd5b505050506040513d601f19601f8201168201806040525081019061091c9190613e4f565b905090565b600080600061093260005460ff1690565b1561094f5760405162461bcd60e51b815260040161053b90613eab565b6005546001600160a01b0316331461097a5760405163080e4ebb60e01b815260040160405180910390fd5b6001600160a01b038616600090815260146020526040902080541580156109a357506001810154155b156109c157604051634a7ebe1960e01b815260040160405180910390fd5b6040805160608101825282548152600183015460208201526002830154918101919091526000906109f3908888612774565b9096509094509050610a11610a096105c36112f8565b6009546127dc565b610a2e57604051637de5c78560e01b815260040160405180910390fd5b6000610a398661272a565b9050610a458183614026565b935085836000016000828254610a5b9190613ee9565b9250508190555084836001016000828254610a769190613ee9565b90915550506001830154610aab576001600160a01b038916600090815260146020526040812081815560018101829055600201555b50505093509350939050565b6000805460ff1615610adb5760405162461bcd60e51b815260040161053b90613eab565b6005546001600160a01b03163314610b065760405163080e4ebb60e01b815260040160405180910390fd5b610b0e61202b565b6001600160a01b0384166000908152601560205260409020600381015460079015610c8157610b406105c38383612082565b9250600080610c46846040518060e001604052908160008201548152602001600182015481526020016002820154815260200160038201548152602001600482015481526020016005820154815260200160068201548152505084604051806101000160405290816000820160009054906101000a90046001600160801b03166001600160801b03166001600160801b031681526020016000820160109054906101000a90046001600160801b03166001600160801b03166001600160801b03168152602001600182015481526020016002820154815260200160038201548152602001600482015481526020016005820154815260200160068201548152505061281b565b9150915080846000016000828254610c5e9190614026565b9250508190555081846001016000828254610c799190614026565b909155505050505b6000610c8b611959565b610c9e57610c976112f8565b9050610da1565b600654604051634903b0d160e01b815260016004820152610d9e916001600160a01b031690634903b0d19060240160206040518083038186803b158015610ce457600080fd5b505afa158015610cf8573d6000803e3d6000fd5b505050506040513d601f19601f82011682018060405250810190610d1c9190613e4f565b600654604051634903b0d160e01b8152600060048201526001600160a01b0390911690634903b0d19060240160206040518083038186803b158015610d6057600080fd5b505afa158015610d74573d6000803e3d6000fd5b505050506040513d601f19601f82011682018060405250810190610d989190613e4f565b90612691565b90505b6000610dad8783612691565b6004805460405163140e25ad60e31b81529293506001600160a01b03169163a0712d6891610de1918b910190815260200190565b600060405180830381600087803b158015610dfb57600080fd5b505af1158015610e0f573d6000803e3d6000fd5b505060035460405163140e25ad60e31b8152600481018590526001600160a01b03909116925063a0712d689150602401600060405180830381600087803b158015610e5957600080fd5b505af1158015610e6d573d6000803e3d6000fd5b50506006546040805180820182528b8152602081018690529051630b4c7e4d60e01b8152600094506001600160a01b039092169250630b4c7e4d91610eb791908b90600401613e90565b602060405180830381600087803b158015610ed157600080fd5b505af1158015610ee5573d6000803e3d6000fd5b505050506040513d601f19601f82011682018060405250810190610f099190613e4f565b9050610f1488611fac565b856000016000828254610f279190614026565b90915550610f36905082611fac565b856001016000828254610f499190614026565b90915550506008805460028701908155600a546004880155600c546005880155600d54600688015590549055600385018054829190600090610f8c908490613f2a565b9250508190555087846004016000828254610fa79190613f2a565b90915550959998505050505050505050565b6001600160a01b03811660009081526014602090815260408083208151606080820184528254825260018301548286019081526002909301548285019081528451610100810186526007546001600160801b038082168352600160801b909104169681019690965260085494860185905260095491860191909152600a546080860152600b5460a0860152600c5460c0860152600d5460e08601529151915190939285831392611075928492909161107090612995565b6129a0565b95945050505050565b6000805460ff16156110a25760405162461bcd60e51b815260040161053b90613eab565b6005546001600160a01b031633146110cd5760405163080e4ebb60e01b815260040160405180910390fd5b6001600160a01b038216600090815260156020526040902060076110ef61202b565b6003820154611102575060009392505050565b6000611205836040518060e001604052908160008201548152602001600182015481526020016002820154815260200160038201548152602001600482015481526020016005820154815260200160068201548152505083604051806101000160405290816000820160009054906101000a90046001600160801b03166001600160801b03166001600160801b031681526020016000820160109054906101000a90046001600160801b03166001600160801b03166001600160801b0316815260200160018201548152602001600282015481526020016003820154815260200160048201548152602001600582015481526020016006820154815250506129d5565b9050611221600082138460020154846001015461107085612995565b6001909201546002909301929092559392505050565b600560009054906101000a90046001600160a01b03166001600160a01b031663893d20e86040518163ffffffff1660e01b815260040160206040518083038186803b15801561128557600080fd5b505afa158015611299573d6000803e3d6000fd5b505050506040513d601f19601f820116820180604052508101906112bd9190613d4a565b6001600160a01b0316336001600160a01b0316146112ee576040516302b45f1960e61b815260040160405180910390fd5b6112f6612a99565b565b60065460408051633051afe560e21b815290516000926001600160a01b03169163c146bf94916004808301926020929190829003018186803b1580156108e457600080fd5b600560009054906101000a90046001600160a01b03166001600160a01b031663893d20e86040518163ffffffff1660e01b815260040160206040518083038186803b15801561138b57600080fd5b505afa15801561139f573d6000803e3d6000fd5b505050506040513d601f19601f820116820180604052508101906113c39190613d4a565b6001600160a01b0316336001600160a01b0316146113f4576040516302b45f1960e61b815260040160405180910390fd5b66038d7ea4c6800081121561141f5760405163401eda4760e01b81526004810182905260240161053b565b670429d069189e000081131561144b57604051634eb5274960e11b81526004810182905260240161053b565b60028190556040518181527fef28986cbeea1cfa825493dd6fbd7516f7a3c29e5768fe75301d23055a3ea1bc906020015b60405180910390a150565b600080600061149860005460ff1690565b156114b55760405162461bcd60e51b815260040161053b90613eab565b6005546001600160a01b031633146114e05760405163080e4ebb60e01b815260040160405180910390fd5b6001600160a01b0387166000908152601460205260408120908087600181111561151a57634e487b7160e01b600052602160045260246000fd5b14905080801561154357506001600160a01b038916600090815260146020526040812060010154125b8061157057508015801561157057506001600160a01b038916600090815260146020526040812060010154135b1561158e576040516305f556db60e01b815260040160405180910390fd5b611599888288612b2c565b90955093506115ac610a096105c36112f8565b6115c957604051637de5c78560e01b815260040160405180910390fd5b6115d28561272a565b6115db9061407c565b9250848260000160008282546115f19190613ee9565b925050819055508382600101600082825461160c9190613ee9565b909155505050505b9450945094915050565b6005546000906001600160a01b0316331461164c5760405163080e4ebb60e01b815260040160405180910390fd5b60005460ff161561166f5760405162461bcd60e51b815260040161053b90613eab565b6001600160a01b0382166000908152601460205260409020600761169161202b565b6001820154156116c0576116bd6000836001015413836002015483600101546110708660010154612995565b92505b60010154600290910155919050565b6001600160a01b0381166000908152601460209081526040808320815160608101835281548152600182015493810193909352600201549082015261171381612b89565b9392505050565b61173e60405180606001604052806000815260200160008152602001600081525090565b506001600160a01b0316600090815260146020908152604091829020825160608101845281548152600182015492810192909252600201549181019190915290565b6001600160a01b0381166000908152601560209081526040808320815160e080820184528254825260018301548286015260028301548285015260038301546060808401919091526004840154608080850191909152600585015460a08086019190915260069095015460c0808601919091528651610100810188526007546001600160801b038082168352600160801b90910416988101989098526008549688019690965260095491870191909152600a5490860152600b5492850192909252600c5492840192909252600d5490830152908261185e8383612bdf565b9050600061186c8484612c13565b9050600061187982612b89565b90508061188584611fac565b61188f9190613ee9565b979650505050505050565b600560009054906101000a90046001600160a01b03166001600160a01b031663893d20e86040518163ffffffff1660e01b815260040160206040518083038186803b1580156118e857600080fd5b505afa1580156118fc573d6000803e3d6000fd5b505050506040513d601f19601f820116820180604052508101906119209190613d4a565b6001600160a01b0316336001600160a01b031614611951576040516302b45f1960e61b815260040160405180910390fd5b6112f6612dd5565b60065460408051637e062a3560e11b815290516000926001600160a01b03169163fc0c546a916004808301926020929190829003018186803b15801561199e57600080fd5b505afa1580156119b2573d6000803e3d6000fd5b505050506040513d601f19601f820116820180604052508101906119d69190613d4a565b6001600160a01b03166318160ddd6040518163ffffffff1660e01b815260040160206040518083038186803b1580156108e457600080fd5b611a6860405180610100016040528060006001600160801b0316815260200160006001600160801b031681526020016000815260200160008152602001600081526020016000815260200160008152602001600081525090565b5060408051610100810182526007546001600160801b038082168352600160801b909104166020820152600854918101919091526009546060820152600a546080820152600b5460a0820152600c5460c0820152600d5460e082015290565b6001600160a01b0381166000908152601560209081526040808320815160e080820184528254825260018301548286015260028301548285015260038301546060808401919091526004840154608080850191909152600585015460a08086019190915260069095015460c0808601919091528651610100810188526007546001600160801b038082168352600160801b90910416988101989098526008549688019690965260095491870191909152600a5490860152600b5492850192909252600c5492840192909252600d54908301529082611ba58383612c13565b90506000808260200151139050611bcd81836040015185604001516110708660200151612995565b9695505050505050565b611bfb60405180606001604052806000815260200160008152602001600081525090565b6001600160a01b038216600090815260156020908152604091829020825160e080820185528254825260018301548285015260028301548286015260038301546060808401919091526004840154608080850191909152600585015460a08086019190915260069095015460c0808601919091528751610100810189526007546001600160801b038082168352600160801b90910416978101979097526008549787019790975260095491860191909152600a5490850152600b5492840192909252600c5493830193909352600d5490820152611cd88282612c13565b949350505050565b611d206040518060e00160405280600081526020016000815260200160008152602001600081526020016000815260200160008152602001600081525090565b506001600160a01b0316600090815260156020908152604091829020825160e081018452815481526001820154928101929092526002810154928201929092526003820154606082015260048201546080820152600582015460a082015260069091015460c082015290565b600560009054906101000a90046001600160a01b03166001600160a01b031663893d20e86040518163ffffffff1660e01b815260040160206040518083038186803b158015611dda57600080fd5b505afa158015611dee573d6000803e3d6000fd5b505050506040513d601f19601f82011682018060405250810190611e129190613d4a565b6001600160a01b0316336001600160a01b031614611e43576040516302b45f1960e61b815260040160405180910390fd5b66038d7ea4c68000811215611e6e576040516317566f0560e01b81526004810182905260240161053b565b670429d069189e0000811315611e9a57604051632600eb9960e01b81526004810182905260240161053b565b60018190556040518181527f5a87dbe22e27a84149d288703849709529ac46ee9095f32ec6d21ca85b6edb279060200161147c565b6001600160a01b0381166000908152601560209081526040808320815160e080820184528254825260018301548286015260028301548285015260038301546060808401919091526004840154608080850191909152600585015460a08086019190915260069095015460c0808601919091528651610100810188526007546001600160801b038082168352600160801b90910416988101989098526008549688019690965260095491870191909152600a5490860152600b5492850192909252600c5492840192909252600d549083015290611cd88282612bdf565b6000611fb782611fbd565b92915050565b60006001600160ff1b038211156120275760405162461bcd60e51b815260206004820152602860248201527f53616665436173743a2076616c756520646f65736e27742066697420696e2061604482015267371034b73a191a9b60c11b606482015260840161053b565b5090565b60005460ff161561204e5760405162461bcd60e51b815260040161053b90613eab565b6007805442906001600160801b03168082111561207d5761206d612e2d565b612075612e3d565b61207d612fa2565b505050565b6000611713836040518060e001604052908160008201548152602001600182015481526020016002820154815260200160038201548152602001600482015481526020016005820154815260200160068201548152505083604051806101000160405290816000820160009054906101000a90046001600160801b03166001600160801b03166001600160801b031681526020016000820160109054906101000a90046001600160801b03166001600160801b03166001600160801b031681526020016001820154815260200160028201548152602001600382015481526020016004820154815260200160058201548152602001600682015481525050612bdf565b600480546040516370a0823160e01b81523092810192909252600091829182916001600160a01b03909116906370a082319060240160206040518083038186803b1580156121d257600080fd5b505afa1580156121e6573d6000803e3d6000fd5b505050506040513d601f19601f8201168201806040525081019061220a9190613e4f565b6003546040516370a0823160e01b81523060048201529192506000916001600160a01b03909116906370a082319060240160206040518083038186803b15801561225357600080fd5b505afa158015612267573d6000803e3d6000fd5b505050506040513d601f19601f8201168201806040525081019061228b9190613e4f565b6006546040516316cd8e2760e21b81529192506001600160a01b031690635b36389c906122be9089908990600401613ed5565b600060405180830381600087803b1580156122d857600080fd5b505af11580156122ec573d6000803e3d6000fd5b5050600480546006546040516370a0823160e01b81526001600160a01b0391821693810193909352600094501691506370a082319060240160206040518083038186803b15801561233c57600080fd5b505afa158015612350573d6000803e3d6000fd5b505050506040513d601f19601f820116820180604052508101906123749190613e4f565b116123955760405163377d563760e01b81526000600482015260240161053b565b6003546006546040516370a0823160e01b81526001600160a01b03918216600482015260009291909116906370a082319060240160206040518083038186803b1580156123e157600080fd5b505afa1580156123f5573d6000803e3d6000fd5b505050506040513d601f19601f820116820180604052508101906124199190613e4f565b1161243a5760405163377d563760e01b81526001600482015260240161053b565b600480546040516370a0823160e01b815230928101929092526000916001600160a01b03909116906370a082319060240160206040518083038186803b15801561248357600080fd5b505afa158015612497573d6000803e3d6000fd5b505050506040513d601f19601f820116820180604052508101906124bb9190613e4f565b6003546040516370a0823160e01b81523060048201529192506000916001600160a01b03909116906370a082319060240160206040518083038186803b15801561250457600080fd5b505afa158015612518573d6000803e3d6000fd5b505050506040513d601f19601f8201168201806040525081019061253c9190613e4f565b9050600061254a8584614065565b905060006125588584614065565b60048054604051630852cd8d60e31b81529293506001600160a01b0316916342966c689161258c9186910190815260200190565b600060405180830381600087803b1580156125a657600080fd5b505af11580156125ba573d6000803e3d6000fd5b5050600354604051630852cd8d60e31b8152600481018590526001600160a01b0390911692506342966c689150602401600060405180830381600087803b15801561260457600080fd5b505af1158015612618573d6000803e3d6000fd5b5050505061264d8c60c001518c60e00151670de0b6b3a764000061263c9190613f2a565b6126469190614065565b8390612691565b97506126808c60a001518c60c00151670de0b6b3a764000061266f9190613f2a565b6126799190614065565b8290612691565b965050505050505094509492505050565b600061171383836130a7565b600061171383836130bc565b60008060006126b9868686612774565b9450925090506126cd610a096105c36112f8565b6126ea57604051637de5c78560e01b815260040160405180910390fd5b60008187602001516126fc9190613ee9565b905060008112156127205760405163ab7cee1960e01b815260040160405180910390fd5b5050935093915050565b60008061274260015461273c85612995565b9061269d565b9050612756600760040154610d9883613181565b600a8054600090612768908490613f2a565b90915550909392505050565b600080600080600087602001511390506127938188602001518861318c565b60006127a58289602001518989613218565b9196509450905060006127c26127ba83611fac565b8a519061269d565b90506127ce8186613ee9565b935050505093509350939050565b60006127f06127eb8385614026565b612995565b61280290670de0b6b3a7640000613f84565b6128138466b1a2bc2ec50000613f84565b139392505050565b6000806000612828611959565b6060860151600654604051634903b0d160e01b815260006004820181905293945083926128c59286926001600160a01b0390911690634903b0d19060240160206040518083038186803b15801561287e57600080fd5b505afa158015612892573d6000803e3d6000fd5b505050506040513d601f19601f820116820180604052508101906128b69190613e4f565b8a60c001518a60e00151613352565b90925090506128d76105c38383614065565b6060880151600654604051634903b0d160e01b81526001600482015292965060009283926129759288926001600160a01b0390911690634903b0d19060240160206040518083038186803b15801561292e57600080fd5b505afa158015612942573d6000803e3d6000fd5b505050506040513d601f19601f820116820180604052508101906129669190613e4f565b8c60a001518c60c00151613352565b90925090506129876105c38383614065565b965050505050509250929050565b6000611fb78261339a565b6000828414611cd8576000856129bf576129ba8585614026565b6129c9565b6129c98486614026565b9050611bcd818461269d565b6000806129e0611959565b6060850151600654604051634903b0d160e01b815260016004820152929350600092612a7e92859290916001600160a01b0390911690634903b0d19060240160206040518083038186803b158015612a3757600080fd5b505afa158015612a4b573d6000803e3d6000fd5b505050506040513d601f19601f82011682018060405250810190612a6f9190613e4f565b8860a001518860c00151613352565b5090508460200151612a8f82611fac565b6110759190613ee9565b60005460ff16612ae25760405162461bcd60e51b815260206004820152601460248201527314185d5cd8589b194e881b9bdd081c185d5cd95960621b604482015260640161053b565b6000805460ff191690557f5db9ee0a495bf2e6ff9c91a7834c1ba4fdd244a5e8aa4e537bd38aeae4b073aa335b6040516001600160a01b03909116815260200160405180910390a1565b6000808315612b5d57612b3e85611fac565b612b479061407c565b9150612b566105c386856133d6565b9050612b81565b612b6a6105c3868561368a565b9150612b7585611fac565b612b7e9061407c565b90505b935093915050565b600080612b9461089f565b90506000612baf82856020015161269d90919063ffffffff16565b90506000612bc260015461273c84612995565b905080828660000151612bd59190613ee9565b6110759190614026565b600061171383608001518360800151612bf89190614065565b612c0d612c088660000151612995565b613181565b906138fc565b612c3760405180606001604052806000815260200160008152602001600081525090565b6000612c41611959565b6060850151600654604051634903b0d160e01b8152600060048201819052939450612cde92859290916001600160a01b0390911690634903b0d19060240160206040518083038186803b158015612c9757600080fd5b505afa158015612cab573d6000803e3d6000fd5b505050506040513d601f19601f82011682018060405250810190612ccf9190613e4f565b8860c001518860e00151613352565b506060860151600654604051634903b0d160e01b815260016004820152929350600092612d7d92869290916001600160a01b0390911690634903b0d19060240160206040518083038186803b158015612d3657600080fd5b505afa158015612d4a573d6000803e3d6000fd5b505050506040513d601f19601f82011682018060405250810190612d6e9190613e4f565b8960a001518960c00151613352565b5090506040518060600160405280612d9484611fac565b8851612da09190613ee9565b8152602001612dae83611fac565b8860200151612dbd9190613ee9565b81526020018760400151815250935050505092915050565b60005460ff1615612df85760405162461bcd60e51b815260040161053b90613eab565b6000805460ff191660011790557f62e78cea01bee320cd4e420270b5ea74000d11b0c9f74754ebdbfc544b05a258612b0f3390565b612e386105c36112f8565b600955565b6007544290600090612e5c906105c3906001600160801b031684614065565b90506000612e6861089f565b9050612e748282613f84565b600e6000828254612e859190613ee9565b9091555060009050612e986105c36112f8565b9050612ea48382613f84565b60116000828254612eb59190613ee9565b9091555050600754600090612eda90600160801b90046001600160801b031642614065565b90506103848110612f9b57612eee81611fac565b600f54600e54612efe9190614026565b612f089190613f42565b601055612f1481611fac565b601254601154612f249190614026565b612f2e9190613f42565b6013819055600e54600f55601154601255600780546001600160801b03428116600160801b0291161790556010546040517fd58b1a969d6ffc9c51fce55b333b20b1f3feace5e8a7ec000f124c019823348492612f92928252602082015260400190565b60405180910390a15b5050505050565b6007426000612fb060135490565b90506000612fbd60105490565b90506000612fd582612fcf8186614026565b90613908565b8554909150600090612ff4906105c3906001600160801b031687614065565b90506000620151808261300f670de0b6b3a76400008661269d565b6130199190613f84565b6130239190613f42565b9050808760010160008282546130399190613ee9565b909155505086546fffffffffffffffffffffffffffffffff19166001600160801b038716178755600187015460408051918252602082018390527f83b8bd3a9f97bed75f923bfd5746ac7dbb823ba73c2e68e4fa906e29e3da4ab4910160405180910390a150505050505050565b600061171383670de0b6b3a764000084613914565b6000600160ff1b8314806130d35750600160ff1b82145b156130f157604051630d01a11b60e21b815260040160405180910390fd5b600080600085126131025784613107565b846000035b915060008412613117578361311c565b836000035b9050600061312a83836139ef565b90506001600160ff1b038111156131575760405163bf79e8d960e01b81526004810182905260240161053b565b6000198087139086138082186001146131705782613175565b826000035b98975050505050505050565b6000611fb782613ab1565b82156131be5761319e612c0883612995565b81111561207d5760405163292e792760e01b815260040160405180910390fd5b60006131c98361407c565b905060006131ed8260026013546131e09190613f42565b60135461273c9190613ee9565b9050806131f984611fac565b1315612f9b5760405163376526e160e01b815260040160405180910390fd5b6000806000861561326e57600061322f868661368a565b905061323a81611fac565b925061324586611fac565b61324e9061407c565b935061326661325f612c0889612995565b8790612691565b915050611614565b600061327c612c088861407c565b9050600061328a87876133d6565b9050600080838311156132ff576132a18484614065565b90506132ac81613b03565b156132c3576132bc81600061368a565b91506132ff565b6040518181527f56dd3b38618f9202d3cd3e3b1b0b979b53c56ca0b3847420ce3b2f2cc2cff7df9060200160405180910390a16132ff81613bf4565b61330882611fac565b6133118a611fac565b61331a9061407c565b6133249190613ee9565b95506133336105c38285614065565b965061334284610d9889613181565b9450505050509450945094915050565b6000806001876133628888614007565b61336c9190613f70565b6133769190614065565b905061338e8461266f85670de0b6b3a7640000613f2a565b91509550959350505050565b6000600160ff1b8214156133c157604051631d0742e360e21b815260040160405180910390fd5b600082126133cf5781611fb7565b5060000390565b6004805460405163140e25ad60e31b81529182018490526000916001600160a01b039091169063a0712d6890602401600060405180830381600087803b15801561341f57600080fd5b505af1158015613433573d6000803e3d6000fd5b5050600654604051630b68372160e31b815260006004820181905260016024830152604482018890526064820187905293506001600160a01b039091169150635b41b90890608401602060405180830381600087803b15801561349557600080fd5b505af11580156134a9573d6000803e3d6000fd5b505050506040513d601f19601f820116820180604052508101906134cd9190613e4f565b600354604051630852cd8d60e31b8152600481018390529192506001600160a01b0316906342966c6890602401600060405180830381600087803b15801561351457600080fd5b505af1158015613528573d6000803e3d6000fd5b505050506000600660009054906101000a90046001600160a01b03166001600160a01b03166392526c0c6040518163ffffffff1660e01b815260040160206040518083038186803b15801561357c57600080fd5b505afa158015613590573d6000803e3d6000fd5b505050506040513d601f19601f820116820180604052508101906135b49190613e4f565b90506135c08282613c32565b925060006402540be4006135d48386614007565b6135de9190613f70565b9050613669600360009054906101000a90046001600160a01b03166001600160a01b03166318160ddd6040518163ffffffff1660e01b815260040160206040518083038186803b15801561363157600080fd5b505afa158015613645573d6000803e3d6000fd5b505050506040513d601f19601f820116820180604052508101906126799190613e4f565b600c805460009061367b908490613f2a565b90915550939695505050505050565b60035460405163140e25ad60e31b8152600481018490526000916001600160a01b03169063a0712d6890602401600060405180830381600087803b1580156136d157600080fd5b505af11580156136e5573d6000803e3d6000fd5b5050600654604051630b68372160e31b815260016004820152600060248201819052604482018890526064820187905293506001600160a01b039091169150635b41b90890608401602060405180830381600087803b15801561374757600080fd5b505af115801561375b573d6000803e3d6000fd5b505050506040513d601f19601f8201168201806040525081019061377f9190613e4f565b60048054604051630852cd8d60e31b81529293506001600160a01b0316916342966c68916137b39185910190815260200190565b600060405180830381600087803b1580156137cd57600080fd5b505af11580156137e1573d6000803e3d6000fd5b505050506000600660009054906101000a90046001600160a01b03166001600160a01b03166392526c0c6040518163ffffffff1660e01b815260040160206040518083038186803b15801561383557600080fd5b505afa158015613849573d6000803e3d6000fd5b505050506040513d601f19601f8201168201806040525081019061386d9190613e4f565b90506138798282613c32565b925060006402540be40061388d8386614007565b6138979190613f70565b90506138ea600460009054906101000a90046001600160a01b03166001600160a01b03166318160ddd6040518163ffffffff1660e01b815260040160206040518083038186803b15801561363157600080fd5b600d805460009061367b908490613f2a565b60006117138383613c5c565b60006117138383613c68565b60008080600019858709858702925082811083820303915050806000141561395d5783828161395357634e487b7160e01b600052601260045260246000fd5b0492505050611713565b83811061398757604051631dcf306360e21b8152600481018290526024810185905260440161053b565b600084868809600260036001881981018916988990049182028318808302840302808302840302808302840302808302840302808302840302918202909203026000889003889004909101858311909403939093029303949094049190911702949350505050565b60008080600019848609848602925082811083820303915050670de0b6b3a76400008110613a335760405163698d9a0160e11b81526004810182905260240161053b565b600080670de0b6b3a76400008688099150506706f05b59d3b1ffff811182613a6d5780670de0b6b3a7640000850401945050505050611fb7565b620400008285030493909111909103600160ee1b02919091177faccb18165bd6fe31ae1cf318dc5b51eee0e1ba569b88cd74c1773b91fac106690201905092915050565b6000808212156120275760405162461bcd60e51b815260206004820181905260248201527f53616665436173743a2076616c7565206d75737420626520706f736974697665604482015260640161053b565b60065460405163556d6e9f60e01b81526001600482015260006024820181905260448201849052916001600160a01b03169063556d6e9f9060640160206040518083038186803b158015613b5657600080fd5b505afa925050508015613b86575060408051601f3d908101601f19168201909252613b8391810190613e4f565b60015b613beb577fcf34ef537ac33ee1ac626ca1587a0a7e8e51561e5514f8cb36afa1c5102b3bab604051613bdb906020808252600f908201526e5377617020696d706f737369626c6560881b604082015260600190565b60405180910390a1506000919050565b50600192915050565b613bfd81611fac565b6005546001600160a01b031660009081526014602052604081206001018054909190613c2a908490613ee9565b909155505050565b6000613c43826402540be400614065565b613c526402540be40085614007565b6117139190613f70565b600061171383836139ef565b6000600160ff1b831480613c7f5750600160ff1b82145b15613c9d5760405163b3c754a360e01b815260040160405180910390fd5b60008060008512613cae5784613cb3565b846000035b915060008412613cc35783613cc8565b836000035b90506000613cdf83670de0b6b3a764000084613914565b90506001600160ff1b03811115613d0c57604051637cb4bef560e01b81526004810182905260240161053b565b600019808713908613808218600114613d255782613175565b6131758361407c565b600060208284031215613d3f578081fd5b8135611713816140c2565b600060208284031215613d5b578081fd5b8151611713816140c2565b600080600080600060c08688031215613d7d578081fd5b8535613d88816140c2565b9450602086013593506080860187811115613da1578182fd5b94979396505050604084019392359260a00135919050565b60008060008060808587031215613dce578384fd5b8435613dd9816140c2565b935060208501359250604085013560028110613df3578283fd5b9396929550929360600135925050565b600080600060608486031215613e17578283fd5b8335613e22816140c2565b95602085013595506040909401359392505050565b600060208284031215613e48578081fd5b5035919050565b600060208284031215613e60578081fd5b5051919050565b8060005b6002811015613e8a578151845260209384019390910190600101613e6b565b50505050565b60608101613e9e8285613e67565b8260408301529392505050565b60208082526010908201526f14185d5cd8589b194e881c185d5cd95960821b604082015260600190565b828152606081016117136020830184613e67565b600080821280156001600160ff1b0384900385131615613f0b57613f0b614096565b600160ff1b8390038412811615613f2457613f24614096565b50500190565b60008219821115613f3d57613f3d614096565b500190565b600082613f5157613f516140ac565b600160ff1b821460001984141615613f6b57613f6b614096565b500590565b600082613f7f57613f7f6140ac565b500490565b60006001600160ff1b0381841382841380821686840486111615613faa57613faa614096565b600160ff1b84871282811687830589121615613fc857613fc8614096565b858712925087820587128484161615613fe357613fe3614096565b87850587128184161615613ff957613ff9614096565b505050929093029392505050565b600081600019048311821515161561402157614021614096565b500290565b60008083128015600160ff1b85018412161561404457614044614096565b6001600160ff1b038401831381161561405f5761405f614096565b50500390565b60008282101561407757614077614096565b500390565b6000600160ff1b82141561409257614092614096565b0390565b634e487b7160e01b600052601160045260246000fd5b634e487b7160e01b600052601260045260246000fd5b6001600160a01b03811681146140d757600080fd5b5056fea264697066735822122076c9912de7b981973c67cfe9fe7e1347cd331574eaf6bc0464035b9c7c8e90e964736f6c63430008040033",
  "devdoc": {
    "events": {
      "DustGenerated(uint256)": {
        "params": {
          "vBaseAmount": "Amount of dust"
        }
      },
      "FundingRateUpdated(int256,int256)": {
        "params": {
          "cumulativeFundingRate": "Cumulative sum of all funding rate updates",
          "fundingRate": "Latest fundingRate update"
        }
      },
      "InsuranceFeeChanged(int256)": {
        "params": {
          "newInsuranceFee": "New value of insurance fee"
        }
      },
      "Log(string)": {
        "params": {
          "errorMessage": "Return error message"
        }
      },
      "TradingFeeChanged(int256)": {
        "params": {
          "newTradingFee": "New value of trading fee"
        }
      },
      "TwapUpdated(int256,int256)": {
        "params": {
          "newMarketTwap": "Latest market Time-weighted-average-price",
          "newOracleTwap": "Latest oracle Time-weighted-average-price"
        }
      }
    },
    "kind": "dev",
    "methods": {
      "extendPosition(address,uint256,uint8,uint256)": {
        "params": {
          "account": "Address of the trader",
          "amount": "to be sold, in vQuote (if long) or vBase (if short)",
          "direction": "Long or Short",
          "minAmount": "Minimum amount received back, in vBase (if long) or vQuote (if short)"
        },
        "returns": {
          "openNotional": "Additional quote asset / liabilities accrued",
          "positionSize": "Additional base asset / liabilities accrued",
          "tradingFees": "Settled funding payments & Trading"
        }
      },
      "getGlobalPosition()": {
        "returns": {
          "_0": "Global position"
        }
      },
      "getInsuranceFee()": {
        "returns": {
          "_0": "insuranceFee"
        }
      },
      "getLpFundingPayments(address)": {
        "params": {
          "account": "Liquidity Provider"
        },
        "returns": {
          "upcomingFundingPayment": "Funding payment. 18 decimals"
        }
      },
      "getLpPosition(address)": {
        "params": {
          "account": "Address to get the LP position from"
        },
        "returns": {
          "_0": "Liquidity Provider position"
        }
      },
      "getLpPositionAfterWithdrawal(address)": {
        "params": {
          "account": "Liquidity Provider"
        },
        "returns": {
          "_0": "(Active) Liquidity Provider position"
        }
      },
      "getLpTradingFees(address)": {
        "params": {
          "account": "Liquidity Provider"
        },
        "returns": {
          "tradingFeesEarned": "Trading fees earned by the Liquidity Provider. 18 decimals"
        }
      },
      "getLpUnrealizedPnL(address)": {
        "params": {
          "account": "Liquidity Provider"
        },
        "returns": {
          "pnl": "Unrealized profit and loss. 18 decimals"
        }
      },
      "getMarketTwap()": {
        "returns": {
          "_0": "market twap. 18 decimals"
        }
      },
      "getOracleTwap()": {
        "returns": {
          "_0": "oracle twap. 18 decimals"
        }
      },
      "getTotalLiquidityProvided()": {
        "returns": {
          "_0": "market twap. 18 decimals"
        }
      },
      "getTraderFundingPayments(address)": {
        "params": {
          "account": "Trader"
        },
        "returns": {
          "upcomingFundingPayment": "Funding payment. 18 decimals"
        }
      },
      "getTraderPosition(address)": {
        "params": {
          "account": "Address to get the trading position from"
        },
        "returns": {
          "_0": "Trader position"
        }
      },
      "getTraderUnrealizedPnL(address)": {
        "params": {
          "account": "Trader"
        },
        "returns": {
          "pnl": "Unrealized profit and loss. 18 decimals"
        }
      },
      "getTradingFee()": {
        "returns": {
          "_0": "tradingFee"
        }
      },
      "indexPrice()": {
        "returns": {
          "_0": "Index price"
        }
      },
      "marketPrice()": {
        "returns": {
          "_0": "lastPrice Last traded price"
        }
      },
      "paused()": {
        "details": "Returns true if the contract is paused, and false otherwise."
      },
      "provideLiquidity(address,uint256,uint256)": {
        "params": {
          "account": "Liquidity provider",
          "minLpAmount": "Minimum amount of Lp tokens minted. 18 decimals",
          "wadAmount": "Amount of vQuote provided. 18 decimals"
        },
        "returns": {
          "tradingFees": "Generated profit generated from trading fees"
        }
      },
      "reducePosition(address,uint256,uint256)": {
        "params": {
          "account": "Trader account to close position for.",
          "minAmount": "Minimum amount that the user is willing to accept, in vQuote if LONG, in vBase if SHORT. 18 decimals",
          "proposedAmount": "Amount of tokens to be sold, in vBase if LONG, in vQuote if SHORT. 18 decimals"
        },
        "returns": {
          "profit": "Profit realized",
          "vBaseAmount": "Position size reduction",
          "vQuoteProceeds": "Realized quote proceeds from closing the position"
        }
      },
      "removeLiquidity(address,uint256,uint256[2],uint256,uint256)": {
        "params": {
          "account": "Account of the LP to remove liquidity from",
          "liquidityAmountToRemove": "Amount of liquidity to be removed from the pool. 18 decimals",
          "minAmount": "Minimum amount that the user is willing to accept, in vQuote if LONG, in vBase if SHORT. 18 decimals",
          "minVTokenAmounts": "Minimum amount of virtual tokens [vQuote, vBase] withdrawn from the curve pool. 18 decimals",
          "proposedAmount": "Amount of tokens to be sold, in vBase if LONG, in vQuote if SHORT. 18 decimals"
        },
        "returns": {
          "profit": "Profit realized"
        }
      }
    },
    "version": 1
  },
  "userdoc": {
    "errors": {
      "PRBMathSD59x18__AbsInputTooSmall()": [
        {
          "notice": "Emitted when the input is MIN_SD59x18."
        }
      ],
      "PRBMathSD59x18__DivInputTooSmall()": [
        {
          "notice": "Emitted when one of the inputs is MIN_SD59x18."
        }
      ],
      "PRBMathSD59x18__DivOverflow(uint256)": [
        {
          "notice": "Emitted when one of the intermediary unsigned results overflows SD59x18."
        }
      ],
      "PRBMathSD59x18__MulInputTooSmall()": [
        {
          "notice": "Emitted when one of the inputs is MIN_SD59x18."
        }
      ],
      "PRBMathSD59x18__MulOverflow(uint256)": [
        {
          "notice": "Emitted when the intermediary absolute result overflows SD59x18."
        }
      ],
      "PRBMath__MulDivFixedPointOverflow(uint256)": [
        {
          "notice": "Emitted when the result overflows uint256."
        }
      ],
      "PRBMath__MulDivOverflow(uint256,uint256)": [
        {
          "notice": "Emitted when the result overflows uint256."
        }
      ],
      "Perpetual_AttemptReducePosition()": [
        {
          "notice": "Emitted when the user attempts to reduce their position using extendPosition"
        }
      ],
      "Perpetual_ExcessivePriceImpact()": [
        {
          "notice": "Emitted when the price impact of a position is too high"
        }
      ],
      "Perpetual_InsuranceFeeExcessive(int256)": [
        {
          "notice": "Emitted when the proposed insurance fee is excessive"
        }
      ],
      "Perpetual_InsuranceFeeInsufficient(int256)": [
        {
          "notice": "Emitted when the proposed insurance fee is insufficient"
        }
      ],
      "Perpetual_LPOpenPosition()": [
        {
          "notice": "Emitted when the liquidity provider has an open position"
        }
      ],
      "Perpetual_LPWithdrawExceedsBalance()": [
        {
          "notice": "Emitted when the user attempts to withdraw more liquidity than they have deposited"
        }
      ],
      "Perpetual_MarketBalanceTooLow(uint256)": [
        {
          "notice": "Emitted when a token balance of the market is lte 0"
        }
      ],
      "Perpetual_MarketEqualFees()": [
        {
          "notice": "Emitted when market mid fee does not equal out fee"
        }
      ],
      "Perpetual_NoOpenPosition()": [
        {
          "notice": "Emitted when the user does not have an open position"
        }
      ],
      "Perpetual_ProposedAmountExceedsMaxMarketPrice()": [
        {
          "notice": "Emitted when proposed amount is greater than maxVQuoteAmount"
        }
      ],
      "Perpetual_ProposedAmountExceedsPositionSize()": [
        {
          "notice": "Emitted when proposed amount is greater than position size"
        }
      ],
      "Perpetual_SenderNotClearingHouse()": [
        {
          "notice": "Emitted when the sender is not the clearing house"
        }
      ],
      "Perpetual_SenderNotClearingHouseOwner()": [
        {
          "notice": "Emitted when the sender is not the clearing house owner"
        }
      ],
      "Perpetual_TradingFeeExcessive(int256)": [
        {
          "notice": "Emitted when the proposed trading fee is excessive"
        }
      ],
      "Perpetual_TradingFeeInsufficient(int256)": [
        {
          "notice": "Emitted when the proposed trading fee is insufficient"
        }
      ],
      "Perpetual_VirtualTokenApprovalConstructor(uint256)": [
        {
          "notice": "Emitted when the constructor fails to give approval of a virtual token to the market"
        }
      ],
      "Perpetual_ZeroAddressConstructor(uint256)": [
        {
          "notice": "Emitted when the zero address is provided as a parameter in the constructor"
        }
      ]
    },
    "events": {
      "DustGenerated(uint256)": {
        "notice": "Emitted when (base) dust is generated"
      },
      "FundingRateUpdated(int256,int256)": {
        "notice": "Emitted when funding rate is updated"
      },
      "InsuranceFeeChanged(int256)": {
        "notice": "Emitted when insuranceFee is changed"
      },
      "Log(string)": {
        "notice": "Emitted when swap with cryptoswap pool fails"
      },
      "TradingFeeChanged(int256)": {
        "notice": "Emitted when tradingFee is changed"
      },
      "TwapUpdated(int256,int256)": {
        "notice": "Emitted when twap is updated"
      }
    },
    "kind": "user",
    "methods": {
      "clearingHouse()": {
        "notice": "Clearing House contract"
      },
      "extendPosition(address,uint256,uint8,uint256)": {
        "notice": "Open or increase a position, either long or short"
      },
      "getGlobalPosition()": {
        "notice": "Get global market position"
      },
      "getInsuranceFee()": {
        "notice": "Get the insurance fee of the market (the more volatile the market, the large the insurance fee)"
      },
      "getLpFundingPayments(address)": {
        "notice": "Get the approximate funding payments for a Liquidity Provider"
      },
      "getLpPosition(address)": {
        "notice": "Get the position of a liquidity provider"
      },
      "getLpPositionAfterWithdrawal(address)": {
        "notice": "Get the (active) position of a liquidity provider after withdrawing liquidity"
      },
      "getLpTradingFees(address)": {
        "notice": "Get the trading fees earned by a Liquidity Provider"
      },
      "getLpUnrealizedPnL(address)": {
        "notice": "Get the unrealized profit and Loss of a Liquidity Provider"
      },
      "getMarketTwap()": {
        "notice": "Get the market Time-weighted-average-price"
      },
      "getOracleTwap()": {
        "notice": "Get the oracle Time-weighted-average-price"
      },
      "getTotalLiquidityProvided()": {
        "notice": "Get the market Total Liquidity provided to the Crypto Swap pool"
      },
      "getTraderFundingPayments(address)": {
        "notice": "Get the approximate funding payments for a trader"
      },
      "getTraderPosition(address)": {
        "notice": "Get the position of a trader"
      },
      "getTraderUnrealizedPnL(address)": {
        "notice": "Get the unrealized profit and Loss of a trader"
      },
      "getTradingFee()": {
        "notice": "Get the trading fee of the market"
      },
      "indexPrice()": {
        "notice": "Return the current off-chain exchange rate for vBase/vQuote"
      },
      "market()": {
        "notice": "Curve CryptoSwap pool"
      },
      "marketPrice()": {
        "notice": "Return the last traded price (used for TWAP)"
      },
      "pause()": {
        "notice": "Pause the contract"
      },
      "provideLiquidity(address,uint256,uint256)": {
        "notice": "Provide liquidity to the pool"
      },
      "reducePosition(address,uint256,uint256)": {
        "notice": "Closes position from account holder"
      },
      "removeLiquidity(address,uint256,uint256[2],uint256,uint256)": {
        "notice": "Remove liquidity from the pool"
      },
      "unpause()": {
        "notice": "Unpause the contract"
      },
      "vBase()": {
        "notice": "vBase token (traded on CryptoSwap pool)"
      },
      "vQuote()": {
        "notice": "vQuote token (traded on CryptoSwap pool)"
      }
    },
    "notice": "Handles all the trading logic. Interact with the CryptoSwap pool",
    "version": 1
  },
  "storageLayout": {
    "storage": [
      {
        "astId": 168,
        "contract": "contracts/Perpetual.sol:Perpetual",
        "label": "_paused",
        "offset": 0,
        "slot": "0",
        "type": "t_bool"
      },
      {
        "astId": 4994,
        "contract": "contracts/Perpetual.sol:Perpetual",
        "label": "tradingFee",
        "offset": 0,
        "slot": "1",
        "type": "t_int256"
      },
      {
        "astId": 4996,
        "contract": "contracts/Perpetual.sol:Perpetual",
        "label": "insuranceFee",
        "offset": 0,
        "slot": "2",
        "type": "t_int256"
      },
      {
        "astId": 5001,
        "contract": "contracts/Perpetual.sol:Perpetual",
        "label": "vBase",
        "offset": 0,
        "slot": "3",
        "type": "t_contract(IVBase)10389"
      },
      {
        "astId": 5006,
        "contract": "contracts/Perpetual.sol:Perpetual",
        "label": "vQuote",
        "offset": 0,
        "slot": "4",
        "type": "t_contract(IVQuote)10396"
      },
      {
        "astId": 5011,
        "contract": "contracts/Perpetual.sol:Perpetual",
        "label": "clearingHouse",
        "offset": 0,
        "slot": "5",
        "type": "t_contract(IClearingHouse)9658"
      },
      {
        "astId": 5016,
        "contract": "contracts/Perpetual.sol:Perpetual",
        "label": "market",
        "offset": 0,
        "slot": "6",
        "type": "t_contract(ICryptoSwap)9968"
      },
      {
        "astId": 5019,
        "contract": "contracts/Perpetual.sol:Perpetual",
        "label": "globalPosition",
        "offset": 0,
        "slot": "7",
        "type": "t_struct(GlobalPosition)10867_storage"
      },
      {
        "astId": 5021,
        "contract": "contracts/Perpetual.sol:Perpetual",
        "label": "oracleCumulativeAmount",
        "offset": 0,
        "slot": "14",
        "type": "t_int256"
      },
      {
        "astId": 5023,
        "contract": "contracts/Perpetual.sol:Perpetual",
        "label": "oracleCumulativeAmountAtBeginningOfPeriod",
        "offset": 0,
        "slot": "15",
        "type": "t_int256"
      },
      {
        "astId": 5025,
        "contract": "contracts/Perpetual.sol:Perpetual",
        "label": "oracleTwap",
        "offset": 0,
        "slot": "16",
        "type": "t_int256"
      },
      {
        "astId": 5027,
        "contract": "contracts/Perpetual.sol:Perpetual",
        "label": "marketCumulativeAmount",
        "offset": 0,
        "slot": "17",
        "type": "t_int256"
      },
      {
        "astId": 5029,
        "contract": "contracts/Perpetual.sol:Perpetual",
        "label": "marketCumulativeAmountAtBeginningOfPeriod",
        "offset": 0,
        "slot": "18",
        "type": "t_int256"
      },
      {
        "astId": 5031,
        "contract": "contracts/Perpetual.sol:Perpetual",
        "label": "marketTwap",
        "offset": 0,
        "slot": "19",
        "type": "t_int256"
      },
      {
        "astId": 5036,
        "contract": "contracts/Perpetual.sol:Perpetual",
        "label": "traderPosition",
        "offset": 0,
        "slot": "20",
        "type": "t_mapping(t_address,t_struct(TraderPosition)10850_storage)"
      },
      {
        "astId": 5041,
        "contract": "contracts/Perpetual.sol:Perpetual",
        "label": "lpPosition",
        "offset": 0,
        "slot": "21",
        "type": "t_mapping(t_address,t_struct(LiquidityProviderPosition)10843_storage)"
      }
    ],
    "types": {
      "t_address": {
        "encoding": "inplace",
        "label": "address",
        "numberOfBytes": "20"
      },
      "t_bool": {
        "encoding": "inplace",
        "label": "bool",
        "numberOfBytes": "1"
      },
      "t_contract(IClearingHouse)9658": {
        "encoding": "inplace",
        "label": "contract IClearingHouse",
        "numberOfBytes": "20"
      },
      "t_contract(ICryptoSwap)9968": {
        "encoding": "inplace",
        "label": "contract ICryptoSwap",
        "numberOfBytes": "20"
      },
      "t_contract(IVBase)10389": {
        "encoding": "inplace",
        "label": "contract IVBase",
        "numberOfBytes": "20"
      },
      "t_contract(IVQuote)10396": {
        "encoding": "inplace",
        "label": "contract IVQuote",
        "numberOfBytes": "20"
      },
      "t_int256": {
        "encoding": "inplace",
        "label": "int256",
        "numberOfBytes": "32"
      },
      "t_mapping(t_address,t_struct(LiquidityProviderPosition)10843_storage)": {
        "encoding": "mapping",
        "key": "t_address",
        "label": "mapping(address => struct LibPerpetual.LiquidityProviderPosition)",
        "numberOfBytes": "32",
        "value": "t_struct(LiquidityProviderPosition)10843_storage"
      },
      "t_mapping(t_address,t_struct(TraderPosition)10850_storage)": {
        "encoding": "mapping",
        "key": "t_address",
        "label": "mapping(address => struct LibPerpetual.TraderPosition)",
        "numberOfBytes": "32",
        "value": "t_struct(TraderPosition)10850_storage"
      },
      "t_struct(GlobalPosition)10867_storage": {
        "encoding": "inplace",
        "label": "struct LibPerpetual.GlobalPosition",
        "members": [
          {
            "astId": 10852,
            "contract": "contracts/Perpetual.sol:Perpetual",
            "label": "timeOfLastTrade",
            "offset": 0,
            "slot": "0",
            "type": "t_uint128"
          },
          {
            "astId": 10854,
            "contract": "contracts/Perpetual.sol:Perpetual",
            "label": "timeOfLastTwapUpdate",
            "offset": 16,
            "slot": "0",
            "type": "t_uint128"
          },
          {
            "astId": 10856,
            "contract": "contracts/Perpetual.sol:Perpetual",
            "label": "cumFundingRate",
            "offset": 0,
            "slot": "1",
            "type": "t_int256"
          },
          {
            "astId": 10858,
            "contract": "contracts/Perpetual.sol:Perpetual",
            "label": "blockStartPrice",
            "offset": 0,
            "slot": "2",
            "type": "t_int256"
          },
          {
            "astId": 10860,
            "contract": "contracts/Perpetual.sol:Perpetual",
            "label": "totalTradingFeesGrowth",
            "offset": 0,
            "slot": "3",
            "type": "t_uint256"
          },
          {
            "astId": 10862,
            "contract": "contracts/Perpetual.sol:Perpetual",
            "label": "totalLiquidityProvided",
            "offset": 0,
            "slot": "4",
            "type": "t_uint256"
          },
          {
            "astId": 10864,
            "contract": "contracts/Perpetual.sol:Perpetual",
            "label": "totalBaseFeesGrowth",
            "offset": 0,
            "slot": "5",
            "type": "t_uint256"
          },
          {
            "astId": 10866,
            "contract": "contracts/Perpetual.sol:Perpetual",
            "label": "totalQuoteFeesGrowth",
            "offset": 0,
            "slot": "6",
            "type": "t_uint256"
          }
        ],
        "numberOfBytes": "224"
      },
      "t_struct(LiquidityProviderPosition)10843_storage": {
        "encoding": "inplace",
        "label": "struct LibPerpetual.LiquidityProviderPosition",
        "members": [
          {
            "astId": 10830,
            "contract": "contracts/Perpetual.sol:Perpetual",
            "label": "openNotional",
            "offset": 0,
            "slot": "0",
            "type": "t_int256"
          },
          {
            "astId": 10832,
            "contract": "contracts/Perpetual.sol:Perpetual",
            "label": "positionSize",
            "offset": 0,
            "slot": "1",
            "type": "t_int256"
          },
          {
            "astId": 10834,
            "contract": "contracts/Perpetual.sol:Perpetual",
            "label": "cumFundingRate",
            "offset": 0,
            "slot": "2",
            "type": "t_int256"
          },
          {
            "astId": 10836,
            "contract": "contracts/Perpetual.sol:Perpetual",
            "label": "liquidityBalance",
            "offset": 0,
            "slot": "3",
            "type": "t_uint256"
          },
          {
            "astId": 10838,
            "contract": "contracts/Perpetual.sol:Perpetual",
            "label": "totalTradingFeesGrowth",
            "offset": 0,
            "slot": "4",
            "type": "t_uint256"
          },
          {
            "astId": 10840,
            "contract": "contracts/Perpetual.sol:Perpetual",
            "label": "totalBaseFeesGrowth",
            "offset": 0,
            "slot": "5",
            "type": "t_uint256"
          },
          {
            "astId": 10842,
            "contract": "contracts/Perpetual.sol:Perpetual",
            "label": "totalQuoteFeesGrowth",
            "offset": 0,
            "slot": "6",
            "type": "t_uint256"
          }
        ],
        "numberOfBytes": "224"
      },
      "t_struct(TraderPosition)10850_storage": {
        "encoding": "inplace",
        "label": "struct LibPerpetual.TraderPosition",
        "members": [
          {
            "astId": 10845,
            "contract": "contracts/Perpetual.sol:Perpetual",
            "label": "openNotional",
            "offset": 0,
            "slot": "0",
            "type": "t_int256"
          },
          {
            "astId": 10847,
            "contract": "contracts/Perpetual.sol:Perpetual",
            "label": "positionSize",
            "offset": 0,
            "slot": "1",
            "type": "t_int256"
          },
          {
            "astId": 10849,
            "contract": "contracts/Perpetual.sol:Perpetual",
            "label": "cumFundingRate",
            "offset": 0,
            "slot": "2",
            "type": "t_int256"
          }
        ],
        "numberOfBytes": "96"
      },
      "t_uint128": {
        "encoding": "inplace",
        "label": "uint128",
        "numberOfBytes": "16"
      },
      "t_uint256": {
        "encoding": "inplace",
        "label": "uint256",
        "numberOfBytes": "32"
      }
    }
  }
}