{
  "address": "0x0fc75C7aFBe5b2dBb980539aa2775902b53fcaF1",
  "abi": [
    {
      "inputs": [
        {
          "internalType": "address",
          "name": "_reserveToken",
          "type": "address"
        }
      ],
      "stateMutability": "nonpayable",
      "type": "constructor"
    },
    {
      "inputs": [],
      "name": "LibReserve_ExcessiveDecimals",
      "type": "error"
    },
    {
      "inputs": [],
      "name": "UA_ReserveTokenZeroAddress",
      "type": "error"
    },
    {
      "anonymous": false,
      "inputs": [
        {
          "indexed": true,
          "internalType": "address",
          "name": "owner",
          "type": "address"
        },
        {
          "indexed": true,
          "internalType": "address",
          "name": "spender",
          "type": "address"
        },
        {
          "indexed": false,
          "internalType": "uint256",
          "name": "value",
          "type": "uint256"
        }
      ],
      "name": "Approval",
      "type": "event"
    },
    {
      "anonymous": false,
      "inputs": [
        {
          "indexed": true,
          "internalType": "address",
          "name": "from",
          "type": "address"
        },
        {
          "indexed": true,
          "internalType": "address",
          "name": "to",
          "type": "address"
        },
        {
          "indexed": false,
          "internalType": "uint256",
          "name": "value",
          "type": "uint256"
        }
      ],
      "name": "Transfer",
      "type": "event"
    },
    {
      "inputs": [
        {
          "internalType": "address",
          "name": "",
          "type": "address"
        },
        {
          "internalType": "address",
          "name": "",
          "type": "address"
        }
      ],
      "name": "allowance",
      "outputs": [
        {
          "internalType": "uint256",
          "name": "",
          "type": "uint256"
        }
      ],
      "stateMutability": "view",
      "type": "function"
    },
    {
      "inputs": [
        {
          "internalType": "address",
          "name": "spender",
          "type": "address"
        },
        {
          "internalType": "uint256",
          "name": "amount",
          "type": "uint256"
        }
      ],
      "name": "approve",
      "outputs": [
        {
          "internalType": "bool",
          "name": "",
          "type": "bool"
        }
      ],
      "stateMutability": "nonpayable",
      "type": "function"
    },
    {
      "inputs": [
        {
          "internalType": "address",
          "name": "",
          "type": "address"
        }
      ],
      "name": "balanceOf",
      "outputs": [
        {
          "internalType": "uint256",
          "name": "",
          "type": "uint256"
        }
      ],
      "stateMutability": "view",
      "type": "function"
    },
    {
      "inputs": [],
      "name": "decimals",
      "outputs": [
        {
          "internalType": "uint8",
          "name": "",
          "type": "uint8"
        }
      ],
      "stateMutability": "view",
      "type": "function"
    },
    {
      "inputs": [
        {
          "internalType": "uint256",
          "name": "amount",
          "type": "uint256"
        }
      ],
      "name": "mintWithReserve",
      "outputs": [],
      "stateMutability": "nonpayable",
      "type": "function"
    },
    {
      "inputs": [],
      "name": "name",
      "outputs": [
        {
          "internalType": "string",
          "name": "",
          "type": "string"
        }
      ],
      "stateMutability": "view",
      "type": "function"
    },
    {
      "inputs": [],
      "name": "reserveToken",
      "outputs": [
        {
          "internalType": "contract IERC20Metadata",
          "name": "",
          "type": "address"
        }
      ],
      "stateMutability": "view",
      "type": "function"
    },
    {
      "inputs": [],
      "name": "symbol",
      "outputs": [
        {
          "internalType": "string",
          "name": "",
          "type": "string"
        }
      ],
      "stateMutability": "view",
      "type": "function"
    },
    {
      "inputs": [],
      "name": "totalSupply",
      "outputs": [
        {
          "internalType": "uint256",
          "name": "",
          "type": "uint256"
        }
      ],
      "stateMutability": "view",
      "type": "function"
    },
    {
      "inputs": [
        {
          "internalType": "address",
          "name": "to",
          "type": "address"
        },
        {
          "internalType": "uint256",
          "name": "amount",
          "type": "uint256"
        }
      ],
      "name": "transfer",
      "outputs": [
        {
          "internalType": "bool",
          "name": "",
          "type": "bool"
        }
      ],
      "stateMutability": "nonpayable",
      "type": "function"
    },
    {
      "inputs": [
        {
          "internalType": "address",
          "name": "from",
          "type": "address"
        },
        {
          "internalType": "address",
          "name": "to",
          "type": "address"
        },
        {
          "internalType": "uint256",
          "name": "amount",
          "type": "uint256"
        }
      ],
      "name": "transferFrom",
      "outputs": [
        {
          "internalType": "bool",
          "name": "",
          "type": "bool"
        }
      ],
      "stateMutability": "nonpayable",
      "type": "function"
    },
    {
      "inputs": [
        {
          "internalType": "uint256",
          "name": "amount",
          "type": "uint256"
        }
      ],
      "name": "withdraw",
      "outputs": [],
      "stateMutability": "nonpayable",
      "type": "function"
    }
  ],
  "transactionHash": "0xc4ed9ce11e7b30c774d638007033800fbd55ee939df23c4614cfd0b22625bf8c",
  "args": [
    "0xA0b86991c6218b36c1d19D4a2e9Eb0cE3606eB48"
  ],
  "solcInputHash": "0e343dabaf86f1433359bcaf3343f5ad",
  "bytecode": "0x60a06040523480156200001157600080fd5b506040516200116a3803806200116a833981016040819052620000349162000190565b604080518082018252601981527f496e6372656d656e7420556e6974206f66204163636f756e7400000000000000602080830191825283518085019094526002845261554160f01b9084015281519192916200009391600091620000ea565b508051620000a9906001906020840190620000ea565b5050506001600160a01b038116620000d457604051631715e99b60e11b815260040160405180910390fd5b60601b6001600160601b031916608052620001fd565b828054620000f890620001c0565b90600052602060002090601f0160209004810192826200011c576000855562000167565b82601f106200013757805160ff191683800117855562000167565b8280016001018555821562000167579182015b82811115620001675782518255916020019190600101906200014a565b506200017592915062000179565b5090565b5b808211156200017557600081556001016200017a565b600060208284031215620001a2578081fd5b81516001600160a01b0381168114620001b9578182fd5b9392505050565b600181811c90821680620001d557607f821691505b60208210811415620001f757634e487b7160e01b600052602260045260246000fd5b50919050565b60805160601c610f3262000238600039600081816101d1015281816103fc015281816104ad015281816104f201526105240152610f326000f3fe608060405234801561001057600080fd5b50600436106100b45760003560e01c806370a082311161007157806370a082311461015357806395d89b4114610173578063a5f4ad501461017b578063a9059cbb1461018e578063dd62ed3e146101a1578063f4325d67146101cc57600080fd5b806306fdde03146100b9578063095ea7b3146100d757806318160ddd146100fa57806323b872dd146101115780632e1a7d4d14610124578063313ce56714610139575b600080fd5b6100c161020b565b6040516100ce9190610c32565b60405180910390f35b6100ea6100e5366004610b94565b610299565b60405190151581526020016100ce565b61010360025481565b6040519081526020016100ce565b6100ea61011f366004610b59565b610306565b610137610132366004610bdd565b6103e8565b005b610141601281565b60405160ff90911681526020016100ce565b610103610161366004610b0d565b60036020526000908152604090205481565b6100c16104d8565b610137610189366004610bdd565b6104e5565b6100ea61019c366004610b94565b6105cd565b6101036101af366004610b27565b600460209081526000928352604080842090915290825290205481565b6101f37f000000000000000000000000000000000000000000000000000000000000000081565b6040516001600160a01b0390911681526020016100ce565b6000805461021890610e8b565b80601f016020809104026020016040519081016040528092919081815260200182805461024490610e8b565b80156102915780601f1061026657610100808354040283529160200191610291565b820191906000526020600020905b81548152906001019060200180831161027457829003601f168201915b505050505081565b3360008181526004602090815260408083206001600160a01b038716808552925280832085905551919290917f8c5be1e5ebec7d5bd14f71427d1e84f3dd0314c0f7b2291e5b200ac8c7c3b925906102f49086815260200190565b60405180910390a35060015b92915050565b6001600160a01b038316600090815260046020908152604080832033845290915281205460001981146103625761033d8382610e25565b6001600160a01b03861660009081526004602090815260408083203384529091529020555b6001600160a01b0385166000908152600360205260408120805485929061038a908490610e25565b90915550506001600160a01b0380851660008181526003602052604090819020805487019055519091871690600080516020610edd833981519152906103d39087815260200190565b60405180910390a360019150505b9392505050565b6103f23382610633565b600061049e6104997f00000000000000000000000000000000000000000000000000000000000000006001600160a01b031663313ce5676040518163ffffffff1660e01b815260040160206040518083038186803b15801561045357600080fd5b505afa158015610467573d6000803e3d6000fd5b505050506040513d601f19601f8201168201806040525081019061048b9190610bf5565b6104948561069d565b6106a8565b6106fe565b90506104d46001600160a01b037f0000000000000000000000000000000000000000000000000000000000000000163383610709565b5050565b6001805461021890610e8b565b61051a6001600160a01b037f000000000000000000000000000000000000000000000000000000000000000016333084610771565b60006105c16104997f00000000000000000000000000000000000000000000000000000000000000006001600160a01b031663313ce5676040518163ffffffff1660e01b815260040160206040518083038186803b15801561057b57600080fd5b505afa15801561058f573d6000803e3d6000fd5b505050506040513d601f19601f820116820180604052508101906105b39190610bf5565b6105bc8561069d565b6107af565b90506104d433826107fd565b336000908152600360205260408120805483919083906105ee908490610e25565b90915550506001600160a01b03831660008181526003602052604090819020805485019055513390600080516020610edd833981519152906102f49086815260200190565b6001600160a01b0382166000908152600360205260408120805483929061065b908490610e25565b90915550506002805482900390556040518181526000906001600160a01b03841690600080516020610edd833981519152906020015b60405180910390a35050565b60006103008261084f565b6000601260ff841611156106cf57604051635bb8b4ef60e11b815260040160405180910390fd5b60006106dc846012610e3c565b6106ea9060ff16600a610cfa565b90506106f68184610c7d565b949350505050565b6000610300826108c2565b6040516001600160a01b03831660248201526044810182905261076c90849063a9059cbb60e01b906064015b60408051601f198184030181529190526020810180516001600160e01b03166001600160e01b031990931692909217909152610914565b505050565b6040516001600160a01b03808516602483015283166044820152606481018290526107a99085906323b872dd60e01b90608401610735565b50505050565b6000601260ff841611156107d657604051635bb8b4ef60e11b815260040160405180910390fd5b60006107e3846012610e3c565b6107f19060ff16600a610cfa565b90506106f68184610da2565b806002600082825461080f9190610c65565b90915550506001600160a01b038216600081815260036020908152604080832080548601905551848152600080516020610edd8339815191529101610691565b60006001600160ff1b038211156108be5760405162461bcd60e51b815260206004820152602860248201527f53616665436173743a2076616c756520646f65736e27742066697420696e2061604482015267371034b73a191a9b60c11b60648201526084015b60405180910390fd5b5090565b6000808212156108be5760405162461bcd60e51b815260206004820181905260248201527f53616665436173743a2076616c7565206d75737420626520706f73697469766560448201526064016108b5565b6000610969826040518060400160405280602081526020017f5361666545524332303a206c6f772d6c6576656c2063616c6c206661696c6564815250856001600160a01b03166109e69092919063ffffffff16565b80519091501561076c57808060200190518101906109879190610bbd565b61076c5760405162461bcd60e51b815260206004820152602a60248201527f5361666545524332303a204552433230206f7065726174696f6e20646964206e6044820152691bdd081cdd58d8d9595960b21b60648201526084016108b5565b60606106f6848460008585843b610a3f5760405162461bcd60e51b815260206004820152601d60248201527f416464726573733a2063616c6c20746f206e6f6e2d636f6e747261637400000060448201526064016108b5565b600080866001600160a01b03168587604051610a5b9190610c16565b60006040518083038185875af1925050503d8060008114610a98576040519150601f19603f3d011682016040523d82523d6000602084013e610a9d565b606091505b5091509150610aad828286610ab8565b979650505050505050565b60608315610ac75750816103e1565b825115610ad75782518084602001fd5b8160405162461bcd60e51b81526004016108b59190610c32565b80356001600160a01b0381168114610b0857600080fd5b919050565b600060208284031215610b1e578081fd5b6103e182610af1565b60008060408385031215610b39578081fd5b610b4283610af1565b9150610b5060208401610af1565b90509250929050565b600080600060608486031215610b6d578081fd5b610b7684610af1565b9250610b8460208501610af1565b9150604084013590509250925092565b60008060408385031215610ba6578182fd5b610baf83610af1565b946020939093013593505050565b600060208284031215610bce578081fd5b815180151581146103e1578182fd5b600060208284031215610bee578081fd5b5035919050565b600060208284031215610c06578081fd5b815160ff811681146103e1578182fd5b60008251610c28818460208701610e5f565b9190910192915050565b6020815260008251806020840152610c51816040850160208701610e5f565b601f01601f19169190910160400192915050565b60008219821115610c7857610c78610ec6565b500190565b600082610c9857634e487b7160e01b81526012600452602481fd5b600160ff1b821460001984141615610cb257610cb2610ec6565b500590565b600181815b80851115610cf2578160001904821115610cd857610cd8610ec6565b80851615610ce557918102915b93841c9390800290610cbc565b509250929050565b60006103e18383600082610d1057506001610300565b81610d1d57506000610300565b8160018114610d335760028114610d3d57610d59565b6001915050610300565b60ff841115610d4e57610d4e610ec6565b50506001821b610300565b5060208310610133831016604e8410600b8410161715610d7c575081810a610300565b610d868383610cb7565b8060001904821115610d9a57610d9a610ec6565b029392505050565b60006001600160ff1b0381841382841380821686840486111615610dc857610dc8610ec6565b600160ff1b84871282811687830589121615610de657610de6610ec6565b858712925087820587128484161615610e0157610e01610ec6565b87850587128184161615610e1757610e17610ec6565b505050929093029392505050565b600082821015610e3757610e37610ec6565b500390565b600060ff821660ff841680821015610e5657610e56610ec6565b90039392505050565b60005b83811015610e7a578181015183820152602001610e62565b838111156107a95750506000910152565b600181811c90821680610e9f57607f821691505b60208210811415610ec057634e487b7160e01b600052602260045260246000fd5b50919050565b634e487b7160e01b600052601160045260246000fdfeddf252ad1be2c89b69c2b068fc378daa952ba7f163c4a11628f55a4df523b3efa264697066735822122023b94904f06c77c9b35bd0b03cd125ac62e068d7cbcce1ca64bd9bb12024578864736f6c63430008040033",
  "devdoc": {
    "kind": "dev",
    "methods": {
      "approve(address,uint256)": {
        "details": "Sets `amount` as the allowance of `spender` over the caller's tokens. Returns a boolean value indicating whether the operation succeeded. IMPORTANT: Beware that changing an allowance with this method brings the risk that someone may use both the old and the new allowance by unfortunate transaction ordering. One possible solution to mitigate this race condition is to first reduce the spender's allowance to 0 and set the desired value afterwards: https://github.com/ethereum/EIPs/issues/20#issuecomment-263524729 Emits an {Approval} event."
      },
      "mintWithReserve(uint256)": {
        "params": {
          "amount": "Amount of reserve token, i.e. USDC amount. 6 decimals"
        }
      },
      "withdraw(uint256)": {
        "params": {
          "amount": "UA amount. 18 decimals"
        }
      }
    },
    "version": 1
  },
  "userdoc": {
    "errors": {
      "LibReserve_ExcessiveDecimals()": [
        {
          "notice": "Emitted when the proposed token decimals exceeds MAX_DECIMALS"
        }
      ],
      "UA_ReserveTokenZeroAddress()": [
        {
          "notice": "Emitted when the proposed insurance address is equal to the zero address"
        }
      ]
    },
    "kind": "user",
    "methods": {
      "mintWithReserve(uint256)": {
        "notice": "Mint UA with USDC, 1:1 backed"
      },
      "withdraw(uint256)": {
        "notice": "Burn UA in exchange of USDC"
      }
    },
    "notice": "Unit of Account (UA) is a USDC-backed token used as the unit of account accross Increment",
    "version": 1
  },
  "storageLayout": {
    "storage": [
      {
        "astId": 11834,
        "contract": "contracts/tokens/UA.sol:UA",
        "label": "name",
        "offset": 0,
        "slot": "0",
        "type": "t_string_storage"
      },
      {
        "astId": 11837,
        "contract": "contracts/tokens/UA.sol:UA",
        "label": "symbol",
        "offset": 0,
        "slot": "1",
        "type": "t_string_storage"
      },
      {
        "astId": 11844,
        "contract": "contracts/tokens/UA.sol:UA",
        "label": "totalSupply",
        "offset": 0,
        "slot": "2",
        "type": "t_uint256"
      },
      {
        "astId": 11849,
        "contract": "contracts/tokens/UA.sol:UA",
        "label": "balanceOf",
        "offset": 0,
        "slot": "3",
        "type": "t_mapping(t_address,t_uint256)"
      },
      {
        "astId": 11856,
        "contract": "contracts/tokens/UA.sol:UA",
        "label": "allowance",
        "offset": 0,
        "slot": "4",
        "type": "t_mapping(t_address,t_mapping(t_address,t_uint256))"
      }
    ],
    "types": {
      "t_address": {
        "encoding": "inplace",
        "label": "address",
        "numberOfBytes": "20"
      },
      "t_mapping(t_address,t_mapping(t_address,t_uint256))": {
        "encoding": "mapping",
        "key": "t_address",
        "label": "mapping(address => mapping(address => uint256))",
        "numberOfBytes": "32",
        "value": "t_mapping(t_address,t_uint256)"
      },
      "t_mapping(t_address,t_uint256)": {
        "encoding": "mapping",
        "key": "t_address",
        "label": "mapping(address => uint256)",
        "numberOfBytes": "32",
        "value": "t_uint256"
      },
      "t_string_storage": {
        "encoding": "bytes",
        "label": "string",
        "numberOfBytes": "32"
      },
      "t_uint256": {
        "encoding": "inplace",
        "label": "uint256",
        "numberOfBytes": "32"
      }
    }
  }
}