{
  "address": "0xE859bDC7975C90dC178F041b0647B40C52548bbE",
  "abi": [
    {
      "inputs": [
        {
          "internalType": "contract IERC20Metadata",
          "name": "_ua",
          "type": "address"
        }
      ],
      "stateMutability": "nonpayable",
      "type": "constructor"
    },
    {
      "inputs": [],
      "name": "IncreOwnable_NotOwner",
      "type": "error"
    },
    {
      "inputs": [],
      "name": "IncreOwnable_NotPendingOwner",
      "type": "error"
    },
    {
      "inputs": [],
      "name": "IncreOwnable_TransferZeroAddress",
      "type": "error"
    },
    {
      "inputs": [],
      "name": "LibReserve_ExcessiveDecimals",
      "type": "error"
    },
    {
      "inputs": [],
      "name": "PRBMathSD59x18__MulInputTooSmall",
      "type": "error"
    },
    {
      "inputs": [
        {
          "internalType": "uint256",
          "name": "rAbs",
          "type": "uint256"
        }
      ],
      "name": "PRBMathSD59x18__MulOverflow",
      "type": "error"
    },
    {
      "inputs": [
        {
          "internalType": "uint256",
          "name": "prod1",
          "type": "uint256"
        }
      ],
      "name": "PRBMath__MulDivFixedPointOverflow",
      "type": "error"
    },
    {
      "inputs": [
        {
          "internalType": "uint256",
          "name": "prod1",
          "type": "uint256"
        },
        {
          "internalType": "uint256",
          "name": "denominator",
          "type": "uint256"
        }
      ],
      "name": "PRBMath__MulDivOverflow",
      "type": "error"
    },
    {
      "inputs": [],
      "name": "Vault_ClearingHouseZeroAddress",
      "type": "error"
    },
    {
      "inputs": [],
      "name": "Vault_CollateralAlreadyWhiteListed",
      "type": "error"
    },
    {
      "inputs": [],
      "name": "Vault_ExcessiveCollateralWeight",
      "type": "error"
    },
    {
      "inputs": [],
      "name": "Vault_ExcessiveDecimalsConstructor",
      "type": "error"
    },
    {
      "inputs": [],
      "name": "Vault_InsufficientBalance",
      "type": "error"
    },
    {
      "inputs": [],
      "name": "Vault_InsufficientCollateralWeight",
      "type": "error"
    },
    {
      "inputs": [],
      "name": "Vault_InsuranceZeroAddress",
      "type": "error"
    },
    {
      "inputs": [],
      "name": "Vault_OracleZeroAddress",
      "type": "error"
    },
    {
      "inputs": [],
      "name": "Vault_SenderNotClearingHouse",
      "type": "error"
    },
    {
      "inputs": [],
      "name": "Vault_UADebt",
      "type": "error"
    },
    {
      "inputs": [],
      "name": "Vault_UnsupportedCollateral",
      "type": "error"
    },
    {
      "inputs": [],
      "name": "Vault_WithdrawBalanceBelowMin",
      "type": "error"
    },
    {
      "inputs": [],
      "name": "Vault_WithdrawExcessiveAmount",
      "type": "error"
    },
    {
      "inputs": [],
      "name": "Vault_WithdrawReductionRatioTooHigh",
      "type": "error"
    },
    {
      "inputs": [
        {
          "internalType": "uint8",
          "name": "paramIndex",
          "type": "uint8"
        }
      ],
      "name": "Vault_ZeroAddressConstructor",
      "type": "error"
    },
    {
      "anonymous": false,
      "inputs": [
        {
          "indexed": false,
          "internalType": "contract IClearingHouse",
          "name": "newClearingHouse",
          "type": "address"
        }
      ],
      "name": "ClearingHouseChanged",
      "type": "event"
    },
    {
      "anonymous": false,
      "inputs": [
        {
          "indexed": false,
          "internalType": "contract IERC20Metadata",
          "name": "asset",
          "type": "address"
        },
        {
          "indexed": false,
          "internalType": "uint256",
          "name": "weight",
          "type": "uint256"
        }
      ],
      "name": "CollateralAdded",
      "type": "event"
    },
    {
      "anonymous": false,
      "inputs": [
        {
          "indexed": false,
          "internalType": "contract IERC20Metadata",
          "name": "asset",
          "type": "address"
        },
        {
          "indexed": false,
          "internalType": "uint256",
          "name": "newWeight",
          "type": "uint256"
        }
      ],
      "name": "CollateralWeightChanged",
      "type": "event"
    },
    {
      "anonymous": false,
      "inputs": [
        {
          "indexed": true,
          "internalType": "uint256",
          "name": "idx",
          "type": "uint256"
        },
        {
          "indexed": true,
          "internalType": "address",
          "name": "user",
          "type": "address"
        },
        {
          "indexed": true,
          "internalType": "address",
          "name": "asset",
          "type": "address"
        },
        {
          "indexed": false,
          "internalType": "uint256",
          "name": "amount",
          "type": "uint256"
        }
      ],
      "name": "Deposit",
      "type": "event"
    },
    {
      "anonymous": false,
      "inputs": [
        {
          "indexed": false,
          "internalType": "contract IInsurance",
          "name": "newInsurance",
          "type": "address"
        }
      ],
      "name": "InsuranceChanged",
      "type": "event"
    },
    {
      "anonymous": false,
      "inputs": [
        {
          "indexed": false,
          "internalType": "contract IOracle",
          "name": "newOracle",
          "type": "address"
        }
      ],
      "name": "OracleChanged",
      "type": "event"
    },
    {
      "anonymous": false,
      "inputs": [
        {
          "indexed": false,
          "internalType": "uint256",
          "name": "idx",
          "type": "uint256"
        },
        {
          "indexed": false,
          "internalType": "address",
          "name": "beneficiary",
          "type": "address"
        },
        {
          "indexed": false,
          "internalType": "uint256",
          "name": "amount",
          "type": "uint256"
        }
      ],
      "name": "TraderBadDebtGenerated",
      "type": "event"
    },
    {
      "anonymous": false,
      "inputs": [
        {
          "indexed": true,
          "internalType": "address",
          "name": "sender",
          "type": "address"
        },
        {
          "indexed": true,
          "internalType": "address",
          "name": "recipient",
          "type": "address"
        }
      ],
      "name": "TransferOwner",
      "type": "event"
    },
    {
      "anonymous": false,
      "inputs": [
        {
          "indexed": true,
          "internalType": "address",
          "name": "sender",
          "type": "address"
        },
        {
          "indexed": true,
          "internalType": "address",
          "name": "recipient",
          "type": "address"
        }
      ],
      "name": "TransferOwnerClaim",
      "type": "event"
    },
    {
      "anonymous": false,
      "inputs": [
        {
          "indexed": true,
          "internalType": "uint256",
          "name": "idx",
          "type": "uint256"
        },
        {
          "indexed": true,
          "internalType": "address",
          "name": "user",
          "type": "address"
        },
        {
          "indexed": true,
          "internalType": "address",
          "name": "asset",
          "type": "address"
        },
        {
          "indexed": false,
          "internalType": "uint256",
          "name": "amount",
          "type": "uint256"
        }
      ],
      "name": "Withdraw",
      "type": "event"
    },
    {
      "inputs": [],
      "name": "UA",
      "outputs": [
        {
          "internalType": "contract IERC20Metadata",
          "name": "",
          "type": "address"
        }
      ],
      "stateMutability": "view",
      "type": "function"
    },
    {
      "inputs": [],
      "name": "UA_IDX",
      "outputs": [
        {
          "internalType": "uint256",
          "name": "",
          "type": "uint256"
        }
      ],
      "stateMutability": "view",
      "type": "function"
    },
    {
      "inputs": [
        {
          "internalType": "contract IERC20Metadata",
          "name": "asset",
          "type": "address"
        },
        {
          "internalType": "uint256",
          "name": "weight",
          "type": "uint256"
        }
      ],
      "name": "addWhiteListedCollateral",
      "outputs": [],
      "stateMutability": "nonpayable",
      "type": "function"
    },
    {
      "inputs": [
        {
          "internalType": "contract IERC20Metadata",
          "name": "asset",
          "type": "address"
        },
        {
          "internalType": "uint256",
          "name": "newWeight",
          "type": "uint256"
        }
      ],
      "name": "changeCollateralWeight",
      "outputs": [],
      "stateMutability": "nonpayable",
      "type": "function"
    },
    {
      "inputs": [],
      "name": "claimOwner",
      "outputs": [],
      "stateMutability": "nonpayable",
      "type": "function"
    },
    {
      "inputs": [],
      "name": "clearingHouse",
      "outputs": [
        {
          "internalType": "contract IClearingHouse",
          "name": "",
          "type": "address"
        }
      ],
      "stateMutability": "view",
      "type": "function"
    },
    {
      "inputs": [
        {
          "internalType": "uint256",
          "name": "marketIdx",
          "type": "uint256"
        },
        {
          "internalType": "address",
          "name": "user",
          "type": "address"
        },
        {
          "internalType": "uint256",
          "name": "amount",
          "type": "uint256"
        },
        {
          "internalType": "contract IERC20Metadata",
          "name": "depositToken",
          "type": "address"
        },
        {
          "internalType": "bool",
          "name": "isTrader",
          "type": "bool"
        }
      ],
      "name": "deposit",
      "outputs": [
        {
          "internalType": "int256",
          "name": "amountUSDValue",
          "type": "int256"
        }
      ],
      "stateMutability": "nonpayable",
      "type": "function"
    },
    {
      "inputs": [],
      "name": "getBadDebt",
      "outputs": [
        {
          "internalType": "uint256",
          "name": "",
          "type": "uint256"
        }
      ],
      "stateMutability": "view",
      "type": "function"
    },
    {
      "inputs": [
        {
          "internalType": "address",
          "name": "user",
          "type": "address"
        },
        {
          "internalType": "uint256",
          "name": "marketIdx",
          "type": "uint256"
        },
        {
          "internalType": "uint256",
          "name": "tokenIdx",
          "type": "uint256"
        }
      ],
      "name": "getLpBalance",
      "outputs": [
        {
          "internalType": "int256",
          "name": "",
          "type": "int256"
        }
      ],
      "stateMutability": "view",
      "type": "function"
    },
    {
      "inputs": [
        {
          "internalType": "uint256",
          "name": "marketIdx",
          "type": "uint256"
        },
        {
          "internalType": "address",
          "name": "lp",
          "type": "address"
        }
      ],
      "name": "getLpReserveValue",
      "outputs": [
        {
          "internalType": "int256",
          "name": "",
          "type": "int256"
        }
      ],
      "stateMutability": "view",
      "type": "function"
    },
    {
      "inputs": [],
      "name": "getTotalValueLocked",
      "outputs": [
        {
          "internalType": "uint256",
          "name": "",
          "type": "uint256"
        }
      ],
      "stateMutability": "view",
      "type": "function"
    },
    {
      "inputs": [
        {
          "internalType": "address",
          "name": "user",
          "type": "address"
        },
        {
          "internalType": "uint256",
          "name": "marketIdx",
          "type": "uint256"
        },
        {
          "internalType": "uint256",
          "name": "tokenIdx",
          "type": "uint256"
        }
      ],
      "name": "getTraderBalance",
      "outputs": [
        {
          "internalType": "int256",
          "name": "",
          "type": "int256"
        }
      ],
      "stateMutability": "view",
      "type": "function"
    },
    {
      "inputs": [
        {
          "internalType": "uint256",
          "name": "marketIdx",
          "type": "uint256"
        },
        {
          "internalType": "address",
          "name": "trader",
          "type": "address"
        }
      ],
      "name": "getTraderReserveValue",
      "outputs": [
        {
          "internalType": "int256",
          "name": "",
          "type": "int256"
        }
      ],
      "stateMutability": "view",
      "type": "function"
    },
    {
      "inputs": [],
      "name": "getWhiteListedCollaterals",
      "outputs": [
        {
          "components": [
            {
              "internalType": "contract IERC20Metadata",
              "name": "asset",
              "type": "address"
            },
            {
              "internalType": "uint256",
              "name": "weight",
              "type": "uint256"
            },
            {
              "internalType": "uint8",
              "name": "decimals",
              "type": "uint8"
            }
          ],
          "internalType": "struct IVault.Collateral[]",
          "name": "",
          "type": "tuple[]"
        }
      ],
      "stateMutability": "view",
      "type": "function"
    },
    {
      "inputs": [],
      "name": "insurance",
      "outputs": [
        {
          "internalType": "contract IInsurance",
          "name": "",
          "type": "address"
        }
      ],
      "stateMutability": "view",
      "type": "function"
    },
    {
      "inputs": [],
      "name": "oracle",
      "outputs": [
        {
          "internalType": "contract IOracle",
          "name": "",
          "type": "address"
        }
      ],
      "stateMutability": "view",
      "type": "function"
    },
    {
      "inputs": [],
      "name": "owner",
      "outputs": [
        {
          "internalType": "address",
          "name": "",
          "type": "address"
        }
      ],
      "stateMutability": "view",
      "type": "function"
    },
    {
      "inputs": [],
      "name": "pendingOwner",
      "outputs": [
        {
          "internalType": "address",
          "name": "",
          "type": "address"
        }
      ],
      "stateMutability": "view",
      "type": "function"
    },
    {
      "inputs": [
        {
          "internalType": "contract IClearingHouse",
          "name": "newClearingHouse",
          "type": "address"
        }
      ],
      "name": "setClearingHouse",
      "outputs": [],
      "stateMutability": "nonpayable",
      "type": "function"
    },
    {
      "inputs": [
        {
          "internalType": "contract IInsurance",
          "name": "newInsurance",
          "type": "address"
        }
      ],
      "name": "setInsurance",
      "outputs": [],
      "stateMutability": "nonpayable",
      "type": "function"
    },
    {
      "inputs": [
        {
          "internalType": "contract IOracle",
          "name": "newOracle",
          "type": "address"
        }
      ],
      "name": "setOracle",
      "outputs": [],
      "stateMutability": "nonpayable",
      "type": "function"
    },
    {
      "inputs": [
        {
          "internalType": "address",
          "name": "liquidator",
          "type": "address"
        },
        {
          "internalType": "address",
          "name": "liquidatee",
          "type": "address"
        },
        {
          "internalType": "uint256",
          "name": "marketIdx",
          "type": "uint256"
        },
        {
          "internalType": "bool",
          "name": "isTrader",
          "type": "bool"
        }
      ],
      "name": "settleLiquidationOnCollaterals",
      "outputs": [],
      "stateMutability": "nonpayable",
      "type": "function"
    },
    {
      "inputs": [
        {
          "internalType": "uint256",
          "name": "marketIdx",
          "type": "uint256"
        },
        {
          "internalType": "address",
          "name": "user",
          "type": "address"
        },
        {
          "internalType": "int256",
          "name": "amount",
          "type": "int256"
        },
        {
          "internalType": "bool",
          "name": "isTrader",
          "type": "bool"
        }
      ],
      "name": "settlePnL",
      "outputs": [],
      "stateMutability": "nonpayable",
      "type": "function"
    },
    {
      "inputs": [
        {
          "internalType": "contract IERC20Metadata",
          "name": "",
          "type": "address"
        }
      ],
      "name": "tokenToCollateralIdx",
      "outputs": [
        {
          "internalType": "uint256",
          "name": "",
          "type": "uint256"
        }
      ],
      "stateMutability": "view",
      "type": "function"
    },
    {
      "inputs": [
        {
          "internalType": "address",
          "name": "recipient",
          "type": "address"
        },
        {
          "internalType": "bool",
          "name": "direct",
          "type": "bool"
        }
      ],
      "name": "transferOwner",
      "outputs": [],
      "stateMutability": "nonpayable",
      "type": "function"
    },
    {
      "inputs": [
        {
          "internalType": "address",
          "name": "user",
          "type": "address"
        },
        {
          "internalType": "uint256",
          "name": "amount",
          "type": "uint256"
        }
      ],
      "name": "transferUa",
      "outputs": [],
      "stateMutability": "nonpayable",
      "type": "function"
    },
    {
      "inputs": [
        {
          "internalType": "uint256",
          "name": "",
          "type": "uint256"
        }
      ],
      "name": "whiteListedCollaterals",
      "outputs": [
        {
          "internalType": "contract IERC20Metadata",
          "name": "asset",
          "type": "address"
        },
        {
          "internalType": "uint256",
          "name": "weight",
          "type": "uint256"
        },
        {
          "internalType": "uint8",
          "name": "decimals",
          "type": "uint8"
        }
      ],
      "stateMutability": "view",
      "type": "function"
    },
    {
      "inputs": [
        {
          "internalType": "uint256",
          "name": "marketIdx",
          "type": "uint256"
        },
        {
          "internalType": "address",
          "name": "user",
          "type": "address"
        },
        {
          "internalType": "uint256",
          "name": "amount",
          "type": "uint256"
        },
        {
          "internalType": "contract IERC20Metadata",
          "name": "withdrawToken",
          "type": "address"
        },
        {
          "internalType": "bool",
          "name": "isTrader",
          "type": "bool"
        }
      ],
      "name": "withdraw",
      "outputs": [],
      "stateMutability": "nonpayable",
      "type": "function"
    },
    {
      "inputs": [
        {
          "internalType": "uint256",
          "name": "marketIdx",
          "type": "uint256"
        },
        {
          "internalType": "address",
          "name": "user",
          "type": "address"
        },
        {
          "internalType": "contract IERC20Metadata",
          "name": "withdrawToken",
          "type": "address"
        },
        {
          "internalType": "bool",
          "name": "isTrader",
          "type": "bool"
        }
      ],
      "name": "withdrawAll",
      "outputs": [],
      "stateMutability": "nonpayable",
      "type": "function"
    },
    {
      "inputs": [
        {
          "internalType": "uint256",
          "name": "marketIdx",
          "type": "uint256"
        },
        {
          "internalType": "address",
          "name": "user",
          "type": "address"
        },
        {
          "internalType": "uint256",
          "name": "reductionRatio",
          "type": "uint256"
        },
        {
          "internalType": "bool",
          "name": "isTrader",
          "type": "bool"
        }
      ],
      "name": "withdrawPartial",
      "outputs": [],
      "stateMutability": "nonpayable",
      "type": "function"
    }
  ],
  "transactionHash": "0xc1f7bf718228921f5033fdfdaef372ee7a537531eecbbbbe425fa0ddbfa0315b",
  "args": [
    "0x0fc75C7aFBe5b2dBb980539aa2775902b53fcaF1"
  ],
  "solcInputHash": "0e343dabaf86f1433359bcaf3343f5ad",
  "bytecode": "0x60a06040523480156200001157600080fd5b50604051620031c2380380620031c283398101604081905262000034916200033c565b600080546001600160a01b0319163390811782556040519091907f5bb496b3f951b55d3a1d8e479725a4d25bdc7644fc355f0b71c540354820a1c5908290a36001600160a01b038116620000a25760405163356b644560e01b81526000600482015260240160405180910390fd5b6001600160601b0319606082901b16608052620000c881670de0b6b3a7640000620000cf565b50620003dd565b6000546001600160a01b03163314620000fb57604051637d369bab60e11b815260040160405180910390fd5b662386f26fc100008110156200012457604051632e01c96360e01b815260040160405180910390fd5b670de0b6b3a76400008111156200014e57604051635f08f99d60e01b815260040160405180910390fd5b60005b600654811015620001d757826001600160a01b0316600682815481106200018857634e487b7160e01b600052603260045260246000fd5b60009182526020909120600390910201546001600160a01b03161415620001c2576040516353dc2d7560e01b815260040160405180910390fd5b80620001ce81620003a9565b91505062000151565b5060066040518060600160405280846001600160a01b03168152602001838152602001846001600160a01b031663313ce5676040518163ffffffff1660e01b815260040160206040518083038186803b1580156200023457600080fd5b505afa15801562000249573d6000803e3d6000fd5b505050506040513d601f19601f820116820180604052508101906200026f91906200036c565b60ff9081169091528254600180820185556000948552602094859020845160039093020180546001600160a01b0319166001600160a01b0390931692909217825593830151818501556040909201516002909201805460ff191692909116919091179055600654620002e291906200038f565b6001600160a01b0383166000818152600760209081526040918290209390935580519182529181018390527f7dba1be544024070cd5eebfa8bdd80a8b198cea8058c7d3cc1f8dd36e41ab2f7910160405180910390a15050565b6000602082840312156200034e578081fd5b81516001600160a01b038116811462000365578182fd5b9392505050565b6000602082840312156200037e578081fd5b815160ff8116811462000365578182fd5b600082821015620003a457620003a4620003c7565b500390565b6000600019821415620003c057620003c0620003c7565b5060010190565b634e487b7160e01b600052601160045260246000fd5b60805160601c612d956200042d600039600081816103d10152818161076401528181610b3701528181610e5b015281816114d70152818161166a01528181611f5901526123770152612d956000f3fe608060405234801561001057600080fd5b50600436106101da5760003560e01c8063907fcf2911610104578063cf81afaa116100a2578063f201a49f11610071578063f201a49f14610452578063f9cf943f14610465578063fb6d681414610478578063feb8cbe91461048b57600080fd5b8063cf81afaa14610406578063d25540ee14610419578063da77cedb1461042c578063e30c39781461043f57600080fd5b8063bbffd719116100de578063bbffd719146103a6578063bf4aaff9146103b9578063c52e8c41146103cc578063cbb17c2c146103f357600080fd5b8063907fcf2914610350578063a45052c91461038b578063b26025aa1461039e57600080fd5b80637a8b6cad1161017c57806384c76b6a1161014b57806384c76b6a146102d657806387a954011461031757806389cf32041461032a5780638da5cb5b1461033d57600080fd5b80637a8b6cad146102955780637adbf973146102a85780637dc0d1d0146102bb5780638012ca08146102ce57600080fd5b80632e15ce52116101b85780632e15ce52146102525780633bd1adec14610265578063449323d81461026f5780636cd7751f1461028257600080fd5b8063040332cb146101df5780630a2b5499146102125780630af9680014610227575b600080fd5b6101ff6101ed366004612820565b60076020526000908152604090205481565b6040519081526020015b60405180910390f35b61021a610493565b6040516102099190612999565b60025461023a906001600160a01b031681565b6040516001600160a01b039091168152602001610209565b6101ff6102603660046127d0565b610518565b61026d61054c565b005b61026d61027d366004612820565b6105cf565b61026d610290366004612820565b610676565b61026d6102a33660046128fe565b610716565b61026d6102b6366004612820565b6109ef565b60045461023a906001600160a01b031681565b6005546101ff565b6101ff6102e43660046127d0565b6001600160a01b038316600090815260096020908152604080832085845282528083208484529091529020549392505050565b6101ff61032536600461286c565b610a8f565b60035461023a906001600160a01b031681565b60005461023a906001600160a01b031681565b61036361035e366004612854565b610aa6565b604080516001600160a01b039094168452602084019290925260ff1690820152606001610209565b6101ff6103993660046128fe565b610ae6565b6101ff610c83565b61026d6103b43660046127a5565b610e24565b61026d6103c73660046127a5565b610e86565b61023a7f000000000000000000000000000000000000000000000000000000000000000081565b61026d6104013660046128d7565b6110e4565b61026d61041436600461276d565b61138a565b6101ff61042736600461286c565b61147b565b61026d61043a366004612890565b611489565b60015461023a906001600160a01b031681565b61026d6104603660046128d7565b6115ad565b61026d61047336600461271b565b6115e5565b61026d6104863660046127a5565b61161b565b6101ff600081565b60606006805480602002602001604051908101604052809291908181526020016000905b8282101561050f576000848152602090819020604080516060810182526003860290920180546001600160a01b031683526001808201548486015260029091015460ff169183019190915290835290920191016104b7565b50505050905090565b6001600160a01b038316600090815260086020908152604080832085845282528083208484529091529020545b9392505050565b6001546001600160a01b0316331461057757604051636d0c59cb60e01b815260040160405180910390fd5b6000805460405133926001600160a01b03909216917f5bb496b3f951b55d3a1d8e479725a4d25bdc7644fc355f0b71c540354820a1c591a3600080546001600160a01b03199081163317909155600180549091169055565b6000546001600160a01b031633146105fa57604051637d369bab60e11b815260040160405180910390fd5b6001600160a01b0381166106215760405163017638ad60e71b815260040160405180910390fd5b600280546001600160a01b0319166001600160a01b0383169081179091556040519081527fd0654f5900f9e7e4e605a19334306e6a2786bbf960ac0484a4c12feb6428fe2f906020015b60405180910390a150565b6000546001600160a01b031633146106a157604051637d369bab60e11b815260040160405180910390fd5b6001600160a01b0381166106c8576040516363788cbd60e01b815260040160405180910390fd5b600380546001600160a01b0319166001600160a01b0383169081179091556040519081527f6b7cc3294ba6328c864b090682147d055e6dfff6c9ccece6f22dee66c6c251cf9060200161066b565b6002546001600160a01b03163314610740576040516257034d60e91b815260040160405180910390fd5b6001600160a01b0382166000908152600760205260409020548015158061079857507f00000000000000000000000000000000000000000000000000000000000000006001600160a01b0316836001600160a01b0316145b6107b55760405163a84d9d9760e01b815260040160405180910390fd5b6000826107ed576001600160a01b03861660009081526009602090815260408083208a8452825280832083805290915290205461081a565b6001600160a01b03861660009081526008602090815260408083208a845282528083208380529091529020545b9050600081121561083e576040516362422bc160e11b815260040160405180910390fd5b600083610876576001600160a01b03871660009081526009602090815260408083208b845282528083208684529091529020546108a3565b6001600160a01b03871660009081526008602090815260408083208b845282528083208684529091529020545b9050806108af876117f6565b13156108ce576040516306ed1da360e51b815260040160405180910390fd5b6108ec8789856108dd8a6117f6565b6108e690612d09565b88611801565b6040516370a0823160e01b81523060048201526001600160a01b038616906370a082319060240160206040518083038186803b15801561092b57600080fd5b505afa15801561093f573d6000803e3d6000fd5b505050506040513d601f19601f82011682018060405250810190610963919061283c565b861115610983576040516301d8c68960e51b815260040160405180910390fd5b846001600160a01b0316876001600160a01b0316897ffeb2000dca3e617cd6f3a8bbb63014bb54a124aac6ccbf73ee7229b4cd01f120896040516109c991815260200190565b60405180910390a46109e56001600160a01b0386168888611895565b5050505050505050565b6000546001600160a01b03163314610a1a57604051637d369bab60e11b815260040160405180910390fd5b6001600160a01b038116610a4157604051632ed2e9a560e21b815260040160405180910390fd5b600480546001600160a01b0319166001600160a01b0383169081179091556040519081527f0e05ae75e8b926552cf6fcd744d19f422561e3ced1e426868730852702dbe4189060200161066b565b6000610a9d838360016118fd565b90505b92915050565b60068181548110610ab657600080fd5b60009182526020909120600390910201805460018201546002909201546001600160a01b03909116925060ff1683565b6002546000906001600160a01b03163314610b13576040516257034d60e91b815260040160405180910390fd5b6001600160a01b03831660009081526007602052604090205480151580610b6b57507f00000000000000000000000000000000000000000000000000000000000000006001600160a01b0316846001600160a01b0316145b610b885760405163a84d9d9760e01b815260040160405180910390fd5b610b9d868883610b97896117f6565b87611801565b610bb26001600160a01b038516873088611a59565b836001600160a01b0316866001600160a01b0316887f2c0f148b435140de488c1b34647f1511c646f7077e87007bacf22ef9977a16d888604051610bf891815260200190565b60405180910390a4610c7860068281548110610c2457634e487b7160e01b600052603260045260246000fd5b600091825260209182902060408051606081018252600390930290910180546001600160a01b0316835260018101549383019390935260029092015460ff1691810191909152610c73876117f6565b611a91565b979650505050505050565b6000806006805480602002602001604051908101604052809291908181526020016000905b82821015610d00576000848152602090819020604080516060810182526003860290920180546001600160a01b031683526001808201548486015260029091015460ff16918301919091529083529092019101610ca8565b5050505090506000805b8251811015610e1d576000610dc1848381518110610d3857634e487b7160e01b600052603260045260246000fd5b6020908102919091010151516040516370a0823160e01b81523060048201526001600160a01b03909116906370a082319060240160206040518083038186803b158015610d8457600080fd5b505afa158015610d98573d6000803e3d6000fd5b505050506040513d601f19601f82011682018060405250810190610dbc919061283c565b6117f6565b90506000811315610e0a57610dfd848381518110610def57634e487b7160e01b600052603260045260246000fd5b602002602001015182611b4a565b610e079084612a72565b92505b5080610e1581612cee565b915050610d0a565b5092915050565b6002546001600160a01b03163314610e4e576040516257034d60e91b815260040160405180910390fd5b610e826001600160a01b037f0000000000000000000000000000000000000000000000000000000000000000168383611895565b5050565b6000546001600160a01b03163314610eb157604051637d369bab60e11b815260040160405180910390fd5b662386f26fc10000811015610ed957604051632e01c96360e01b815260040160405180910390fd5b670de0b6b3a7640000811115610f0257604051635f08f99d60e01b815260040160405180910390fd5b60005b600654811015610f8557826001600160a01b031660068281548110610f3a57634e487b7160e01b600052603260045260246000fd5b60009182526020909120600390910201546001600160a01b03161415610f73576040516353dc2d7560e01b815260040160405180910390fd5b80610f7d81612cee565b915050610f05565b5060066040518060600160405280846001600160a01b03168152602001838152602001846001600160a01b031663313ce5676040518163ffffffff1660e01b815260040160206040518083038186803b158015610fe157600080fd5b505afa158015610ff5573d6000803e3d6000fd5b505050506040513d601f19601f82011682018060405250810190611019919061295c565b60ff9081169091528254600180820185556000948552602094859020845160039093020180546001600160a01b0319166001600160a01b0390931692909217825593830151818501556040909201516002909201805460ff19169290911691909117905560065461108a9190612c71565b6001600160a01b0383166000818152600760209081526040918290209390935580519182529181018390527f7dba1be544024070cd5eebfa8bdd80a8b198cea8058c7d3cc1f8dd36e41ab2f7910160405180910390a15050565b6002546001600160a01b0316331461110e576040516257034d60e91b815260040160405180910390fd5b670de0b6b3a76400008211156111375760405163f4a4cb2360e01b815260040160405180910390fd5b60006111448585846118fd565b9050600061115b611154856117f6565b8390611bfe565b905060006006805480602002602001604051908101604052809291908181526020016000905b828210156111d9576000848152602090819020604080516060810182526003860290920180546001600160a01b031683526001808201548486015260029091015460ff16918301919091529083529092019101611181565b505050509050600080600080845190505b801561137d5787611238576001600160a01b038a1660009081526009602090815260408083208e8452909152812090611224600184612c71565b815260200190815260200160002054611277565b6001600160a01b038a1660009081526008602090815260408083208e8452909152812090611267600184612c71565b8152602001908152602001600020545b93506112b885611288600184612c71565b815181106112a657634e487b7160e01b600052603260045260246000fd5b60200260200101516040015185611c0a565b925085831261135157611300856112d0600184612c71565b815181106112ee57634e487b7160e01b600052603260045260246000fd5b60200260200101516040015187611c60565b915061134c8b8b61131085611cae565b8861131c600187612c71565b8151811061133a57634e487b7160e01b600052603260045260246000fd5b6020026020010151600001518c610716565b61137d565b61135f8b8b61131087611cae565b6113698387612c32565b95508061137581612cd7565b9150506111ea565b5050505050505050505050565b6000546001600160a01b031633146113b557604051637d369bab60e11b815260040160405180910390fd5b6001600160a01b0382166113dc5760405163755a183760e01b815260040160405180910390fd5b801561142e57600080546001600160a01b0319166001600160a01b0384169081178255604051909133917f5bb496b3f951b55d3a1d8e479725a4d25bdc7644fc355f0b71c540354820a1c59190a35050565b600180546001600160a01b0319166001600160a01b03841690811790915560405133907f87f5c8846f4c51400fa448cfb84edcec5cc0f333b6d20a5b903e050823dcb66790600090a35050565b6000610a9d838360006118fd565b6002546001600160a01b031633146114b3576040516257034d60e91b815260040160405180910390fd5b6001600160a01b0382166000908152600760205260409020548015158061150b57507f00000000000000000000000000000000000000000000000000000000000000006001600160a01b0316836001600160a01b0316145b6115285760405163a84d9d9760e01b815260040160405180910390fd5b600082611560576001600160a01b0385166000908152600960209081526040808320898452825280832085845290915290205461158d565b6001600160a01b038516600090815260086020908152604080832089845282528083208584529091529020545b90506115a4868661159d84611cae565b8787610716565b50505b50505050565b6002546001600160a01b031633146115d7576040516257034d60e91b815260040160405180910390fd5b6115a7838560008585611801565b6002546001600160a01b0316331461160f576040516257034d60e91b815260040160405180910390fd5b6115a784848484611cb9565b6000546001600160a01b0316331461164657604051637d369bab60e11b815260040160405180910390fd5b6001600160a01b0382166000908152600760205260409020548015158061169e57507f00000000000000000000000000000000000000000000000000000000000000006001600160a01b0316836001600160a01b0316145b6116bb5760405163a84d9d9760e01b815260040160405180910390fd5b662386f26fc100008210156116e357604051632e01c96360e01b815260040160405180910390fd5b670de0b6b3a764000082111561170c57604051635f08f99d60e01b815260040160405180910390fd5b60005b6006548110156117ae57836001600160a01b03166006828154811061174457634e487b7160e01b600052603260045260246000fd5b60009182526020909120600390910201546001600160a01b0316141561179c57826006828154811061178657634e487b7160e01b600052603260045260246000fd5b9060005260206000209060030201600101819055505b806117a681612cee565b91505061170f565b50604080516001600160a01b0385168152602081018490527f961e2483fa09e9fd159361d604d3c547aca03801b1ce4c758b036e9bacd8c082910160405180910390a1505050565b6000610aa0826120aa565b801561184d576001600160a01b0385166000908152600860209081526040808320878452825280832086845290915281208054849290611842908490612a31565b9091555061188e9050565b6001600160a01b0385166000908152600960209081526040808320878452825280832086845290915281208054849290611888908490612a31565b90915550505b5050505050565b6040516001600160a01b0383166024820152604481018290526118f890849063a9059cbb60e01b906064015b60408051601f198184030181529190526020810180516001600160e01b03166001600160e01b03199093169290921790915261211d565b505050565b6000806006805480602002602001604051908101604052809291908181526020016000905b8282101561197a576000848152602090819020604080516060810182526003860290920180546001600160a01b031683526001808201548486015260029091015460ff16918301919091529083529092019101611922565b5050505090506000806000905060005b8351811015611a4e57856119c9576001600160a01b03871660009081526009602090815260408083208b845282528083208484529091529020546119f6565b6001600160a01b03871660009081526008602090815260408083208b845282528083208484529091529020545b92508215611a3c57611a2f848281518110611a2157634e487b7160e01b600052603260045260246000fd5b602002602001015184611a91565b611a399083612a31565b91505b80611a4681612cee565b91505061198a565b509695505050505050565b6040516001600160a01b03808516602483015283166044820152606481018290526115a79085906323b872dd60e01b906084016118c1565b600080611aa2846040015184611c0a565b90506000611ab661115486602001516117f6565b6004805487516040516341976e0960e01b81526001600160a01b039182169381019390935292935060009216906341976e099060240160206040518083038186803b158015611b0457600080fd5b505afa158015611b18573d6000803e3d6000fd5b505050506040513d601f19601f82011682018060405250810190611b3c919061283c565b90506000610c788383611bfe565b600080611b5b846040015184611c0a565b6004805486516040516341976e0960e01b81526001600160a01b039182169381019390935292935060009216906341976e099060240160206040518083038186803b158015611ba957600080fd5b505afa158015611bbd573d6000803e3d6000fd5b505050506040513d601f19601f82011682018060405250810190611be1919061283c565b9050611bf5611bf08383611bfe565b611cae565b95945050505050565b6000610a9d83836121ef565b6000601260ff84161115611c3157604051635bb8b4ef60e11b815260040160405180910390fd5b6000611c3e846012612c88565b611c4c9060ff16600a612b07565b9050611c588184612baf565b949350505050565b6000601260ff84161115611c8757604051635bb8b4ef60e11b815260040160405180910390fd5b6000611c94846012612c88565b611ca29060ff16600a612b07565b9050611c588184612a8a565b6000610aa0826122b4565b600081611cf1576001600160a01b03841660009081526009602090815260408083208684528252808320838052909152902054611d1e565b6001600160a01b038416600090815260086020908152604080832086845282528083208380529091529020545b90506000808212611d30576000611d3c565b611d3c611bf083612d09565b905080611d4a5750506115a7565b60006006805480602002602001604051908101604052809291908181526020016000905b82821015611dc6576000848152602090819020604080516060810182526003860290920180546001600160a01b031683526001808201548486015260029091015460ff16918301919091529083529092019101611d6e565b505050509050600080600090505b8251811015611f3b5785611e13576001600160a01b03881660009081526009602090815260408083208a84528252808320848452909152902054611e40565b6001600160a01b03881660009081526008602090815260408083208a845282528083208484529091529020545b91506000821315611f29576000611e7e848381518110611e7057634e487b7160e01b600052603260045260246000fd5b602002602001015184611b4a565b905084811015611ed757611ec68a8a8a878681518110611eae57634e487b7160e01b600052603260045260246000fd5b602002602001015187670de0b6b3a76400008d612306565b611ed09086612c71565b9450611f27565b6000611ee386836123df565b9050611f1b8b8b8b888781518110611f0b57634e487b7160e01b600052603260045260246000fd5b602002602001015188868e612306565b50600095505050611f3b565b505b80611f3381612cee565b915050611dd4565b5082156109e5576040516370a0823160e01b815230600482015283907f00000000000000000000000000000000000000000000000000000000000000006001600160a01b0316906370a082319060240160206040518083038186803b158015611fa357600080fd5b505afa158015611fb7573d6000803e3d6000fd5b505050506040513d601f19601f82011682018060405250810190611fdb919061283c565b1015612040576003546040516327a0bb3360e01b8152600481018590526001600160a01b03909116906327a0bb3390602401600060405180830381600087803b15801561202757600080fd5b505af115801561203b573d6000803e3d6000fd5b505050505b82600560008282546120529190612a72565b9091555050604080518781526001600160a01b03891660208201529081018490527f70760e5e8f27cd318ef13d09f0a02fc429ea59ec55756afeb679a33cd14753269060600160405180910390a15050505050505050565b60006001600160ff1b038211156121195760405162461bcd60e51b815260206004820152602860248201527f53616665436173743a2076616c756520646f65736e27742066697420696e2061604482015267371034b73a191a9b60c11b60648201526084015b60405180910390fd5b5090565b6000612172826040518060400160405280602081526020017f5361666545524332303a206c6f772d6c6576656c2063616c6c206661696c6564815250856001600160a01b03166123eb9092919063ffffffff16565b8051909150156118f857808060200190518101906121909190612804565b6118f85760405162461bcd60e51b815260206004820152602a60248201527f5361666545524332303a204552433230206f7065726174696f6e20646964206e6044820152691bdd081cdd58d8d9595960b21b6064820152608401612110565b6000600160ff1b8314806122065750600160ff1b82145b1561222457604051630d01a11b60e21b815260040160405180910390fd5b60008060008512612235578461223a565b846000035b91506000841261224a578361224f565b836000035b9050600061225d83836123fa565b90506001600160ff1b0381111561228a5760405163bf79e8d960e01b815260048101829052602401612110565b6000198087139086138082186001146122a357826122a8565b826000035b98975050505050505050565b6000808212156121195760405162461bcd60e51b815260206004820181905260248201527f53616665436173743a2076616c7565206d75737420626520706f7369746976656044820152606401612110565b60008061231f611bf0612318866117f6565b8790611bfe565b9050600061233c611bf08860400151612337856117f6565b611c0a565b9050600061235282670d2f13f7789f00006124bc565b905061236a8a8a6000612364856117f6565b89611801565b61239f6001600160a01b037f0000000000000000000000000000000000000000000000000000000000000000168c3084611a59565b87516001600160a01b03166000908152600760205260409020546123d1908c908b906123ca876117f6565b6001611801565b9a9950505050505050505050565b6000610a9d83836124c8565b6060611c5884846000856124dd565b60008080600019848609848602925082811083820303915050670de0b6b3a7640000811061243e5760405163698d9a0160e11b815260048101829052602401612110565b600080670de0b6b3a76400008688099150506706f05b59d3b1ffff8111826124785780670de0b6b3a7640000850401945050505050610aa0565b620400008285030493909111909103600160ee1b02919091177faccb18165bd6fe31ae1cf318dc5b51eee0e1ba569b88cd74c1773b91fac106690201905092915050565b6000610a9d83836125fa565b6000610a9d83670de0b6b3a764000084612606565b60608247101561253e5760405162461bcd60e51b815260206004820152602660248201527f416464726573733a20696e73756666696369656e742062616c616e636520666f6044820152651c8818d85b1b60d21b6064820152608401612110565b843b61258c5760405162461bcd60e51b815260206004820152601d60248201527f416464726573733a2063616c6c20746f206e6f6e2d636f6e74726163740000006044820152606401612110565b600080866001600160a01b031685876040516125a8919061297d565b60006040518083038185875af1925050503d80600081146125e5576040519150601f19603f3d011682016040523d82523d6000602084013e6125ea565b606091505b5091509150610c788282866126e2565b6000610a9d83836123fa565b60008080600019858709858702925082811083820303915050806000141561264f5783828161264557634e487b7160e01b600052601260045260246000fd5b0492505050610545565b83811061267957604051631dcf306360e21b81526004810182905260248101859052604401612110565b60008486880960026001871981018816978890046003810283188082028403028082028403028082028403028082028403028082028403029081029092039091026000889003889004909101858311909403939093029303949094049190911702949350505050565b606083156126f1575081610545565b8251156127015782518084602001fd5b8160405162461bcd60e51b815260040161211091906129fe565b60008060008060808587031215612730578384fd5b843561273b81612d39565b9350602085013561274b81612d39565b925060408501359150606085013561276281612d51565b939692955090935050565b6000806040838503121561277f578182fd5b823561278a81612d39565b9150602083013561279a81612d51565b809150509250929050565b600080604083850312156127b7578182fd5b82356127c281612d39565b946020939093013593505050565b6000806000606084860312156127e4578283fd5b83356127ef81612d39565b95602085013595506040909401359392505050565b600060208284031215612815578081fd5b815161054581612d51565b600060208284031215612831578081fd5b813561054581612d39565b60006020828403121561284d578081fd5b5051919050565b600060208284031215612865578081fd5b5035919050565b6000806040838503121561287e578182fd5b82359150602083013561279a81612d39565b600080600080608085870312156128a5578182fd5b8435935060208501356128b781612d39565b925060408501356128c781612d39565b9150606085013561276281612d51565b600080600080608085870312156128ec578182fd5b84359350602085013561274b81612d39565b600080600080600060a08688031215612915578283fd5b85359450602086013561292781612d39565b935060408601359250606086013561293e81612d39565b9150608086013561294e81612d51565b809150509295509295909350565b60006020828403121561296d578081fd5b815160ff81168114610545578182fd5b6000825161298f818460208701612cab565b9190910192915050565b602080825282518282018190526000919060409081850190868401855b828110156129f157815180516001600160a01b03168552868101518786015285015160ff1685850152606090930192908501906001016129b6565b5091979650505050505050565b6020815260008251806020840152612a1d816040850160208701612cab565b601f01601f19169190910160400192915050565b600080821280156001600160ff1b0384900385131615612a5357612a53612d23565b600160ff1b8390038412811615612a6c57612a6c612d23565b50500190565b60008219821115612a8557612a85612d23565b500190565b600082612aa557634e487b7160e01b81526012600452602481fd5b600160ff1b821460001984141615612abf57612abf612d23565b500590565b600181815b80851115612aff578160001904821115612ae557612ae5612d23565b80851615612af257918102915b93841c9390800290612ac9565b509250929050565b6000610a9d8383600082612b1d57506001610aa0565b81612b2a57506000610aa0565b8160018114612b405760028114612b4a57612b66565b6001915050610aa0565b60ff841115612b5b57612b5b612d23565b50506001821b610aa0565b5060208310610133831016604e8410600b8410161715612b89575081810a610aa0565b612b938383612ac4565b8060001904821115612ba757612ba7612d23565b029392505050565b60006001600160ff1b0381841382841380821686840486111615612bd557612bd5612d23565b600160ff1b84871282811687830589121615612bf357612bf3612d23565b858712925087820587128484161615612c0e57612c0e612d23565b87850587128184161615612c2457612c24612d23565b505050929093029392505050565b60008083128015600160ff1b850184121615612c5057612c50612d23565b6001600160ff1b0384018313811615612c6b57612c6b612d23565b50500390565b600082821015612c8357612c83612d23565b500390565b600060ff821660ff841680821015612ca257612ca2612d23565b90039392505050565b60005b83811015612cc6578181015183820152602001612cae565b838111156115a75750506000910152565b600081612ce657612ce6612d23565b506000190190565b6000600019821415612d0257612d02612d23565b5060010190565b6000600160ff1b821415612d1f57612d1f612d23565b0390565b634e487b7160e01b600052601160045260246000fd5b6001600160a01b0381168114612d4e57600080fd5b50565b8015158114612d4e57600080fdfea264697066735822122004452f19726638c0d37c4793cbb0975ac521fe2a8fb957520fdc5270339efff364736f6c63430008040033",
  "devdoc": {
    "kind": "dev",
    "methods": {
      "deposit(uint256,address,uint256,address,bool)": {
        "details": "No differentiated treatment of deposit in the UA token and other collaterals",
        "params": {
          "amount": "Amount to be used as the collateral of the position. Might not be 18 decimals",
          "depositToken": "Token to be used for the collateral of the position",
          "isTrader": "True if the user is a trader, False if the user is a liquidity provider",
          "marketIdx": "Index of the perpetual market",
          "user": "Account to deposit to"
        },
        "returns": {
          "amountUSDValue": "USD value of the deposited amount because pools' vQuote are USD-based"
        }
      },
      "getBadDebt()": {
        "returns": {
          "_0": "Amount of UA tokens borrowed by insurance. 18 decimals"
        }
      },
      "getLpReserveValue(uint256,address)": {
        "params": {
          "lp": "LP address",
          "marketIdx": "Perpetual market index"
        },
        "returns": {
          "_0": "reserveValue Value of collaterals in USD. 18 decimals"
        }
      },
      "getTotalValueLocked()": {
        "returns": {
          "_0": "Total Value Locked (tvl) in USD. 18 decimals"
        }
      },
      "getTraderReserveValue(uint256,address)": {
        "params": {
          "marketIdx": "Perpetual market index",
          "trader": "Trader address"
        },
        "returns": {
          "_0": "reserveValue Value of collaterals in USD. 18 decimals"
        }
      },
      "getWhiteListedCollaterals()": {
        "returns": {
          "_0": "List of Collateral tokens"
        }
      },
      "settleLiquidationOnCollaterals(address,address,uint256,bool)": {
        "params": {
          "isTrader": "True if the user is a trader, False if the user is a liquidity provider",
          "liquidatee": "Liquidatee",
          "marketIdx": "Market on which the liquidation has to occur"
        }
      },
      "settlePnL(uint256,address,int256,bool)": {
        "params": {
          "amount": "PnL amount in UA to apply. 18 decimals",
          "isTrader": "True if the user is a trader, False if the user is a liquidity provider",
          "marketIdx": "Index of the perpetual market",
          "user": "Account to apply the PnL to"
        }
      },
      "transferOwner(address,bool)": {
        "params": {
          "direct": "If 'true', ownership is directly transferred.",
          "recipient": "Account granted `owner` access control."
        }
      },
      "transferUa(address,uint256)": {
        "params": {
          "amount": "Amount of UA tokens to be withdrawn. 18 decimals",
          "user": "Account to withdraw UA tokens to"
        }
      },
      "withdraw(uint256,address,uint256,address,bool)": {
        "details": "Unlike `deposit`, differentiated treatment of withdrawals in the UA token and other collaterals",
        "params": {
          "amount": "Amount to withdraw from the vault. Might not be 18 decimals (decimals of the token)",
          "isTrader": "True if the user is a trader, False if the user is a liquidity provider",
          "marketIdx": "Index of the perpetual market",
          "user": "Account to withdraw from",
          "withdrawToken": "Token to be withdrawn from the vault"
        }
      },
      "withdrawAll(uint256,address,address,bool)": {
        "params": {
          "isTrader": "True if the user is a trader, False if the user is a liquidity provider",
          "marketIdx": "Index of the perpetual market",
          "user": "Account to withdraw from",
          "withdrawToken": "Token to be withdrawn from the vault"
        }
      },
      "withdrawPartial(uint256,address,uint256,bool)": {
        "params": {
          "isTrader": "True if the user is a trader, False if the user is a liquidity provider",
          "marketIdx": "Index of the perpetual market",
          "reductionRatio": "Share of collateral to be withdrawn. Min: 0. Max: 1e18",
          "user": "Account to withdraw from"
        }
      }
    },
    "version": 1
  },
  "userdoc": {
    "errors": {
      "IncreOwnable_NotOwner()": [
        {
          "notice": "Emitted when the sender is not the owner"
        }
      ],
      "IncreOwnable_NotPendingOwner()": [
        {
          "notice": "Emitted when the sender is not the pending owner"
        }
      ],
      "IncreOwnable_TransferZeroAddress()": [
        {
          "notice": "Emitted when the proposed owner is equal to the zero address"
        }
      ],
      "LibReserve_ExcessiveDecimals()": [
        {
          "notice": "Emitted when the proposed token decimals exceeds MAX_DECIMALS"
        }
      ],
      "PRBMathSD59x18__MulInputTooSmall()": [
        {
          "notice": "Emitted when one of the inputs is MIN_SD59x18."
        }
      ],
      "PRBMathSD59x18__MulOverflow(uint256)": [
        {
          "notice": "Emitted when the intermediary absolute result overflows SD59x18."
        }
      ],
      "PRBMath__MulDivFixedPointOverflow(uint256)": [
        {
          "notice": "Emitted when the result overflows uint256."
        }
      ],
      "PRBMath__MulDivOverflow(uint256,uint256)": [
        {
          "notice": "Emitted when the result overflows uint256."
        }
      ],
      "Vault_ClearingHouseZeroAddress()": [
        {
          "notice": "Emitted when the proposed clearingHouse address is equal to the zero address"
        }
      ],
      "Vault_CollateralAlreadyWhiteListed()": [
        {
          "notice": "Emitted when owner tries to whitelist a collateral already whitelisted"
        }
      ],
      "Vault_ExcessiveCollateralWeight()": [
        {
          "notice": "Emitted when the proposed collateral weight is above the limit"
        }
      ],
      "Vault_ExcessiveDecimalsConstructor()": [
        {
          "notice": "Emitted when the decimals of the proposed reserve token are gt 18"
        }
      ],
      "Vault_InsufficientBalance()": [
        {
          "notice": "Emitted when a user attempts to withdraw more collateral than available in vault"
        }
      ],
      "Vault_InsufficientCollateralWeight()": [
        {
          "notice": "Emitted when the proposed collateral weight is under the limit"
        }
      ],
      "Vault_InsuranceZeroAddress()": [
        {
          "notice": "Emitted when the proposed insurance address is equal to the zero address"
        }
      ],
      "Vault_OracleZeroAddress()": [
        {
          "notice": "Emitted when the proposed oracle address is equal to the zero address"
        }
      ],
      "Vault_SenderNotClearingHouse()": [
        {
          "notice": "Emitted when the sender is not the clearing house"
        }
      ],
      "Vault_UADebt()": [
        {
          "notice": "Emitted when user tries to withdraw collateral while having a UA debt"
        }
      ],
      "Vault_UnsupportedCollateral()": [
        {
          "notice": "Emitted when a user attempts to use a token which is not whitelisted as collateral"
        }
      ],
      "Vault_WithdrawBalanceBelowMin()": [
        {
          "notice": "Emitted when a user attempts to withdraw an amount that reduces their balance below mMIN_DEPOSIT_AMOUNT"
        }
      ],
      "Vault_WithdrawExcessiveAmount()": [
        {
          "notice": "Emitted when a user attempts to withdraw more than their balance"
        }
      ],
      "Vault_WithdrawReductionRatioTooHigh()": [
        {
          "notice": "Emitted when a user attempts to withdraw with a reduction ratio above 1e18"
        }
      ],
      "Vault_ZeroAddressConstructor(uint8)": [
        {
          "notice": "Emitted when the zero address is provided as a parameter in the constructor"
        }
      ]
    },
    "events": {
      "ClearingHouseChanged(address)": {
        "notice": "Emitted when a new ClearingHouse is connected to the vault"
      },
      "CollateralAdded(address,uint256)": {
        "notice": "Emitted when a new Oracle is connected to the vault"
      },
      "CollateralWeightChanged(address,uint256)": {
        "notice": "Emitted when a new Oracle is connected to the vault"
      },
      "Deposit(uint256,address,address,uint256)": {
        "notice": "Emitted when collateral is deposited into the vault"
      },
      "InsuranceChanged(address)": {
        "notice": "Emitted when a new Insurance is connected to the vault"
      },
      "OracleChanged(address)": {
        "notice": "Emitted when a new Oracle is connected to the vault"
      },
      "TraderBadDebtGenerated(uint256,address,uint256)": {
        "notice": "Emitted when bad debt is settled for by the insurance reserve"
      },
      "Withdraw(uint256,address,address,uint256)": {
        "notice": "Emitted when collateral is withdrawn from the vault"
      }
    },
    "kind": "user",
    "methods": {
      "addWhiteListedCollateral(address,uint256)": {
        "notice": "Add a new token to the list of white listed ERC20 which can be used as collaterals"
      },
      "changeCollateralWeight(address,uint256)": {
        "notice": "Change weight of a white listed collateral         Useful as a risk mitigation measure in case one collateral drops in value"
      },
      "claimOwner()": {
        "notice": "`pendingOwner` can claim `owner` account."
      },
      "deposit(uint256,address,uint256,address,bool)": {
        "notice": "Deposit reserveTokens to account"
      },
      "getBadDebt()": {
        "notice": "Get the amount of UA tokens borrowed by insurance (bad debt)"
      },
      "getLpReserveValue(uint256,address)": {
        "notice": "Get the balance of a liquidity provider, accounted for in USD. 18 decimals"
      },
      "getTotalValueLocked()": {
        "notice": "Get all value of all tokens deposited into the vault"
      },
      "getTraderReserveValue(uint256,address)": {
        "notice": "Get the balance of a trader, accounted for in USD. 18 decimals"
      },
      "getWhiteListedCollaterals()": {
        "notice": "Get all collateral tokens available for margin trading"
      },
      "settleLiquidationOnCollaterals(address,address,uint256,bool)": {
        "notice": "Allow liquidator to buy back collateral(s) of liquidated user at discounted price whereby settling his debt"
      },
      "settlePnL(uint256,address,int256,bool)": {
        "notice": "Withdraw tokens from account"
      },
      "tokenToCollateralIdx(address)": {
        "notice": "Map white listed collateral tokens to their whiteListedCollaterals indexes"
      },
      "transferOwner(address,bool)": {
        "notice": "Transfer `owner` account."
      },
      "transferUa(address,uint256)": {
        "notice": "Transfer UA tokens from the vault"
      },
      "withdraw(uint256,address,uint256,address,bool)": {
        "notice": "Withdraw tokens from account"
      },
      "withdrawAll(uint256,address,address,bool)": {
        "notice": "Withdraw all tokens from account"
      },
      "withdrawPartial(uint256,address,uint256,bool)": {
        "notice": "Withdraw share of tokens from account, across multi-collaterals"
      }
    },
    "notice": "Keeps track of all token reserves for all market",
    "version": 1
  },
  "storageLayout": {
    "storage": [
      {
        "astId": 12395,
        "contract": "contracts/Vault.sol:Vault",
        "label": "owner",
        "offset": 0,
        "slot": "0",
        "type": "t_address"
      },
      {
        "astId": 12397,
        "contract": "contracts/Vault.sol:Vault",
        "label": "pendingOwner",
        "offset": 0,
        "slot": "1",
        "type": "t_address"
      },
      {
        "astId": 7881,
        "contract": "contracts/Vault.sol:Vault",
        "label": "clearingHouse",
        "offset": 0,
        "slot": "2",
        "type": "t_contract(IClearingHouse)9658"
      },
      {
        "astId": 7885,
        "contract": "contracts/Vault.sol:Vault",
        "label": "insurance",
        "offset": 0,
        "slot": "3",
        "type": "t_contract(IInsurance)10024"
      },
      {
        "astId": 7889,
        "contract": "contracts/Vault.sol:Vault",
        "label": "oracle",
        "offset": 0,
        "slot": "4",
        "type": "t_contract(IOracle)10067"
      },
      {
        "astId": 7891,
        "contract": "contracts/Vault.sol:Vault",
        "label": "traderBadDebt",
        "offset": 0,
        "slot": "5",
        "type": "t_uint256"
      },
      {
        "astId": 7895,
        "contract": "contracts/Vault.sol:Vault",
        "label": "whiteListedCollaterals",
        "offset": 0,
        "slot": "6",
        "type": "t_array(t_struct(Collateral)10414_storage)dyn_storage"
      },
      {
        "astId": 7901,
        "contract": "contracts/Vault.sol:Vault",
        "label": "tokenToCollateralIdx",
        "offset": 0,
        "slot": "7",
        "type": "t_mapping(t_contract(IERC20Metadata)931,t_uint256)"
      },
      {
        "astId": 7909,
        "contract": "contracts/Vault.sol:Vault",
        "label": "traderBalances",
        "offset": 0,
        "slot": "8",
        "type": "t_mapping(t_address,t_mapping(t_uint256,t_mapping(t_uint256,t_int256)))"
      },
      {
        "astId": 7917,
        "contract": "contracts/Vault.sol:Vault",
        "label": "lpBalances",
        "offset": 0,
        "slot": "9",
        "type": "t_mapping(t_address,t_mapping(t_uint256,t_mapping(t_uint256,t_int256)))"
      }
    ],
    "types": {
      "t_address": {
        "encoding": "inplace",
        "label": "address",
        "numberOfBytes": "20"
      },
      "t_array(t_struct(Collateral)10414_storage)dyn_storage": {
        "base": "t_struct(Collateral)10414_storage",
        "encoding": "dynamic_array",
        "label": "struct IVault.Collateral[]",
        "numberOfBytes": "32"
      },
      "t_contract(IClearingHouse)9658": {
        "encoding": "inplace",
        "label": "contract IClearingHouse",
        "numberOfBytes": "20"
      },
      "t_contract(IERC20Metadata)931": {
        "encoding": "inplace",
        "label": "contract IERC20Metadata",
        "numberOfBytes": "20"
      },
      "t_contract(IInsurance)10024": {
        "encoding": "inplace",
        "label": "contract IInsurance",
        "numberOfBytes": "20"
      },
      "t_contract(IOracle)10067": {
        "encoding": "inplace",
        "label": "contract IOracle",
        "numberOfBytes": "20"
      },
      "t_int256": {
        "encoding": "inplace",
        "label": "int256",
        "numberOfBytes": "32"
      },
      "t_mapping(t_address,t_mapping(t_uint256,t_mapping(t_uint256,t_int256)))": {
        "encoding": "mapping",
        "key": "t_address",
        "label": "mapping(address => mapping(uint256 => mapping(uint256 => int256)))",
        "numberOfBytes": "32",
        "value": "t_mapping(t_uint256,t_mapping(t_uint256,t_int256))"
      },
      "t_mapping(t_contract(IERC20Metadata)931,t_uint256)": {
        "encoding": "mapping",
        "key": "t_contract(IERC20Metadata)931",
        "label": "mapping(contract IERC20Metadata => uint256)",
        "numberOfBytes": "32",
        "value": "t_uint256"
      },
      "t_mapping(t_uint256,t_int256)": {
        "encoding": "mapping",
        "key": "t_uint256",
        "label": "mapping(uint256 => int256)",
        "numberOfBytes": "32",
        "value": "t_int256"
      },
      "t_mapping(t_uint256,t_mapping(t_uint256,t_int256))": {
        "encoding": "mapping",
        "key": "t_uint256",
        "label": "mapping(uint256 => mapping(uint256 => int256))",
        "numberOfBytes": "32",
        "value": "t_mapping(t_uint256,t_int256)"
      },
      "t_struct(Collateral)10414_storage": {
        "encoding": "inplace",
        "label": "struct IVault.Collateral",
        "members": [
          {
            "astId": 10409,
            "contract": "contracts/Vault.sol:Vault",
            "label": "asset",
            "offset": 0,
            "slot": "0",
            "type": "t_contract(IERC20Metadata)931"
          },
          {
            "astId": 10411,
            "contract": "contracts/Vault.sol:Vault",
            "label": "weight",
            "offset": 0,
            "slot": "1",
            "type": "t_uint256"
          },
          {
            "astId": 10413,
            "contract": "contracts/Vault.sol:Vault",
            "label": "decimals",
            "offset": 0,
            "slot": "2",
            "type": "t_uint8"
          }
        ],
        "numberOfBytes": "96"
      },
      "t_uint256": {
        "encoding": "inplace",
        "label": "uint256",
        "numberOfBytes": "32"
      },
      "t_uint8": {
        "encoding": "inplace",
        "label": "uint8",
        "numberOfBytes": "1"
      }
    }
  }
}