{
  "address": "0x457901AC17450b6448F85ccbD362aF10910634B4",
  "abi": [
    {
      "inputs": [
        {
          "internalType": "string",
          "name": "_name",
          "type": "string"
        },
        {
          "internalType": "string",
          "name": "_symbol",
          "type": "string"
        }
      ],
      "stateMutability": "nonpayable",
      "type": "constructor"
    },
    {
      "inputs": [],
      "name": "IncreOwnable_NotOwner",
      "type": "error"
    },
    {
      "inputs": [],
      "name": "IncreOwnable_NotPendingOwner",
      "type": "error"
    },
    {
      "inputs": [],
      "name": "IncreOwnable_TransferZeroAddress",
      "type": "error"
    },
    {
      "anonymous": false,
      "inputs": [
        {
          "indexed": true,
          "internalType": "address",
          "name": "owner",
          "type": "address"
        },
        {
          "indexed": true,
          "internalType": "address",
          "name": "spender",
          "type": "address"
        },
        {
          "indexed": false,
          "internalType": "uint256",
          "name": "value",
          "type": "uint256"
        }
      ],
      "name": "Approval",
      "type": "event"
    },
    {
      "anonymous": false,
      "inputs": [
        {
          "indexed": true,
          "internalType": "address",
          "name": "from",
          "type": "address"
        },
        {
          "indexed": true,
          "internalType": "address",
          "name": "to",
          "type": "address"
        },
        {
          "indexed": false,
          "internalType": "uint256",
          "name": "value",
          "type": "uint256"
        }
      ],
      "name": "Transfer",
      "type": "event"
    },
    {
      "anonymous": false,
      "inputs": [
        {
          "indexed": true,
          "internalType": "address",
          "name": "sender",
          "type": "address"
        },
        {
          "indexed": true,
          "internalType": "address",
          "name": "recipient",
          "type": "address"
        }
      ],
      "name": "TransferOwner",
      "type": "event"
    },
    {
      "anonymous": false,
      "inputs": [
        {
          "indexed": true,
          "internalType": "address",
          "name": "sender",
          "type": "address"
        },
        {
          "indexed": true,
          "internalType": "address",
          "name": "recipient",
          "type": "address"
        }
      ],
      "name": "TransferOwnerClaim",
      "type": "event"
    },
    {
      "inputs": [
        {
          "internalType": "address",
          "name": "",
          "type": "address"
        },
        {
          "internalType": "address",
          "name": "",
          "type": "address"
        }
      ],
      "name": "allowance",
      "outputs": [
        {
          "internalType": "uint256",
          "name": "",
          "type": "uint256"
        }
      ],
      "stateMutability": "view",
      "type": "function"
    },
    {
      "inputs": [
        {
          "internalType": "address",
          "name": "spender",
          "type": "address"
        },
        {
          "internalType": "uint256",
          "name": "amount",
          "type": "uint256"
        }
      ],
      "name": "approve",
      "outputs": [
        {
          "internalType": "bool",
          "name": "",
          "type": "bool"
        }
      ],
      "stateMutability": "nonpayable",
      "type": "function"
    },
    {
      "inputs": [
        {
          "internalType": "address",
          "name": "",
          "type": "address"
        }
      ],
      "name": "balanceOf",
      "outputs": [
        {
          "internalType": "uint256",
          "name": "",
          "type": "uint256"
        }
      ],
      "stateMutability": "view",
      "type": "function"
    },
    {
      "inputs": [
        {
          "internalType": "uint256",
          "name": "amount",
          "type": "uint256"
        }
      ],
      "name": "burn",
      "outputs": [],
      "stateMutability": "nonpayable",
      "type": "function"
    },
    {
      "inputs": [],
      "name": "claimOwner",
      "outputs": [],
      "stateMutability": "nonpayable",
      "type": "function"
    },
    {
      "inputs": [],
      "name": "decimals",
      "outputs": [
        {
          "internalType": "uint8",
          "name": "",
          "type": "uint8"
        }
      ],
      "stateMutability": "view",
      "type": "function"
    },
    {
      "inputs": [
        {
          "internalType": "uint256",
          "name": "amount",
          "type": "uint256"
        }
      ],
      "name": "mint",
      "outputs": [],
      "stateMutability": "nonpayable",
      "type": "function"
    },
    {
      "inputs": [],
      "name": "name",
      "outputs": [
        {
          "internalType": "string",
          "name": "",
          "type": "string"
        }
      ],
      "stateMutability": "view",
      "type": "function"
    },
    {
      "inputs": [],
      "name": "owner",
      "outputs": [
        {
          "internalType": "address",
          "name": "",
          "type": "address"
        }
      ],
      "stateMutability": "view",
      "type": "function"
    },
    {
      "inputs": [],
      "name": "pendingOwner",
      "outputs": [
        {
          "internalType": "address",
          "name": "",
          "type": "address"
        }
      ],
      "stateMutability": "view",
      "type": "function"
    },
    {
      "inputs": [],
      "name": "symbol",
      "outputs": [
        {
          "internalType": "string",
          "name": "",
          "type": "string"
        }
      ],
      "stateMutability": "view",
      "type": "function"
    },
    {
      "inputs": [],
      "name": "totalSupply",
      "outputs": [
        {
          "internalType": "uint256",
          "name": "",
          "type": "uint256"
        }
      ],
      "stateMutability": "view",
      "type": "function"
    },
    {
      "inputs": [
        {
          "internalType": "address",
          "name": "to",
          "type": "address"
        },
        {
          "internalType": "uint256",
          "name": "amount",
          "type": "uint256"
        }
      ],
      "name": "transfer",
      "outputs": [
        {
          "internalType": "bool",
          "name": "",
          "type": "bool"
        }
      ],
      "stateMutability": "nonpayable",
      "type": "function"
    },
    {
      "inputs": [
        {
          "internalType": "address",
          "name": "from",
          "type": "address"
        },
        {
          "internalType": "address",
          "name": "to",
          "type": "address"
        },
        {
          "internalType": "uint256",
          "name": "amount",
          "type": "uint256"
        }
      ],
      "name": "transferFrom",
      "outputs": [
        {
          "internalType": "bool",
          "name": "",
          "type": "bool"
        }
      ],
      "stateMutability": "nonpayable",
      "type": "function"
    },
    {
      "inputs": [
        {
          "internalType": "address",
          "name": "recipient",
          "type": "address"
        },
        {
          "internalType": "bool",
          "name": "direct",
          "type": "bool"
        }
      ],
      "name": "transferOwner",
      "outputs": [],
      "stateMutability": "nonpayable",
      "type": "function"
    }
  ],
  "transactionHash": "0x6860c7a76d7f7d02767c4982c5f02dfdf761e16fcbb5d1c9926a1d01b5966acd",
  "args": [
    "vUSD quote token",
    "vUSD"
  ],
  "solcInputHash": "0e343dabaf86f1433359bcaf3343f5ad",
  "bytecode": "0x60806040523480156200001157600080fd5b5060405162000c8f38038062000c8f83398101604081905262000034916200020e565b81818181816000908051906020019062000050929190620000b5565b50805162000066906001906020840190620000b5565b5050600580546001600160a01b031916339081179091556040519091506000907f5bb496b3f951b55d3a1d8e479725a4d25bdc7644fc355f0b71c540354820a1c5908290a350505050620002c8565b828054620000c39062000275565b90600052602060002090601f016020900481019282620000e7576000855562000132565b82601f106200010257805160ff191683800117855562000132565b8280016001018555821562000132579182015b828111156200013257825182559160200191906001019062000115565b506200014092915062000144565b5090565b5b8082111562000140576000815560010162000145565b600082601f8301126200016c578081fd5b81516001600160401b0380821115620001895762000189620002b2565b604051601f8301601f19908116603f01168101908282118183101715620001b457620001b4620002b2565b81604052838152602092508683858801011115620001d0578485fd5b8491505b83821015620001f35785820183015181830184015290820190620001d4565b838211156200020457848385830101525b9695505050505050565b6000806040838503121562000221578182fd5b82516001600160401b038082111562000238578384fd5b62000246868387016200015b565b935060208501519150808211156200025c578283fd5b506200026b858286016200015b565b9150509250929050565b600181811c908216806200028a57607f821691505b60208210811415620002ac57634e487b7160e01b600052602260045260246000fd5b50919050565b634e487b7160e01b600052604160045260246000fd5b6109b780620002d86000396000f3fe608060405234801561001057600080fd5b50600436106100f55760003560e01c806370a0823111610097578063a9059cbb11610066578063a9059cbb14610202578063cf81afaa14610215578063dd62ed3e14610228578063e30c39781461025357600080fd5b806370a082311461019c5780638da5cb5b146101bc57806395d89b41146101e7578063a0712d68146101ef57600080fd5b806323b872dd116100d357806323b872dd14610152578063313ce567146101655780633bd1adec1461017f57806342966c681461018957600080fd5b806306fdde03146100fa578063095ea7b31461011857806318160ddd1461013b575b600080fd5b610102610266565b60405161010f919061088e565b60405180910390f35b61012b61012636600461084d565b6102f4565b604051901515815260200161010f565b61014460025481565b60405190815260200161010f565b61012b6101603660046107d8565b610360565b61016d601281565b60405160ff909116815260200161010f565b610187610440565b005b610187610197366004610876565b6104c3565b6101446101aa366004610785565b60036020526000908152604090205481565b6005546101cf906001600160a01b031681565b6040516001600160a01b03909116815260200161010f565b610102610507565b6101876101fd366004610876565b610514565b61012b61021036600461084d565b610555565b610187610223366004610813565b6105bb565b6101446102363660046107a6565b600460209081526000928352604080842090915290825290205481565b6006546101cf906001600160a01b031681565b6000805461027390610910565b80601f016020809104026020016040519081016040528092919081815260200182805461029f90610910565b80156102ec5780601f106102c1576101008083540402835291602001916102ec565b820191906000526020600020905b8154815290600101906020018083116102cf57829003601f168201915b505050505081565b3360008181526004602090815260408083206001600160a01b038716808552925280832085905551919290917f8c5be1e5ebec7d5bd14f71427d1e84f3dd0314c0f7b2291e5b200ac8c7c3b9259061034f9086815260200190565b60405180910390a350600192915050565b6001600160a01b038316600090815260046020908152604080832033845290915281205460001981146103bc5761039783826108f9565b6001600160a01b03861660009081526004602090815260408083203384529091529020555b6001600160a01b038516600090815260036020526040812080548592906103e49084906108f9565b90915550506001600160a01b03808516600081815260036020526040908190208054870190555190918716906000805160206109628339815191529061042d9087815260200190565b60405180910390a3506001949350505050565b6006546001600160a01b0316331461046b57604051636d0c59cb60e01b815260040160405180910390fd5b60055460405133916001600160a01b0316907f5bb496b3f951b55d3a1d8e479725a4d25bdc7644fc355f0b71c540354820a1c590600090a3600580546001600160a01b03199081163317909155600680549091169055565b6005546001600160a01b031633146104ee57604051637d369bab60e11b815260040160405180910390fd5b600554610504906001600160a01b0316826106ad565b50565b6001805461027390610910565b6005546001600160a01b0316331461053f57604051637d369bab60e11b815260040160405180910390fd5b600554610504906001600160a01b031682610717565b336000908152600360205260408120805483919083906105769084906108f9565b90915550506001600160a01b038316600081815260036020526040908190208054850190555133906000805160206109628339815191529061034f9086815260200190565b6005546001600160a01b031633146105e657604051637d369bab60e11b815260040160405180910390fd5b6001600160a01b03821661060d5760405163755a183760e01b815260040160405180910390fd5b801561066057600580546001600160a01b0319166001600160a01b03841690811790915560405133907f5bb496b3f951b55d3a1d8e479725a4d25bdc7644fc355f0b71c540354820a1c590600090a35050565b600680546001600160a01b0319166001600160a01b03841690811790915560405133907f87f5c8846f4c51400fa448cfb84edcec5cc0f333b6d20a5b903e050823dcb66790600090a35050565b6001600160a01b038216600090815260036020526040812080548392906106d59084906108f9565b90915550506002805482900390556040518181526000906001600160a01b03841690600080516020610962833981519152906020015b60405180910390a35050565b806002600082825461072991906108e1565b90915550506001600160a01b038216600081815260036020908152604080832080548601905551848152600080516020610962833981519152910161070b565b80356001600160a01b038116811461078057600080fd5b919050565b600060208284031215610796578081fd5b61079f82610769565b9392505050565b600080604083850312156107b8578081fd5b6107c183610769565b91506107cf60208401610769565b90509250929050565b6000806000606084860312156107ec578081fd5b6107f584610769565b925061080360208501610769565b9150604084013590509250925092565b60008060408385031215610825578182fd5b61082e83610769565b915060208301358015158114610842578182fd5b809150509250929050565b6000806040838503121561085f578182fd5b61086883610769565b946020939093013593505050565b600060208284031215610887578081fd5b5035919050565b6000602080835283518082850152825b818110156108ba5785810183015185820160400152820161089e565b818111156108cb5783604083870101525b50601f01601f1916929092016040019392505050565b600082198211156108f4576108f461094b565b500190565b60008282101561090b5761090b61094b565b500390565b600181811c9082168061092457607f821691505b6020821081141561094557634e487b7160e01b600052602260045260246000fd5b50919050565b634e487b7160e01b600052601160045260246000fdfeddf252ad1be2c89b69c2b068fc378daa952ba7f163c4a11628f55a4df523b3efa2646970667358221220f5e6a0cb1366268d8576f43f0729e1390e8322f64dea9fc7192b284a519e846f64736f6c63430008040033",
  "devdoc": {
    "kind": "dev",
    "methods": {
      "approve(address,uint256)": {
        "details": "Sets `amount` as the allowance of `spender` over the caller's tokens. Returns a boolean value indicating whether the operation succeeded. IMPORTANT: Beware that changing an allowance with this method brings the risk that someone may use both the old and the new allowance by unfortunate transaction ordering. One possible solution to mitigate this race condition is to first reduce the spender's allowance to 0 and set the desired value afterwards: https://github.com/ethereum/EIPs/issues/20#issuecomment-263524729 Emits an {Approval} event."
      },
      "transferOwner(address,bool)": {
        "params": {
          "direct": "If 'true', ownership is directly transferred.",
          "recipient": "Account granted `owner` access control."
        }
      }
    },
    "version": 1
  },
  "userdoc": {
    "errors": {
      "IncreOwnable_NotOwner()": [
        {
          "notice": "Emitted when the sender is not the owner"
        }
      ],
      "IncreOwnable_NotPendingOwner()": [
        {
          "notice": "Emitted when the sender is not the pending owner"
        }
      ],
      "IncreOwnable_TransferZeroAddress()": [
        {
          "notice": "Emitted when the proposed owner is equal to the zero address"
        }
      ]
    },
    "kind": "user",
    "methods": {
      "claimOwner()": {
        "notice": "`pendingOwner` can claim `owner` account."
      },
      "transferOwner(address,bool)": {
        "notice": "Transfer `owner` account."
      }
    },
    "notice": "ERC20 token traded on the CryptoSwap pool",
    "version": 1
  },
  "storageLayout": {
    "storage": [
      {
        "astId": 11834,
        "contract": "contracts/tokens/VQuote.sol:VQuote",
        "label": "name",
        "offset": 0,
        "slot": "0",
        "type": "t_string_storage"
      },
      {
        "astId": 11837,
        "contract": "contracts/tokens/VQuote.sol:VQuote",
        "label": "symbol",
        "offset": 0,
        "slot": "1",
        "type": "t_string_storage"
      },
      {
        "astId": 11844,
        "contract": "contracts/tokens/VQuote.sol:VQuote",
        "label": "totalSupply",
        "offset": 0,
        "slot": "2",
        "type": "t_uint256"
      },
      {
        "astId": 11849,
        "contract": "contracts/tokens/VQuote.sol:VQuote",
        "label": "balanceOf",
        "offset": 0,
        "slot": "3",
        "type": "t_mapping(t_address,t_uint256)"
      },
      {
        "astId": 11856,
        "contract": "contracts/tokens/VQuote.sol:VQuote",
        "label": "allowance",
        "offset": 0,
        "slot": "4",
        "type": "t_mapping(t_address,t_mapping(t_address,t_uint256))"
      },
      {
        "astId": 12395,
        "contract": "contracts/tokens/VQuote.sol:VQuote",
        "label": "owner",
        "offset": 0,
        "slot": "5",
        "type": "t_address"
      },
      {
        "astId": 12397,
        "contract": "contracts/tokens/VQuote.sol:VQuote",
        "label": "pendingOwner",
        "offset": 0,
        "slot": "6",
        "type": "t_address"
      }
    ],
    "types": {
      "t_address": {
        "encoding": "inplace",
        "label": "address",
        "numberOfBytes": "20"
      },
      "t_mapping(t_address,t_mapping(t_address,t_uint256))": {
        "encoding": "mapping",
        "key": "t_address",
        "label": "mapping(address => mapping(address => uint256))",
        "numberOfBytes": "32",
        "value": "t_mapping(t_address,t_uint256)"
      },
      "t_mapping(t_address,t_uint256)": {
        "encoding": "mapping",
        "key": "t_address",
        "label": "mapping(address => uint256)",
        "numberOfBytes": "32",
        "value": "t_uint256"
      },
      "t_string_storage": {
        "encoding": "bytes",
        "label": "string",
        "numberOfBytes": "32"
      },
      "t_uint256": {
        "encoding": "inplace",
        "label": "uint256",
        "numberOfBytes": "32"
      }
    }
  }
}