{
  "address": "0xaA6935EC84994968112264Ec68C42B84eDC3cc6f",
  "abi": [
    {
      "inputs": [
        {
          "internalType": "contract IClearingHouse",
          "name": "_clearingHouse",
          "type": "address"
        }
      ],
      "stateMutability": "nonpayable",
      "type": "constructor"
    },
    {
      "inputs": [
        {
          "internalType": "uint8",
          "name": "paramIndex",
          "type": "uint8"
        }
      ],
      "name": "ClearingHouseViewer_ZeroAddressConstructor",
      "type": "error"
    },
    {
      "inputs": [],
      "name": "PRBMathSD59x18__AbsInputTooSmall",
      "type": "error"
    },
    {
      "inputs": [],
      "name": "PRBMathSD59x18__DivInputTooSmall",
      "type": "error"
    },
    {
      "inputs": [
        {
          "internalType": "uint256",
          "name": "rAbs",
          "type": "uint256"
        }
      ],
      "name": "PRBMathSD59x18__DivOverflow",
      "type": "error"
    },
    {
      "inputs": [],
      "name": "PRBMathSD59x18__MulInputTooSmall",
      "type": "error"
    },
    {
      "inputs": [
        {
          "internalType": "uint256",
          "name": "rAbs",
          "type": "uint256"
        }
      ],
      "name": "PRBMathSD59x18__MulOverflow",
      "type": "error"
    },
    {
      "inputs": [
        {
          "internalType": "uint256",
          "name": "prod1",
          "type": "uint256"
        }
      ],
      "name": "PRBMath__MulDivFixedPointOverflow",
      "type": "error"
    },
    {
      "inputs": [
        {
          "internalType": "uint256",
          "name": "prod1",
          "type": "uint256"
        },
        {
          "internalType": "uint256",
          "name": "denominator",
          "type": "uint256"
        }
      ],
      "name": "PRBMath__MulDivOverflow",
      "type": "error"
    },
    {
      "inputs": [],
      "name": "clearingHouse",
      "outputs": [
        {
          "internalType": "contract IClearingHouse",
          "name": "",
          "type": "address"
        }
      ],
      "stateMutability": "view",
      "type": "function"
    },
    {
      "inputs": [
        {
          "internalType": "uint256",
          "name": "idx",
          "type": "uint256"
        },
        {
          "internalType": "uint256",
          "name": "dyInclFees",
          "type": "uint256"
        }
      ],
      "name": "compensateForCurveTradingFees",
      "outputs": [
        {
          "internalType": "uint256",
          "name": "dyExclFees",
          "type": "uint256"
        }
      ],
      "stateMutability": "view",
      "type": "function"
    },
    {
      "inputs": [
        {
          "internalType": "address",
          "name": "user",
          "type": "address"
        },
        {
          "internalType": "uint256",
          "name": "tokenIdx",
          "type": "uint256"
        }
      ],
      "name": "getBalance",
      "outputs": [
        {
          "internalType": "int256",
          "name": "",
          "type": "int256"
        }
      ],
      "stateMutability": "view",
      "type": "function"
    },
    {
      "inputs": [
        {
          "internalType": "uint256",
          "name": "idx",
          "type": "uint256"
        }
      ],
      "name": "getBaseBalance",
      "outputs": [
        {
          "internalType": "uint256",
          "name": "",
          "type": "uint256"
        }
      ],
      "stateMutability": "view",
      "type": "function"
    },
    {
      "inputs": [
        {
          "internalType": "uint256",
          "name": "idx",
          "type": "uint256"
        }
      ],
      "name": "getBaseDust",
      "outputs": [
        {
          "internalType": "uint256",
          "name": "",
          "type": "uint256"
        }
      ],
      "stateMutability": "view",
      "type": "function"
    },
    {
      "inputs": [
        {
          "internalType": "uint256",
          "name": "idx",
          "type": "uint256"
        },
        {
          "internalType": "uint256",
          "name": "vQuoteAmountToSpend",
          "type": "uint256"
        }
      ],
      "name": "getExpectedVBaseAmount",
      "outputs": [
        {
          "internalType": "uint256",
          "name": "",
          "type": "uint256"
        }
      ],
      "stateMutability": "view",
      "type": "function"
    },
    {
      "inputs": [
        {
          "internalType": "uint256",
          "name": "idx",
          "type": "uint256"
        },
        {
          "internalType": "uint256",
          "name": "vBaseAmountToSpend",
          "type": "uint256"
        }
      ],
      "name": "getExpectedVQuoteAmount",
      "outputs": [
        {
          "internalType": "uint256",
          "name": "",
          "type": "uint256"
        }
      ],
      "stateMutability": "view",
      "type": "function"
    },
    {
      "inputs": [
        {
          "internalType": "address",
          "name": "account",
          "type": "address"
        }
      ],
      "name": "getFundingPaymentsAcrossMarkets",
      "outputs": [
        {
          "internalType": "int256",
          "name": "fundingPayments",
          "type": "int256"
        }
      ],
      "stateMutability": "view",
      "type": "function"
    },
    {
      "inputs": [
        {
          "internalType": "uint256",
          "name": "idx",
          "type": "uint256"
        }
      ],
      "name": "getGlobalPosition",
      "outputs": [
        {
          "components": [
            {
              "internalType": "uint128",
              "name": "timeOfLastTrade",
              "type": "uint128"
            },
            {
              "internalType": "uint128",
              "name": "timeOfLastTwapUpdate",
              "type": "uint128"
            },
            {
              "internalType": "int256",
              "name": "cumFundingRate",
              "type": "int256"
            },
            {
              "internalType": "uint256",
              "name": "currentBlockTradeAmount",
              "type": "uint256"
            },
            {
              "internalType": "uint256",
              "name": "totalTradingFeesGrowth",
              "type": "uint256"
            },
            {
              "internalType": "uint256",
              "name": "totalLiquidityProvided",
              "type": "uint256"
            },
            {
              "internalType": "uint256",
              "name": "totalBaseFeesGrowth",
              "type": "uint256"
            },
            {
              "internalType": "uint256",
              "name": "totalQuoteFeesGrowth",
              "type": "uint256"
            }
          ],
          "internalType": "struct LibPerpetual.GlobalPosition",
          "name": "",
          "type": "tuple"
        }
      ],
      "stateMutability": "view",
      "type": "function"
    },
    {
      "inputs": [
        {
          "internalType": "uint256",
          "name": "idx",
          "type": "uint256"
        },
        {
          "internalType": "address",
          "name": "account",
          "type": "address"
        }
      ],
      "name": "getLpEstimatedPnl",
      "outputs": [
        {
          "internalType": "int256",
          "name": "",
          "type": "int256"
        }
      ],
      "stateMutability": "view",
      "type": "function"
    },
    {
      "inputs": [
        {
          "internalType": "uint256",
          "name": "idx",
          "type": "uint256"
        },
        {
          "internalType": "address",
          "name": "account",
          "type": "address"
        }
      ],
      "name": "getLpFundingPayments",
      "outputs": [
        {
          "internalType": "int256",
          "name": "",
          "type": "int256"
        }
      ],
      "stateMutability": "view",
      "type": "function"
    },
    {
      "inputs": [
        {
          "internalType": "uint256",
          "name": "idx",
          "type": "uint256"
        },
        {
          "internalType": "address",
          "name": "account",
          "type": "address"
        }
      ],
      "name": "getLpPosition",
      "outputs": [
        {
          "components": [
            {
              "internalType": "int256",
              "name": "openNotional",
              "type": "int256"
            },
            {
              "internalType": "int256",
              "name": "positionSize",
              "type": "int256"
            },
            {
              "internalType": "int256",
              "name": "cumFundingRate",
              "type": "int256"
            },
            {
              "internalType": "uint256",
              "name": "liquidityBalance",
              "type": "uint256"
            },
            {
              "internalType": "uint256",
              "name": "depositTime",
              "type": "uint256"
            },
            {
              "internalType": "uint256",
              "name": "totalTradingFeesGrowth",
              "type": "uint256"
            },
            {
              "internalType": "uint256",
              "name": "totalBaseFeesGrowth",
              "type": "uint256"
            },
            {
              "internalType": "uint256",
              "name": "totalQuoteFeesGrowth",
              "type": "uint256"
            }
          ],
          "internalType": "struct LibPerpetual.LiquidityProviderPosition",
          "name": "",
          "type": "tuple"
        }
      ],
      "stateMutability": "view",
      "type": "function"
    },
    {
      "inputs": [
        {
          "internalType": "uint256",
          "name": "idx",
          "type": "uint256"
        },
        {
          "internalType": "address",
          "name": "account",
          "type": "address"
        }
      ],
      "name": "getLpPositionAfterWithdrawal",
      "outputs": [
        {
          "components": [
            {
              "internalType": "int256",
              "name": "openNotional",
              "type": "int256"
            },
            {
              "internalType": "int256",
              "name": "positionSize",
              "type": "int256"
            },
            {
              "internalType": "int256",
              "name": "cumFundingRate",
              "type": "int256"
            }
          ],
          "internalType": "struct LibPerpetual.TraderPosition",
          "name": "",
          "type": "tuple"
        }
      ],
      "stateMutability": "view",
      "type": "function"
    },
    {
      "inputs": [
        {
          "internalType": "uint256",
          "name": "idx",
          "type": "uint256"
        },
        {
          "internalType": "address",
          "name": "account",
          "type": "address"
        }
      ],
      "name": "getLpTradingFees",
      "outputs": [
        {
          "internalType": "uint256",
          "name": "",
          "type": "uint256"
        }
      ],
      "stateMutability": "view",
      "type": "function"
    },
    {
      "inputs": [
        {
          "internalType": "uint256",
          "name": "idx",
          "type": "uint256"
        },
        {
          "internalType": "address",
          "name": "account",
          "type": "address"
        }
      ],
      "name": "getLpUnrealizedPnL",
      "outputs": [
        {
          "internalType": "int256",
          "name": "",
          "type": "int256"
        }
      ],
      "stateMutability": "view",
      "type": "function"
    },
    {
      "inputs": [
        {
          "internalType": "uint256",
          "name": "idx",
          "type": "uint256"
        }
      ],
      "name": "getMarket",
      "outputs": [
        {
          "internalType": "contract ICryptoSwap",
          "name": "",
          "type": "address"
        }
      ],
      "stateMutability": "view",
      "type": "function"
    },
    {
      "inputs": [
        {
          "internalType": "uint256",
          "name": "idx",
          "type": "uint256"
        },
        {
          "internalType": "address",
          "name": "user",
          "type": "address"
        },
        {
          "internalType": "bool",
          "name": "isTrader",
          "type": "bool"
        },
        {
          "internalType": "uint256",
          "name": "reductionRatio",
          "type": "uint256"
        },
        {
          "internalType": "uint256",
          "name": "iter",
          "type": "uint256"
        }
      ],
      "name": "getProposedAmount",
      "outputs": [
        {
          "internalType": "uint256",
          "name": "amountIn",
          "type": "uint256"
        },
        {
          "internalType": "uint256",
          "name": "amountOut",
          "type": "uint256"
        }
      ],
      "stateMutability": "view",
      "type": "function"
    },
    {
      "inputs": [
        {
          "internalType": "uint256",
          "name": "idx",
          "type": "uint256"
        }
      ],
      "name": "getQuoteBalance",
      "outputs": [
        {
          "internalType": "uint256",
          "name": "",
          "type": "uint256"
        }
      ],
      "stateMutability": "view",
      "type": "function"
    },
    {
      "inputs": [
        {
          "internalType": "address",
          "name": "account",
          "type": "address"
        },
        {
          "internalType": "bool",
          "name": "isDiscounted",
          "type": "bool"
        }
      ],
      "name": "getReserveValue",
      "outputs": [
        {
          "internalType": "int256",
          "name": "",
          "type": "int256"
        }
      ],
      "stateMutability": "view",
      "type": "function"
    },
    {
      "inputs": [
        {
          "internalType": "uint256",
          "name": "idx",
          "type": "uint256"
        }
      ],
      "name": "getTotalLiquidityProvided",
      "outputs": [
        {
          "internalType": "uint256",
          "name": "",
          "type": "uint256"
        }
      ],
      "stateMutability": "view",
      "type": "function"
    },
    {
      "inputs": [
        {
          "internalType": "uint256",
          "name": "idx",
          "type": "uint256"
        },
        {
          "internalType": "address",
          "name": "account",
          "type": "address"
        }
      ],
      "name": "getTraderFundingPayments",
      "outputs": [
        {
          "internalType": "int256",
          "name": "",
          "type": "int256"
        }
      ],
      "stateMutability": "view",
      "type": "function"
    },
    {
      "inputs": [
        {
          "internalType": "uint256",
          "name": "idx",
          "type": "uint256"
        },
        {
          "internalType": "address",
          "name": "account",
          "type": "address"
        }
      ],
      "name": "getTraderPosition",
      "outputs": [
        {
          "components": [
            {
              "internalType": "int256",
              "name": "openNotional",
              "type": "int256"
            },
            {
              "internalType": "int256",
              "name": "positionSize",
              "type": "int256"
            },
            {
              "internalType": "int256",
              "name": "cumFundingRate",
              "type": "int256"
            }
          ],
          "internalType": "struct LibPerpetual.TraderPosition",
          "name": "",
          "type": "tuple"
        }
      ],
      "stateMutability": "view",
      "type": "function"
    },
    {
      "inputs": [
        {
          "internalType": "uint256",
          "name": "idx",
          "type": "uint256"
        },
        {
          "internalType": "address",
          "name": "account",
          "type": "address"
        }
      ],
      "name": "getTraderUnrealizedPnL",
      "outputs": [
        {
          "internalType": "int256",
          "name": "",
          "type": "int256"
        }
      ],
      "stateMutability": "view",
      "type": "function"
    },
    {
      "inputs": [
        {
          "internalType": "uint256",
          "name": "idx",
          "type": "uint256"
        }
      ],
      "name": "indexPrice",
      "outputs": [
        {
          "internalType": "int256",
          "name": "",
          "type": "int256"
        }
      ],
      "stateMutability": "view",
      "type": "function"
    },
    {
      "inputs": [
        {
          "internalType": "uint256",
          "name": "idx",
          "type": "uint256"
        }
      ],
      "name": "insuranceFee",
      "outputs": [
        {
          "internalType": "int256",
          "name": "",
          "type": "int256"
        }
      ],
      "stateMutability": "view",
      "type": "function"
    },
    {
      "inputs": [
        {
          "internalType": "uint256",
          "name": "idx",
          "type": "uint256"
        },
        {
          "internalType": "address",
          "name": "account",
          "type": "address"
        }
      ],
      "name": "isLpPositionOpen",
      "outputs": [
        {
          "internalType": "bool",
          "name": "",
          "type": "bool"
        }
      ],
      "stateMutability": "view",
      "type": "function"
    },
    {
      "inputs": [
        {
          "internalType": "address",
          "name": "account",
          "type": "address"
        },
        {
          "internalType": "int256",
          "name": "ratio",
          "type": "int256"
        }
      ],
      "name": "isMarginValid",
      "outputs": [
        {
          "internalType": "bool",
          "name": "",
          "type": "bool"
        }
      ],
      "stateMutability": "view",
      "type": "function"
    },
    {
      "inputs": [
        {
          "internalType": "uint256",
          "name": "idx",
          "type": "uint256"
        },
        {
          "internalType": "address",
          "name": "account",
          "type": "address"
        }
      ],
      "name": "isTraderPositionOpen",
      "outputs": [
        {
          "internalType": "bool",
          "name": "",
          "type": "bool"
        }
      ],
      "stateMutability": "view",
      "type": "function"
    },
    {
      "inputs": [
        {
          "internalType": "address",
          "name": "account",
          "type": "address"
        }
      ],
      "name": "marginRatio",
      "outputs": [
        {
          "internalType": "int256",
          "name": "",
          "type": "int256"
        }
      ],
      "stateMutability": "view",
      "type": "function"
    },
    {
      "inputs": [
        {
          "internalType": "uint256",
          "name": "idx",
          "type": "uint256"
        }
      ],
      "name": "marketPrice",
      "outputs": [
        {
          "internalType": "uint256",
          "name": "",
          "type": "uint256"
        }
      ],
      "stateMutability": "view",
      "type": "function"
    },
    {
      "inputs": [
        {
          "internalType": "uint256",
          "name": "idx",
          "type": "uint256"
        },
        {
          "internalType": "address",
          "name": "user",
          "type": "address"
        },
        {
          "internalType": "uint256",
          "name": "liquidityAmountToRemove",
          "type": "uint256"
        },
        {
          "internalType": "uint256[2]",
          "name": "minVTokenAmounts",
          "type": "uint256[2]"
        },
        {
          "internalType": "uint256",
          "name": "proposedAmount",
          "type": "uint256"
        }
      ],
      "name": "removeLiquiditySwap",
      "outputs": [
        {
          "internalType": "uint256",
          "name": "baseProceeds",
          "type": "uint256"
        }
      ],
      "stateMutability": "nonpayable",
      "type": "function"
    }
  ],
  "transactionHash": "0xb927f887a2b1df39863a2672677509306be283d67b6029cd362b742f0ca5d2e7",
  "args": [
    "0x983F5E7076d34d9a059653fF0fdD7C2e8a7307B2"
  ],
  "numDeployments": 1,
  "solcInputHash": "e1cef607481b161ae69d7ea60025156b",
  "bytecode": "0x60806040523480156200001157600080fd5b5060405162002c7638038062002c76833981016040819052620000349162000089565b6001600160a01b0381166200006357604051632c9334bd60e11b81526000600482015260240160405180910390fd5b600080546001600160a01b0319166001600160a01b0392909216919091179055620000b9565b6000602082840312156200009b578081fd5b81516001600160a01b0381168114620000b2578182fd5b9392505050565b612bad80620000c96000396000f3fe608060405234801561001057600080fd5b50600436106101e55760003560e01c80633d5333f61161010f578063a460d033116100a2578063e6ac5fcb11610071578063e6ac5fcb14610517578063e7eb542b1461052a578063eb44fdd314610552578063f82a61ec1461056557600080fd5b8063a460d0331461045d578063b15da79214610470578063b44a823f14610483578063cc2923c51461049657600080fd5b806366e910dd116100de57806366e910dd146104015780636ccc242f146104145780638e78dec2146104275780639f4a83671461044a57600080fd5b80633d5333f6146103935780634af6d8f2146103a657806351aa4c9d146103b957806359e39aab146103cc57600080fd5b80631fdbc3c8116101875780632b04e840116101565780632b04e840146103475780632b1c12c21461035a5780632caca4681461036d5780633adec5a71461038057600080fd5b80631fdbc3c81461029a57806324012fcd1461030e57806326b59eae1461032157806329122eb01461033457600080fd5b806314816f93116101c357806314816f931461024e57806314ee9c051461026157806317941c23146102745780631fb4ef671461028757600080fd5b8063059d2cf5146101ea5780630af96800146102105780630cd4ff3a1461023b575b600080fd5b6101fd6101f8366004612906565b610578565b6040519081526020015b60405180910390f35b600054610223906001600160a01b031681565b6040516001600160a01b039091168152602001610207565b6101fd610249366004612906565b610691565b6101fd61025c3660046128ee565b610755565b6101fd61026f3660046128ee565b610842565b6101fd610282366004612906565b610967565b6101fd6102953660046128ee565b6109a5565b6102ad6102a8366004612906565b610a5a565b6040516102079190600061010082019050825182526020830151602083015260408301516040830152606083015160608301526080830151608083015260a083015160a083015260c083015160c083015260e083015160e083015292915050565b6101fd61031c366004612906565b610b9a565b6101fd61032f3660046129cf565b610c47565b6101fd6103423660046126ea565b610d71565b6101fd610355366004612722565b610e30565b6101fd6103683660046126ce565b610eed565b6101fd61037b3660046128ee565b611198565b6101fd61038e3660046128ee565b61124d565b6101fd6103a13660046126ce565b611302565b6101fd6103b4366004612906565b61144c565b6101fd6103c73660046129cf565b6114f9565b6103df6103da366004612906565b611623565b6040805182518152602080840151908201529181015190820152606001610207565b6103df61040f366004612906565b61173f565b6101fd610422366004612906565b61180f565b61043a610435366004612906565b6118d3565b6040519015158152602001610207565b6101fd6104583660046128ee565b6119cc565b6101fd61046b3660046129cf565b611a81565b61043a61047e366004612906565b611c06565b61043a610491366004612722565b611cb3565b6104a96104a43660046128ee565b611cc8565b60405161020791906000610100820190506001600160801b038084511683528060208501511660208401525060408301516040830152606083015160608301526080830151608083015260a083015160a083015260c083015160c083015260e083015160e083015292915050565b6101fd61052536600461297b565b611e0f565b61053d61053836600461292a565b611f3d565b60408051928352602083019190915201610207565b6102236105603660046128ee565b6120fb565b6101fd6105733660046128ee565b6121e8565b60006105848383611c06565b6105905750600061068b565b600054604051632cd0f65560e11b8152600481018590526001600160a01b03909116906359a1ecaa9060240160206040518083038186803b1580156105d457600080fd5b505afa1580156105e8573d6000803e3d6000fd5b505050506040513d601f19601f8201168201806040525081019061060c9190612769565b604051637d4e3dcd60e11b81526001600160a01b038481166004830152919091169063fa9c7b9a906024015b60206040518083038186803b15801561065057600080fd5b505afa158015610664573d6000803e3d6000fd5b505050506040513d601f19601f820116820180604052508101906106889190612785565b90505b92915050565b600061069d8383611c06565b6106a95750600061068b565b600054604051632cd0f65560e11b8152600481018590526001600160a01b03909116906359a1ecaa9060240160206040518083038186803b1580156106ed57600080fd5b505afa158015610701573d6000803e3d6000fd5b505050506040513d601f19601f820116820180604052508101906107259190612769565b604051634074327f60e11b81526001600160a01b03848116600483015291909116906380e864fe90602401610638565b60008054604051632cd0f65560e11b8152600481018490526001600160a01b03909116906359a1ecaa9060240160206040518083038186803b15801561079a57600080fd5b505afa1580156107ae573d6000803e3d6000fd5b505050506040513d601f19601f820116820180604052508101906107d29190612769565b6001600160a01b03166389fd335b6040518163ffffffff1660e01b815260040160206040518083038186803b15801561080a57600080fd5b505afa15801561081e573d6000803e3d6000fd5b505050506040513d601f19601f8201168201806040525081019061068b9190612785565b60008054604051632cd0f65560e11b8152600481018490526001600160a01b03909116906359a1ecaa9060240160206040518083038186803b15801561088757600080fd5b505afa15801561089b573d6000803e3d6000fd5b505050506040513d601f19601f820116820180604052508101906108bf9190612769565b6001600160a01b031663c5f1916c6040518163ffffffff1660e01b815260040160206040518083038186803b1580156108f757600080fd5b505afa15801561090b573d6000803e3d6000fd5b505050506040513d601f19601f8201168201806040525081019061092f9190612769565b6001600160a01b03166318160ddd6040518163ffffffff1660e01b815260040160206040518083038186803b15801561080a57600080fd5b60006109738383611c06565b61097f5750600061068b565b61099161098c8484610578565b61220d565b61099b8484610691565b6106889190612a57565b60008054604051632cd0f65560e11b8152600481018490526001600160a01b03909116906359a1ecaa9060240160206040518083038186803b1580156109ea57600080fd5b505afa1580156109fe573d6000803e3d6000fd5b505050506040513d601f19601f82011682018060405250810190610a229190612769565b6001600160a01b03166310bace8c6040518163ffffffff1660e01b815260040160206040518083038186803b15801561080a57600080fd5b610aa260405180610100016040528060008152602001600081526020016000815260200160008152602001600081526020016000815260200160008152602001600081525090565b600054604051632cd0f65560e11b8152600481018590526001600160a01b03909116906359a1ecaa9060240160206040518083038186803b158015610ae657600080fd5b505afa158015610afa573d6000803e3d6000fd5b505050506040513d601f19601f82011682018060405250810190610b1e9190612769565b60405163cefc499360e01b81526001600160a01b038481166004830152919091169063cefc4993906024016101006040518083038186803b158015610b6257600080fd5b505afa158015610b76573d6000803e3d6000fd5b505050506040513d601f19601f820116820180604052508101906106889190612819565b60008054604051632cd0f65560e11b8152600481018590526001600160a01b03909116906359a1ecaa9060240160206040518083038186803b158015610bdf57600080fd5b505afa158015610bf3573d6000803e3d6000fd5b505050506040513d601f19601f82011682018060405250810190610c179190612769565b60405163aa407ae160e01b81526001600160a01b038481166004830152919091169063aa407ae190602401610638565b60008054604051632cd0f65560e11b8152600481018590526001600160a01b03909116906359a1ecaa9060240160206040518083038186803b158015610c8c57600080fd5b505afa158015610ca0573d6000803e3d6000fd5b505050506040513d601f19601f82011682018060405250810190610cc49190612769565b6001600160a01b03166380f556056040518163ffffffff1660e01b815260040160206040518083038186803b158015610cfc57600080fd5b505afa158015610d10573d6000803e3d6000fd5b505050506040513d601f19601f82011682018060405250810190610d349190612769565b60405163556d6e9f60e01b81526000600482015260016024820152604481018490526001600160a01b03919091169063556d6e9f90606401610638565b60008060009054906101000a90046001600160a01b03166001600160a01b031663fbfa77cf6040518163ffffffff1660e01b815260040160206040518083038186803b158015610dc057600080fd5b505afa158015610dd4573d6000803e3d6000fd5b505050506040513d601f19601f82011682018060405250810190610df89190612769565b60405163029122eb60e41b81526001600160a01b038581166004830152841515602483015291909116906329122eb090604401610638565b60008060009054906101000a90046001600160a01b03166001600160a01b031663fbfa77cf6040518163ffffffff1660e01b815260040160206040518083038186803b158015610e7f57600080fd5b505afa158015610e93573d6000803e3d6000fd5b505050506040513d601f19601f82011682018060405250810190610eb79190612769565b60405162ac13a160e61b81526001600160a01b038581166004830152602482018590529190911690632b04e84090604401610638565b6000805b60008054906101000a90046001600160a01b03166001600160a01b031663295c39a56040518163ffffffff1660e01b815260040160206040518083038186803b158015610f3d57600080fd5b505afa158015610f51573d6000803e3d6000fd5b505050506040513d601f19601f82011682018060405250810190610f759190612785565b81101561119257600054604051632cd0f65560e11b8152600481018390526001600160a01b03909116906359a1ecaa9060240160206040518083038186803b158015610fc057600080fd5b505afa158015610fd4573d6000803e3d6000fd5b505050506040513d601f19601f82011682018060405250810190610ff89190612769565b60405163aa407ae160e01b81526001600160a01b038581166004830152919091169063aa407ae19060240160206040518083038186803b15801561103b57600080fd5b505afa15801561104f573d6000803e3d6000fd5b505050506040513d601f19601f820116820180604052508101906110739190612785565b600054604051632cd0f65560e11b8152600481018490526001600160a01b03909116906359a1ecaa9060240160206040518083038186803b1580156110b757600080fd5b505afa1580156110cb573d6000803e3d6000fd5b505050506040513d601f19601f820116820180604052508101906110ef9190612769565b604051632d3eb79b60e01b81526001600160a01b0386811660048301529190911690632d3eb79b9060240160206040518083038186803b15801561113257600080fd5b505afa158015611146573d6000803e3d6000fd5b505050506040513d601f19601f8201168201806040525081019061116a9190612785565b6111749190612a57565b61117e9083612a57565b91508061118a81612b06565b915050610ef1565b50919050565b60008054604051632cd0f65560e11b8152600481018490526001600160a01b03909116906359a1ecaa9060240160206040518083038186803b1580156111dd57600080fd5b505afa1580156111f1573d6000803e3d6000fd5b505050506040513d601f19601f820116820180604052508101906112159190612769565b6001600160a01b03166397c4fac76040518163ffffffff1660e01b815260040160206040518083038186803b15801561080a57600080fd5b60008054604051632cd0f65560e11b8152600481018490526001600160a01b03909116906359a1ecaa9060240160206040518083038186803b15801561129257600080fd5b505afa1580156112a6573d6000803e3d6000fd5b505050506040513d601f19601f820116820180604052508101906112ca9190612769565b6001600160a01b03166345a153886040518163ffffffff1660e01b815260040160206040518083038186803b15801561080a57600080fd5b6000805460405163adf1ab9b60e01b81526001600160a01b0384811660048301528392169063adf1ab9b9060240160206040518083038186803b15801561134857600080fd5b505afa15801561135c573d6000803e3d6000fd5b505050506040513d601f19601f820116820180604052508101906113809190612785565b60008054604051637ef8a2d360e01b81526001600160a01b03878116600483015293945091921690637ef8a2d39060240160206040518083038186803b1580156113c957600080fd5b505afa1580156113dd573d6000803e3d6000fd5b505050506040513d601f19601f820116820180604052508101906114019190612785565b9050600061140e85610eed565b9050816114275750670de0b6b3a7640000949350505050565b6000611434866000610d71565b905061144281858486612218565b9695505050505050565b60008054604051632cd0f65560e11b8152600481018590526001600160a01b03909116906359a1ecaa9060240160206040518083038186803b15801561149157600080fd5b505afa1580156114a5573d6000803e3d6000fd5b505050506040513d601f19601f820116820180604052508101906114c99190612769565b604051632d3eb79b60e01b81526001600160a01b0384811660048301529190911690632d3eb79b90602401610638565b60008054604051632cd0f65560e11b8152600481018590526001600160a01b03909116906359a1ecaa9060240160206040518083038186803b15801561153e57600080fd5b505afa158015611552573d6000803e3d6000fd5b505050506040513d601f19601f820116820180604052508101906115769190612769565b6001600160a01b03166380f556056040518163ffffffff1660e01b815260040160206040518083038186803b1580156115ae57600080fd5b505afa1580156115c2573d6000803e3d6000fd5b505050506040513d601f19601f820116820180604052508101906115e69190612769565b60405163556d6e9f60e01b81526001600482015260006024820152604481018490526001600160a01b03919091169063556d6e9f90606401610638565b61164760405180606001604052806000815260200160008152602001600081525090565b600054604051632cd0f65560e11b8152600481018590526001600160a01b03909116906359a1ecaa9060240160206040518083038186803b15801561168b57600080fd5b505afa15801561169f573d6000803e3d6000fd5b505050506040513d601f19601f820116820180604052508101906116c39190612769565b6040516306387ded60e51b81526001600160a01b038481166004830152919091169063c70fbda0906024015b60606040518083038186803b15801561170757600080fd5b505afa15801561171b573d6000803e3d6000fd5b505050506040513d601f19601f820116820180604052508101906106889190612887565b61176360405180606001604052806000815260200160008152602001600081525090565b600054604051632cd0f65560e11b8152600481018590526001600160a01b03909116906359a1ecaa9060240160206040518083038186803b1580156117a757600080fd5b505afa1580156117bb573d6000803e3d6000fd5b505050506040513d601f19601f820116820180604052508101906117df9190612769565b604051630f272c5b60e31b81526001600160a01b038481166004830152919091169063793962d8906024016116ef565b600061181b83836118d3565b6118275750600061068b565b600054604051632cd0f65560e11b8152600481018590526001600160a01b03909116906359a1ecaa9060240160206040518083038186803b15801561186b57600080fd5b505afa15801561187f573d6000803e3d6000fd5b505050506040513d601f19601f820116820180604052508101906118a39190612769565b604051633b6234db60e11b81526001600160a01b03848116600483015291909116906376c469b690602401610638565b60008054604051632cd0f65560e11b8152600481018590526001600160a01b03909116906359a1ecaa9060240160206040518083038186803b15801561191857600080fd5b505afa15801561192c573d6000803e3d6000fd5b505050506040513d601f19601f820116820180604052508101906119509190612769565b604051635216b30160e11b81526001600160a01b038481166004830152919091169063a42d6602906024015b60206040518083038186803b15801561199457600080fd5b505afa1580156119a8573d6000803e3d6000fd5b505050506040513d601f19601f82011682018060405250810190610688919061274d565b60008054604051632cd0f65560e11b8152600481018490526001600160a01b03909116906359a1ecaa9060240160206040518083038186803b158015611a1157600080fd5b505afa158015611a25573d6000803e3d6000fd5b505050506040513d601f19601f82011682018060405250810190611a499190612769565b6001600160a01b0316634bc36bd66040518163ffffffff1660e01b815260040160206040518083038186803b1580156108f757600080fd5b60008054604051632cd0f65560e11b8152600481018590526001600160a01b03909116906359a1ecaa9060240160206040518083038186803b158015611ac657600080fd5b505afa158015611ada573d6000803e3d6000fd5b505050506040513d601f19601f82011682018060405250810190611afe9190612769565b6001600160a01b03166380f556056040518163ffffffff1660e01b815260040160206040518083038186803b158015611b3657600080fd5b505afa158015611b4a573d6000803e3d6000fd5b505050506040513d601f19601f82011682018060405250810190611b6e9190612769565b6001600160a01b03166392526c0c6040518163ffffffff1660e01b815260040160206040518083038186803b158015611ba657600080fd5b505afa158015611bba573d6000803e3d6000fd5b505050506040513d601f19601f82011682018060405250810190611bde9190612785565b611bed906402540be400612aef565b611bfc6402540be40084612ad0565b6106889190612ab0565b60008054604051632cd0f65560e11b8152600481018590526001600160a01b03909116906359a1ecaa9060240160206040518083038186803b158015611c4b57600080fd5b505afa158015611c5f573d6000803e3d6000fd5b505050506040513d601f19601f82011682018060405250810190611c839190612769565b604051639d36b75960e01b81526001600160a01b0384811660048301529190911690639d36b7599060240161197c565b600081611cbf84611302565b12159392505050565b611d2260405180610100016040528060006001600160801b0316815260200160006001600160801b031681526020016000815260200160008152602001600081526020016000815260200160008152602001600081525090565b600054604051632cd0f65560e11b8152600481018490526001600160a01b03909116906359a1ecaa9060240160206040518083038186803b158015611d6657600080fd5b505afa158015611d7a573d6000803e3d6000fd5b505050506040513d601f19601f82011682018060405250810190611d9e9190612769565b6001600160a01b0316639027b59e6040518163ffffffff1660e01b81526004016101006040518083038186803b158015611dd757600080fd5b505afa158015611deb573d6000803e3d6000fd5b505050506040513d601f19601f8201168201806040525081019061068b919061279d565b60008054604051632cd0f65560e11b8152600481018890526001600160a01b03909116906359a1ecaa9060240160206040518083038186803b158015611e5457600080fd5b505afa158015611e68573d6000803e3d6000fd5b505050506040513d601f19601f82011682018060405250810190611e8c9190612769565b6001600160a01b0316633aef4e7e868686866040518563ffffffff1660e01b8152600401611ebd94939291906129f0565b600060405180830381600087803b158015611ed757600080fd5b505af1925050508015611ee8575060015b611f34573d808015611f16576040519150601f19603f3d011682016040523d82523d6000602084013e611f1b565b606091505b5080806020019051810190611f309190612785565b9150505b95945050505050565b600080600085611f5a57611f518888611623565b60200151611f69565b611f64888861173f565b602001515b9050670de0b6b3a7640000851115611fc85760405162461bcd60e51b815260206004820181905260248201527f43616e206e6f7420726564756365206279206d6f7265207468616e203130302560448201526064015b60405180910390fd5b6000611fdd611fd68761220d565b8390612241565b9050600082131561200857611ff18161224d565b93506120018961046b8b876114f9565b92506120ef565b600061201b61201683612b21565b61224d565b90506120306120298b61124d565b8290612258565b94506000600a61204187600d612ad0565b61204b9190612ab0565b90506000600a61205c886007612ad0565b6120669190612ab0565b905060005b888110156120ce57600261207f8484612a98565b6120899190612ab0565b97506120998d61046b8f8b610c47565b9650838714156120a8576120ce565b838710156120b8578791506120bc565b8792505b806120c681612b06565b91505061206b565b50828610156120eb578196506120e88c61046b8e8a610c47565b95505b5050505b50509550959350505050565b60008054604051632cd0f65560e11b8152600481018490526001600160a01b03909116906359a1ecaa9060240160206040518083038186803b15801561214057600080fd5b505afa158015612154573d6000803e3d6000fd5b505050506040513d601f19601f820116820180604052508101906121789190612769565b6001600160a01b03166380f556056040518163ffffffff1660e01b815260040160206040518083038186803b1580156121b057600080fd5b505afa1580156121c4573d6000803e3d6000fd5b505050506040513d601f19601f8201168201806040525081019061068b9190612769565b6000805461068b906122049084906001600160a01b031661173f565b6020015161224d565b600061068b82612264565b6000611f34612226836122d2565b846122318789612a57565b61223b9190612a57565b906122dd565b600061068883836122e9565b600061068b826123ae565b60006106888383612400565b60006001600160ff1b038211156122ce5760405162461bcd60e51b815260206004820152602860248201527f53616665436173743a2076616c756520646f65736e27742066697420696e2061604482015267371034b73a191a9b60c11b6064820152608401611fbf565b5090565b600061068b8261240c565b60006106888383612448565b6000600160ff1b8314806123005750600160ff1b82145b1561231e57604051630d01a11b60e21b815260040160405180910390fd5b6000806000851261232f5784612334565b846000035b9150600084126123445783612349565b836000035b90506000612357838361250e565b90506001600160ff1b038111156123845760405163bf79e8d960e01b815260048101829052602401611fbf565b60001980871390861380821860011461239d57826123a2565b826000035b98975050505050505050565b6000808212156122ce5760405162461bcd60e51b815260206004820181905260248201527f53616665436173743a2076616c7565206d75737420626520706f7369746976656044820152606401611fbf565b6000610688838361250e565b6000600160ff1b82141561243357604051631d0742e360e21b815260040160405180910390fd5b60008212612441578161068b565b5060000390565b6000600160ff1b83148061245f5750600160ff1b82145b1561247d5760405163b3c754a360e01b815260040160405180910390fd5b6000806000851261248e5784612493565b846000035b9150600084126124a357836124a8565b836000035b905060006124bf83670de0b6b3a7640000846125d0565b90506001600160ff1b038111156124ec57604051637cb4bef560e01b815260048101829052602401611fbf565b60001980871390861380821860011461250557826123a2565b6123a283612b21565b60008080600019848609848602925082811083820303915050670de0b6b3a764000081106125525760405163698d9a0160e11b815260048101829052602401611fbf565b600080670de0b6b3a76400008688099150506706f05b59d3b1ffff81118261258c5780670de0b6b3a764000085040194505050505061068b565b620400008285030493909111909103600160ee1b02919091177faccb18165bd6fe31ae1cf318dc5b51eee0e1ba569b88cd74c1773b91fac106690201905092915050565b6000808060001985870985870292508281108382030391505080600014156126195783828161260f57634e487b7160e01b600052601260045260246000fd5b04925050506126ab565b83811061264357604051631dcf306360e21b81526004810182905260248101859052604401611fbf565b600084868809851960019081018716968790049682860381900495909211909303600082900391909104909201919091029190911760038402600290811880860282030280860282030280860282030280860282030280860282030280860290910302029150505b9392505050565b80516001600160801b03811681146126c957600080fd5b919050565b6000602082840312156126df578081fd5b81356126ab81612b51565b600080604083850312156126fc578081fd5b823561270781612b51565b9150602083013561271781612b69565b809150509250929050565b60008060408385031215612734578182fd5b823561273f81612b51565b946020939093013593505050565b60006020828403121561275e578081fd5b81516126ab81612b69565b60006020828403121561277a578081fd5b81516126ab81612b51565b600060208284031215612796578081fd5b5051919050565b600061010082840312156127af578081fd5b6127b7612a1f565b6127c0836126b2565b81526127ce602084016126b2565b602082015260408301516040820152606083015160608201526080830151608082015260a083015160a082015260c083015160c082015260e083015160e08201528091505092915050565b6000610100828403121561282b578081fd5b612833612a1f565b825181526020830151602082015260408301516040820152606083015160608201526080830151608082015260a083015160a082015260c083015160c082015260e083015160e08201528091505092915050565b600060608284031215612898578081fd5b6040516060810181811067ffffffffffffffff821117156128c757634e487b7160e01b83526041600452602483fd5b80604052508251815260208301516020820152604083015160408201528091505092915050565b6000602082840312156128ff578081fd5b5035919050565b60008060408385031215612918578182fd5b82359150602083013561271781612b51565b600080600080600060a08688031215612941578081fd5b85359450602086013561295381612b51565b9350604086013561296381612b69565b94979396509394606081013594506080013592915050565b600080600080600060c08688031215612992578283fd5b8535945060208601356129a481612b51565b93506040860135925060a08601878111156129bd578182fd5b94979396509194606001933592915050565b600080604083850312156129e1578182fd5b50508035926020909101359150565b6001600160a01b03851681526020810184905260a0810160408481840137608091909101919091529392505050565b604051610100810167ffffffffffffffff81118282101715612a5157634e487b7160e01b600052604160045260246000fd5b60405290565b600080821280156001600160ff1b0384900385131615612a7957612a79612b3b565b600160ff1b8390038412811615612a9257612a92612b3b565b50500190565b60008219821115612aab57612aab612b3b565b500190565b600082612acb57634e487b7160e01b81526012600452602481fd5b500490565b6000816000190483118215151615612aea57612aea612b3b565b500290565b600082821015612b0157612b01612b3b565b500390565b6000600019821415612b1a57612b1a612b3b565b5060010190565b6000600160ff1b821415612b3757612b37612b3b565b0390565b634e487b7160e01b600052601160045260246000fd5b6001600160a01b0381168114612b6657600080fd5b50565b8015158114612b6657600080fdfea2646970667358221220e35bc45dea927d09edd98cdc3157e81db926dc6a2e76aea67a268f7a3376d73a64736f6c63430008040033",
  "devdoc": {
    "kind": "dev",
    "methods": {
      "getBalance(address,uint256)": {
        "params": {
          "tokenIdx": "Token to get the balance of",
          "user": "User to get the balance of"
        }
      },
      "getBaseBalance(uint256)": {
        "params": {
          "idx": "Index of the perpetual market"
        }
      },
      "getBaseDust(uint256)": {
        "returns": {
          "_0": "Base balance of Governance. 18 decimals"
        }
      },
      "getExpectedVBaseAmount(uint256,uint256)": {
        "details": "It's up to the client to apply a reduction of this amount (e.g. -1%) to then use it as `minAmount` in `extendPosition`",
        "params": {
          "idx": "Index of the perpetual market",
          "vQuoteAmountToSpend": "Amount of vQuote to be exchanged against some vBase. 18 decimals"
        }
      },
      "getExpectedVQuoteAmount(uint256,uint256)": {
        "details": "It's up to the client to apply a reduction of this amount (e.g. -1%) to then use it as `minAmount` in `extendPosition`",
        "params": {
          "idx": "Index of the perpetual market",
          "vBaseAmountToSpend": "Amount of vBase to be exchanged against some vQuote. 18 decimals"
        }
      },
      "getGlobalPosition(uint256)": {
        "params": {
          "idx": "Index of the perpetual market"
        }
      },
      "getLpEstimatedPnl(uint256,address)": {
        "params": {
          "account": "Lp to get the pnl and trading fees earned from"
        },
        "returns": {
          "_0": "pnl Unrealized profit and loss and trading fees earned. 18 decimals"
        }
      },
      "getLpFundingPayments(uint256,address)": {
        "params": {
          "account": "Lp to get the funding payments",
          "idx": "Index of the perpetual market"
        }
      },
      "getLpPosition(uint256,address)": {
        "params": {
          "account": "Address to get the LP position from",
          "idx": "Index of the perpetual market"
        }
      },
      "getLpPositionAfterWithdrawal(uint256,address)": {
        "params": {
          "account": "Liquidity Provider"
        },
        "returns": {
          "_0": "(Active) Liquidity Provider position"
        }
      },
      "getLpTradingFees(uint256,address)": {
        "params": {
          "account": "Lp to get the trading fees earned from",
          "idx": "Index of the perpetual market"
        },
        "returns": {
          "_0": "tradingFeesEarned Trading fees earned by the Liquidity Provider. 18 decimals"
        }
      },
      "getLpUnrealizedPnL(uint256,address)": {
        "params": {
          "account": "Lp to get the unrealized PnL from",
          "idx": "Index of the perpetual market"
        }
      },
      "getMarket(uint256)": {
        "params": {
          "idx": "Index of the perpetual market"
        }
      },
      "getProposedAmount(uint256,address,bool,uint256,uint256)": {
        "details": "Solidity implementation to minimize the node calls once has to make when finding proposed amountShould not be called from another contract",
        "params": {
          "idx": "Index of the perpetual market",
          "isTrader": "Get LP or Trader liquidity provider proposed amount",
          "iter": "Maximum iterations",
          "reductionRatio": "Percentage of the position that the user wishes to close. Min: 0. Max: 1e18",
          "user": "Account"
        },
        "returns": {
          "amountIn": "Amount of tokens to swap. 18 decimals",
          "amountOut": "Amount of tokens to receive from the swap. 18 decimals"
        }
      },
      "getQuoteBalance(uint256)": {
        "params": {
          "idx": "Index of the perpetual market"
        }
      },
      "getReserveValue(address,bool)": {
        "params": {
          "account": "Address to get the portfolio value from",
          "isDiscounted": "Whether or not the reserve value should be discounted by the weight of the collateral"
        },
        "returns": {
          "_0": "reserveValue Value of collaterals in USD. 18 decimals"
        }
      },
      "getTotalLiquidityProvided(uint256)": {
        "params": {
          "idx": "Index of the perpetual market"
        }
      },
      "getTraderFundingPayments(uint256,address)": {
        "params": {
          "account": "Trader to get the funding payments",
          "idx": "Index of the perpetual market"
        }
      },
      "getTraderPosition(uint256,address)": {
        "params": {
          "account": "Address to get the trading position from",
          "idx": "Index of the perpetual market"
        }
      },
      "getTraderUnrealizedPnL(uint256,address)": {
        "params": {
          "account": "Trader to get the unrealized PnL from",
          "idx": "Index of the perpetual market"
        }
      },
      "indexPrice(uint256)": {
        "params": {
          "idx": "Index of the perpetual market"
        }
      },
      "insuranceFee(uint256)": {
        "params": {
          "idx": "Index of the perpetual market"
        }
      },
      "isLpPositionOpen(uint256,address)": {
        "params": {
          "account": "Address of the LP account",
          "idx": "Index of the perpetual market"
        }
      },
      "isMarginValid(address,int256)": {
        "params": {
          "account": "Account of the position to get the margin ratio from",
          "ratio": "Proposed ratio to compare the position against"
        },
        "returns": {
          "_0": "True if the position exceeds margin ratio, false otherwise"
        }
      },
      "isTraderPositionOpen(uint256,address)": {
        "params": {
          "account": "Address of the trading account",
          "idx": "Index of the perpetual market"
        }
      },
      "marginRatio(address)": {
        "details": "Unlike ClearingHouse._marginRatio, ClearingHouseViewer.marginRatio includes fundingPayments while _marginRatio doesn't (it's assumed the funding payments are settle before calling _marginRatio)",
        "params": {
          "account": "Account of the position to get the margin ratio from"
        },
        "returns": {
          "_0": "Margin ratio of the position (in 1e18)"
        }
      },
      "marketPrice(uint256)": {
        "params": {
          "idx": "Index of the perpetual market"
        }
      },
      "removeLiquiditySwap(uint256,address,uint256,uint256[2],uint256)": {
        "params": {
          "idx": "Index of the perpetual market",
          "liquidityAmountToRemove": "Amount of liquidity (in LP tokens) to be removed from the pool. 18 decimals",
          "minVTokenAmounts": "Minimum amount of virtual tokens [vQuote, vBase] withdrawn from the curve pool. 18 decimals",
          "proposedAmount": "Amount at which to get the LP position (in vBase if LONG, in vQuote if SHORT). 18 decimals"
        },
        "returns": {
          "baseProceeds": "received from swapping after removing liquidity"
        }
      }
    },
    "title": "Clearing House Helper Contract",
    "version": 1
  },
  "userdoc": {
    "errors": {
      "ClearingHouseViewer_ZeroAddressConstructor(uint8)": [
        {
          "notice": "Emitted when the zero address is provided as a parameter in the constructor"
        }
      ],
      "PRBMathSD59x18__AbsInputTooSmall()": [
        {
          "notice": "Emitted when the input is MIN_SD59x18."
        }
      ],
      "PRBMathSD59x18__DivInputTooSmall()": [
        {
          "notice": "Emitted when one of the inputs is MIN_SD59x18."
        }
      ],
      "PRBMathSD59x18__DivOverflow(uint256)": [
        {
          "notice": "Emitted when one of the intermediary unsigned results overflows SD59x18."
        }
      ],
      "PRBMathSD59x18__MulInputTooSmall()": [
        {
          "notice": "Emitted when one of the inputs is MIN_SD59x18."
        }
      ],
      "PRBMathSD59x18__MulOverflow(uint256)": [
        {
          "notice": "Emitted when the intermediary absolute result overflows SD59x18."
        }
      ],
      "PRBMath__MulDivFixedPointOverflow(uint256)": [
        {
          "notice": "Emitted when the result overflows uint256."
        }
      ],
      "PRBMath__MulDivOverflow(uint256,uint256)": [
        {
          "notice": "Emitted when the result overflows uint256."
        }
      ]
    },
    "kind": "user",
    "methods": {
      "getBalance(address,uint256)": {
        "notice": "Get User LP balance"
      },
      "getBaseBalance(uint256)": {
        "notice": "Return the total supply of base tokens provided to a market by perpetual index"
      },
      "getBaseDust(uint256)": {
        "notice": "Get the current (base) dust balance"
      },
      "getExpectedVBaseAmount(uint256,uint256)": {
        "notice": "Return amount for vBase one would receive for exchanging `vQuoteAmountToSpend` in a select market (excluding slippage)"
      },
      "getExpectedVQuoteAmount(uint256,uint256)": {
        "notice": "Return amount for vQuote one would receive for exchanging `vBaseAmountToSpend` in a select market (excluding slippage)"
      },
      "getLpEstimatedPnl(uint256,address)": {
        "notice": "Get the unrealized profit and Loss and the trading fees earned of a  Liquidity Provider"
      },
      "getLpFundingPayments(uint256,address)": {
        "notice": "Calculate missed funding payments"
      },
      "getLpPosition(uint256,address)": {
        "notice": "Get Lp position"
      },
      "getLpPositionAfterWithdrawal(uint256,address)": {
        "notice": "Get the (active) position of a liquidity provider after withdrawing liquidity"
      },
      "getMarket(uint256)": {
        "notice": "Return the address of an curve market by index"
      },
      "getProposedAmount(uint256,address,bool,uint256,uint256)": {
        "notice": "Get the proposed amount needed to close a position"
      },
      "getQuoteBalance(uint256)": {
        "notice": "Return the total supply of quote tokens provided to a market by perpetual index"
      },
      "getReserveValue(address,bool)": {
        "notice": "Get the portfolio value of a trader / lp"
      },
      "getTotalLiquidityProvided(uint256)": {
        "notice": "Return the total supply of liquidity tokens in a market by perpetual index"
      },
      "getTraderFundingPayments(uint256,address)": {
        "notice": "Calculate missed funding payments"
      },
      "getTraderPosition(uint256,address)": {
        "notice": "Get trader position"
      },
      "indexPrice(uint256)": {
        "notice": "Return the current off-chain exchange rate for vBase/vQuote"
      },
      "insuranceFee(uint256)": {
        "notice": "Return the insurance fee of an perpetual by index"
      },
      "isLpPositionOpen(uint256,address)": {
        "notice": "Whether a given LP position is open"
      },
      "isMarginValid(address,int256)": {
        "notice": "Approximately determine whether or not a position is valid for a given margin ratio (incl. an estimate of pending funding payments)"
      },
      "isTraderPositionOpen(uint256,address)": {
        "notice": "Whether a given trader position is open"
      },
      "marginRatio(address)": {
        "notice": "Get the margin ratio of a user, i.e. all trading and LP positions across all markets"
      },
      "marketPrice(uint256)": {
        "notice": "Return the last traded price (used for TWAP)"
      },
      "removeLiquiditySwap(uint256,address,uint256,uint256[2],uint256)": {
        "notice": "ONLY STATIC CALLReturns base amount of swapping after removing liquidityUsed to estimate proposedAmount for removeLi"
      }
    },
    "notice": "Utility functions to easily extract data from Perpetual Contracts",
    "version": 1
  },
  "storageLayout": {
    "storage": [
      {
        "astId": 7868,
        "contract": "contracts/ClearingHouseViewer.sol:ClearingHouseViewer",
        "label": "clearingHouse",
        "offset": 0,
        "slot": "0",
        "type": "t_contract(IClearingHouse)14906"
      }
    ],
    "types": {
      "t_contract(IClearingHouse)14906": {
        "encoding": "inplace",
        "label": "contract IClearingHouse",
        "numberOfBytes": "20"
      }
    }
  }
}