{
  "address": "0x983F5E7076d34d9a059653fF0fdD7C2e8a7307B2",
  "abi": [
    {
      "inputs": [
        {
          "internalType": "contract IVault",
          "name": "_vault",
          "type": "address"
        },
        {
          "internalType": "contract IInsurance",
          "name": "_insurance",
          "type": "address"
        },
        {
          "components": [
            {
              "internalType": "int256",
              "name": "minMargin",
              "type": "int256"
            },
            {
              "internalType": "int256",
              "name": "minMarginAtCreation",
              "type": "int256"
            },
            {
              "internalType": "uint256",
              "name": "minPositiveOpenNotional",
              "type": "uint256"
            },
            {
              "internalType": "uint256",
              "name": "liquidationReward",
              "type": "uint256"
            },
            {
              "internalType": "uint256",
              "name": "insuranceRatio",
              "type": "uint256"
            },
            {
              "internalType": "uint256",
              "name": "liquidationRewardInsuranceShare",
              "type": "uint256"
            },
            {
              "internalType": "uint256",
              "name": "liquidationDiscount",
              "type": "uint256"
            },
            {
              "internalType": "int256",
              "name": "nonUACollSeizureDiscount",
              "type": "int256"
            },
            {
              "internalType": "int256",
              "name": "uaDebtSeizureThreshold",
              "type": "int256"
            }
          ],
          "internalType": "struct IClearingHouse.ClearingHouseParams",
          "name": "_params",
          "type": "tuple"
        }
      ],
      "stateMutability": "nonpayable",
      "type": "constructor"
    },
    {
      "inputs": [],
      "name": "ClearingHouse_AmountProvidedTooLarge",
      "type": "error"
    },
    {
      "inputs": [],
      "name": "ClearingHouse_ChangePositionZeroAmount",
      "type": "error"
    },
    {
      "inputs": [],
      "name": "ClearingHouse_ClosePositionStillOpen",
      "type": "error"
    },
    {
      "inputs": [],
      "name": "ClearingHouse_ExcessiveInsuranceRatio",
      "type": "error"
    },
    {
      "inputs": [],
      "name": "ClearingHouse_ExcessiveLiquidationReward",
      "type": "error"
    },
    {
      "inputs": [],
      "name": "ClearingHouse_ExcessiveLiquidationRewardInsuranceShare",
      "type": "error"
    },
    {
      "inputs": [],
      "name": "ClearingHouse_ExcessiveMinMargin",
      "type": "error"
    },
    {
      "inputs": [],
      "name": "ClearingHouse_ExcessiveMinMarginAtCreation",
      "type": "error"
    },
    {
      "inputs": [],
      "name": "ClearingHouse_ExcessivePositiveOpenNotional",
      "type": "error"
    },
    {
      "inputs": [],
      "name": "ClearingHouse_ExtendPositionInsufficientMargin",
      "type": "error"
    },
    {
      "inputs": [],
      "name": "ClearingHouse_ExtendPositionZeroAmount",
      "type": "error"
    },
    {
      "inputs": [],
      "name": "ClearingHouse_InsufficientDiffBtwLiquidationDiscountAndNonUACollSeizureDiscount",
      "type": "error"
    },
    {
      "inputs": [],
      "name": "ClearingHouse_InsufficientInsuranceRatio",
      "type": "error"
    },
    {
      "inputs": [],
      "name": "ClearingHouse_InsufficientLiquidationReward",
      "type": "error"
    },
    {
      "inputs": [],
      "name": "ClearingHouse_InsufficientMinMargin",
      "type": "error"
    },
    {
      "inputs": [],
      "name": "ClearingHouse_InsufficientMinMarginAtCreation",
      "type": "error"
    },
    {
      "inputs": [],
      "name": "ClearingHouse_InsufficientUaDebtSeizureThreshold",
      "type": "error"
    },
    {
      "inputs": [],
      "name": "ClearingHouse_LiquidateInsufficientProposedAmount",
      "type": "error"
    },
    {
      "inputs": [],
      "name": "ClearingHouse_LiquidateInvalidPosition",
      "type": "error"
    },
    {
      "inputs": [],
      "name": "ClearingHouse_LiquidateValidMargin",
      "type": "error"
    },
    {
      "inputs": [],
      "name": "ClearingHouse_LiquidationDebtSizeZero",
      "type": "error"
    },
    {
      "inputs": [],
      "name": "ClearingHouse_PerpetualMarketAlreadyAssigned",
      "type": "error"
    },
    {
      "inputs": [],
      "name": "ClearingHouse_ProvideLiquidityZeroAmount",
      "type": "error"
    },
    {
      "inputs": [],
      "name": "ClearingHouse_ReducePositionZeroAmount",
      "type": "error"
    },
    {
      "inputs": [],
      "name": "ClearingHouse_RemoveLiquidityInsufficientFunds",
      "type": "error"
    },
    {
      "inputs": [],
      "name": "ClearingHouse_SeizeCollateralStillOpen",
      "type": "error"
    },
    {
      "inputs": [],
      "name": "ClearingHouse_SufficientUserCollateral",
      "type": "error"
    },
    {
      "inputs": [],
      "name": "ClearingHouse_UnderOpenNotionalAmountRequired",
      "type": "error"
    },
    {
      "inputs": [],
      "name": "ClearingHouse_VaultWithdrawUnsuccessful",
      "type": "error"
    },
    {
      "inputs": [],
      "name": "ClearingHouse_WithdrawInsufficientMargin",
      "type": "error"
    },
    {
      "inputs": [],
      "name": "ClearingHouse_ZeroAddress",
      "type": "error"
    },
    {
      "inputs": [],
      "name": "PRBMathSD59x18__AbsInputTooSmall",
      "type": "error"
    },
    {
      "inputs": [],
      "name": "PRBMathSD59x18__MulInputTooSmall",
      "type": "error"
    },
    {
      "inputs": [
        {
          "internalType": "uint256",
          "name": "rAbs",
          "type": "uint256"
        }
      ],
      "name": "PRBMathSD59x18__MulOverflow",
      "type": "error"
    },
    {
      "inputs": [
        {
          "internalType": "uint256",
          "name": "prod1",
          "type": "uint256"
        }
      ],
      "name": "PRBMath__MulDivFixedPointOverflow",
      "type": "error"
    },
    {
      "anonymous": false,
      "inputs": [
        {
          "indexed": true,
          "internalType": "uint256",
          "name": "idx",
          "type": "uint256"
        },
        {
          "indexed": true,
          "internalType": "address",
          "name": "user",
          "type": "address"
        },
        {
          "indexed": false,
          "internalType": "enum LibPerpetual.Side",
          "name": "direction",
          "type": "uint8"
        },
        {
          "indexed": false,
          "internalType": "int256",
          "name": "addedOpenNotional",
          "type": "int256"
        },
        {
          "indexed": false,
          "internalType": "int256",
          "name": "addedPositionSize",
          "type": "int256"
        },
        {
          "indexed": false,
          "internalType": "int256",
          "name": "profit",
          "type": "int256"
        },
        {
          "indexed": false,
          "internalType": "bool",
          "name": "isPositionIncreased",
          "type": "bool"
        }
      ],
      "name": "ChangePosition",
      "type": "event"
    },
    {
      "anonymous": false,
      "inputs": [
        {
          "indexed": false,
          "internalType": "int256",
          "name": "newMinMargin",
          "type": "int256"
        },
        {
          "indexed": false,
          "internalType": "int256",
          "name": "newMinMarginAtCreation",
          "type": "int256"
        },
        {
          "indexed": false,
          "internalType": "uint256",
          "name": "newMinPositiveOpenNotional",
          "type": "uint256"
        },
        {
          "indexed": false,
          "internalType": "uint256",
          "name": "newLiquidationReward",
          "type": "uint256"
        },
        {
          "indexed": false,
          "internalType": "uint256",
          "name": "newInsuranceRatio",
          "type": "uint256"
        },
        {
          "indexed": false,
          "internalType": "uint256",
          "name": "newLiquidationRewardInsuranceShare",
          "type": "uint256"
        },
        {
          "indexed": false,
          "internalType": "uint256",
          "name": "newLiquidationDiscount",
          "type": "uint256"
        },
        {
          "indexed": false,
          "internalType": "int256",
          "name": "nonUACollSeizureDiscount",
          "type": "int256"
        },
        {
          "indexed": false,
          "internalType": "int256",
          "name": "uaDebtSeizureThreshold",
          "type": "int256"
        }
      ],
      "name": "ClearingHouseParametersChanged",
      "type": "event"
    },
    {
      "anonymous": false,
      "inputs": [
        {
          "indexed": true,
          "internalType": "uint256",
          "name": "idx",
          "type": "uint256"
        },
        {
          "indexed": false,
          "internalType": "int256",
          "name": "profit",
          "type": "int256"
        }
      ],
      "name": "DustSold",
      "type": "event"
    },
    {
      "anonymous": false,
      "inputs": [
        {
          "indexed": true,
          "internalType": "uint256",
          "name": "idx",
          "type": "uint256"
        },
        {
          "indexed": true,
          "internalType": "address",
          "name": "liquidatee",
          "type": "address"
        },
        {
          "indexed": true,
          "internalType": "address",
          "name": "liquidator",
          "type": "address"
        },
        {
          "indexed": false,
          "internalType": "uint256",
          "name": "notional",
          "type": "uint256"
        }
      ],
      "name": "LiquidationCall",
      "type": "event"
    },
    {
      "anonymous": false,
      "inputs": [
        {
          "indexed": true,
          "internalType": "uint256",
          "name": "idx",
          "type": "uint256"
        },
        {
          "indexed": true,
          "internalType": "address",
          "name": "liquidityProvider",
          "type": "address"
        },
        {
          "indexed": false,
          "internalType": "uint256",
          "name": "quoteAmount",
          "type": "uint256"
        },
        {
          "indexed": false,
          "internalType": "uint256",
          "name": "baseAmount",
          "type": "uint256"
        }
      ],
      "name": "LiquidityProvided",
      "type": "event"
    },
    {
      "anonymous": false,
      "inputs": [
        {
          "indexed": true,
          "internalType": "uint256",
          "name": "idx",
          "type": "uint256"
        },
        {
          "indexed": true,
          "internalType": "address",
          "name": "liquidityProvider",
          "type": "address"
        },
        {
          "indexed": false,
          "internalType": "uint256",
          "name": "reductionRatio",
          "type": "uint256"
        }
      ],
      "name": "LiquidityRemoved",
      "type": "event"
    },
    {
      "anonymous": false,
      "inputs": [
        {
          "indexed": true,
          "internalType": "contract IPerpetual",
          "name": "perpetual",
          "type": "address"
        },
        {
          "indexed": false,
          "internalType": "uint256",
          "name": "numPerpetuals",
          "type": "uint256"
        }
      ],
      "name": "MarketAdded",
      "type": "event"
    },
    {
      "anonymous": false,
      "inputs": [
        {
          "indexed": false,
          "internalType": "address",
          "name": "account",
          "type": "address"
        }
      ],
      "name": "Paused",
      "type": "event"
    },
    {
      "anonymous": false,
      "inputs": [
        {
          "indexed": true,
          "internalType": "bytes32",
          "name": "role",
          "type": "bytes32"
        },
        {
          "indexed": true,
          "internalType": "bytes32",
          "name": "previousAdminRole",
          "type": "bytes32"
        },
        {
          "indexed": true,
          "internalType": "bytes32",
          "name": "newAdminRole",
          "type": "bytes32"
        }
      ],
      "name": "RoleAdminChanged",
      "type": "event"
    },
    {
      "anonymous": false,
      "inputs": [
        {
          "indexed": true,
          "internalType": "bytes32",
          "name": "role",
          "type": "bytes32"
        },
        {
          "indexed": true,
          "internalType": "address",
          "name": "account",
          "type": "address"
        },
        {
          "indexed": true,
          "internalType": "address",
          "name": "sender",
          "type": "address"
        }
      ],
      "name": "RoleGranted",
      "type": "event"
    },
    {
      "anonymous": false,
      "inputs": [
        {
          "indexed": true,
          "internalType": "bytes32",
          "name": "role",
          "type": "bytes32"
        },
        {
          "indexed": true,
          "internalType": "address",
          "name": "account",
          "type": "address"
        },
        {
          "indexed": true,
          "internalType": "address",
          "name": "sender",
          "type": "address"
        }
      ],
      "name": "RoleRevoked",
      "type": "event"
    },
    {
      "anonymous": false,
      "inputs": [
        {
          "indexed": true,
          "internalType": "address",
          "name": "liquidatee",
          "type": "address"
        },
        {
          "indexed": true,
          "internalType": "address",
          "name": "liquidator",
          "type": "address"
        }
      ],
      "name": "SeizeCollateral",
      "type": "event"
    },
    {
      "anonymous": false,
      "inputs": [
        {
          "indexed": false,
          "internalType": "contract IStakingContract",
          "name": "newStakingContract",
          "type": "address"
        }
      ],
      "name": "StakingContractChanged",
      "type": "event"
    },
    {
      "anonymous": false,
      "inputs": [
        {
          "indexed": false,
          "internalType": "address",
          "name": "account",
          "type": "address"
        }
      ],
      "name": "Unpaused",
      "type": "event"
    },
    {
      "inputs": [],
      "name": "DEFAULT_ADMIN_ROLE",
      "outputs": [
        {
          "internalType": "bytes32",
          "name": "",
          "type": "bytes32"
        }
      ],
      "stateMutability": "view",
      "type": "function"
    },
    {
      "inputs": [],
      "name": "GOVERNANCE",
      "outputs": [
        {
          "internalType": "bytes32",
          "name": "",
          "type": "bytes32"
        }
      ],
      "stateMutability": "view",
      "type": "function"
    },
    {
      "inputs": [],
      "name": "MANAGER",
      "outputs": [
        {
          "internalType": "bytes32",
          "name": "",
          "type": "bytes32"
        }
      ],
      "stateMutability": "view",
      "type": "function"
    },
    {
      "inputs": [
        {
          "internalType": "contract IStakingContract",
          "name": "staking",
          "type": "address"
        }
      ],
      "name": "addStakingContract",
      "outputs": [],
      "stateMutability": "nonpayable",
      "type": "function"
    },
    {
      "inputs": [
        {
          "internalType": "contract IPerpetual",
          "name": "perp",
          "type": "address"
        }
      ],
      "name": "allowListPerpetual",
      "outputs": [],
      "stateMutability": "nonpayable",
      "type": "function"
    },
    {
      "inputs": [
        {
          "internalType": "uint256",
          "name": "idx",
          "type": "uint256"
        },
        {
          "internalType": "uint256",
          "name": "amount",
          "type": "uint256"
        },
        {
          "internalType": "uint256",
          "name": "minAmount",
          "type": "uint256"
        },
        {
          "internalType": "enum LibPerpetual.Side",
          "name": "direction",
          "type": "uint8"
        }
      ],
      "name": "changePosition",
      "outputs": [],
      "stateMutability": "nonpayable",
      "type": "function"
    },
    {
      "inputs": [
        {
          "internalType": "uint256",
          "name": "idx",
          "type": "uint256"
        },
        {
          "internalType": "uint256",
          "name": "proposedAmount",
          "type": "uint256"
        },
        {
          "internalType": "uint256",
          "name": "minAmount",
          "type": "uint256"
        },
        {
          "internalType": "contract IERC20Metadata",
          "name": "token",
          "type": "address"
        }
      ],
      "name": "closePositionWithdrawCollateral",
      "outputs": [],
      "stateMutability": "nonpayable",
      "type": "function"
    },
    {
      "inputs": [
        {
          "internalType": "uint256",
          "name": "amount",
          "type": "uint256"
        },
        {
          "internalType": "contract IERC20Metadata",
          "name": "token",
          "type": "address"
        }
      ],
      "name": "deposit",
      "outputs": [],
      "stateMutability": "nonpayable",
      "type": "function"
    },
    {
      "inputs": [
        {
          "internalType": "uint256",
          "name": "idx",
          "type": "uint256"
        },
        {
          "internalType": "uint256",
          "name": "collateralAmount",
          "type": "uint256"
        },
        {
          "internalType": "contract IERC20Metadata",
          "name": "token",
          "type": "address"
        },
        {
          "internalType": "uint256",
          "name": "positionAmount",
          "type": "uint256"
        },
        {
          "internalType": "enum LibPerpetual.Side",
          "name": "direction",
          "type": "uint8"
        },
        {
          "internalType": "uint256",
          "name": "minAmount",
          "type": "uint256"
        }
      ],
      "name": "extendPositionWithCollateral",
      "outputs": [],
      "stateMutability": "nonpayable",
      "type": "function"
    },
    {
      "inputs": [
        {
          "internalType": "address",
          "name": "account",
          "type": "address"
        }
      ],
      "name": "getDebtAcrossMarkets",
      "outputs": [
        {
          "internalType": "int256",
          "name": "userDebt",
          "type": "int256"
        }
      ],
      "stateMutability": "view",
      "type": "function"
    },
    {
      "inputs": [
        {
          "internalType": "address",
          "name": "account",
          "type": "address"
        },
        {
          "internalType": "int256",
          "name": "ratio",
          "type": "int256"
        }
      ],
      "name": "getFreeCollateralByRatio",
      "outputs": [
        {
          "internalType": "int256",
          "name": "freeCollateral",
          "type": "int256"
        }
      ],
      "stateMutability": "view",
      "type": "function"
    },
    {
      "inputs": [],
      "name": "getNumMarkets",
      "outputs": [
        {
          "internalType": "uint256",
          "name": "",
          "type": "uint256"
        }
      ],
      "stateMutability": "view",
      "type": "function"
    },
    {
      "inputs": [
        {
          "internalType": "address",
          "name": "account",
          "type": "address"
        }
      ],
      "name": "getPnLAcrossMarkets",
      "outputs": [
        {
          "internalType": "int256",
          "name": "unrealizedPositionPnl",
          "type": "int256"
        }
      ],
      "stateMutability": "view",
      "type": "function"
    },
    {
      "inputs": [
        {
          "internalType": "bytes32",
          "name": "role",
          "type": "bytes32"
        }
      ],
      "name": "getRoleAdmin",
      "outputs": [
        {
          "internalType": "bytes32",
          "name": "",
          "type": "bytes32"
        }
      ],
      "stateMutability": "view",
      "type": "function"
    },
    {
      "inputs": [
        {
          "internalType": "address",
          "name": "account",
          "type": "address"
        },
        {
          "internalType": "int256",
          "name": "ratio",
          "type": "int256"
        }
      ],
      "name": "getTotalMarginRequirement",
      "outputs": [
        {
          "internalType": "int256",
          "name": "requiredMargin",
          "type": "int256"
        }
      ],
      "stateMutability": "view",
      "type": "function"
    },
    {
      "inputs": [
        {
          "internalType": "bytes32",
          "name": "role",
          "type": "bytes32"
        },
        {
          "internalType": "address",
          "name": "account",
          "type": "address"
        }
      ],
      "name": "grantRole",
      "outputs": [],
      "stateMutability": "nonpayable",
      "type": "function"
    },
    {
      "inputs": [
        {
          "internalType": "bytes32",
          "name": "role",
          "type": "bytes32"
        },
        {
          "internalType": "address",
          "name": "account",
          "type": "address"
        }
      ],
      "name": "hasRole",
      "outputs": [
        {
          "internalType": "bool",
          "name": "",
          "type": "bool"
        }
      ],
      "stateMutability": "view",
      "type": "function"
    },
    {
      "inputs": [],
      "name": "insurance",
      "outputs": [
        {
          "internalType": "contract IInsurance",
          "name": "",
          "type": "address"
        }
      ],
      "stateMutability": "view",
      "type": "function"
    },
    {
      "inputs": [],
      "name": "insuranceRatio",
      "outputs": [
        {
          "internalType": "uint256",
          "name": "",
          "type": "uint256"
        }
      ],
      "stateMutability": "view",
      "type": "function"
    },
    {
      "inputs": [
        {
          "internalType": "address",
          "name": "account",
          "type": "address"
        }
      ],
      "name": "isGovernor",
      "outputs": [
        {
          "internalType": "bool",
          "name": "",
          "type": "bool"
        }
      ],
      "stateMutability": "view",
      "type": "function"
    },
    {
      "inputs": [
        {
          "internalType": "address",
          "name": "account",
          "type": "address"
        }
      ],
      "name": "isManager",
      "outputs": [
        {
          "internalType": "bool",
          "name": "",
          "type": "bool"
        }
      ],
      "stateMutability": "view",
      "type": "function"
    },
    {
      "inputs": [
        {
          "internalType": "uint256",
          "name": "idx",
          "type": "uint256"
        },
        {
          "internalType": "address",
          "name": "liquidatee",
          "type": "address"
        },
        {
          "internalType": "uint256",
          "name": "proposedAmount",
          "type": "uint256"
        },
        {
          "internalType": "bool",
          "name": "isTrader",
          "type": "bool"
        }
      ],
      "name": "liquidate",
      "outputs": [],
      "stateMutability": "nonpayable",
      "type": "function"
    },
    {
      "inputs": [],
      "name": "liquidationDiscount",
      "outputs": [
        {
          "internalType": "uint256",
          "name": "",
          "type": "uint256"
        }
      ],
      "stateMutability": "view",
      "type": "function"
    },
    {
      "inputs": [],
      "name": "liquidationReward",
      "outputs": [
        {
          "internalType": "uint256",
          "name": "",
          "type": "uint256"
        }
      ],
      "stateMutability": "view",
      "type": "function"
    },
    {
      "inputs": [],
      "name": "liquidationRewardInsuranceShare",
      "outputs": [
        {
          "internalType": "uint256",
          "name": "",
          "type": "uint256"
        }
      ],
      "stateMutability": "view",
      "type": "function"
    },
    {
      "inputs": [],
      "name": "minMargin",
      "outputs": [
        {
          "internalType": "int256",
          "name": "",
          "type": "int256"
        }
      ],
      "stateMutability": "view",
      "type": "function"
    },
    {
      "inputs": [],
      "name": "minMarginAtCreation",
      "outputs": [
        {
          "internalType": "int256",
          "name": "",
          "type": "int256"
        }
      ],
      "stateMutability": "view",
      "type": "function"
    },
    {
      "inputs": [],
      "name": "minPositiveOpenNotional",
      "outputs": [
        {
          "internalType": "uint256",
          "name": "",
          "type": "uint256"
        }
      ],
      "stateMutability": "view",
      "type": "function"
    },
    {
      "inputs": [],
      "name": "nonUACollSeizureDiscount",
      "outputs": [
        {
          "internalType": "int256",
          "name": "",
          "type": "int256"
        }
      ],
      "stateMutability": "view",
      "type": "function"
    },
    {
      "inputs": [
        {
          "internalType": "uint256",
          "name": "idx",
          "type": "uint256"
        },
        {
          "internalType": "uint256",
          "name": "closeProposedAmount",
          "type": "uint256"
        },
        {
          "internalType": "uint256",
          "name": "closeMinAmount",
          "type": "uint256"
        },
        {
          "internalType": "uint256",
          "name": "openProposedAmount",
          "type": "uint256"
        },
        {
          "internalType": "uint256",
          "name": "openMinAmount",
          "type": "uint256"
        },
        {
          "internalType": "enum LibPerpetual.Side",
          "name": "direction",
          "type": "uint8"
        }
      ],
      "name": "openReversePosition",
      "outputs": [],
      "stateMutability": "nonpayable",
      "type": "function"
    },
    {
      "inputs": [],
      "name": "pause",
      "outputs": [],
      "stateMutability": "nonpayable",
      "type": "function"
    },
    {
      "inputs": [],
      "name": "paused",
      "outputs": [
        {
          "internalType": "bool",
          "name": "",
          "type": "bool"
        }
      ],
      "stateMutability": "view",
      "type": "function"
    },
    {
      "inputs": [
        {
          "internalType": "uint256",
          "name": "",
          "type": "uint256"
        }
      ],
      "name": "perpetuals",
      "outputs": [
        {
          "internalType": "contract IPerpetual",
          "name": "",
          "type": "address"
        }
      ],
      "stateMutability": "view",
      "type": "function"
    },
    {
      "inputs": [
        {
          "internalType": "uint256",
          "name": "idx",
          "type": "uint256"
        },
        {
          "internalType": "uint256[2]",
          "name": "amounts",
          "type": "uint256[2]"
        },
        {
          "internalType": "uint256",
          "name": "minLpAmount",
          "type": "uint256"
        }
      ],
      "name": "provideLiquidity",
      "outputs": [],
      "stateMutability": "nonpayable",
      "type": "function"
    },
    {
      "inputs": [
        {
          "internalType": "uint256",
          "name": "idx",
          "type": "uint256"
        },
        {
          "internalType": "uint256",
          "name": "liquidityAmountToRemove",
          "type": "uint256"
        },
        {
          "internalType": "uint256[2]",
          "name": "minVTokenAmounts",
          "type": "uint256[2]"
        },
        {
          "internalType": "uint256",
          "name": "proposedAmount",
          "type": "uint256"
        },
        {
          "internalType": "uint256",
          "name": "minAmount",
          "type": "uint256"
        }
      ],
      "name": "removeLiquidity",
      "outputs": [],
      "stateMutability": "nonpayable",
      "type": "function"
    },
    {
      "inputs": [
        {
          "internalType": "bytes32",
          "name": "role",
          "type": "bytes32"
        },
        {
          "internalType": "address",
          "name": "account",
          "type": "address"
        }
      ],
      "name": "renounceRole",
      "outputs": [],
      "stateMutability": "nonpayable",
      "type": "function"
    },
    {
      "inputs": [
        {
          "internalType": "bytes32",
          "name": "role",
          "type": "bytes32"
        },
        {
          "internalType": "address",
          "name": "account",
          "type": "address"
        }
      ],
      "name": "revokeRole",
      "outputs": [],
      "stateMutability": "nonpayable",
      "type": "function"
    },
    {
      "inputs": [
        {
          "internalType": "address",
          "name": "liquidatee",
          "type": "address"
        }
      ],
      "name": "seizeCollateral",
      "outputs": [],
      "stateMutability": "nonpayable",
      "type": "function"
    },
    {
      "inputs": [
        {
          "internalType": "uint256",
          "name": "idx",
          "type": "uint256"
        },
        {
          "internalType": "uint256",
          "name": "proposedAmount",
          "type": "uint256"
        },
        {
          "internalType": "uint256",
          "name": "minAmount",
          "type": "uint256"
        }
      ],
      "name": "sellDust",
      "outputs": [],
      "stateMutability": "nonpayable",
      "type": "function"
    },
    {
      "inputs": [
        {
          "components": [
            {
              "internalType": "int256",
              "name": "minMargin",
              "type": "int256"
            },
            {
              "internalType": "int256",
              "name": "minMarginAtCreation",
              "type": "int256"
            },
            {
              "internalType": "uint256",
              "name": "minPositiveOpenNotional",
              "type": "uint256"
            },
            {
              "internalType": "uint256",
              "name": "liquidationReward",
              "type": "uint256"
            },
            {
              "internalType": "uint256",
              "name": "insuranceRatio",
              "type": "uint256"
            },
            {
              "internalType": "uint256",
              "name": "liquidationRewardInsuranceShare",
              "type": "uint256"
            },
            {
              "internalType": "uint256",
              "name": "liquidationDiscount",
              "type": "uint256"
            },
            {
              "internalType": "int256",
              "name": "nonUACollSeizureDiscount",
              "type": "int256"
            },
            {
              "internalType": "int256",
              "name": "uaDebtSeizureThreshold",
              "type": "int256"
            }
          ],
          "internalType": "struct IClearingHouse.ClearingHouseParams",
          "name": "params",
          "type": "tuple"
        }
      ],
      "name": "setParameters",
      "outputs": [],
      "stateMutability": "nonpayable",
      "type": "function"
    },
    {
      "inputs": [],
      "name": "stakingContract",
      "outputs": [
        {
          "internalType": "contract IStakingContract",
          "name": "",
          "type": "address"
        }
      ],
      "stateMutability": "view",
      "type": "function"
    },
    {
      "inputs": [
        {
          "internalType": "bytes4",
          "name": "interfaceId",
          "type": "bytes4"
        }
      ],
      "name": "supportsInterface",
      "outputs": [
        {
          "internalType": "bool",
          "name": "",
          "type": "bool"
        }
      ],
      "stateMutability": "view",
      "type": "function"
    },
    {
      "inputs": [],
      "name": "uaDebtSeizureThreshold",
      "outputs": [
        {
          "internalType": "int256",
          "name": "",
          "type": "int256"
        }
      ],
      "stateMutability": "view",
      "type": "function"
    },
    {
      "inputs": [],
      "name": "unpause",
      "outputs": [],
      "stateMutability": "nonpayable",
      "type": "function"
    },
    {
      "inputs": [],
      "name": "vault",
      "outputs": [
        {
          "internalType": "contract IVault",
          "name": "",
          "type": "address"
        }
      ],
      "stateMutability": "view",
      "type": "function"
    },
    {
      "inputs": [
        {
          "internalType": "uint256",
          "name": "amount",
          "type": "uint256"
        },
        {
          "internalType": "contract IERC20Metadata",
          "name": "token",
          "type": "address"
        }
      ],
      "name": "withdraw",
      "outputs": [],
      "stateMutability": "nonpayable",
      "type": "function"
    },
    {
      "inputs": [
        {
          "internalType": "contract IERC20Metadata",
          "name": "token",
          "type": "address"
        }
      ],
      "name": "withdrawAll",
      "outputs": [],
      "stateMutability": "nonpayable",
      "type": "function"
    }
  ],
  "transactionHash": "0x87ff54359ee21cba4a848e4c26768a9c07ec328241403ff791c6d8cb62ccd182",
  "args": [
    "0x2DB303E9614b498a8823D1E2F38f50692b4c69A6",
    "0xD903Ea6dB4dAFc05f7D450Ee507c8ed96f5706C7",
    {
      "minMargin": "25000000000000000",
      "minMarginAtCreation": "55000000000000000",
      "minPositiveOpenNotional": "35000000000000000000",
      "liquidationReward": "15000000000000000",
      "insuranceRatio": "100000000000000000",
      "liquidationRewardInsuranceShare": "300000000000000000",
      "liquidationDiscount": "950000000000000000",
      "nonUACollSeizureDiscount": "750000000000000000",
      "uaDebtSeizureThreshold": "10000000000000000000000"
    }
  ],
  "numDeployments": 1,
  "solcInputHash": "e1cef607481b161ae69d7ea60025156b",
  "bytecode": "0x60806040523480156200001157600080fd5b50604051620051e4380380620051e4833981016040819052620000349162000a68565b6200004f600080516020620051c483398151915233620001b1565b6200006a600080516020620051c483398151915280620001c1565b62000085600080516020620051a483398151915233620001b1565b620000af600080516020620051a4833981519152600080516020620051c4833981519152620001c1565b6001805460ff191681556002556001600160a01b038316620000e45760405163059d8acb60e01b815260040160405180910390fd5b6001600160a01b0382166200010c5760405163059d8acb60e01b815260040160405180910390fd5b600c80546001600160a01b038086166001600160a01b031992831617909255600d805492851692909116919091179055604080516101208101825282518152602080840151908201528282015191810191909152606080830151908201526080808301519082015260a0808301519082015260c0808301519082015260e080830151908201526101008281015190820152620001a8906200020c565b50505062000d09565b620001bd828262000360565b5050565b600082815260208190526040808220600101805490849055905190918391839186917fbd79b86ffe0ab8e8776151514217cd7cacd52c909f66475c3af44e129f0b00ff9190a4505050565b600080516020620051c4833981519152620002278162000400565b602082015162000237906200040f565b8151620002449062000461565b60408201516200025490620004dc565b606082015162000264906200050d565b6080820151620002749062000573565b60a08201516200028490620005cc565b60c08201516200029490620005fb565b60e0820151620002a4906200064d565b610100820151620002b5906200069e565b7f46fdb7eba5bc556294a8e95d7c0fce002a6272aa7229e1fc1c9dec41b17b2460826000015183602001518460400151856060015186608001518760a001518860c001518960e001518a61010001516040516200035499989796959493929190988952602089019790975260408801959095526060870193909352608086019190915260a085015260c084015260e08301526101008201526101200190565b60405180910390a15050565b6000828152602081815260408083206001600160a01b038516845290915290205460ff16620001bd576000828152602081815260408083206001600160a01b03851684529091529020805460ff19166001179055620003bc3390565b6001600160a01b0316816001600160a01b0316837f2f8788117e7eff1d82e926ec794901d17c78024a50270940304540a733656f0d60405160405180910390a45050565b6200040c8133620006ce565b50565b6003548113620004325760405163278ec69160e11b815260040160405180910390fd5b6706f05b59d3b200008113156200045c57604051632294dbdf60e21b815260040160405180910390fd5b600455565b6658d15e176280008112156200048a576040516380f0583d60e01b815260040160405180910390fd5b670429d069189e0000811315620004b457604051632bea3b4760e11b815260040160405180910390fd5b8060045413620004d7576040516380f0583d60e01b815260040160405180910390fd5b600355565b69021e19e0c9bab24000008111156200050857604051636ec81ebd60e01b815260040160405180910390fd5b600555565b662386f26fc10000811015620005365760405163876d264d60e01b815260040160405180910390fd5b6200054e6003546200077260201b620021871760201c565b81106200056e5760405163caaa4f4d60e01b815260040160405180910390fd5b600655565b67016345785d8a00008110156200059d57604051637cf84fa760e01b815260040160405180910390fd5b6706f05b59d3b20000811115620005c75760405163395357bf60e11b815260040160405180910390fd5b600755565b670de0b6b3a7640000811115620005f65760405163720daaa360e01b815260040160405180910390fd5b600855565b62000611816200079060201b620021921760201c565b600a5462000628906702c68af0bb14000062000c0c565b13156200064857604051630a8caa0f60e11b815260040160405180910390fd5b600955565b620006656009546200079060201b620021921760201c565b62000679826702c68af0bb14000062000c0c565b13156200069957604051630a8caa0f60e11b815260040160405180910390fd5b600a55565b68056bc75e2d63100000811215620006c95760405163b518654d60e01b815260040160405180910390fd5b600b55565b6000828152602081815260408083206001600160a01b038516845290915290205460ff16620001bd5762000718816001600160a01b03166014620007a860201b6200219d1760201c565b6200072e8360206200219d620007a8821b17811c565b6040516020016200074192919062000b26565b60408051601f198184030181529082905262461bcd60e51b8252620007699160040162000b9f565b60405180910390fd5b60006200078a82620009a460201b620023861760201c565b92915050565b60006200078a82620009fc60201b620023dc1760201c565b60606000620007b983600262000c6e565b620007c690600262000c53565b6001600160401b03811115620007ec57634e487b7160e01b600052604160045260246000fd5b6040519080825280601f01601f19166020018201604052801562000817576020820181803683370190505b509050600360fc1b816000815181106200084157634e487b7160e01b600052603260045260246000fd5b60200101906001600160f81b031916908160001a905350600f60fb1b816001815181106200087f57634e487b7160e01b600052603260045260246000fd5b60200101906001600160f81b031916908160001a9053506000620008a584600262000c6e565b620008b290600162000c53565b90505b60018111156200094c576f181899199a1a9b1b9c1cb0b131b232b360811b85600f1660108110620008f657634e487b7160e01b600052603260045260246000fd5b1a60f81b8282815181106200091b57634e487b7160e01b600052603260045260246000fd5b60200101906001600160f81b031916908160001a90535060049490941c93620009448162000cc3565b9050620008b5565b5083156200099d5760405162461bcd60e51b815260206004820181905260248201527f537472696e67733a20686578206c656e67746820696e73756666696369656e74604482015260640162000769565b9392505050565b600080821215620009f85760405162461bcd60e51b815260206004820181905260248201527f53616665436173743a2076616c7565206d75737420626520706f736974697665604482015260640162000769565b5090565b60006001600160ff1b03821115620009f85760405162461bcd60e51b815260206004820152602860248201527f53616665436173743a2076616c756520646f65736e27742066697420696e2061604482015267371034b73a191a9b60c11b606482015260840162000769565b600080600083850361016081121562000a7f578384fd5b845162000a8c8162000cf3565b602086015190945062000a9f8162000cf3565b9250610120603f19820181131562000ab5578283fd5b62000abf62000bd4565b915060408601518252606086015160208301526080860151604083015260a0860151606083015260c0860151608083015260e086015160a08301526101008087015160c08401528187015160e0840152610140870151818401525050809150509250925092565b7f416363657373436f6e74726f6c3a206163636f756e742000000000000000000081526000835162000b6081601785016020880162000c90565b7001034b99036b4b9b9b4b733903937b6329607d1b601791840191820152835162000b9381602884016020880162000c90565b01602801949350505050565b602081526000825180602084015262000bc081604085016020870162000c90565b601f01601f19169190910160400192915050565b60405161012081016001600160401b038111828210171562000c0657634e487b7160e01b600052604160045260246000fd5b60405290565b600080821280156001600160ff1b038490038513161562000c315762000c3162000cdd565b600160ff1b839003841281161562000c4d5762000c4d62000cdd565b50500190565b6000821982111562000c695762000c6962000cdd565b500190565b600081600019048311821515161562000c8b5762000c8b62000cdd565b500290565b60005b8381101562000cad57818101518382015260200162000c93565b8381111562000cbd576000848401525b50505050565b60008162000cd55762000cd562000cdd565b506000190190565b634e487b7160e01b600052601160045260246000fd5b6001600160a01b03811681146200040c57600080fd5b61448b8062000d196000396000f3fe608060405234801561001057600080fd5b50600436106102945760003560e01c80637ef8a2d311610167578063b339b368116100ce578063f3fa326d11610087578063f3fa326d1461057b578063f48cba7c1461058e578063f609ce1b14610597578063fa09e630146105a0578063fbfa77cf146105b3578063fe45fe17146105c657600080fd5b8063b339b36814610513578063d547741f1461051c578063e43581b81461052f578063ee99205c14610542578063f0dc2c2014610555578063f3ae24151461056857600080fd5b80639039c639116101205780639039c639146104b657806391d14854146104c9578063a1ac05e1146104dc578063a217fddf146104ef578063a9753e65146104f7578063adf1ab9b1461050057600080fd5b80637ef8a2d3146104635780638053fcbe1461047657806381be72ab1461047f5780638456cb591461049257806384f6721b1461049a57806389cf3204146104a357600080fd5b80632f2ff15d1161020b57806359a1ecaa116101c457806359a1ecaa146103eb57806359f77e2d146104165780635c975abb146104295780636e553f65146104345780637a26414a146104475780637d5d95351461045a57600080fd5b80632f2ff15d1461039857806336568abe146103ab57806339c294be146103be5780633f4ba83a146103c75780634cd74c8f146103cf578063570ca7f2146103e257600080fd5b80631aa053451161025d5780631aa053451461031f5780631b2df850146103325780631d48cd96146103475780632046cc2e1461035a578063248a9ca31461036d578063295c39a51461039057600080fd5b8062f714ce1461029957806301ffc9a7146102ae5780630c94154f146102d657806314627834146102e957806318994a871461030c575b600080fd5b6102ac6102a7366004613bab565b6105d9565b005b6102c16102bc366004613bda565b6106ae565b60405190151581526020015b60405180910390f35b6102ac6102e4366004613ca3565b6106e5565b6102fe60008051602061443683398151915281565b6040519081526020016102cd565b6102fe61031a366004613b4c565b61081b565b6102ac61032d366004613f35565b61086f565b6102fe60008051602061441683398151915281565b6102ac610355366004613b30565b610985565b6102ac610368366004613ec2565b610ac9565b6102fe61037b366004613b93565b60009081526020819052604090206001015490565b600f546102fe565b6102ac6103a6366004613bab565b610c7b565b6102ac6103b9366004613bab565b610ca5565b6102fe60035481565b6102ac610d23565b6102fe6103dd366004613b4c565b610d46565b6102fe60045481565b6103fe6103f9366004613b93565b610d66565b6040516001600160a01b0390911681526020016102cd565b6102ac610424366004613e3e565b610d90565b60015460ff166102c1565b6102ac610442366004613bab565b610dd4565b6102ac610455366004613d84565b610e0c565b6102fe60075481565b6102fe610471366004613b30565b6111a9565b6102fe60095481565b6102ac61048d366004613ef7565b61133c565b6102ac611381565b6102fe600a5481565b600d546103fe906001600160a01b031681565b6102ac6104c4366004613dc2565b6113a1565b6102c16104d7366004613bab565b6113e4565b6102ac6104ea366004613df7565b61140d565b6102fe600081565b6102fe60055481565b6102fe61050e366004613b30565b6116ef565b6102fe60065481565b6102ac61052a366004613bab565b6117c2565b6102c161053d366004613b30565b6117e7565b600e546103fe906001600160a01b031681565b6102ac610563366004613b30565b611801565b6102c1610576366004613b30565b61188e565b6102ac610589366004613e97565b6118a8565b6102fe60085481565b6102fe600b5481565b6102ac6105ae366004613b30565b611cc9565b600c546103fe906001600160a01b031681565b6102ac6105d4366004613b30565b611d8d565b6002805414156106045760405162461bcd60e51b81526004016105fb906141a0565b60405180910390fd5b60028055610610612446565b600c54604051631a4ca37b60e21b8152336004820152602481018490526001600160a01b038381166044830152909116906369328dec90606401600060405180830381600087803b15801561066457600080fd5b505af1158015610678573d6000803e3d6000fd5b505050506106883360045461248e565b6106a55760405163b28c857b60e01b815260040160405180910390fd5b50506001600255565b60006001600160e01b03198216637965db0b60e01b14806106df57506301ffc9a760e01b6001600160e01b03198316145b92915050565b6000805160206144368339815191526106fd816124a4565b61070a82602001516124ae565b8151610715906124fe565b6107228260400151612576565b61072f82606001516125a6565b61073c82608001516125fd565b6107498260a00151612654565b6107568260c00151612682565b6107638260e001516126c4565b610771826101000151612705565b7f46fdb7eba5bc556294a8e95d7c0fce002a6272aa7229e1fc1c9dec41b17b2460826000015183602001518460400151856060015186608001518760a001518860c001518960e001518a610100015160405161080f99989796959493929190988952602089019790975260408801959095526060870193909352608086019190915260a085015260c084015260e08301526101008201526101200190565b60405180910390a15050565b600080610827846116ef565b90506000610836856001612734565b905060006108448686610d46565b90508061085b610854858561420f565b84906127bb565b610865919061430a565b9695505050505050565b6002805414156108915760405162461bcd60e51b81526004016105fb906141a0565b6002805561089d612446565b6108a9868686846127c7565b600f86815481106108ca57634e487b7160e01b600052603260045260246000fd5b600091825260209091200154604051635216b30160e11b81523360048201526001600160a01b039091169063a42d66029060240160206040518083038186803b15801561091657600080fd5b505afa15801561092a573d6000803e3d6000fd5b505050506040513d601f19601f8201168201806040525081019061094e9190613b77565b1561096c5760405163022cdbe760e61b815260040160405180910390fd5b610978868484846127c7565b5050600160025550505050565b60008051602061443683398151915261099d816124a4565b6001600160a01b0382166109c45760405163059d8acb60e01b815260040160405180910390fd5b60005b600f54811015610a4257826001600160a01b0316600f82815481106109fc57634e487b7160e01b600052603260045260246000fd5b6000918252602090912001546001600160a01b03161415610a305760405163039684cd60e01b815260040160405180910390fd5b80610a3a816143a7565b9150506109c7565b50600f805460018101825560008290527f8d1108e10bcb7c27dddfc02ed9d693a074039d026cf4ea4240b40f7d581ac8020180546001600160a01b0319166001600160a01b03851690811790915590546040519081527fa64754291535175942be6f35fba8deab36d97ea608b17d06cc5efb985e17215f9060200160405180910390a25050565b600280541415610aeb5760405162461bcd60e51b81526004016105fb906141a0565b60028055610af7612446565b6000610b038533612aeb565b6020015190506000808213610b19576000610b1c565b60015b9050610b2a868686846127c7565b600f8681548110610b4b57634e487b7160e01b600052603260045260246000fd5b600091825260209091200154604051635216b30160e11b81523360048201526001600160a01b039091169063a42d66029060240160206040518083038186803b158015610b9757600080fd5b505afa158015610bab573d6000803e3d6000fd5b505050506040513d601f19601f82011682018060405250810190610bcf9190613b77565b15610bed5760405163022cdbe760e61b815260040160405180910390fd5b600c546040516301395c5960e31b81523360048201526001600160a01b038581166024830152909116906309cae2c890604401600060405180830381600087803b158015610c3a57600080fd5b505af1158015610c4e573d6000803e3d6000fd5b50505050610c5e3360045461248e565b6109785760405163b28c857b60e01b815260040160405180910390fd5b600082815260208190526040902060010154610c96816124a4565b610ca08383612bb6565b505050565b6001600160a01b0381163314610d155760405162461bcd60e51b815260206004820152602f60248201527f416363657373436f6e74726f6c3a2063616e206f6e6c792072656e6f756e636560448201526e103937b632b9903337b91039b2b63360891b60648201526084016105fb565b610d1f8282612c3a565b5050565b600080516020614416833981519152610d3b816124a4565b610d43612c9f565b50565b600080610d52846111a9565b9050610d5e8184612cf1565b949350505050565b600f8181548110610d7657600080fd5b6000918252602090912001546001600160a01b0316905081565b600280541415610db25760405162461bcd60e51b81526004016105fb906141a0565b60028055610dbe612446565b610dc88585612cfd565b610978868483856127c7565b600280541415610df65760405162461bcd60e51b81526004016105fb906141a0565b60028055610e02612446565b6106a58282612cfd565b600280541415610e2e5760405162461bcd60e51b81526004016105fb906141a0565b60028055610e3a612446565b3360008215610e7b57610e56610e508787612aeb565b51612d6e565b905080610e7657604051632977d16360e11b815260040160405180910390fd5b610f54565b600f8681548110610e9c57634e487b7160e01b600052603260045260246000fd5b600091825260209091200154604051639d36b75960e01b81526001600160a01b03878116600483015290911690639d36b7599060240160206040518083038186803b158015610eea57600080fd5b505afa158015610efe573d6000803e3d6000fd5b505050506040513d601f19601f82011682018060405250810190610f229190613b77565b610f3f57604051632977d16360e11b815260040160405180910390fd5b610f51610f4c8787612d79565b612d6e565b90505b610f5d85612dd7565b610f698560035461248e565b15610f875760405163389fcd8960e11b815260040160405180910390fd5b600083610f9e57610f99878787612f9f565b610fa9565b610fa9878787613083565b90506000610fc2600654610fbc85612187565b90613230565b90506000610fdb6008548361323090919063ffffffff16565b90506000610fe98284614349565b600c549091506001600160a01b03166362990d2f8a61100786612192565b611011908861430a565b6040516001600160e01b031960e085901b1681526001600160a01b0390921660048301526024820152604401600060405180830381600087803b15801561105757600080fd5b505af115801561106b573d6000803e3d6000fd5b5050600c546001600160a01b031691506362990d2f90508761108c84612192565b6040516001600160e01b031960e085901b1681526001600160a01b0390921660048301526024820152604401600060405180830381600087803b1580156110d257600080fd5b505af11580156110e6573d6000803e3d6000fd5b5050600d546040516352ac183b60e01b8152600481018690526001600160a01b0390911692506352ac183b9150602401600060405180830381600087803b15801561113057600080fd5b505af1158015611144573d6000803e3d6000fd5b50505050856001600160a01b0316896001600160a01b03168b7f19a800bd1189221901c32c4ced18afe41c45969c0b5e97b8ebf4124e169339cc61118789612187565b60405190815260200160405180910390a4505060016002555050505050505050565b6000805b600f54811015611336576000600f82815481106111da57634e487b7160e01b600052603260045260246000fd5b600091825260209182902001546040805163632b6b1160e01b815290516001600160a01b039092169263632b6b1192600480840193829003018186803b15801561122357600080fd5b505afa158015611237573d6000803e3d6000fd5b505050506040513d601f19601f8201168201806040525081019061125b9190613c1e565b905061131661126982612192565b600f848154811061128a57634e487b7160e01b600052603260045260246000fd5b60009182526020909120015460405163e65896c960e01b81526001600160a01b0388811660048301529091169063e65896c99060240160206040518083038186803b1580156112d857600080fd5b505afa1580156112ec573d6000803e3d6000fd5b505050506040513d601f19601f820116820180604052508101906113109190613c1e565b90612cf1565b611320908461420f565b925050808061132e906143a7565b9150506111ad565b50919050565b60028054141561135e5760405162461bcd60e51b81526004016105fb906141a0565b6002805561136a612446565b611376848484846127c7565b505060016002555050565b600080516020614416833981519152611399816124a4565b610d4361323c565b6002805414156113c35760405162461bcd60e51b81526004016105fb906141a0565b600280556113cf612446565b6113da838383613277565b5050600160025550565b6000918252602082815260408084206001600160a01b0393909316845291905290205460ff1690565b60028054141561142f5760405162461bcd60e51b81526004016105fb906141a0565b6002805561143b612446565b61144433612dd7565b6000806000600f888154811061146a57634e487b7160e01b600052603260045260246000fd5b60009182526020822001546040516323e8659f60e21b81526001600160a01b0390911691638fa1967c916114aa9133918c918c918c918c91600401614060565b606060405180830381600087803b1580156114c457600080fd5b505af11580156114d8573d6000803e3d6000fd5b505050506040513d601f19601f820116820180604052508101906114fc9190613c76565b92509250925060006115b2600f8a8154811061152857634e487b7160e01b600052603260045260246000fd5b60009182526020918290200154604080516397c4fac760e01b815290516001600160a01b03909216926397c4fac792600480840193829003018186803b15801561157157600080fd5b505afa158015611585573d6000803e3d6000fd5b505050506040513d601f19601f820116820180604052508101906115a99190613c1e565b61131084612d6e565b600d549091506001600160a01b03166352ac183b6115cf83612187565b6040518263ffffffff1660e01b81526004016115ed91815260200190565b600060405180830381600087803b15801561160757600080fd5b505af115801561161b573d6000803e3d6000fd5b5050600c546001600160a01b031691506362990d2f90503361163d848861420f565b6040516001600160e01b031960e085901b1681526001600160a01b0390921660048301526024820152604401600060405180830381600087803b15801561168357600080fd5b505af1158015611697573d6000803e3d6000fd5b505050506116a78933600061353f565b5060405183815233908a907f7cd78db3fa0f169740484c879803073b63a35c4c5d82f02312e7aa988eee85549060200160405180910390a35050600160025550505050505050565b6000805b600f5481101561133657600f818154811061171e57634e487b7160e01b600052603260045260246000fd5b600091825260209091200154604051637439aabd60e11b81526001600160a01b0385811660048301529091169063e873557a9060240160206040518083038186803b15801561176c57600080fd5b505afa158015611780573d6000803e3d6000fd5b505050506040513d601f19601f820116820180604052508101906117a49190613c1e565b6117ae908361420f565b9150806117ba816143a7565b9150506116f3565b6000828152602081905260409020600101546117dd816124a4565b610ca08383612c3a565b60006106df600080516020614436833981519152836113e4565b600080516020614436833981519152611819816124a4565b6001600160a01b0382166118405760405163059d8acb60e01b815260040160405180910390fd5b600e80546001600160a01b0319166001600160a01b0384169081179091556040519081527f37f339b442273d59b9ccb58c1ed2c06e695bd9b0a68db21495afb7fc86de692c9060200161080f565b60006106df600080516020614416833981519152836113e4565b6000805160206144168339815191526118c0816124a4565b6002805414156118e25760405162461bcd60e51b81526004016105fb906141a0565b600280819055506000600f858154811061190c57634e487b7160e01b600052603260045260246000fd5b60009182526020822001546040516394b661e960e01b81526001600160a01b03909116916394b661e99161194c91309189918991600191906004016140fe565b608060405180830381600087803b15801561196657600080fd5b505af115801561197a573d6000803e3d6000fd5b505050506040513d601f19601f8201168201806040525081019061199e9190613c36565b50600c546040516362990d2f60e01b8152306004820152602481018390529194506001600160a01b031692506362990d2f9150604401600060405180830381600087803b1580156119ee57600080fd5b505af1158015611a02573d6000803e3d6000fd5b5050600c546040805163c52e8c4160e01b815290516001600160a01b0390921693506309cae2c892503091849163c52e8c41916004808301926020929190829003018186803b158015611a5457600080fd5b505afa158015611a68573d6000803e3d6000fd5b505050506040513d601f19601f82011682018060405250810190611a8c9190613c02565b6040516001600160e01b031960e085901b1681526001600160a01b03928316600482015291166024820152604401600060405180830381600087803b158015611ad457600080fd5b505af1158015611ae8573d6000803e3d6000fd5b5050600d54600c546040805163c52e8c4160e01b81529051611c8395506001600160a01b039384169450919092169163c52e8c41916004808301926020929190829003018186803b158015611b3c57600080fd5b505afa158015611b50573d6000803e3d6000fd5b505050506040513d601f19601f82011682018060405250810190611b749190613c02565b6040516370a0823160e01b81523060048201526001600160a01b0391909116906370a082319060240160206040518083038186803b158015611bb557600080fd5b505afa158015611bc9573d6000803e3d6000fd5b505050506040513d601f19601f82011682018060405250810190611bed9190613c1e565b600c60009054906101000a90046001600160a01b03166001600160a01b031663c52e8c416040518163ffffffff1660e01b815260040160206040518083038186803b158015611c3b57600080fd5b505afa158015611c4f573d6000803e3d6000fd5b505050506040513d601f19601f82011682018060405250810190611c739190613c02565b6001600160a01b03169190613599565b847f96d0284e042317c02550d6522426b8938bc365bc6c2fd42594b358ff2fbdd5e682604051611cb591815260200190565b60405180910390a250506001600255505050565b600280541415611ceb5760405162461bcd60e51b81526004016105fb906141a0565b60028055611cf7612446565b600c546040516301395c5960e31b81523360048201526001600160a01b038381166024830152909116906309cae2c890604401600060405180830381600087803b158015611d4457600080fd5b505af1158015611d58573d6000803e3d6000fd5b50505050611d683360045461248e565b611d855760405163b28c857b60e01b815260040160405180910390fd5b506001600255565b600280541415611daf5760405162461bcd60e51b81526004016105fb906141a0565b60028055611dbb612446565b3360005b600f54811015611f4d57600f8181548110611dea57634e487b7160e01b600052603260045260246000fd5b600091825260209091200154604051635216b30160e11b81526001600160a01b0385811660048301529091169063a42d66029060240160206040518083038186803b158015611e3857600080fd5b505afa158015611e4c573d6000803e3d6000fd5b505050506040513d601f19601f82011682018060405250810190611e709190613b77565b80611f1d5750600f8181548110611e9757634e487b7160e01b600052603260045260246000fd5b600091825260209091200154604051639d36b75960e01b81526001600160a01b03858116600483015290911690639d36b7599060240160206040518083038186803b158015611ee557600080fd5b505afa158015611ef9573d6000803e3d6000fd5b505050506040513d601f19601f82011682018060405250810190611f1d9190613b77565b15611f3b576040516302c2ecad60e51b815260040160405180910390fd5b80611f45816143a7565b915050611dbf565b50600c5460405162ac13a160e61b81526001600160a01b038481166004830152600060248301819052921690632b04e8409060440160206040518083038186803b158015611f9a57600080fd5b505afa158015611fae573d6000803e3d6000fd5b505050506040513d601f19601f82011682018060405250810190611fd29190613c1e565b600c5460405163029122eb60e41b81526001600160a01b03868116600483015260016024830152929350600092909116906329122eb09060440160206040518083038186803b15801561202457600080fd5b505afa158015612038573d6000803e3d6000fd5b505050506040513d601f19601f8201168201806040525081019061205c9190613c1e565b9050600061206a838361430a565b90506000831261208d5760405163449e6f1360e11b815260040160405180910390fd5b600a5461209b908290612cf1565b6120a4846143c2565b13806120b95750600b546120b7846143c2565b135b1561216257600c5460405163161ad3b360e21b81526001600160a01b03868116600483015287811660248301529091169063586b4ecc90604401600060405180830381600087803b15801561210d57600080fd5b505af1158015612121573d6000803e3d6000fd5b50506040516001600160a01b038088169350881691507fe3bf82689d5393dcc1c3be2e48e2279199f8bf891f818b717e30a42622f3be0c90600090a361217b565b60405163f04aeccb60e01b815260040160405180910390fd5b50506001600255505050565b60006106df82612386565b60006106df826123dc565b606060006121ac8360026142eb565b6121b7906002614250565b67ffffffffffffffff8111156121dd57634e487b7160e01b600052604160045260246000fd5b6040519080825280601f01601f191660200182016040528015612207576020820181803683370190505b509050600360fc1b8160008151811061223057634e487b7160e01b600052603260045260246000fd5b60200101906001600160f81b031916908160001a905350600f60fb1b8160018151811061226d57634e487b7160e01b600052603260045260246000fd5b60200101906001600160f81b031916908160001a90535060006122918460026142eb565b61229c906001614250565b90505b6001811115612330576f181899199a1a9b1b9c1cb0b131b232b360811b85600f16601081106122de57634e487b7160e01b600052603260045260246000fd5b1a60f81b82828151811061230257634e487b7160e01b600052603260045260246000fd5b60200101906001600160f81b031916908160001a90535060049490941c9361232981614390565b905061229f565b50831561237f5760405162461bcd60e51b815260206004820181905260248201527f537472696e67733a20686578206c656e67746820696e73756666696369656e7460448201526064016105fb565b9392505050565b6000808212156123d85760405162461bcd60e51b815260206004820181905260248201527f53616665436173743a2076616c7565206d75737420626520706f73697469766560448201526064016105fb565b5090565b60006001600160ff1b038211156123d85760405162461bcd60e51b815260206004820152602860248201527f53616665436173743a2076616c756520646f65736e27742066697420696e2061604482015267371034b73a191a9b60c11b60648201526084016105fb565b60015460ff161561248c5760405162461bcd60e51b815260206004820152601060248201526f14185d5cd8589b194e881c185d5cd95960821b60448201526064016105fb565b565b60008061249b848461081b565b12159392505050565b610d4381336135eb565b60035481136124d05760405163278ec69160e11b815260040160405180910390fd5b6706f05b59d3b200008113156124f957604051632294dbdf60e21b815260040160405180910390fd5b600455565b6658d15e17628000811215612526576040516380f0583d60e01b815260040160405180910390fd5b670429d069189e000081131561254f57604051632bea3b4760e11b815260040160405180910390fd5b8060045413612571576040516380f0583d60e01b815260040160405180910390fd5b600355565b69021e19e0c9bab24000008111156125a157604051636ec81ebd60e01b815260040160405180910390fd5b600555565b662386f26fc100008110156125ce5760405163876d264d60e01b815260040160405180910390fd5b6125d9600354612187565b81106125f85760405163caaa4f4d60e01b815260040160405180910390fd5b600655565b67016345785d8a000081101561262657604051637cf84fa760e01b815260040160405180910390fd5b6706f05b59d3b2000081111561264f5760405163395357bf60e11b815260040160405180910390fd5b600755565b670de0b6b3a764000081111561267d5760405163720daaa360e01b815260040160405180910390fd5b600855565b61268b81612192565b600a546126a0906702c68af0bb14000061420f565b13156126bf57604051630a8caa0f60e11b815260040160405180910390fd5b600955565b6126cf600954612192565b6126e1826702c68af0bb14000061420f565b131561270057604051630a8caa0f60e11b815260040160405180910390fd5b600a55565b68056bc75e2d6310000081121561272f5760405163b518654d60e01b815260040160405180910390fd5b600b55565b600c5460405163029122eb60e41b81526001600160a01b038481166004830152831515602483015260009216906329122eb0906044015b60206040518083038186803b15801561278357600080fd5b505afa158015612797573d6000803e3d6000fd5b505050506040513d601f19601f8201168201806040525081019061237f9190613c1e565b600061237f838361364f565b826127e5576040516321d7db4360e01b815260040160405180910390fd5b6127ee33612dd7565b600080600080600f888154811061281557634e487b7160e01b600052603260045260246000fd5b60009182526020822001546040516394b661e960e01b81526001600160a01b03909116916394b661e9916128549133918c918c918c91906004016140fe565b608060405180830381600087803b15801561286e57600080fd5b505af1158015612882573d6000803e3d6000fd5b505050506040513d601f19601f820116820180604052508101906128a69190613c36565b9350935093509350600081156129d257612964600f8a815481106128da57634e487b7160e01b600052603260045260246000fd5b60009182526020918290200154604080516397c4fac760e01b815290516001600160a01b03909216926397c4fac792600480840193829003018186803b15801561292357600080fd5b505afa158015612937573d6000803e3d6000fd5b505050506040513d601f19601f8201168201806040525081019061295b9190613c1e565b61131087612d6e565b600d549091506001600160a01b03166352ac183b61298183612187565b6040518263ffffffff1660e01b815260040161299f91815260200190565b600060405180830381600087803b1580156129b957600080fd5b505af11580156129cd573d6000803e3d6000fd5b505050505b60006129de828561430a565b600c546040516362990d2f60e01b8152336004820152602481018390529192506001600160a01b0316906362990d2f90604401600060405180830381600087803b158015612a2b57600080fd5b505af1158015612a3f573d6000803e3d6000fd5b50505050612a4f3360045461248e565b612a6c5760405163afd1ab8560e01b815260040160405180910390fd5b612a788a33600161353f565b612a955760405163282c809760e01b815260040160405180910390fd5b336001600160a01b03168a7f091f919d14dc90f5cbb30eade032cfd3afd9fd470a0ec42392db347fc3cacca48989898689604051612ad795949392919061413b565b60405180910390a350505050505050505050565b612b0f60405180606001604052806000815260200160008152602001600081525090565b600f8381548110612b3057634e487b7160e01b600052603260045260246000fd5b600091825260209091200154604051630f272c5b60e31b81526001600160a01b0384811660048301529091169063793962d89060240160606040518083038186803b158015612b7e57600080fd5b505afa158015612b92573d6000803e3d6000fd5b505050506040513d601f19601f8201168201806040525081019061237f9190613d1d565b612bc082826113e4565b610d1f576000828152602081815260408083206001600160a01b03851684529091529020805460ff19166001179055612bf63390565b6001600160a01b0316816001600160a01b0316837f2f8788117e7eff1d82e926ec794901d17c78024a50270940304540a733656f0d60405160405180910390a45050565b612c4482826113e4565b15610d1f576000828152602081815260408083206001600160a01b0385168085529252808320805460ff1916905551339285917ff6391f5c32d9c69d2a47ea670b442974b53935d1edc7fd64eb21e047a839171b9190a45050565b612ca7613665565b6001805460ff191690557f5db9ee0a495bf2e6ff9c91a7834c1ba4fdd244a5e8aa4e537bd38aeae4b073aa335b6040516001600160a01b03909116815260200160405180910390a1565b600061237f83836136ae565b600c54604051633d14d1b760e21b8152336004820152602481018490526001600160a01b0383811660448301529091169063f45346dc906064015b600060405180830381600087803b158015612d5257600080fd5b505af1158015612d66573d6000803e3d6000fd5b505050505050565b60006106df82613773565b6000600f8381548110612d9c57634e487b7160e01b600052603260045260246000fd5b60009182526020909120015460405163151d7fad60e01b81526001600160a01b0384811660048301529091169063151d7fad9060240161276b565b6000805b600f54811015612f5f57600f8181548110612e0657634e487b7160e01b600052603260045260246000fd5b600091825260209091200154604051633876d05560e01b81526001600160a01b03858116600483015290911690633876d05590602401602060405180830381600087803b158015612e5657600080fd5b505af1158015612e6a573d6000803e3d6000fd5b505050506040513d601f19601f82011682018060405250810190612e8e9190613c1e565b600f8281548110612eaf57634e487b7160e01b600052603260045260246000fd5b600091825260209091200154604051631a4e577d60e21b81526001600160a01b038681166004830152909116906369395df490602401602060405180830381600087803b158015612eff57600080fd5b505af1158015612f13573d6000803e3d6000fd5b505050506040513d601f19601f82011682018060405250810190612f379190613c1e565b612f41919061420f565b612f4b908361420f565b915080612f57816143a7565b915050612ddb565b508015610d1f57600c546040516362990d2f60e01b81526001600160a01b03848116600483015260248201849052909116906362990d2f90604401612d38565b600080600f8581548110612fc357634e487b7160e01b600052603260045260246000fd5b6000918252602090912001546001600160a01b0316638fa1967c85612fe888826137af565b60408051808201825260008082526020820181905291516001600160e01b031960e087901b1681526130239493928a9160019060040161409d565b606060405180830381600087803b15801561303d57600080fd5b505af1158015613051573d6000803e3d6000fd5b505050506040513d601f19601f820116820180604052508101906130759190613c76565b50509050610d5e858561380d565b60008060006130928686612aeb565b6020015112156130a35760006130a6565b60015b90506000600f86815481106130cb57634e487b7160e01b600052603260045260246000fd5b60009182526020822001546040516394b661e960e01b81526001600160a01b03909116916394b661e99161310b91899189919088906001906004016140fe565b608060405180830381600087803b15801561312557600080fd5b505af1158015613139573d6000803e3d6000fd5b505050506040513d601f19601f8201168201806040525081019061315d9190613c36565b5092505050600f868154811061318357634e487b7160e01b600052603260045260246000fd5b600091825260209091200154604051635216b30160e11b81526001600160a01b0387811660048301529091169063a42d66029060240160206040518083038186803b1580156131d157600080fd5b505afa1580156131e5573d6000803e3d6000fd5b505050506040513d601f19601f820116820180604052508101906132099190613b77565b156132275760405163120dbeb360e01b815260040160405180910390fd5b95945050505050565b600061237f8383613857565b613244612446565b6001805460ff1916811790557f62e78cea01bee320cd4e420270b5ea74000d11b0c9f74754ebdbfc544b05a25833612cd4565b813515801561328857506020820135155b156132a6576040516338d22a8b60e11b815260040160405180910390fd5b6132af33612dd7565b60006132bd3360045461081b565b90506132ca816002614268565b613380600f86815481106132ee57634e487b7160e01b600052603260045260246000fd5b600091825260209182902001546040805163042eb3a360e21b815290516001600160a01b03909216926310bace8c92600480840193829003018186803b15801561333757600080fd5b505afa15801561334b573d6000803e3d6000fd5b505050506040513d601f19601f8201168201806040525081019061336f9190613c1e565b6113108660015b6020020135612192565b61338b856000613376565b613395919061420f565b13156133b457604051630cdb992360e01b815260040160405180910390fd5b6000600f85815481106133d757634e487b7160e01b600052603260045260246000fd5b60009182526020909120015460405163021d27f760e51b81526001600160a01b03909116906343a4fee09061341490339088908890600401614038565b602060405180830381600087803b15801561342e57600080fd5b505af1158015613442573d6000803e3d6000fd5b505050506040513d601f19601f820116820180604052508101906134669190613c1e565b905080156134d357600c546040516362990d2f60e01b8152336004820152602481018390526001600160a01b03909116906362990d2f90604401600060405180830381600087803b1580156134ba57600080fd5b505af11580156134ce573d6000803e3d6000fd5b505050505b6134dd853361380d565b6134e98533600061353f565b506134f63360045461248e565b50604080518535815260208087013590820152339187917f413fcc4add68f16703d76130cf98a76591f34707ceaa9abd83774f3776483a81910160405180910390a35050505050565b60008082613556576135518585612d79565b613562565b6135608585612aeb565b515b9050600061357761357283612d6e565b612187565b9050801561358d5760055481119250505061237f565b50600195945050505050565b604080516001600160a01b038416602482015260448082018490528251808303909101815260649091019091526020810180516001600160e01b031663a9059cbb60e01b179052610ca0908490613863565b6135f582826113e4565b610d1f5761360d816001600160a01b0316601461219d565b61361883602061219d565b604051602001613629929190613fc3565b60408051601f198184030181529082905262461bcd60e51b82526105fb9160040161416d565b600081831261365e578161237f565b5090919050565b60015460ff1661248c5760405162461bcd60e51b815260206004820152601460248201527314185d5cd8589b194e881b9bdd081c185d5cd95960621b60448201526064016105fb565b6000600160ff1b8314806136c55750600160ff1b82145b156136e357604051630d01a11b60e21b815260040160405180910390fd5b600080600085126136f457846136f9565b846000035b915060008412613709578361370e565b836000035b9050600061371c8383613935565b90506001600160ff1b038111156137495760405163bf79e8d960e01b8152600481018290526024016105fb565b6000198087139086138082186001146137625782613767565b826000035b98975050505050505050565b6000600160ff1b82141561379a57604051631d0742e360e21b815260040160405180910390fd5b600082126137a857816106df565b5060000390565b6000600f83815481106137d257634e487b7160e01b600052603260045260246000fd5b600091825260209091200154604051637f338ecf60e01b81526001600160a01b03848116600483015290911690637f338ecf9060240161276b565b600e546001600160a01b031615610d1f57600e546040516322146e3360e01b8152600481018490526001600160a01b038381166024830152909116906322146e3390604401612d38565b600061237f8383613935565b60006138b8826040518060400160405280602081526020017f5361666545524332303a206c6f772d6c6576656c2063616c6c206661696c6564815250856001600160a01b03166139f79092919063ffffffff16565b805190915015610ca057808060200190518101906138d69190613b77565b610ca05760405162461bcd60e51b815260206004820152602a60248201527f5361666545524332303a204552433230206f7065726174696f6e20646964206e6044820152691bdd081cdd58d8d9595960b21b60648201526084016105fb565b60008080600019848609848602925082811083820303915050670de0b6b3a764000081106139795760405163698d9a0160e11b8152600481018290526024016105fb565b600080670de0b6b3a76400008688099150506706f05b59d3b1ffff8111826139b35780670de0b6b3a76400008504019450505050506106df565b620400008285030493909111909103600160ee1b02919091177faccb18165bd6fe31ae1cf318dc5b51eee0e1ba569b88cd74c1773b91fac106690201905092915050565b6060610d5e8484600085856001600160a01b0385163b613a595760405162461bcd60e51b815260206004820152601d60248201527f416464726573733a2063616c6c20746f206e6f6e2d636f6e747261637400000060448201526064016105fb565b600080866001600160a01b03168587604051613a759190613fa7565b60006040518083038185875af1925050503d8060008114613ab2576040519150601f19603f3d011682016040523d82523d6000602084013e613ab7565b606091505b5091509150613ac7828286613ad2565b979650505050505050565b60608315613ae157508161237f565b825115613af15782518084602001fd5b8160405162461bcd60e51b81526004016105fb919061416d565b80604081018310156106df57600080fd5b803560028110613b2b57600080fd5b919050565b600060208284031215613b41578081fd5b813561237f816143f2565b60008060408385031215613b5e578081fd5b8235613b69816143f2565b946020939093013593505050565b600060208284031215613b88578081fd5b815161237f81614407565b600060208284031215613ba4578081fd5b5035919050565b60008060408385031215613bbd578182fd5b823591506020830135613bcf816143f2565b809150509250929050565b600060208284031215613beb578081fd5b81356001600160e01b03198116811461237f578182fd5b600060208284031215613c13578081fd5b815161237f816143f2565b600060208284031215613c2f578081fd5b5051919050565b60008060008060808587031215613c4b578182fd5b8451935060208501519250604085015191506060850151613c6b81614407565b939692955090935050565b600080600060608486031215613c8a578081fd5b8351925060208401519150604084015190509250925092565b60006101208284031215613cb5578081fd5b613cbd6141d7565b823581526020830135602082015260408301356040820152606083013560608201526080830135608082015260a083013560a082015260c083013560c082015260e083013560e08201526101008084013581830152508091505092915050565b600060608284031215613d2e578081fd5b6040516060810181811067ffffffffffffffff82111715613d5d57634e487b7160e01b83526041600452602483fd5b80604052508251815260208301516020820152604083015160408201528091505092915050565b60008060008060808587031215613d99578182fd5b843593506020850135613dab816143f2565b9250604085013591506060850135613c6b81614407565b600080600060808486031215613dd6578081fd5b83359250613de78560208601613b0b565b9150606084013590509250925092565b600080600080600060c08688031215613e0e578283fd5b8535945060208601359350613e268760408801613b0b565b949793965093946080810135945060a0013592915050565b60008060008060008060c08789031215613e56578384fd5b86359550602087013594506040870135613e6f816143f2565b935060608701359250613e8460808801613b1c565b915060a087013590509295509295509295565b600080600060608486031215613eab578081fd5b505081359360208301359350604090920135919050565b60008060008060808587031215613ed7578182fd5b8435935060208501359250604085013591506060850135613c6b816143f2565b60008060008060808587031215613f0c578182fd5b843593506020850135925060408501359150613f2a60608601613b1c565b905092959194509250565b60008060008060008060c08789031215613f4d578384fd5b8635955060208701359450604087013593506060870135925060808701359150613f7960a08801613b1c565b90509295509295509295565b60028110613fa357634e487b7160e01b600052602160045260246000fd5b9052565b60008251613fb9818460208701614360565b9190910192915050565b7f416363657373436f6e74726f6c3a206163636f756e7420000000000000000000815260008351613ffb816017850160208801614360565b7001034b99036b4b9b9b4b733903937b6329607d1b601791840191820152835161402c816028840160208801614360565b01602801949350505050565b6001600160a01b03841681526080810160408460208401376060919091019190915292915050565b6001600160a01b03871681526020810186905260e0810160408681840137608082019490945260a0810192909252151560c0909101529392505050565b6001600160a01b0387168152602080820187905260e0820190604083018760005b60028110156140db578151835291830191908301906001016140be565b505050508460808301528360a083015282151560c0830152979650505050505050565b6001600160a01b0386168152602081018590526040810184905260a081016141296060830185613f85565b82151560808301529695505050505050565b60a081016141498288613f85565b85602083015284604083015283606083015282151560808301529695505050505050565b602081526000825180602084015261418c816040850160208701614360565b601f01601f19169190910160400192915050565b6020808252601f908201527f5265656e7472616e637947756172643a207265656e7472616e742063616c6c00604082015260600190565b604051610120810167ffffffffffffffff8111828210171561420957634e487b7160e01b600052604160045260246000fd5b60405290565b600080821280156001600160ff1b0384900385131615614231576142316143dc565b600160ff1b839003841281161561424a5761424a6143dc565b50500190565b60008219821115614263576142636143dc565b500190565b60006001600160ff1b038184138284138082168684048611161561428e5761428e6143dc565b600160ff1b848712828116878305891216156142ac576142ac6143dc565b8587129250878205871284841616156142c7576142c76143dc565b878505871281841616156142dd576142dd6143dc565b505050929093029392505050565b6000816000190483118215151615614305576143056143dc565b500290565b60008083128015600160ff1b850184121615614328576143286143dc565b6001600160ff1b0384018313811615614343576143436143dc565b50500390565b60008282101561435b5761435b6143dc565b500390565b60005b8381101561437b578181015183820152602001614363565b8381111561438a576000848401525b50505050565b60008161439f5761439f6143dc565b506000190190565b60006000198214156143bb576143bb6143dc565b5060010190565b6000600160ff1b8214156143d8576143d86143dc565b0390565b634e487b7160e01b600052601160045260246000fd5b6001600160a01b0381168114610d4357600080fd5b8015158114610d4357600080fdfeaf290d8680820aad922855f39b306097b20e28774d6c1ad35a20325630c3a02c35a7846a2a701fff6f9d61a46ebff5da578c5dcee8bdf361c569f9ea4ee64771a26469706673582212208d52d10d172f0284251fc4017902d0e38ce90e0efbe390e07beaaed96f38cc8664736f6c63430008040033af290d8680820aad922855f39b306097b20e28774d6c1ad35a20325630c3a02c35a7846a2a701fff6f9d61a46ebff5da578c5dcee8bdf361c569f9ea4ee64771",
  "devdoc": {
    "kind": "dev",
    "methods": {
      "addStakingContract(address)": {
        "params": {
          "staking": "Staking Contract"
        }
      },
      "allowListPerpetual(address)": {
        "params": {
          "perp": "Market to add to the list of supported market"
        }
      },
      "changePosition(uint256,uint256,uint256,uint8)": {
        "details": "No number for the leverage is given but the amount in the vault must be bigger than minMarginAtCreationNo checks are done if bought amount exceeds allowance",
        "params": {
          "amount": "Represent amount in vQuote (if long) or vBase (if short) to sell. 18 decimals",
          "direction": "Whether the trade should buy or sell vBase (LONG) or sell vBase(SHORT)",
          "idx": "Index of the perpetual market",
          "minAmount": "Minimum amount that the user is willing to accept. 18 decimals"
        }
      },
      "closePositionWithdrawCollateral(uint256,uint256,uint256,address)": {
        "params": {
          "idx": "Index of the perpetual market",
          "minAmount": "Minimum amount that the user is willing to accept, in vQuote if LONG, in vBase if SHORT. 18 decimals",
          "proposedAmount": "Amount of tokens to be sold, in vBase if LONG, in vQuote if SHORT. 18 decimals",
          "token": "Token used for the collateral"
        }
      },
      "deposit(uint256,address)": {
        "params": {
          "amount": "Amount to be used as collateral. Might not be 18 decimals",
          "token": "Token to be used for the collateral"
        }
      },
      "extendPositionWithCollateral(uint256,uint256,address,uint256,uint8,uint256)": {
        "params": {
          "collateralAmount": "Amount to be used as the collateral of the position. Might not be 18 decimals",
          "direction": "Whether the position is LONG or SHORT",
          "idx": "Index of the perpetual market",
          "minAmount": "Minimum amount that the user is willing to accept. 18 decimals",
          "positionAmount": "Amount to be sold, in vQuote (if long) or vBase (if short). Must be 18 decimals",
          "token": "Token to be used for the collateral of the position"
        }
      },
      "getNumMarkets()": {
        "returns": {
          "_0": "Number of active markets"
        }
      },
      "getRoleAdmin(bytes32)": {
        "details": "Returns the admin role that controls `role`. See {grantRole} and {revokeRole}. To change a role's admin, use {_setRoleAdmin}."
      },
      "grantRole(bytes32,address)": {
        "details": "Grants `role` to `account`. If `account` had not been already granted `role`, emits a {RoleGranted} event. Requirements: - the caller must have ``role``'s admin role. May emit a {RoleGranted} event."
      },
      "hasRole(bytes32,address)": {
        "details": "Returns `true` if `account` has been granted `role`."
      },
      "liquidate(uint256,address,uint256,bool)": {
        "params": {
          "idx": "Index of the perpetual market",
          "isTrader": "Whether or not the position to liquidate is a trading position",
          "liquidatee": "Address of the account to liquidate",
          "proposedAmount": "Amount of tokens to be sold, in vBase if LONG, in vQuote if SHORT. 18 decimals"
        }
      },
      "paused()": {
        "details": "Returns true if the contract is paused, and false otherwise."
      },
      "provideLiquidity(uint256,uint256[2],uint256)": {
        "params": {
          "amounts": "Amount of virtual tokens ([vQuote, vBase]) provided. 18 decimals",
          "idx": "Index of the perpetual market",
          "minLpAmount": "Minimum amount of Lp tokens minted. 18 decimals"
        }
      },
      "removeLiquidity(uint256,uint256,uint256[2],uint256,uint256)": {
        "params": {
          "idx": "Index of the perpetual market",
          "liquidityAmountToRemove": "Amount of liquidity (in LP tokens) to be removed from the pool. 18 decimals",
          "minAmount": "Minimum amount that the user is willing to accept, in vQuote if LONG, in vBase if SHORT. 18 decimals",
          "minVTokenAmounts": "Minimum amount of virtual tokens [vQuote, vBase] withdrawn from the curve pool. 18 decimals",
          "proposedAmount": "Amount at which to get the LP position (in vBase if LONG, in vQuote if SHORT). 18 decimals"
        }
      },
      "renounceRole(bytes32,address)": {
        "details": "Revokes `role` from the calling account. Roles are often managed via {grantRole} and {revokeRole}: this function's purpose is to provide a mechanism for accounts to lose their privileges if they are compromised (such as when a trusted device is misplaced). If the calling account had been revoked `role`, emits a {RoleRevoked} event. Requirements: - the caller must be `account`. May emit a {RoleRevoked} event."
      },
      "revokeRole(bytes32,address)": {
        "details": "Revokes `role` from `account`. If `account` had been granted `role`, emits a {RoleRevoked} event. Requirements: - the caller must have ``role``'s admin role. May emit a {RoleRevoked} event."
      },
      "seizeCollateral(address)": {
        "params": {
          "liquidatee": "Address of the account to liquidate"
        }
      },
      "sellDust(uint256,uint256,uint256)": {
        "params": {
          "idx": "Index of the perpetual market",
          "minAmount": "Minimum amount that the user is willing to accept, in vQuote if LONG, in vBase if SHORT. 18 decimals",
          "proposedAmount": "Amount of tokens to be sold, in vBase if LONG, in vQuote if SHORT. 18 decimals"
        }
      },
      "supportsInterface(bytes4)": {
        "details": "See {IERC165-supportsInterface}."
      },
      "withdraw(uint256,address)": {
        "params": {
          "amount": "Amount of collateral to withdraw. Might not be 18 decimals (decimals of `token`)",
          "token": "Token of the collateral"
        }
      },
      "withdrawAll(address)": {
        "details": "Should only be called by the trader",
        "params": {
          "token": "Token of the collateral"
        }
      }
    },
    "stateVariables": {
      "insuranceRatio": {
        "details": "Once the insurance reserve exceed this ratio of the tvl, governance can withdraw exceeding insurance fee"
      },
      "liquidationReward": {
        "details": "Paid on dollar value of an trader position. important: liquidationReward < minMargin or liquidations will result in protocol losses"
      },
      "nonUACollSeizureDiscount": {
        "details": "Must be lower than liquidationDiscount to ensure liquidation don't generate bad debt"
      }
    },
    "version": 1
  },
  "userdoc": {
    "errors": {
      "ClearingHouse_AmountProvidedTooLarge()": [
        {
          "notice": "Emitted when a user attempts to provide liquidity with amount larger than his free collateral or collateral balance"
        }
      ],
      "ClearingHouse_ClosePositionStillOpen()": [
        {
          "notice": "Emitted when the position is not reduced entirely using closePositionWithdrawCollateral"
        }
      ],
      "ClearingHouse_ExcessiveInsuranceRatio()": [
        {
          "notice": "Emitted when the proposed insurance ratio is too high"
        }
      ],
      "ClearingHouse_ExcessiveLiquidationReward()": [
        {
          "notice": "Emitted when the proposed liquidation reward is too high"
        }
      ],
      "ClearingHouse_ExcessiveLiquidationRewardInsuranceShare()": [
        {
          "notice": "Emitted when the proposed share of the liquidation reward for the insurance is too high"
        }
      ],
      "ClearingHouse_ExcessiveMinMargin()": [
        {
          "notice": "Emitted when the proposed minMargin is too high"
        }
      ],
      "ClearingHouse_ExcessiveMinMarginAtCreation()": [
        {
          "notice": "Emitted when the proposed minMarginAtCreation is too low"
        }
      ],
      "ClearingHouse_ExtendPositionInsufficientMargin()": [
        {
          "notice": "Emitted when there is not enough margin to extend to the proposed position amount"
        }
      ],
      "ClearingHouse_ExtendPositionZeroAmount()": [
        {
          "notice": "Emitted when a user attempts to extend their position with amount equal to 0"
        }
      ],
      "ClearingHouse_InsufficientDiffBtwLiquidationDiscountAndNonUACollSeizureDiscount()": [
        {
          "notice": "Emitted when the difference between liquidationDiscount and nonUACollSeizureDiscount isn't large enough"
        }
      ],
      "ClearingHouse_InsufficientInsuranceRatio()": [
        {
          "notice": "Emitted when the proposed insurance ratio is too low"
        }
      ],
      "ClearingHouse_InsufficientLiquidationReward()": [
        {
          "notice": "Emitted when the proposed liquidation reward is too low"
        }
      ],
      "ClearingHouse_InsufficientMinMargin()": [
        {
          "notice": "Emitted when the proposed minMargin is too low"
        }
      ],
      "ClearingHouse_InsufficientMinMarginAtCreation()": [
        {
          "notice": "Emitted when the proposed minMarginAtCreation is too low"
        }
      ],
      "ClearingHouse_InsufficientUaDebtSeizureThreshold()": [
        {
          "notice": "Emitted when the proposed UA debt limit is lower than the minimum acceptable value"
        }
      ],
      "ClearingHouse_LiquidateInsufficientProposedAmount()": [
        {
          "notice": "Emitted when the attempted liquidation does not close the full position"
        }
      ],
      "ClearingHouse_LiquidateInvalidPosition()": [
        {
          "notice": "Emitted when the liquidatee does not have an open position"
        }
      ],
      "ClearingHouse_LiquidateValidMargin()": [
        {
          "notice": "Emitted when the margin of the liquidatee's position is still valid"
        }
      ],
      "ClearingHouse_LiquidationDebtSizeZero()": [
        {
          "notice": "Emitted when a collateral liquidation for a user with no UA debt is tried"
        }
      ],
      "ClearingHouse_PerpetualMarketAlreadyAssigned()": [
        {
          "notice": "Emitted when passing the address of a perpetual market which has already been added"
        }
      ],
      "ClearingHouse_ProvideLiquidityZeroAmount()": [
        {
          "notice": "Emitted when a user attempts to provide liquidity with amount equal to 0"
        }
      ],
      "ClearingHouse_ReducePositionZeroAmount()": [
        {
          "notice": "Emitted when a user attempts to reduce their position with amount equal to 0"
        }
      ],
      "ClearingHouse_RemoveLiquidityInsufficientFunds()": [
        {
          "notice": "Emitted when a user attempts to withdraw more liquidity than they have"
        }
      ],
      "ClearingHouse_SeizeCollateralStillOpen()": [
        {
          "notice": "Emitted when attempting to seize collateral of a user with an open position"
        }
      ],
      "ClearingHouse_SufficientUserCollateral()": [
        {
          "notice": "Emitted when a liquidator tries seizing collateral of user with sufficient collaterals level"
        }
      ],
      "ClearingHouse_UnderOpenNotionalAmountRequired()": [
        {
          "notice": "Emitted when a user tries to open a position with an incorrect open notional amount"
        }
      ],
      "ClearingHouse_VaultWithdrawUnsuccessful()": [
        {
          "notice": "Emitted when vault withdrawal is unsuccessful"
        }
      ],
      "ClearingHouse_WithdrawInsufficientMargin()": [
        {
          "notice": "Emitted when there is not enough margin to withdraw the requested amount"
        }
      ],
      "ClearingHouse_ZeroAddress()": [
        {
          "notice": "Emitted when the zero address is provided"
        }
      ],
      "PRBMathSD59x18__AbsInputTooSmall()": [
        {
          "notice": "Emitted when the input is MIN_SD59x18."
        }
      ],
      "PRBMathSD59x18__MulInputTooSmall()": [
        {
          "notice": "Emitted when one of the inputs is MIN_SD59x18."
        }
      ],
      "PRBMathSD59x18__MulOverflow(uint256)": [
        {
          "notice": "Emitted when the intermediary absolute result overflows SD59x18."
        }
      ],
      "PRBMath__MulDivFixedPointOverflow(uint256)": [
        {
          "notice": "Emitted when the result overflows uint256."
        }
      ]
    },
    "events": {
      "ChangePosition(uint256,address,uint8,int256,int256,int256,bool)": {
        "notice": "Emitted when a position is extended/opened"
      },
      "ClearingHouseParametersChanged(int256,int256,uint256,uint256,uint256,uint256,uint256,int256,int256)": {
        "notice": "Emitted when parameters are changed"
      },
      "DustSold(uint256,int256)": {
        "notice": "Emitted when dust is sold by governance"
      },
      "LiquidationCall(uint256,address,address,uint256)": {
        "notice": "Emitted when a trader position is liquidated"
      },
      "LiquidityProvided(uint256,address,uint256,uint256)": {
        "notice": "Emitted when (additional) liquidity is provided"
      },
      "LiquidityRemoved(uint256,address,uint256)": {
        "notice": "Emitted when liquidity is removed"
      },
      "MarketAdded(address,uint256)": {
        "notice": "Emitted when new perpetual market is added"
      },
      "SeizeCollateral(address,address)": {
        "notice": "Emitted when a trader position is liquidated"
      }
    },
    "kind": "user",
    "methods": {
      "addStakingContract(address)": {
        "notice": "Add a staking contract"
      },
      "allowListPerpetual(address)": {
        "notice": "Add one perpetual market to the list of markets"
      },
      "changePosition(uint256,uint256,uint256,uint8)": {
        "notice": "Open or increase or reduce a position, either long or short"
      },
      "closePositionWithdrawCollateral(uint256,uint256,uint256,address)": {
        "notice": "Single close position function, groups close position and withdraw collateralImportant: `proposedAmount` must be large enough to close the entire position else the function call will fail"
      },
      "deposit(uint256,address)": {
        "notice": "Deposit tokens into the vault"
      },
      "extendPositionWithCollateral(uint256,uint256,address,uint256,uint8,uint256)": {
        "notice": "Single open position function, group collateral deposit and extend position"
      },
      "getNumMarkets()": {
        "notice": "Return the number of active markets"
      },
      "insurance()": {
        "notice": "Insurance contract"
      },
      "insuranceRatio()": {
        "notice": "Insurance ratio"
      },
      "liquidate(uint256,address,uint256,bool)": {
        "notice": "Submit the address of an user whose position is worth liquidating for a reward"
      },
      "liquidationDiscount()": {
        "notice": "Discount on the collateral price for the liquidator"
      },
      "liquidationReward()": {
        "notice": "liquidation reward payed to liquidators"
      },
      "liquidationRewardInsuranceShare()": {
        "notice": "Portion of the liquidation reward that the insurance gets"
      },
      "minMargin()": {
        "notice": "minimum maintenance margin"
      },
      "minMarginAtCreation()": {
        "notice": "minimum margin when opening a position"
      },
      "minPositiveOpenNotional()": {
        "notice": "minimum positive open notional when opening a position"
      },
      "nonUACollSeizureDiscount()": {
        "notice": "Discount ratio to be applied on non-UA collaterals before seizing said collaterals for some UA"
      },
      "pause()": {
        "notice": "Pause the contract"
      },
      "perpetuals(uint256)": {
        "notice": "Allowlisted Perpetual contracts"
      },
      "provideLiquidity(uint256,uint256[2],uint256)": {
        "notice": "Provide liquidity to the pool, without depositing new capital in the vault"
      },
      "removeLiquidity(uint256,uint256,uint256[2],uint256,uint256)": {
        "notice": "Remove liquidity from the pool and account profit/loss in UA"
      },
      "seizeCollateral(address)": {
        "notice": "Buy the non-UA collateral of a user at a discounted UA price to settle the debt of said user."
      },
      "sellDust(uint256,uint256,uint256)": {
        "notice": "Sell dust in market idx"
      },
      "stakingContract()": {
        "notice": "Staking contract"
      },
      "uaDebtSeizureThreshold()": {
        "notice": "UA debt amount at which non-UA collaterals can be seized to pay back the UA debt"
      },
      "unpause()": {
        "notice": "Unpause the contract"
      },
      "vault()": {
        "notice": "Vault contract"
      },
      "withdraw(uint256,address)": {
        "notice": "Withdraw tokens from the vault"
      },
      "withdrawAll(address)": {
        "notice": "Withdraw all tokens from the vault"
      }
    },
    "notice": "Entry point for users to vault and perpetual markets",
    "version": 1
  },
  "storageLayout": {
    "storage": [
      {
        "astId": 70,
        "contract": "contracts/ClearingHouse.sol:ClearingHouse",
        "label": "_roles",
        "offset": 0,
        "slot": "0",
        "type": "t_mapping(t_bytes32,t_struct(RoleData)65_storage)"
      },
      {
        "astId": 737,
        "contract": "contracts/ClearingHouse.sol:ClearingHouse",
        "label": "_paused",
        "offset": 0,
        "slot": "1",
        "type": "t_bool"
      },
      {
        "astId": 838,
        "contract": "contracts/ClearingHouse.sol:ClearingHouse",
        "label": "_status",
        "offset": 0,
        "slot": "2",
        "type": "t_uint256"
      },
      {
        "astId": 5859,
        "contract": "contracts/ClearingHouse.sol:ClearingHouse",
        "label": "minMargin",
        "offset": 0,
        "slot": "3",
        "type": "t_int256"
      },
      {
        "astId": 5863,
        "contract": "contracts/ClearingHouse.sol:ClearingHouse",
        "label": "minMarginAtCreation",
        "offset": 0,
        "slot": "4",
        "type": "t_int256"
      },
      {
        "astId": 5867,
        "contract": "contracts/ClearingHouse.sol:ClearingHouse",
        "label": "minPositiveOpenNotional",
        "offset": 0,
        "slot": "5",
        "type": "t_uint256"
      },
      {
        "astId": 5871,
        "contract": "contracts/ClearingHouse.sol:ClearingHouse",
        "label": "liquidationReward",
        "offset": 0,
        "slot": "6",
        "type": "t_uint256"
      },
      {
        "astId": 5875,
        "contract": "contracts/ClearingHouse.sol:ClearingHouse",
        "label": "insuranceRatio",
        "offset": 0,
        "slot": "7",
        "type": "t_uint256"
      },
      {
        "astId": 5879,
        "contract": "contracts/ClearingHouse.sol:ClearingHouse",
        "label": "liquidationRewardInsuranceShare",
        "offset": 0,
        "slot": "8",
        "type": "t_uint256"
      },
      {
        "astId": 5883,
        "contract": "contracts/ClearingHouse.sol:ClearingHouse",
        "label": "liquidationDiscount",
        "offset": 0,
        "slot": "9",
        "type": "t_uint256"
      },
      {
        "astId": 5887,
        "contract": "contracts/ClearingHouse.sol:ClearingHouse",
        "label": "nonUACollSeizureDiscount",
        "offset": 0,
        "slot": "10",
        "type": "t_int256"
      },
      {
        "astId": 5891,
        "contract": "contracts/ClearingHouse.sol:ClearingHouse",
        "label": "uaDebtSeizureThreshold",
        "offset": 0,
        "slot": "11",
        "type": "t_int256"
      },
      {
        "astId": 5896,
        "contract": "contracts/ClearingHouse.sol:ClearingHouse",
        "label": "vault",
        "offset": 0,
        "slot": "12",
        "type": "t_contract(IVault)16471"
      },
      {
        "astId": 5901,
        "contract": "contracts/ClearingHouse.sol:ClearingHouse",
        "label": "insurance",
        "offset": 0,
        "slot": "13",
        "type": "t_contract(IInsurance)15360"
      },
      {
        "astId": 5906,
        "contract": "contracts/ClearingHouse.sol:ClearingHouse",
        "label": "stakingContract",
        "offset": 0,
        "slot": "14",
        "type": "t_contract(IStakingContract)15992"
      },
      {
        "astId": 5912,
        "contract": "contracts/ClearingHouse.sol:ClearingHouse",
        "label": "perpetuals",
        "offset": 0,
        "slot": "15",
        "type": "t_array(t_contract(IPerpetual)15982)dyn_storage"
      }
    ],
    "types": {
      "t_address": {
        "encoding": "inplace",
        "label": "address",
        "numberOfBytes": "20"
      },
      "t_array(t_contract(IPerpetual)15982)dyn_storage": {
        "base": "t_contract(IPerpetual)15982",
        "encoding": "dynamic_array",
        "label": "contract IPerpetual[]",
        "numberOfBytes": "32"
      },
      "t_bool": {
        "encoding": "inplace",
        "label": "bool",
        "numberOfBytes": "1"
      },
      "t_bytes32": {
        "encoding": "inplace",
        "label": "bytes32",
        "numberOfBytes": "32"
      },
      "t_contract(IInsurance)15360": {
        "encoding": "inplace",
        "label": "contract IInsurance",
        "numberOfBytes": "20"
      },
      "t_contract(IPerpetual)15982": {
        "encoding": "inplace",
        "label": "contract IPerpetual",
        "numberOfBytes": "20"
      },
      "t_contract(IStakingContract)15992": {
        "encoding": "inplace",
        "label": "contract IStakingContract",
        "numberOfBytes": "20"
      },
      "t_contract(IVault)16471": {
        "encoding": "inplace",
        "label": "contract IVault",
        "numberOfBytes": "20"
      },
      "t_int256": {
        "encoding": "inplace",
        "label": "int256",
        "numberOfBytes": "32"
      },
      "t_mapping(t_address,t_bool)": {
        "encoding": "mapping",
        "key": "t_address",
        "label": "mapping(address => bool)",
        "numberOfBytes": "32",
        "value": "t_bool"
      },
      "t_mapping(t_bytes32,t_struct(RoleData)65_storage)": {
        "encoding": "mapping",
        "key": "t_bytes32",
        "label": "mapping(bytes32 => struct AccessControl.RoleData)",
        "numberOfBytes": "32",
        "value": "t_struct(RoleData)65_storage"
      },
      "t_struct(RoleData)65_storage": {
        "encoding": "inplace",
        "label": "struct AccessControl.RoleData",
        "members": [
          {
            "astId": 62,
            "contract": "contracts/ClearingHouse.sol:ClearingHouse",
            "label": "members",
            "offset": 0,
            "slot": "0",
            "type": "t_mapping(t_address,t_bool)"
          },
          {
            "astId": 64,
            "contract": "contracts/ClearingHouse.sol:ClearingHouse",
            "label": "adminRole",
            "offset": 0,
            "slot": "1",
            "type": "t_bytes32"
          }
        ],
        "numberOfBytes": "64"
      },
      "t_uint256": {
        "encoding": "inplace",
        "label": "uint256",
        "numberOfBytes": "32"
      }
    }
  }
}