{
  "address": "0xD903Ea6dB4dAFc05f7D450Ee507c8ed96f5706C7",
  "abi": [
    {
      "inputs": [
        {
          "internalType": "contract IERC20Metadata",
          "name": "_token",
          "type": "address"
        },
        {
          "internalType": "contract IVault",
          "name": "_vault",
          "type": "address"
        }
      ],
      "stateMutability": "nonpayable",
      "type": "constructor"
    },
    {
      "inputs": [],
      "name": "Insurance_ClearingHouseZeroAddress",
      "type": "error"
    },
    {
      "inputs": [],
      "name": "Insurance_InsufficientBalance",
      "type": "error"
    },
    {
      "inputs": [],
      "name": "Insurance_InsufficientInsurance",
      "type": "error"
    },
    {
      "inputs": [],
      "name": "Insurance_SenderNotClearingHouse",
      "type": "error"
    },
    {
      "inputs": [],
      "name": "Insurance_SenderNotVault",
      "type": "error"
    },
    {
      "inputs": [
        {
          "internalType": "uint8",
          "name": "paramIndex",
          "type": "uint8"
        }
      ],
      "name": "Insurance_ZeroAddressConstructor",
      "type": "error"
    },
    {
      "inputs": [],
      "name": "PRBMathSD59x18__MulInputTooSmall",
      "type": "error"
    },
    {
      "inputs": [
        {
          "internalType": "uint256",
          "name": "rAbs",
          "type": "uint256"
        }
      ],
      "name": "PRBMathSD59x18__MulOverflow",
      "type": "error"
    },
    {
      "inputs": [
        {
          "internalType": "uint256",
          "name": "prod1",
          "type": "uint256"
        }
      ],
      "name": "PRBMath__MulDivFixedPointOverflow",
      "type": "error"
    },
    {
      "anonymous": false,
      "inputs": [
        {
          "indexed": false,
          "internalType": "contract IClearingHouse",
          "name": "newClearingHouse",
          "type": "address"
        }
      ],
      "name": "ClearingHouseChanged",
      "type": "event"
    },
    {
      "anonymous": false,
      "inputs": [
        {
          "indexed": false,
          "internalType": "uint256",
          "name": "amount",
          "type": "uint256"
        }
      ],
      "name": "InsuranceRemoved",
      "type": "event"
    },
    {
      "anonymous": false,
      "inputs": [
        {
          "indexed": true,
          "internalType": "bytes32",
          "name": "role",
          "type": "bytes32"
        },
        {
          "indexed": true,
          "internalType": "bytes32",
          "name": "previousAdminRole",
          "type": "bytes32"
        },
        {
          "indexed": true,
          "internalType": "bytes32",
          "name": "newAdminRole",
          "type": "bytes32"
        }
      ],
      "name": "RoleAdminChanged",
      "type": "event"
    },
    {
      "anonymous": false,
      "inputs": [
        {
          "indexed": true,
          "internalType": "bytes32",
          "name": "role",
          "type": "bytes32"
        },
        {
          "indexed": true,
          "internalType": "address",
          "name": "account",
          "type": "address"
        },
        {
          "indexed": true,
          "internalType": "address",
          "name": "sender",
          "type": "address"
        }
      ],
      "name": "RoleGranted",
      "type": "event"
    },
    {
      "anonymous": false,
      "inputs": [
        {
          "indexed": true,
          "internalType": "bytes32",
          "name": "role",
          "type": "bytes32"
        },
        {
          "indexed": true,
          "internalType": "address",
          "name": "account",
          "type": "address"
        },
        {
          "indexed": true,
          "internalType": "address",
          "name": "sender",
          "type": "address"
        }
      ],
      "name": "RoleRevoked",
      "type": "event"
    },
    {
      "anonymous": false,
      "inputs": [
        {
          "indexed": false,
          "internalType": "uint256",
          "name": "newSystemDebt",
          "type": "uint256"
        }
      ],
      "name": "SystemDebtChanged",
      "type": "event"
    },
    {
      "inputs": [],
      "name": "DEFAULT_ADMIN_ROLE",
      "outputs": [
        {
          "internalType": "bytes32",
          "name": "",
          "type": "bytes32"
        }
      ],
      "stateMutability": "view",
      "type": "function"
    },
    {
      "inputs": [],
      "name": "GOVERNANCE",
      "outputs": [
        {
          "internalType": "bytes32",
          "name": "",
          "type": "bytes32"
        }
      ],
      "stateMutability": "view",
      "type": "function"
    },
    {
      "inputs": [],
      "name": "MANAGER",
      "outputs": [
        {
          "internalType": "bytes32",
          "name": "",
          "type": "bytes32"
        }
      ],
      "stateMutability": "view",
      "type": "function"
    },
    {
      "inputs": [],
      "name": "clearingHouse",
      "outputs": [
        {
          "internalType": "contract IClearingHouse",
          "name": "",
          "type": "address"
        }
      ],
      "stateMutability": "view",
      "type": "function"
    },
    {
      "inputs": [
        {
          "internalType": "uint256",
          "name": "amount",
          "type": "uint256"
        }
      ],
      "name": "fundInsurance",
      "outputs": [],
      "stateMutability": "nonpayable",
      "type": "function"
    },
    {
      "inputs": [
        {
          "internalType": "bytes32",
          "name": "role",
          "type": "bytes32"
        }
      ],
      "name": "getRoleAdmin",
      "outputs": [
        {
          "internalType": "bytes32",
          "name": "",
          "type": "bytes32"
        }
      ],
      "stateMutability": "view",
      "type": "function"
    },
    {
      "inputs": [
        {
          "internalType": "bytes32",
          "name": "role",
          "type": "bytes32"
        },
        {
          "internalType": "address",
          "name": "account",
          "type": "address"
        }
      ],
      "name": "grantRole",
      "outputs": [],
      "stateMutability": "nonpayable",
      "type": "function"
    },
    {
      "inputs": [
        {
          "internalType": "bytes32",
          "name": "role",
          "type": "bytes32"
        },
        {
          "internalType": "address",
          "name": "account",
          "type": "address"
        }
      ],
      "name": "hasRole",
      "outputs": [
        {
          "internalType": "bool",
          "name": "",
          "type": "bool"
        }
      ],
      "stateMutability": "view",
      "type": "function"
    },
    {
      "inputs": [
        {
          "internalType": "address",
          "name": "account",
          "type": "address"
        }
      ],
      "name": "isGovernor",
      "outputs": [
        {
          "internalType": "bool",
          "name": "",
          "type": "bool"
        }
      ],
      "stateMutability": "view",
      "type": "function"
    },
    {
      "inputs": [
        {
          "internalType": "address",
          "name": "account",
          "type": "address"
        }
      ],
      "name": "isManager",
      "outputs": [
        {
          "internalType": "bool",
          "name": "",
          "type": "bool"
        }
      ],
      "stateMutability": "view",
      "type": "function"
    },
    {
      "inputs": [
        {
          "internalType": "uint256",
          "name": "amount",
          "type": "uint256"
        }
      ],
      "name": "removeInsurance",
      "outputs": [],
      "stateMutability": "nonpayable",
      "type": "function"
    },
    {
      "inputs": [
        {
          "internalType": "bytes32",
          "name": "role",
          "type": "bytes32"
        },
        {
          "internalType": "address",
          "name": "account",
          "type": "address"
        }
      ],
      "name": "renounceRole",
      "outputs": [],
      "stateMutability": "nonpayable",
      "type": "function"
    },
    {
      "inputs": [
        {
          "internalType": "bytes32",
          "name": "role",
          "type": "bytes32"
        },
        {
          "internalType": "address",
          "name": "account",
          "type": "address"
        }
      ],
      "name": "revokeRole",
      "outputs": [],
      "stateMutability": "nonpayable",
      "type": "function"
    },
    {
      "inputs": [
        {
          "internalType": "contract IClearingHouse",
          "name": "newClearingHouse",
          "type": "address"
        }
      ],
      "name": "setClearingHouse",
      "outputs": [],
      "stateMutability": "nonpayable",
      "type": "function"
    },
    {
      "inputs": [
        {
          "internalType": "uint256",
          "name": "amount",
          "type": "uint256"
        }
      ],
      "name": "settleDebt",
      "outputs": [],
      "stateMutability": "nonpayable",
      "type": "function"
    },
    {
      "inputs": [
        {
          "internalType": "bytes4",
          "name": "interfaceId",
          "type": "bytes4"
        }
      ],
      "name": "supportsInterface",
      "outputs": [
        {
          "internalType": "bool",
          "name": "",
          "type": "bool"
        }
      ],
      "stateMutability": "view",
      "type": "function"
    },
    {
      "inputs": [],
      "name": "systemBadDebt",
      "outputs": [
        {
          "internalType": "uint256",
          "name": "",
          "type": "uint256"
        }
      ],
      "stateMutability": "view",
      "type": "function"
    },
    {
      "inputs": [],
      "name": "token",
      "outputs": [
        {
          "internalType": "contract IERC20Metadata",
          "name": "",
          "type": "address"
        }
      ],
      "stateMutability": "view",
      "type": "function"
    },
    {
      "inputs": [],
      "name": "vault",
      "outputs": [
        {
          "internalType": "contract IVault",
          "name": "",
          "type": "address"
        }
      ],
      "stateMutability": "view",
      "type": "function"
    }
  ],
  "transactionHash": "0x94191b0aa120f40bce489fb29ffc2bd6ed38157e08c66c377a8ce875bde7d8b6",
  "args": [
    "0x865C437d081133cbAa6495aDD1Bc7586022681A5",
    "0x2DB303E9614b498a8823D1E2F38f50692b4c69A6"
  ],
  "numDeployments": 1,
  "solcInputHash": "e1cef607481b161ae69d7ea60025156b",
  "bytecode": "0x60806040523480156200001157600080fd5b50604051620017373803806200173783398101604081905262000034916200023c565b6200004f600080516020620017178339815191523362000141565b6200006a600080516020620017178339815191528062000151565b62000085600080516020620016f78339815191523362000141565b620000af600080516020620016f78339815191526000805160206200171783398151915262000151565b600180556001600160a01b038216620000e3576040516343da8c9b60e01b8152600060048201526024015b60405180910390fd5b6001600160a01b0381166200010f576040516343da8c9b60e01b815260016004820152602401620000da565b600280546001600160a01b039384166001600160a01b0319918216179091556003805492909316911617905562000293565b6200014d82826200019c565b5050565b600082815260208190526040808220600101805490849055905190918391839186917fbd79b86ffe0ab8e8776151514217cd7cacd52c909f66475c3af44e129f0b00ff9190a4505050565b6000828152602081815260408083206001600160a01b038516845290915290205460ff166200014d576000828152602081815260408083206001600160a01b03851684529091529020805460ff19166001179055620001f83390565b6001600160a01b0316816001600160a01b0316837f2f8788117e7eff1d82e926ec794901d17c78024a50270940304540a733656f0d60405160405180910390a45050565b600080604083850312156200024f578182fd5b82516200025c816200027a565b60208401519092506200026f816200027a565b809150509250929050565b6001600160a01b03811681146200029057600080fd5b50565b61145480620002a36000396000f3fe608060405234801561001057600080fd5b50600436106101215760003560e01c806352ac183b116100ad578063d547741f11610071578063d547741f1461027e578063e43581b814610291578063f3ae2415146102a4578063fbfa77cf146102b7578063fc0c546a146102ca57600080fd5b806352ac183b1461023457806373bc6c9f1461024757806391d1485414610250578063a217fddf14610263578063a2d97b741461026b57600080fd5b8063248a9ca3116100f4578063248a9ca3146101c357806327a0bb33146101e65780632f2ff15d146101fb57806336568abe1461020e578063449323d81461022157600080fd5b806301ffc9a7146101265780630af968001461014e57806314627834146101795780631b2df8501461019c575b600080fd5b61013961013436600461123e565b6102dd565b60405190151581526020015b60405180910390f35b600454610161906001600160a01b031681565b6040516001600160a01b039091168152602001610145565b61018e6000805160206113ff83398151915281565b604051908152602001610145565b61018e7faf290d8680820aad922855f39b306097b20e28774d6c1ad35a20325630c3a02c81565b61018e6101d13660046111f7565b60009081526020819052604090206001015490565b6101f96101f43660046111f7565b610314565b005b6101f961020936600461120f565b610449565b6101f961021c36600461120f565b61046e565b6101f961022f3660046111bb565b6104f1565b6101f96102423660046111f7565b610585565b61018e60055481565b61013961025e36600461120f565b6105bc565b61018e600081565b6101f96102793660046111f7565b6105e5565b6101f961028c36600461120f565b61080f565b61013961029f3660046111bb565b610834565b6101396102b23660046111bb565b61084e565b600354610161906001600160a01b031681565b600254610161906001600160a01b031681565b60006001600160e01b03198216637965db0b60e01b148061030e57506301ffc9a760e01b6001600160e01b03198316145b92915050565b6003546001600160a01b0316331461033f576040516395d87ba960e01b815260040160405180910390fd5b6002546040516370a0823160e01b81523060048201526000916001600160a01b0316906370a082319060240160206040518083038186803b15801561038357600080fd5b505afa158015610397573d6000803e3d6000fd5b505050506040513d601f19601f820116820180604052508101906103bb9190611266565b90506000818311156104245750806103d38184611379565b600560008282546103e49190611342565b90915550506005546040519081527f54b47acc73b0f2121474f0c9237b0f5a57882108724b01b9868b3045ce63403e9060200160405180910390a1610427565b50815b600354600254610444916001600160a01b0391821691168361087a565b505050565b600082815260208190526040902060010154610464816108cc565b61044483836108d6565b6001600160a01b03811633146104e35760405162461bcd60e51b815260206004820152602f60248201527f416363657373436f6e74726f6c3a2063616e206f6e6c792072656e6f756e636560448201526e103937b632b9903337b91039b2b63360891b60648201526084015b60405180910390fd5b6104ed828261095a565b5050565b6000805160206113ff833981519152610509816108cc565b6001600160a01b0382166105305760405163013ada8560e51b815260040160405180910390fd5b600480546001600160a01b0319166001600160a01b0384169081179091556040519081527fd0654f5900f9e7e4e605a19334306e6a2786bbf960ac0484a4c12feb6428fe2f9060200160405180910390a15050565b6004546001600160a01b031633146105b0576040516363ea749b60e01b815260040160405180910390fd5b6105b9816109bf565b50565b6000918252602082815260408084206001600160a01b0393909316845291905290205460ff1690565b6000805160206113ff8339815191526105fd816108cc565b6003546040805163593012d560e11b815290516000926001600160a01b03169163b26025aa916004808301926020929190829003018186803b15801561064257600080fd5b505afa158015610656573d6000803e3d6000fd5b505050506040513d601f19601f8201168201806040525081019061067a9190611266565b6002546040516370a0823160e01b81523060048201529192506000916001600160a01b03909116906370a082319060240160206040518083038186803b1580156106c357600080fd5b505afa1580156106d7573d6000803e3d6000fd5b505050506040513d601f19601f820116820180604052508101906106fb9190611266565b905083811115806107a157506004805460408051637d5d953560e01b815290516107929361078b936001600160a01b031692637d5d95359281830192602092829003018186803b15801561074e57600080fd5b505afa158015610762573d6000803e3d6000fd5b505050506040513d601f19601f820116820180604052508101906107869190611266565b610b0f565b8390610b1a565b61079f6107868684611379565b125b156107bf576040516355a299a960e11b815260040160405180910390fd5b6040518481527f72bf0414a0ef58085c552e0481124322b66511733d37fa0482fd454ec21873d49060200160405180910390a1600254610809906001600160a01b0316338661087a565b50505050565b60008281526020819052604090206001015461082a816108cc565b610444838361095a565b600061030e6000805160206113ff833981519152836105bc565b600061030e7faf290d8680820aad922855f39b306097b20e28774d6c1ad35a20325630c3a02c836105bc565b604080516001600160a01b038416602482015260448082018490528251808303909101815260649091019091526020810180516001600160e01b031663a9059cbb60e01b179052610444908490610b2d565b6105b98133610bff565b6108e082826105bc565b6104ed576000828152602081815260408083206001600160a01b03851684529091529020805460ff191660011790556109163390565b6001600160a01b0316816001600160a01b0316837f2f8788117e7eff1d82e926ec794901d17c78024a50270940304540a733656f0d60405160405180910390a45050565b61096482826105bc565b156104ed576000828152602081815260408083206001600160a01b0385168085529252808320805460ff1916905551339285917ff6391f5c32d9c69d2a47ea670b442974b53935d1edc7fd64eb21e047a839171b9190a45050565b60055415610aa857600554811115610a52576000600554826109e19190611379565b60035460405163bbffd71960e01b8152306004820152602481018390529192506001600160a01b03169063bbffd71990604401600060405180830381600087803b158015610a2e57600080fd5b505af1158015610a42573d6000803e3d6000fd5b5050600060055550610a6a915050565b8060056000828254610a649190611379565b90915550505b7f54b47acc73b0f2121474f0c9237b0f5a57882108724b01b9868b3045ce63403e600554604051610a9d91815260200190565b60405180910390a150565b60035460405163bbffd71960e01b8152306004820152602481018390526001600160a01b039091169063bbffd71990604401600060405180830381600087803b158015610af457600080fd5b505af1158015610b08573d6000803e3d6000fd5b5050505050565b600061030e82610c63565b6000610b268383610cd1565b9392505050565b6000610b82826040518060400160405280602081526020017f5361666545524332303a206c6f772d6c6576656c2063616c6c206661696c6564815250856001600160a01b0316610d969092919063ffffffff16565b8051909150156104445780806020019051810190610ba091906111d7565b6104445760405162461bcd60e51b815260206004820152602a60248201527f5361666545524332303a204552433230206f7065726174696f6e20646964206e6044820152691bdd081cdd58d8d9595960b21b60648201526084016104da565b610c0982826105bc565b6104ed57610c21816001600160a01b03166014610dad565b610c2c836020610dad565b604051602001610c3d92919061129a565b60408051601f198184030181529082905262461bcd60e51b82526104da9160040161130f565b60006001600160ff1b03821115610ccd5760405162461bcd60e51b815260206004820152602860248201527f53616665436173743a2076616c756520646f65736e27742066697420696e2061604482015267371034b73a191a9b60c11b60648201526084016104da565b5090565b6000600160ff1b831480610ce85750600160ff1b82145b15610d0657604051630d01a11b60e21b815260040160405180910390fd5b60008060008512610d175784610d1c565b846000035b915060008412610d2c5783610d31565b836000035b90506000610d3f8383610f8f565b90506001600160ff1b03811115610d6c5760405163bf79e8d960e01b8152600481018290526024016104da565b600019808713908613808218600114610d855782610d8a565b826000035b98975050505050505050565b6060610da58484600085611051565b949350505050565b60606000610dbc83600261135a565b610dc7906002611342565b67ffffffffffffffff811115610ded57634e487b7160e01b600052604160045260246000fd5b6040519080825280601f01601f191660200182016040528015610e17576020820181803683370190505b509050600360fc1b81600081518110610e4057634e487b7160e01b600052603260045260246000fd5b60200101906001600160f81b031916908160001a905350600f60fb1b81600181518110610e7d57634e487b7160e01b600052603260045260246000fd5b60200101906001600160f81b031916908160001a9053506000610ea184600261135a565b610eac906001611342565b90505b6001811115610f40576f181899199a1a9b1b9c1cb0b131b232b360811b85600f1660108110610eee57634e487b7160e01b600052603260045260246000fd5b1a60f81b828281518110610f1257634e487b7160e01b600052603260045260246000fd5b60200101906001600160f81b031916908160001a90535060049490941c93610f39816113bc565b9050610eaf565b508315610b265760405162461bcd60e51b815260206004820181905260248201527f537472696e67733a20686578206c656e67746820696e73756666696369656e7460448201526064016104da565b60008080600019848609848602925082811083820303915050670de0b6b3a76400008110610fd35760405163698d9a0160e11b8152600481018290526024016104da565b600080670de0b6b3a76400008688099150506706f05b59d3b1ffff81118261100d5780670de0b6b3a764000085040194505050505061030e565b620400008285030493909111909103600160ee1b02919091177faccb18165bd6fe31ae1cf318dc5b51eee0e1ba569b88cd74c1773b91fac106690201905092915050565b6060824710156110b25760405162461bcd60e51b815260206004820152602660248201527f416464726573733a20696e73756666696369656e742062616c616e636520666f6044820152651c8818d85b1b60d21b60648201526084016104da565b6001600160a01b0385163b6111095760405162461bcd60e51b815260206004820152601d60248201527f416464726573733a2063616c6c20746f206e6f6e2d636f6e747261637400000060448201526064016104da565b600080866001600160a01b03168587604051611125919061127e565b60006040518083038185875af1925050503d8060008114611162576040519150601f19603f3d011682016040523d82523d6000602084013e611167565b606091505b5091509150611177828286611182565b979650505050505050565b60608315611191575081610b26565b8251156111a15782518084602001fd5b8160405162461bcd60e51b81526004016104da919061130f565b6000602082840312156111cc578081fd5b8135610b26816113e9565b6000602082840312156111e8578081fd5b81518015158114610b26578182fd5b600060208284031215611208578081fd5b5035919050565b60008060408385031215611221578081fd5b823591506020830135611233816113e9565b809150509250929050565b60006020828403121561124f578081fd5b81356001600160e01b031981168114610b26578182fd5b600060208284031215611277578081fd5b5051919050565b60008251611290818460208701611390565b9190910192915050565b7f416363657373436f6e74726f6c3a206163636f756e74200000000000000000008152600083516112d2816017850160208801611390565b7001034b99036b4b9b9b4b733903937b6329607d1b6017918401918201528351611303816028840160208801611390565b01602801949350505050565b602081526000825180602084015261132e816040850160208701611390565b601f01601f19169190910160400192915050565b60008219821115611355576113556113d3565b500190565b6000816000190483118215151615611374576113746113d3565b500290565b60008282101561138b5761138b6113d3565b500390565b60005b838110156113ab578181015183820152602001611393565b838111156108095750506000910152565b6000816113cb576113cb6113d3565b506000190190565b634e487b7160e01b600052601160045260246000fd5b6001600160a01b03811681146105b957600080fdfe35a7846a2a701fff6f9d61a46ebff5da578c5dcee8bdf361c569f9ea4ee64771a264697066735822122016d730b13d7e911e68e1d66281a6f7ff2d327b9343c1a8f73b5fbca15cbd2c1f64736f6c63430008040033af290d8680820aad922855f39b306097b20e28774d6c1ad35a20325630c3a02c35a7846a2a701fff6f9d61a46ebff5da578c5dcee8bdf361c569f9ea4ee64771",
  "devdoc": {
    "kind": "dev",
    "methods": {
      "fundInsurance(uint256)": {
        "details": "Bad debt impacts the solvency of the Vault, as such we solve this issue by recapitalizing      the Vault or rather not take UA from it.",
        "params": {
          "amount": "Amount of UA tokens to be transfered"
        }
      },
      "getRoleAdmin(bytes32)": {
        "details": "Returns the admin role that controls `role`. See {grantRole} and {revokeRole}. To change a role's admin, use {_setRoleAdmin}."
      },
      "grantRole(bytes32,address)": {
        "details": "Grants `role` to `account`. If `account` had not been already granted `role`, emits a {RoleGranted} event. Requirements: - the caller must have ``role``'s admin role. May emit a {RoleGranted} event."
      },
      "hasRole(bytes32,address)": {
        "details": "Returns `true` if `account` has been granted `role`."
      },
      "removeInsurance(uint256)": {
        "details": "Only be called by the owner of the contract"
      },
      "renounceRole(bytes32,address)": {
        "details": "Revokes `role` from the calling account. Roles are often managed via {grantRole} and {revokeRole}: this function's purpose is to provide a mechanism for accounts to lose their privileges if they are compromised (such as when a trusted device is misplaced). If the calling account had been revoked `role`, emits a {RoleRevoked} event. Requirements: - the caller must be `account`. May emit a {RoleRevoked} event."
      },
      "revokeRole(bytes32,address)": {
        "details": "Revokes `role` from `account`. If `account` had been granted `role`, emits a {RoleRevoked} event. Requirements: - the caller must have ``role``'s admin role. May emit a {RoleRevoked} event."
      },
      "settleDebt(uint256)": {
        "params": {
          "amount": "Amount of tokens withdrawn for settlement"
        }
      },
      "supportsInterface(bytes4)": {
        "details": "See {IERC165-supportsInterface}."
      }
    },
    "version": 1
  },
  "userdoc": {
    "errors": {
      "Insurance_ClearingHouseZeroAddress()": [
        {
          "notice": "Emitted when the proposed clearingHouse address is equal to the zero address"
        }
      ],
      "Insurance_InsufficientBalance()": [
        {
          "notice": "Emitted when the balance of the vault is less than the amount to be settled"
        }
      ],
      "Insurance_InsufficientInsurance()": [
        {
          "notice": "Emitted when locked insurance falls below insurance ratio"
        }
      ],
      "Insurance_SenderNotClearingHouse()": [
        {
          "notice": "Emitted when the sender is not the clearingHouse address"
        }
      ],
      "Insurance_SenderNotVault()": [
        {
          "notice": "Emitted when the sender is not the vault address"
        }
      ],
      "Insurance_ZeroAddressConstructor(uint8)": [
        {
          "notice": "Emitted when the zero address is provided as a parameter in the constructor"
        }
      ],
      "PRBMathSD59x18__MulInputTooSmall()": [
        {
          "notice": "Emitted when one of the inputs is MIN_SD59x18."
        }
      ],
      "PRBMathSD59x18__MulOverflow(uint256)": [
        {
          "notice": "Emitted when the intermediary absolute result overflows SD59x18."
        }
      ],
      "PRBMath__MulDivFixedPointOverflow(uint256)": [
        {
          "notice": "Emitted when the result overflows uint256."
        }
      ]
    },
    "events": {
      "ClearingHouseChanged(address)": {
        "notice": "Emitted when a new ClearingHouse is connected to the issuer"
      },
      "InsuranceRemoved(uint256)": {
        "notice": "Emitted when (exceeding) insurance reserves are withdrawn by governance"
      },
      "SystemDebtChanged(uint256)": {
        "notice": "Emitted when a bail out cant be fully served"
      }
    },
    "kind": "user",
    "methods": {
      "clearingHouse()": {
        "notice": "ClearingHouse contract"
      },
      "fundInsurance(uint256)": {
        "notice": "Fund insurance"
      },
      "removeInsurance(uint256)": {
        "notice": "Withdraw remaining balance of the contract"
      },
      "settleDebt(uint256)": {
        "notice": "Settle bad debt generated by the vault"
      },
      "systemBadDebt()": {
        "notice": "Debt which could not be settled by insurance"
      },
      "token()": {
        "notice": "Insurance token"
      },
      "vault()": {
        "notice": "Vault contract"
      }
    },
    "notice": "Pays out Vault in case of default",
    "version": 1
  },
  "storageLayout": {
    "storage": [
      {
        "astId": 70,
        "contract": "contracts/Insurance.sol:Insurance",
        "label": "_roles",
        "offset": 0,
        "slot": "0",
        "type": "t_mapping(t_bytes32,t_struct(RoleData)65_storage)"
      },
      {
        "astId": 838,
        "contract": "contracts/Insurance.sol:Insurance",
        "label": "_status",
        "offset": 0,
        "slot": "1",
        "type": "t_uint256"
      },
      {
        "astId": 8841,
        "contract": "contracts/Insurance.sol:Insurance",
        "label": "token",
        "offset": 0,
        "slot": "2",
        "type": "t_contract(IERC20Metadata)2130"
      },
      {
        "astId": 8845,
        "contract": "contracts/Insurance.sol:Insurance",
        "label": "vault",
        "offset": 0,
        "slot": "3",
        "type": "t_contract(IVault)16471"
      },
      {
        "astId": 8849,
        "contract": "contracts/Insurance.sol:Insurance",
        "label": "clearingHouse",
        "offset": 0,
        "slot": "4",
        "type": "t_contract(IClearingHouse)14906"
      },
      {
        "astId": 8852,
        "contract": "contracts/Insurance.sol:Insurance",
        "label": "systemBadDebt",
        "offset": 0,
        "slot": "5",
        "type": "t_uint256"
      }
    ],
    "types": {
      "t_address": {
        "encoding": "inplace",
        "label": "address",
        "numberOfBytes": "20"
      },
      "t_bool": {
        "encoding": "inplace",
        "label": "bool",
        "numberOfBytes": "1"
      },
      "t_bytes32": {
        "encoding": "inplace",
        "label": "bytes32",
        "numberOfBytes": "32"
      },
      "t_contract(IClearingHouse)14906": {
        "encoding": "inplace",
        "label": "contract IClearingHouse",
        "numberOfBytes": "20"
      },
      "t_contract(IERC20Metadata)2130": {
        "encoding": "inplace",
        "label": "contract IERC20Metadata",
        "numberOfBytes": "20"
      },
      "t_contract(IVault)16471": {
        "encoding": "inplace",
        "label": "contract IVault",
        "numberOfBytes": "20"
      },
      "t_mapping(t_address,t_bool)": {
        "encoding": "mapping",
        "key": "t_address",
        "label": "mapping(address => bool)",
        "numberOfBytes": "32",
        "value": "t_bool"
      },
      "t_mapping(t_bytes32,t_struct(RoleData)65_storage)": {
        "encoding": "mapping",
        "key": "t_bytes32",
        "label": "mapping(bytes32 => struct AccessControl.RoleData)",
        "numberOfBytes": "32",
        "value": "t_struct(RoleData)65_storage"
      },
      "t_struct(RoleData)65_storage": {
        "encoding": "inplace",
        "label": "struct AccessControl.RoleData",
        "members": [
          {
            "astId": 62,
            "contract": "contracts/Insurance.sol:Insurance",
            "label": "members",
            "offset": 0,
            "slot": "0",
            "type": "t_mapping(t_address,t_bool)"
          },
          {
            "astId": 64,
            "contract": "contracts/Insurance.sol:Insurance",
            "label": "adminRole",
            "offset": 0,
            "slot": "1",
            "type": "t_bytes32"
          }
        ],
        "numberOfBytes": "64"
      },
      "t_uint256": {
        "encoding": "inplace",
        "label": "uint256",
        "numberOfBytes": "32"
      }
    }
  }
}