{
  "address": "0xCb003eACdEc8be57b4Ad00742f2A7401DD84F544",
  "abi": [
    {
      "inputs": [
        {
          "internalType": "contract IVBase",
          "name": "_vBase",
          "type": "address"
        },
        {
          "internalType": "contract IVQuote",
          "name": "_vQuote",
          "type": "address"
        },
        {
          "internalType": "contract ICryptoSwap",
          "name": "_market",
          "type": "address"
        },
        {
          "internalType": "contract IClearingHouse",
          "name": "_clearingHouse",
          "type": "address"
        },
        {
          "components": [
            {
              "internalType": "uint256",
              "name": "riskWeight",
              "type": "uint256"
            },
            {
              "internalType": "uint256",
              "name": "maxLiquidityProvided",
              "type": "uint256"
            },
            {
              "internalType": "uint256",
              "name": "twapFrequency",
              "type": "uint256"
            },
            {
              "internalType": "int256",
              "name": "sensitivity",
              "type": "int256"
            },
            {
              "internalType": "uint256",
              "name": "maxBlockTradeAmount",
              "type": "uint256"
            },
            {
              "internalType": "int256",
              "name": "insuranceFee",
              "type": "int256"
            },
            {
              "internalType": "int256",
              "name": "tradingFee",
              "type": "int256"
            },
            {
              "internalType": "int256",
              "name": "lpDebtCoef",
              "type": "int256"
            },
            {
              "internalType": "uint256",
              "name": "lockPeriod",
              "type": "uint256"
            }
          ],
          "internalType": "struct IPerpetual.PerpetualParams",
          "name": "_params",
          "type": "tuple"
        }
      ],
      "stateMutability": "nonpayable",
      "type": "constructor"
    },
    {
      "inputs": [],
      "name": "PRBMathSD59x18__AbsInputTooSmall",
      "type": "error"
    },
    {
      "inputs": [],
      "name": "PRBMathSD59x18__DivInputTooSmall",
      "type": "error"
    },
    {
      "inputs": [
        {
          "internalType": "uint256",
          "name": "rAbs",
          "type": "uint256"
        }
      ],
      "name": "PRBMathSD59x18__DivOverflow",
      "type": "error"
    },
    {
      "inputs": [],
      "name": "PRBMathSD59x18__MulInputTooSmall",
      "type": "error"
    },
    {
      "inputs": [
        {
          "internalType": "uint256",
          "name": "rAbs",
          "type": "uint256"
        }
      ],
      "name": "PRBMathSD59x18__MulOverflow",
      "type": "error"
    },
    {
      "inputs": [
        {
          "internalType": "uint256",
          "name": "prod1",
          "type": "uint256"
        }
      ],
      "name": "PRBMath__MulDivFixedPointOverflow",
      "type": "error"
    },
    {
      "inputs": [
        {
          "internalType": "uint256",
          "name": "prod1",
          "type": "uint256"
        },
        {
          "internalType": "uint256",
          "name": "denominator",
          "type": "uint256"
        }
      ],
      "name": "PRBMath__MulDivOverflow",
      "type": "error"
    },
    {
      "inputs": [],
      "name": "Perpetual_AttemptReducePosition",
      "type": "error"
    },
    {
      "inputs": [],
      "name": "Perpetual_AttemptReversePosition",
      "type": "error"
    },
    {
      "inputs": [],
      "name": "Perpetual_ExcessiveBlockTradeAmount",
      "type": "error"
    },
    {
      "inputs": [
        {
          "internalType": "int256",
          "name": "fee",
          "type": "int256"
        }
      ],
      "name": "Perpetual_InsuranceFeeInvalid",
      "type": "error"
    },
    {
      "inputs": [],
      "name": "Perpetual_InvalidAdminFee",
      "type": "error"
    },
    {
      "inputs": [],
      "name": "Perpetual_LPOpenPosition",
      "type": "error"
    },
    {
      "inputs": [],
      "name": "Perpetual_LPWithdrawExceedsBalance",
      "type": "error"
    },
    {
      "inputs": [
        {
          "internalType": "uint256",
          "name": "lockPeriod",
          "type": "uint256"
        }
      ],
      "name": "Perpetual_LockPeriodInvalid",
      "type": "error"
    },
    {
      "inputs": [
        {
          "internalType": "uint256",
          "name": "withdrawTime",
          "type": "uint256"
        }
      ],
      "name": "Perpetual_LockPeriodNotReached",
      "type": "error"
    },
    {
      "inputs": [],
      "name": "Perpetual_LpAmountDeviation",
      "type": "error"
    },
    {
      "inputs": [
        {
          "internalType": "int256",
          "name": "lpDebtCoef",
          "type": "int256"
        }
      ],
      "name": "Perpetual_LpDebtCoefInvalid",
      "type": "error"
    },
    {
      "inputs": [],
      "name": "Perpetual_MarketBalanceTooLow",
      "type": "error"
    },
    {
      "inputs": [],
      "name": "Perpetual_MarketEqualFees",
      "type": "error"
    },
    {
      "inputs": [
        {
          "internalType": "uint256",
          "name": "maxBlockTradeAmount",
          "type": "uint256"
        }
      ],
      "name": "Perpetual_MaxBlockAmountInvalid",
      "type": "error"
    },
    {
      "inputs": [],
      "name": "Perpetual_MaxLiquidityProvided",
      "type": "error"
    },
    {
      "inputs": [],
      "name": "Perpetual_MaxPositionSize",
      "type": "error"
    },
    {
      "inputs": [],
      "name": "Perpetual_NoOpenPosition",
      "type": "error"
    },
    {
      "inputs": [],
      "name": "Perpetual_ProposedAmountExceedsMaxMarketPrice",
      "type": "error"
    },
    {
      "inputs": [],
      "name": "Perpetual_ProposedAmountExceedsPositionSize",
      "type": "error"
    },
    {
      "inputs": [],
      "name": "Perpetual_SenderNotClearingHouse",
      "type": "error"
    },
    {
      "inputs": [],
      "name": "Perpetual_SenderNotClearingHouseOwner",
      "type": "error"
    },
    {
      "inputs": [
        {
          "internalType": "int256",
          "name": "sensitivity",
          "type": "int256"
        }
      ],
      "name": "Perpetual_SensitivityInvalid",
      "type": "error"
    },
    {
      "inputs": [
        {
          "internalType": "int256",
          "name": "fee",
          "type": "int256"
        }
      ],
      "name": "Perpetual_TradingFeeInvalid",
      "type": "error"
    },
    {
      "inputs": [
        {
          "internalType": "uint256",
          "name": "twapFrequency",
          "type": "uint256"
        }
      ],
      "name": "Perpetual_TwapFrequencyInvalid",
      "type": "error"
    },
    {
      "inputs": [
        {
          "internalType": "uint256",
          "name": "tokenIndex",
          "type": "uint256"
        }
      ],
      "name": "Perpetual_VirtualTokenApprovalConstructor",
      "type": "error"
    },
    {
      "inputs": [
        {
          "internalType": "uint256",
          "name": "paramIndex",
          "type": "uint256"
        }
      ],
      "name": "Perpetual_ZeroAddressConstructor",
      "type": "error"
    },
    {
      "anonymous": false,
      "inputs": [
        {
          "indexed": false,
          "internalType": "uint256",
          "name": "vBaseAmount",
          "type": "uint256"
        }
      ],
      "name": "DustGenerated",
      "type": "event"
    },
    {
      "anonymous": false,
      "inputs": [
        {
          "indexed": false,
          "internalType": "int256",
          "name": "cumulativeFundingRate",
          "type": "int256"
        },
        {
          "indexed": false,
          "internalType": "int256",
          "name": "fundingRate",
          "type": "int256"
        }
      ],
      "name": "FundingRateUpdated",
      "type": "event"
    },
    {
      "anonymous": false,
      "inputs": [
        {
          "indexed": false,
          "internalType": "string",
          "name": "errorMessage",
          "type": "string"
        }
      ],
      "name": "Log",
      "type": "event"
    },
    {
      "anonymous": false,
      "inputs": [
        {
          "indexed": false,
          "internalType": "address",
          "name": "account",
          "type": "address"
        }
      ],
      "name": "Paused",
      "type": "event"
    },
    {
      "anonymous": false,
      "inputs": [
        {
          "indexed": false,
          "internalType": "uint256",
          "name": "newRiskWeight",
          "type": "uint256"
        },
        {
          "indexed": false,
          "internalType": "uint256",
          "name": "newMaxLiquidityProvided",
          "type": "uint256"
        },
        {
          "indexed": false,
          "internalType": "uint256",
          "name": "newTwapFrequency",
          "type": "uint256"
        },
        {
          "indexed": false,
          "internalType": "int256",
          "name": "newSensitivity",
          "type": "int256"
        },
        {
          "indexed": false,
          "internalType": "uint256",
          "name": "newMaxBlockTradeAmount",
          "type": "uint256"
        },
        {
          "indexed": false,
          "internalType": "int256",
          "name": "newInsuranceFee",
          "type": "int256"
        },
        {
          "indexed": false,
          "internalType": "int256",
          "name": "newTradingFee",
          "type": "int256"
        },
        {
          "indexed": false,
          "internalType": "int256",
          "name": "newLpDebtCoef",
          "type": "int256"
        },
        {
          "indexed": false,
          "internalType": "uint256",
          "name": "lockPeriod",
          "type": "uint256"
        }
      ],
      "name": "PerpetualParametersChanged",
      "type": "event"
    },
    {
      "anonymous": false,
      "inputs": [
        {
          "indexed": true,
          "internalType": "bytes32",
          "name": "role",
          "type": "bytes32"
        },
        {
          "indexed": true,
          "internalType": "bytes32",
          "name": "previousAdminRole",
          "type": "bytes32"
        },
        {
          "indexed": true,
          "internalType": "bytes32",
          "name": "newAdminRole",
          "type": "bytes32"
        }
      ],
      "name": "RoleAdminChanged",
      "type": "event"
    },
    {
      "anonymous": false,
      "inputs": [
        {
          "indexed": true,
          "internalType": "bytes32",
          "name": "role",
          "type": "bytes32"
        },
        {
          "indexed": true,
          "internalType": "address",
          "name": "account",
          "type": "address"
        },
        {
          "indexed": true,
          "internalType": "address",
          "name": "sender",
          "type": "address"
        }
      ],
      "name": "RoleGranted",
      "type": "event"
    },
    {
      "anonymous": false,
      "inputs": [
        {
          "indexed": true,
          "internalType": "bytes32",
          "name": "role",
          "type": "bytes32"
        },
        {
          "indexed": true,
          "internalType": "address",
          "name": "account",
          "type": "address"
        },
        {
          "indexed": true,
          "internalType": "address",
          "name": "sender",
          "type": "address"
        }
      ],
      "name": "RoleRevoked",
      "type": "event"
    },
    {
      "anonymous": false,
      "inputs": [
        {
          "indexed": false,
          "internalType": "int256",
          "name": "newOracleTwap",
          "type": "int256"
        },
        {
          "indexed": false,
          "internalType": "int256",
          "name": "newMarketTwap",
          "type": "int256"
        }
      ],
      "name": "TwapUpdated",
      "type": "event"
    },
    {
      "anonymous": false,
      "inputs": [
        {
          "indexed": false,
          "internalType": "address",
          "name": "account",
          "type": "address"
        }
      ],
      "name": "Unpaused",
      "type": "event"
    },
    {
      "inputs": [],
      "name": "DEFAULT_ADMIN_ROLE",
      "outputs": [
        {
          "internalType": "bytes32",
          "name": "",
          "type": "bytes32"
        }
      ],
      "stateMutability": "view",
      "type": "function"
    },
    {
      "inputs": [],
      "name": "GOVERNANCE",
      "outputs": [
        {
          "internalType": "bytes32",
          "name": "",
          "type": "bytes32"
        }
      ],
      "stateMutability": "view",
      "type": "function"
    },
    {
      "inputs": [],
      "name": "MANAGER",
      "outputs": [
        {
          "internalType": "bytes32",
          "name": "",
          "type": "bytes32"
        }
      ],
      "stateMutability": "view",
      "type": "function"
    },
    {
      "inputs": [
        {
          "internalType": "address",
          "name": "account",
          "type": "address"
        },
        {
          "internalType": "uint256",
          "name": "amount",
          "type": "uint256"
        },
        {
          "internalType": "uint256",
          "name": "minAmount",
          "type": "uint256"
        },
        {
          "internalType": "enum LibPerpetual.Side",
          "name": "direction",
          "type": "uint8"
        },
        {
          "internalType": "bool",
          "name": "isLiquidation",
          "type": "bool"
        }
      ],
      "name": "changePosition",
      "outputs": [
        {
          "internalType": "int256",
          "name": "quoteProceeds",
          "type": "int256"
        },
        {
          "internalType": "int256",
          "name": "baseProceeds",
          "type": "int256"
        },
        {
          "internalType": "int256",
          "name": "profit",
          "type": "int256"
        },
        {
          "internalType": "bool",
          "name": "isPositionIncreased",
          "type": "bool"
        }
      ],
      "stateMutability": "nonpayable",
      "type": "function"
    },
    {
      "inputs": [],
      "name": "clearingHouse",
      "outputs": [
        {
          "internalType": "contract IClearingHouse",
          "name": "",
          "type": "address"
        }
      ],
      "stateMutability": "view",
      "type": "function"
    },
    {
      "inputs": [],
      "name": "getGlobalPosition",
      "outputs": [
        {
          "components": [
            {
              "internalType": "uint128",
              "name": "timeOfLastTrade",
              "type": "uint128"
            },
            {
              "internalType": "uint128",
              "name": "timeOfLastTwapUpdate",
              "type": "uint128"
            },
            {
              "internalType": "int256",
              "name": "cumFundingRate",
              "type": "int256"
            },
            {
              "internalType": "uint256",
              "name": "currentBlockTradeAmount",
              "type": "uint256"
            },
            {
              "internalType": "uint256",
              "name": "totalTradingFeesGrowth",
              "type": "uint256"
            },
            {
              "internalType": "uint256",
              "name": "totalLiquidityProvided",
              "type": "uint256"
            },
            {
              "internalType": "uint256",
              "name": "totalBaseFeesGrowth",
              "type": "uint256"
            },
            {
              "internalType": "uint256",
              "name": "totalQuoteFeesGrowth",
              "type": "uint256"
            }
          ],
          "internalType": "struct LibPerpetual.GlobalPosition",
          "name": "",
          "type": "tuple"
        }
      ],
      "stateMutability": "view",
      "type": "function"
    },
    {
      "inputs": [
        {
          "internalType": "address",
          "name": "account",
          "type": "address"
        }
      ],
      "name": "getLpFundingPayments",
      "outputs": [
        {
          "internalType": "int256",
          "name": "upcomingFundingPayment",
          "type": "int256"
        }
      ],
      "stateMutability": "view",
      "type": "function"
    },
    {
      "inputs": [
        {
          "internalType": "address",
          "name": "account",
          "type": "address"
        }
      ],
      "name": "getLpLiquidity",
      "outputs": [
        {
          "internalType": "uint256",
          "name": "",
          "type": "uint256"
        }
      ],
      "stateMutability": "view",
      "type": "function"
    },
    {
      "inputs": [
        {
          "internalType": "address",
          "name": "account",
          "type": "address"
        }
      ],
      "name": "getLpOpenNotional",
      "outputs": [
        {
          "internalType": "int256",
          "name": "",
          "type": "int256"
        }
      ],
      "stateMutability": "view",
      "type": "function"
    },
    {
      "inputs": [
        {
          "internalType": "address",
          "name": "account",
          "type": "address"
        }
      ],
      "name": "getLpPosition",
      "outputs": [
        {
          "components": [
            {
              "internalType": "int256",
              "name": "openNotional",
              "type": "int256"
            },
            {
              "internalType": "int256",
              "name": "positionSize",
              "type": "int256"
            },
            {
              "internalType": "int256",
              "name": "cumFundingRate",
              "type": "int256"
            },
            {
              "internalType": "uint256",
              "name": "liquidityBalance",
              "type": "uint256"
            },
            {
              "internalType": "uint256",
              "name": "depositTime",
              "type": "uint256"
            },
            {
              "internalType": "uint256",
              "name": "totalTradingFeesGrowth",
              "type": "uint256"
            },
            {
              "internalType": "uint256",
              "name": "totalBaseFeesGrowth",
              "type": "uint256"
            },
            {
              "internalType": "uint256",
              "name": "totalQuoteFeesGrowth",
              "type": "uint256"
            }
          ],
          "internalType": "struct LibPerpetual.LiquidityProviderPosition",
          "name": "",
          "type": "tuple"
        }
      ],
      "stateMutability": "view",
      "type": "function"
    },
    {
      "inputs": [
        {
          "internalType": "address",
          "name": "account",
          "type": "address"
        }
      ],
      "name": "getLpPositionAfterWithdrawal",
      "outputs": [
        {
          "components": [
            {
              "internalType": "int256",
              "name": "openNotional",
              "type": "int256"
            },
            {
              "internalType": "int256",
              "name": "positionSize",
              "type": "int256"
            },
            {
              "internalType": "int256",
              "name": "cumFundingRate",
              "type": "int256"
            }
          ],
          "internalType": "struct LibPerpetual.TraderPosition",
          "name": "",
          "type": "tuple"
        }
      ],
      "stateMutability": "view",
      "type": "function"
    },
    {
      "inputs": [
        {
          "internalType": "address",
          "name": "account",
          "type": "address"
        }
      ],
      "name": "getLpTradingFees",
      "outputs": [
        {
          "internalType": "uint256",
          "name": "tradingFeesEarned",
          "type": "uint256"
        }
      ],
      "stateMutability": "view",
      "type": "function"
    },
    {
      "inputs": [
        {
          "internalType": "address",
          "name": "account",
          "type": "address"
        }
      ],
      "name": "getLpUnrealizedPnL",
      "outputs": [
        {
          "internalType": "int256",
          "name": "pnl",
          "type": "int256"
        }
      ],
      "stateMutability": "view",
      "type": "function"
    },
    {
      "inputs": [
        {
          "internalType": "address",
          "name": "account",
          "type": "address"
        }
      ],
      "name": "getPendingPnL",
      "outputs": [
        {
          "internalType": "int256",
          "name": "pnL",
          "type": "int256"
        }
      ],
      "stateMutability": "view",
      "type": "function"
    },
    {
      "inputs": [
        {
          "internalType": "bytes32",
          "name": "role",
          "type": "bytes32"
        }
      ],
      "name": "getRoleAdmin",
      "outputs": [
        {
          "internalType": "bytes32",
          "name": "",
          "type": "bytes32"
        }
      ],
      "stateMutability": "view",
      "type": "function"
    },
    {
      "inputs": [],
      "name": "getTotalLiquidityProvided",
      "outputs": [
        {
          "internalType": "uint256",
          "name": "",
          "type": "uint256"
        }
      ],
      "stateMutability": "view",
      "type": "function"
    },
    {
      "inputs": [
        {
          "internalType": "address",
          "name": "account",
          "type": "address"
        }
      ],
      "name": "getTraderFundingPayments",
      "outputs": [
        {
          "internalType": "int256",
          "name": "upcomingFundingPayment",
          "type": "int256"
        }
      ],
      "stateMutability": "view",
      "type": "function"
    },
    {
      "inputs": [
        {
          "internalType": "address",
          "name": "account",
          "type": "address"
        }
      ],
      "name": "getTraderPosition",
      "outputs": [
        {
          "components": [
            {
              "internalType": "int256",
              "name": "openNotional",
              "type": "int256"
            },
            {
              "internalType": "int256",
              "name": "positionSize",
              "type": "int256"
            },
            {
              "internalType": "int256",
              "name": "cumFundingRate",
              "type": "int256"
            }
          ],
          "internalType": "struct LibPerpetual.TraderPosition",
          "name": "",
          "type": "tuple"
        }
      ],
      "stateMutability": "view",
      "type": "function"
    },
    {
      "inputs": [
        {
          "internalType": "address",
          "name": "account",
          "type": "address"
        }
      ],
      "name": "getTraderUnrealizedPnL",
      "outputs": [
        {
          "internalType": "int256",
          "name": "pnl",
          "type": "int256"
        }
      ],
      "stateMutability": "view",
      "type": "function"
    },
    {
      "inputs": [
        {
          "internalType": "address",
          "name": "account",
          "type": "address"
        }
      ],
      "name": "getUserDebt",
      "outputs": [
        {
          "internalType": "int256",
          "name": "debt",
          "type": "int256"
        }
      ],
      "stateMutability": "view",
      "type": "function"
    },
    {
      "inputs": [
        {
          "internalType": "bytes32",
          "name": "role",
          "type": "bytes32"
        },
        {
          "internalType": "address",
          "name": "account",
          "type": "address"
        }
      ],
      "name": "grantRole",
      "outputs": [],
      "stateMutability": "nonpayable",
      "type": "function"
    },
    {
      "inputs": [
        {
          "internalType": "bytes32",
          "name": "role",
          "type": "bytes32"
        },
        {
          "internalType": "address",
          "name": "account",
          "type": "address"
        }
      ],
      "name": "hasRole",
      "outputs": [
        {
          "internalType": "bool",
          "name": "",
          "type": "bool"
        }
      ],
      "stateMutability": "view",
      "type": "function"
    },
    {
      "inputs": [],
      "name": "indexPrice",
      "outputs": [
        {
          "internalType": "int256",
          "name": "",
          "type": "int256"
        }
      ],
      "stateMutability": "view",
      "type": "function"
    },
    {
      "inputs": [],
      "name": "insuranceFee",
      "outputs": [
        {
          "internalType": "int256",
          "name": "",
          "type": "int256"
        }
      ],
      "stateMutability": "view",
      "type": "function"
    },
    {
      "inputs": [
        {
          "internalType": "address",
          "name": "account",
          "type": "address"
        }
      ],
      "name": "isGovernor",
      "outputs": [
        {
          "internalType": "bool",
          "name": "",
          "type": "bool"
        }
      ],
      "stateMutability": "view",
      "type": "function"
    },
    {
      "inputs": [
        {
          "internalType": "address",
          "name": "account",
          "type": "address"
        }
      ],
      "name": "isLpPositionOpen",
      "outputs": [
        {
          "internalType": "bool",
          "name": "",
          "type": "bool"
        }
      ],
      "stateMutability": "view",
      "type": "function"
    },
    {
      "inputs": [
        {
          "internalType": "address",
          "name": "account",
          "type": "address"
        }
      ],
      "name": "isManager",
      "outputs": [
        {
          "internalType": "bool",
          "name": "",
          "type": "bool"
        }
      ],
      "stateMutability": "view",
      "type": "function"
    },
    {
      "inputs": [
        {
          "internalType": "address",
          "name": "account",
          "type": "address"
        }
      ],
      "name": "isTraderPositionOpen",
      "outputs": [
        {
          "internalType": "bool",
          "name": "",
          "type": "bool"
        }
      ],
      "stateMutability": "view",
      "type": "function"
    },
    {
      "inputs": [],
      "name": "lockPeriod",
      "outputs": [
        {
          "internalType": "uint256",
          "name": "",
          "type": "uint256"
        }
      ],
      "stateMutability": "view",
      "type": "function"
    },
    {
      "inputs": [],
      "name": "lpDebtCoef",
      "outputs": [
        {
          "internalType": "int256",
          "name": "",
          "type": "int256"
        }
      ],
      "stateMutability": "view",
      "type": "function"
    },
    {
      "inputs": [],
      "name": "market",
      "outputs": [
        {
          "internalType": "contract ICryptoSwap",
          "name": "",
          "type": "address"
        }
      ],
      "stateMutability": "view",
      "type": "function"
    },
    {
      "inputs": [],
      "name": "marketPrice",
      "outputs": [
        {
          "internalType": "uint256",
          "name": "",
          "type": "uint256"
        }
      ],
      "stateMutability": "view",
      "type": "function"
    },
    {
      "inputs": [],
      "name": "marketTwap",
      "outputs": [
        {
          "internalType": "int256",
          "name": "",
          "type": "int256"
        }
      ],
      "stateMutability": "view",
      "type": "function"
    },
    {
      "inputs": [],
      "name": "maxBlockTradeAmount",
      "outputs": [
        {
          "internalType": "uint256",
          "name": "",
          "type": "uint256"
        }
      ],
      "stateMutability": "view",
      "type": "function"
    },
    {
      "inputs": [],
      "name": "maxLiquidityProvided",
      "outputs": [
        {
          "internalType": "uint256",
          "name": "",
          "type": "uint256"
        }
      ],
      "stateMutability": "view",
      "type": "function"
    },
    {
      "inputs": [],
      "name": "maxPosition",
      "outputs": [
        {
          "internalType": "uint256",
          "name": "",
          "type": "uint256"
        }
      ],
      "stateMutability": "view",
      "type": "function"
    },
    {
      "inputs": [],
      "name": "oracleTwap",
      "outputs": [
        {
          "internalType": "int256",
          "name": "",
          "type": "int256"
        }
      ],
      "stateMutability": "view",
      "type": "function"
    },
    {
      "inputs": [],
      "name": "pause",
      "outputs": [],
      "stateMutability": "nonpayable",
      "type": "function"
    },
    {
      "inputs": [],
      "name": "paused",
      "outputs": [
        {
          "internalType": "bool",
          "name": "",
          "type": "bool"
        }
      ],
      "stateMutability": "view",
      "type": "function"
    },
    {
      "inputs": [
        {
          "internalType": "address",
          "name": "account",
          "type": "address"
        },
        {
          "internalType": "uint256[2]",
          "name": "amounts",
          "type": "uint256[2]"
        },
        {
          "internalType": "uint256",
          "name": "minLpAmount",
          "type": "uint256"
        }
      ],
      "name": "provideLiquidity",
      "outputs": [
        {
          "internalType": "int256",
          "name": "tradingFees",
          "type": "int256"
        }
      ],
      "stateMutability": "nonpayable",
      "type": "function"
    },
    {
      "inputs": [
        {
          "internalType": "address",
          "name": "account",
          "type": "address"
        },
        {
          "internalType": "uint256",
          "name": "liquidityAmountToRemove",
          "type": "uint256"
        },
        {
          "internalType": "uint256[2]",
          "name": "minVTokenAmounts",
          "type": "uint256[2]"
        },
        {
          "internalType": "uint256",
          "name": "proposedAmount",
          "type": "uint256"
        },
        {
          "internalType": "uint256",
          "name": "minAmount",
          "type": "uint256"
        },
        {
          "internalType": "bool",
          "name": "isLiquidation",
          "type": "bool"
        }
      ],
      "name": "removeLiquidity",
      "outputs": [
        {
          "internalType": "int256",
          "name": "profit",
          "type": "int256"
        },
        {
          "internalType": "uint256",
          "name": "reductionRatio",
          "type": "uint256"
        },
        {
          "internalType": "int256",
          "name": "quoteProceeds",
          "type": "int256"
        }
      ],
      "stateMutability": "nonpayable",
      "type": "function"
    },
    {
      "inputs": [
        {
          "internalType": "address",
          "name": "user",
          "type": "address"
        },
        {
          "internalType": "uint256",
          "name": "liquidityAmountToRemove",
          "type": "uint256"
        },
        {
          "internalType": "uint256[2]",
          "name": "minVTokenAmounts",
          "type": "uint256[2]"
        },
        {
          "internalType": "uint256",
          "name": "proposedAmount",
          "type": "uint256"
        }
      ],
      "name": "removeLiquiditySwap",
      "outputs": [],
      "stateMutability": "nonpayable",
      "type": "function"
    },
    {
      "inputs": [
        {
          "internalType": "bytes32",
          "name": "role",
          "type": "bytes32"
        },
        {
          "internalType": "address",
          "name": "account",
          "type": "address"
        }
      ],
      "name": "renounceRole",
      "outputs": [],
      "stateMutability": "nonpayable",
      "type": "function"
    },
    {
      "inputs": [
        {
          "internalType": "bytes32",
          "name": "role",
          "type": "bytes32"
        },
        {
          "internalType": "address",
          "name": "account",
          "type": "address"
        }
      ],
      "name": "revokeRole",
      "outputs": [],
      "stateMutability": "nonpayable",
      "type": "function"
    },
    {
      "inputs": [],
      "name": "riskWeight",
      "outputs": [
        {
          "internalType": "uint256",
          "name": "",
          "type": "uint256"
        }
      ],
      "stateMutability": "view",
      "type": "function"
    },
    {
      "inputs": [],
      "name": "sensitivity",
      "outputs": [
        {
          "internalType": "int256",
          "name": "",
          "type": "int256"
        }
      ],
      "stateMutability": "view",
      "type": "function"
    },
    {
      "inputs": [
        {
          "components": [
            {
              "internalType": "uint256",
              "name": "riskWeight",
              "type": "uint256"
            },
            {
              "internalType": "uint256",
              "name": "maxLiquidityProvided",
              "type": "uint256"
            },
            {
              "internalType": "uint256",
              "name": "twapFrequency",
              "type": "uint256"
            },
            {
              "internalType": "int256",
              "name": "sensitivity",
              "type": "int256"
            },
            {
              "internalType": "uint256",
              "name": "maxBlockTradeAmount",
              "type": "uint256"
            },
            {
              "internalType": "int256",
              "name": "insuranceFee",
              "type": "int256"
            },
            {
              "internalType": "int256",
              "name": "tradingFee",
              "type": "int256"
            },
            {
              "internalType": "int256",
              "name": "lpDebtCoef",
              "type": "int256"
            },
            {
              "internalType": "uint256",
              "name": "lockPeriod",
              "type": "uint256"
            }
          ],
          "internalType": "struct IPerpetual.PerpetualParams",
          "name": "params",
          "type": "tuple"
        }
      ],
      "name": "setParameters",
      "outputs": [],
      "stateMutability": "nonpayable",
      "type": "function"
    },
    {
      "inputs": [
        {
          "internalType": "address",
          "name": "account",
          "type": "address"
        }
      ],
      "name": "settleLp",
      "outputs": [
        {
          "internalType": "int256",
          "name": "fundingPayments",
          "type": "int256"
        }
      ],
      "stateMutability": "nonpayable",
      "type": "function"
    },
    {
      "inputs": [
        {
          "internalType": "address",
          "name": "account",
          "type": "address"
        }
      ],
      "name": "settleTrader",
      "outputs": [
        {
          "internalType": "int256",
          "name": "fundingPayments",
          "type": "int256"
        }
      ],
      "stateMutability": "nonpayable",
      "type": "function"
    },
    {
      "inputs": [
        {
          "internalType": "bytes4",
          "name": "interfaceId",
          "type": "bytes4"
        }
      ],
      "name": "supportsInterface",
      "outputs": [
        {
          "internalType": "bool",
          "name": "",
          "type": "bool"
        }
      ],
      "stateMutability": "view",
      "type": "function"
    },
    {
      "inputs": [],
      "name": "tradingFee",
      "outputs": [
        {
          "internalType": "int256",
          "name": "",
          "type": "int256"
        }
      ],
      "stateMutability": "view",
      "type": "function"
    },
    {
      "inputs": [],
      "name": "twapFrequency",
      "outputs": [
        {
          "internalType": "uint256",
          "name": "",
          "type": "uint256"
        }
      ],
      "stateMutability": "view",
      "type": "function"
    },
    {
      "inputs": [],
      "name": "unpause",
      "outputs": [],
      "stateMutability": "nonpayable",
      "type": "function"
    },
    {
      "inputs": [],
      "name": "vBase",
      "outputs": [
        {
          "internalType": "contract IVBase",
          "name": "",
          "type": "address"
        }
      ],
      "stateMutability": "view",
      "type": "function"
    },
    {
      "inputs": [],
      "name": "vQuote",
      "outputs": [
        {
          "internalType": "contract IVQuote",
          "name": "",
          "type": "address"
        }
      ],
      "stateMutability": "view",
      "type": "function"
    }
  ],
  "transactionHash": "0x80bf264c7363e7bdf21cae2bb026904ebe6c61bcf43c3552d79c88e53035e75c",
  "args": [
    "0xC923a20861d5b74ACbF8D37863f762E9EcAAd59d",
    "0xF10B88347Ad7548B8420Cf506e1d056C610541C0",
    "0x4d1a7D7B5CdFd1E4c99F6EdbaBe5d154CdF5c6e4",
    "0x983F5E7076d34d9a059653fF0fdD7C2e8a7307B2",
    {
      "riskWeight": "1000000000000000000",
      "maxLiquidityProvided": "1000000000000000000000000",
      "twapFrequency": "900",
      "sensitivity": "1000000000000000000",
      "maxBlockTradeAmount": "100000000000000000000000",
      "insuranceFee": "1000000000000000",
      "tradingFee": "1000000000000000",
      "lpDebtCoef": "3000000000000000000",
      "lockPeriod": 3600
    }
  ],
  "numDeployments": 1,
  "solcInputHash": "e1cef607481b161ae69d7ea60025156b",
  "bytecode": "0x60806040523480156200001157600080fd5b506040516200581c3803806200581c833981016040819052620000349162000e2e565b6000805460ff1916905562000059600080516020620057fc83398151915233620006e2565b62000074600080516020620057fc83398151915280620006f2565b6200008f600080516020620057dc83398151915233620006e2565b620000b9600080516020620057dc833981519152600080516020620057fc833981519152620006f2565b6001600160a01b038516620000e957604051630ff5573560e11b8152600060048201526024015b60405180910390fd5b6001600160a01b0384166200011557604051630ff5573560e11b815260016004820152602401620000e0565b6001600160a01b0383166200014157604051630ff5573560e11b815260026004820152602401620000e0565b6001600160a01b0382166200016d57604051630ff5573560e11b815260036004820152602401620000e0565b600c80546001600160a01b03199081166001600160a01b03888116918217909355600d80548316888516179055600f80548316878516908117909155600e80549093169386169390931790915560405163095ea7b360e01b8152600481019290925260001960248301529063095ea7b390604401602060405180830381600087803b158015620001fc57600080fd5b505af115801562000211573d6000803e3d6000fd5b505050506040513d601f19601f8201168201806040525081019062000237919062000e0c565b62000259576040516333bdd5fb60e11b815260016004820152602401620000e0565b600d5460405163095ea7b360e01b81526001600160a01b03858116600483015260001960248301529091169063095ea7b390604401602060405180830381600087803b158015620002a957600080fd5b505af1158015620002be573d6000803e3d6000fd5b505050506040513d601f19601f82011682018060405250810190620002e4919062000e0c565b62000306576040516333bdd5fb60e11b815260006004820152602401620000e0565b62000486856001600160a01b03166358c0994a6040518163ffffffff1660e01b815260040160206040518083038186803b1580156200034457600080fd5b505afa15801562000359573d6000803e3d6000fd5b505050506040513d601f19601f820116820180604052508101906200037f919062000f1a565b62000409856001600160a01b031663c146bf946040518163ffffffff1660e01b815260040160206040518083038186803b158015620003bd57600080fd5b505afa158015620003d2573d6000803e3d6000fd5b505050506040513d601f19601f82011682018060405250810190620003f8919062000f1a565b6200073f60201b6200204c1760201c565b601991909155601c5560408051610100810182526001600160801b034216808252602082018190526000928201839052606082018390526080820183905260a0820183905260c0820183905260e0909101829052600160801b81021760105560118190556012819055601381905560148190556015819055601655565b620004fb60405180610120016040528083600001518152602001836020015181526020018360400151815260200183606001518152602001836080015181526020018360a0015181526020018360c0015181526020018360e0015181526020018361010001518152506200075d60201b60201c565b600f60009054906101000a90046001600160a01b03166001600160a01b031663ee8de6756040518163ffffffff1660e01b815260040160206040518083038186803b1580156200054a57600080fd5b505afa1580156200055f573d6000803e3d6000fd5b505050506040513d601f19601f8201168201806040525081019062000585919062000f1a565b600f60009054906101000a90046001600160a01b03166001600160a01b03166392526c0c6040518163ffffffff1660e01b815260040160206040518083038186803b158015620005d457600080fd5b505afa158015620005e9573d6000803e3d6000fd5b505050506040513d601f19601f820116820180604052508101906200060f919062000f1a565b146200062e576040516307a4f52d60e01b815260040160405180910390fd5b600f60009054906101000a90046001600160a01b03166001600160a01b031663fee3f7f96040518163ffffffff1660e01b815260040160206040518083038186803b1580156200067d57600080fd5b505afa15801562000692573d6000803e3d6000fd5b505050506040513d601f19601f82011682018060405250810190620006b8919062000f1a565b15620006d75760405163968d021b60e01b815260040160405180910390fd5b5050505050620010f0565b620006ee828262000a6c565b5050565b6000828152600160208190526040808320909101805490849055905190918391839186917fbd79b86ffe0ab8e8776151514217cd7cacd52c909f66475c3af44e129f0b00ff9190a4505050565b6000620007578262000af460201b620020531760201c565b92915050565b600080516020620057fc833981519152620007788162000b64565b66b1a2bc2ec50000826060015112806200079d5750678ac7230489e800008260600151135b15620007c5578160600151604051634b2f813360e11b8152600401620000e091815260200190565b655af3107a40008260a001511280620007e85750662386f26fc100008260a00151135b1562000810578160a0015160405163114cd9a960e01b8152600401620000e091815260200190565b655af3107a40008260c001511280620008335750662386f26fc100008260c00151135b156200085b578160c00151604051631f82759960e21b8152600401620000e091815260200190565b670de0b6b3a76400008260e0015112806200088257506801158e460913d000008260e00151135b15620008aa578160e00151604051639b428e6760e01b8152600401620000e091815260200190565b68056bc75e2d6310000082608001511015620008e2578160800151604051636bf2f04160e11b8152600401620000e091815260200190565b603c82604001511080620008fb5750610e108260400151115b1562000923578160400151604051631a21300560e11b8152600401620000e091815260200190565b61025882610100015110806200094057506276a700826101000151115b1562000969578161010001516040516354c23f5960e11b8152600401620000e091815260200190565b81516002556020820151600355606082015160055560a082015160075560e082015160085560c0820151600655604082015160045560808201516009819055610100830151600b55620009bf90600a9062001034565b600a55815160208301516040808501516060860151608087015160a088015160c089015160e08a01516101008b015196517fc9861b7320a2f8a16197885ca0cdb9a9103b043f5bb3d6b2f2dcf0ea02a357a69962000a609990989097969594939291988952602089019790975260408801959095526060870193909352608086019190915260a085015260c084015260e08301526101008201526101200190565b60405180910390a15050565b60008281526001602090815260408083206001600160a01b038516845290915290205460ff16620006ee5760008281526001602081815260408084206001600160a01b0386168086529252808420805460ff19169093179092559051339285917f2f8788117e7eff1d82e926ec794901d17c78024a50270940304540a733656f0d9190a45050565b60006001600160ff1b0382111562000b605760405162461bcd60e51b815260206004820152602860248201527f53616665436173743a2076616c756520646f65736e27742066697420696e2061604482015267371034b73a191a9b60c11b6064820152608401620000e0565b5090565b62000b70813362000b73565b50565b60008281526001602090815260408083206001600160a01b038516845290915290205460ff16620006ee5762000bbf816001600160a01b0316601462000c1060201b620020c11760201c565b62000bd5836020620020c162000c10821b17811c565b60405160200162000be892919062000f33565b60408051601f198184030181529082905262461bcd60e51b8252620000e09160040162000fac565b6060600062000c2183600262001055565b62000c2e90600262001019565b6001600160401b0381111562000c5457634e487b7160e01b600052604160045260246000fd5b6040519080825280601f01601f19166020018201604052801562000c7f576020820181803683370190505b509050600360fc1b8160008151811062000ca957634e487b7160e01b600052603260045260246000fd5b60200101906001600160f81b031916908160001a905350600f60fb1b8160018151811062000ce757634e487b7160e01b600052603260045260246000fd5b60200101906001600160f81b031916908160001a905350600062000d0d84600262001055565b62000d1a90600162001019565b90505b600181111562000db4576f181899199a1a9b1b9c1cb0b131b232b360811b85600f166010811062000d5e57634e487b7160e01b600052603260045260246000fd5b1a60f81b82828151811062000d8357634e487b7160e01b600052603260045260246000fd5b60200101906001600160f81b031916908160001a90535060049490941c9362000dac81620010aa565b905062000d1d565b50831562000e055760405162461bcd60e51b815260206004820181905260248201527f537472696e67733a20686578206c656e67746820696e73756666696369656e746044820152606401620000e0565b9392505050565b60006020828403121562000e1e578081fd5b8151801515811462000e05578182fd5b60008060008060008587036101a081121562000e48578182fd5b865162000e5581620010da565b602088015190965062000e6881620010da565b604088015190955062000e7b81620010da565b606088015190945062000e8e81620010da565b9250610120607f19820181131562000ea4578283fd5b62000eae62000fe1565b91506080880151825260a0880151602083015260c0880151604083015260e088015160608301526101008089015160808401528189015160a084015261014089015160c084015261016089015160e0840152610180890151818401525050809150509295509295909350565b60006020828403121562000f2c578081fd5b5051919050565b7f416363657373436f6e74726f6c3a206163636f756e742000000000000000000081526000835162000f6d81601785016020880162001077565b7001034b99036b4b9b9b4b733903937b6329607d1b601791840191820152835162000fa081602884016020880162001077565b01602801949350505050565b602081526000825180602084015262000fcd81604085016020870162001077565b601f01601f19169190910160400192915050565b60405161012081016001600160401b03811182821017156200101357634e487b7160e01b600052604160045260246000fd5b60405290565b600082198211156200102f576200102f620010c4565b500190565b6000826200105057634e487b7160e01b81526012600452602481fd5b500490565b6000816000190483118215151615620010725762001072620010c4565b500290565b60005b83811015620010945781810151838201526020016200107a565b83811115620010a4576000848401525b50505050565b600081620010bc57620010bc620010c4565b506000190190565b634e487b7160e01b600052601160045260246000fd5b6001600160a01b038116811462000b7057600080fd5b6146dc80620011006000396000f3fe608060405234801561001057600080fd5b506004361061035d5760003560e01c8063793962d8116101d3578063a42d660211610104578063d547741f116100a2578063e873557a1161007c578063e873557a14610813578063f00e963e14610826578063f3ae24151461082f578063fa9c7b9a1461084257600080fd5b8063d547741f146107da578063e43581b8146107ed578063e65896c91461080057600080fd5b8063c5f1916c116100de578063c5f1916c14610737578063c70fbda01461074a578063cbc0a5621461075d578063cefc49931461076657600080fd5b8063a42d660214610708578063aa407ae11461071b578063bf02e92f1461072e57600080fd5b80639027b59e1161017157806397c4fac71161014b57806397c4fac7146106db5780639b497ec8146106e45780639d36b759146106ed578063a217fddf1461070057600080fd5b80639027b59e1461061d57806391d148541461069357806394b661e9146106a657600080fd5b806380f55605116101ad57806380f55605146105cc5780638456cb59146105df57806389fd335b146105e75780638fa1967c146105ef57600080fd5b8063793962d8146105585780637f338ecf1461058d57806380e864fe146105b957600080fd5b80633d7bfaaa116102ad578063535c2b101161024b578063632b6b1111610225578063632b6b111461052057806369395df414610529578063751cd5291461053c57806376c469b61461054557600080fd5b8063535c2b101461050357806356f433521461050c5780635c975abb1461051557600080fd5b806343a4fee01161028757806343a4fee0146104c257806345a15388146104d55780634bc36bd6146104dd5780634dcc2b51146104f057600080fd5b80633d7bfaaa146104a85780633f4ba83a146104b15780633fd8b02f146104b957600080fd5b80631b2df8501161031a5780632f2ff15d116102f45780632f2ff15d1461045a57806336568abe1461046f5780633876d055146104825780633aef4e7e1461049557600080fd5b80631b2df8501461040e578063248a9ca3146104235780632d3eb79b1461044757600080fd5b806301ffc9a7146103625780630af968001461038a5780630fd9fac1146103b557806310bace8c146103cc57806314627834146103d4578063151d7fad146103fb575b600080fd5b610375610370366004614285565b610855565b60405190151581526020015b60405180910390f35b600e5461039d906001600160a01b031681565b6040516001600160a01b039091168152602001610381565b6103be60035481565b604051908152602001610381565b6103be61088c565b6103be7f35a7846a2a701fff6f9d61a46ebff5da578c5dcee8bdf361c569f9ea4ee6477181565b6103be6104093660046140c4565b61090e565b6103be60008051602061468783398151915281565b6103be61043136600461423e565b6000908152600160208190526040909120015490565b6103be6104553660046140c4565b610938565b61046d610468366004614256565b61099a565b005b61046d61047d366004614256565b6109c5565b6103be6104903660046140c4565b610a48565b61046d6104a336600461413a565b610af6565b6103be600a5481565b61046d610d0d565b6103be600b5481565b6103be6104d03660046140fc565b610d30565b6103be611132565b600d5461039d906001600160a01b031681565b61046d6104fe3660046142c5565b611177565b6103be60055481565b6103be60065481565b60005460ff16610375565b6103be60025481565b6103be6105373660046140c4565b61147e565b6103be60095481565b6103be6105533660046140c4565b611518565b61056b6105663660046140c4565b611561565b6040805182518152602080840151908201529181015190820152606001610381565b6103be61059b3660046140c4565b6001600160a01b03166000908152601e602052604090206003015490565b6103be6105c73660046140c4565b6115c7565b600f5461039d906001600160a01b031681565b61046d6115f9565b6103be611619565b6106026105fd366004614180565b6116ce565b60408051938452602084019290925290820152606001610381565b610625611a51565b60405161038191906000610100820190506001600160801b038084511683528060208501511660208401525060408301516040830152606083015160608301526080830151608083015260a083015160a083015260c083015160c083015260e083015160e083015292915050565b6103756106a1366004614256565b611b0a565b6106b96106b43660046141e1565b611b35565b6040805194855260208501939093529183015215156060820152608001610381565b6103be60075481565b6103be601c5481565b6103756106fb3660046140c4565b611ccb565b6103be600081565b6103756107163660046140c4565b611cec565b6103be6107293660046140c4565b611d0d565b6103be60195481565b600c5461039d906001600160a01b031681565b61056b6107583660046140c4565b611d71565b6103be60045481565b6107796107743660046140c4565b611df5565b6040516103819190600061010082019050825182526020830151602083015260408301516040830152606083015160608301526080830151608083015260a083015160a083015260c083015160c083015260e083015160e083015292915050565b61046d6107e8366004614256565b611eb4565b6103756107fb3660046140c4565b611eda565b6103be61080e3660046140c4565b611f06565b6103be6108213660046140c4565b611f80565b6103be60085481565b61037561083d3660046140c4565b61200e565b6103be6108503660046140c4565b612028565b60006001600160e01b03198216637965db0b60e01b148061088657506301ffc9a760e01b6001600160e01b03198316145b92915050565b600c5460408051632c604ca560e11b815290516000926001600160a01b0316916358c0994a916004808301926020929190829003018186803b1580156108d157600080fd5b505afa1580156108e5573d6000803e3d6000fd5b505050506040513d601f19601f8201168201806040525081019061090991906142ad565b905090565b6001600160a01b0381166000908152601e602052604081208054610931906122a3565b9392505050565b6001600160a01b0381166000908152601d60205260408120610959816122ae565b6109665750600092915050565b6001810154600282015460115460109291600083139161099091839161098b866122a3565b6122d8565b9695505050505050565b600082815260016020819052604090912001546109b68161230d565b6109c08383612317565b505050565b6001600160a01b0381163314610a3a5760405162461bcd60e51b815260206004820152602f60248201527f416363657373436f6e74726f6c3a2063616e206f6e6c792072656e6f756e636560448201526e103937b632b9903337b91039b2b63360891b60648201526084015b60405180910390fd5b610a448282612382565b5050565b6000610a526123e9565b600e546001600160a01b03163314610a7d5760405163080e4ebb60e01b815260040160405180910390fd5b6001600160a01b0382166000908152601e602052604090206010610a9f612431565b610aa88261246a565b610ab6575060009392505050565b6000610ac28383612480565b9050610ade600082138460020154846001015461098b856122a3565b9350816001015483600201819055505050505b919050565b6001600160a01b0384166000908152601e6020908152604091829020825161010080820185528254825260018301548285015260028301548286015260038301546060808401919091526004840154608080850191909152600585015460a080860191909152600686015460c080870191909152600787015460e08088019190915289519586018a526010546001600160801b038082168852600160801b909104169886019890985260115498850198909852601254928401929092526013549083015260145490820152601554948101949094526016549284019290925291610be29190868661254d565b5050600f5460405163556d6e9f60e01b8152600060048201819052600160248301526044820185905291610d00916001600160a01b039091169063556d6e9f9060640160206040518083038186803b158015610c3d57600080fd5b505afa158015610c51573d6000803e3d6000fd5b505050506040513d601f19601f82011682018060405250810190610c7591906142ad565b600f60009054906101000a90046001600160a01b03166001600160a01b03166392526c0c6040518163ffffffff1660e01b815260040160206040518083038186803b158015610cc357600080fd5b505afa158015610cd7573d6000803e3d6000fd5b505050506040513d601f19601f82011682018060405250810190610cfb91906142ad565b612a2d565b9050604051818152602081fd5b600080516020614687833981519152610d258161230d565b610d2d612a57565b50565b6000610d3a6123e9565b600e546001600160a01b03163314610d655760405163080e4ebb60e01b815260040160405180910390fd5b6001600160a01b0384166000908152601e602052604090206010610d888261246a565b15610de957610d9f610d9a8383612aa9565b61204c565b9250600080610dae8484612ac7565b9150915080846000016000828254610dc6919061458e565b9250508190555081846001016000828254610de1919061458e565b909155505050505b610dfc853567016345785d8a0000612c41565b610e43610e3e610e24610e0d61088c565b610e1e8a60015b602002013561204c565b90612c4d565b610e2f896000610e14565b610e39919061458e565b6122a3565b612c59565b1115610e625760405163d9bc2c9560e01b815260040160405180910390fd5b600d5460405163140e25ad60e31b8152863560048201526001600160a01b039091169063a0712d6890602401600060405180830381600087803b158015610ea857600080fd5b505af1158015610ebc573d6000803e3d6000fd5b5050600c5460405163140e25ad60e31b8152602089013560048201526001600160a01b03909116925063a0712d689150602401600060405180830381600087803b158015610f0957600080fd5b505af1158015610f1d573d6000803e3d6000fd5b5050600f54604051630b4c7e4d60e01b8152600093506001600160a01b039091169150630b4c7e4d90610f5690899089906004016143b4565b602060405180830381600087803b158015610f7057600080fd5b505af1158015610f84573d6000803e3d6000fd5b505050506040513d601f19601f82011682018060405250810190610fa891906142ad565b9050604051806101000160405280610fda88600060028110610e1457634e487b7160e01b600052603260045260246000fd5b8554610fe6919061458e565b8152602001610ff6886001610e14565b8560010154611005919061458e565b8152602001836001015481526020018285600301546110249190614492565b815260200142815260200183600301548152602001836005015481526020018360060154815250601e6000896001600160a01b03166001600160a01b03168152602001908152602001600020600082015181600001556020820151816001015560408201518160020155606082015181600301556080820151816004015560a0820151816005015560c0820151816006015560e082015181600701559050506000866000600281106110e657634e487b7160e01b600052603260045260246000fd5b602002013583600401546110fa9190614492565b905060035481111561111f57604051632438901960e01b815260040160405180910390fd5b6004909201919091555090949350505050565b600f5460408051633051afe560e21b815290516000926001600160a01b03169163c146bf94916004808301926020929190829003018186803b1580156108d157600080fd5b7f35a7846a2a701fff6f9d61a46ebff5da578c5dcee8bdf361c569f9ea4ee647716111a18161230d565b66b1a2bc2ec50000826060015112806111c55750678ac7230489e800008260600151135b156111eb578160600151604051634b2f813360e11b8152600401610a3191815260200190565b655af3107a40008260a00151128061120d5750662386f26fc100008260a00151135b15611233578160a0015160405163114cd9a960e01b8152600401610a3191815260200190565b655af3107a40008260c0015112806112555750662386f26fc100008260c00151135b1561127b578160c00151604051631f82759960e21b8152600401610a3191815260200190565b670de0b6b3a76400008260e0015112806112a157506801158e460913d000008260e00151135b156112c7578160e00151604051639b428e6760e01b8152600401610a3191815260200190565b68056bc75e2d63100000826080015110156112fd578160800151604051636bf2f04160e11b8152600401610a3191815260200190565b603c826040015110806113155750610e108260400151115b1561133b578160400151604051631a21300560e11b8152600401610a3191815260200190565b610258826101000151108061135757506276a700826101000151115b1561137e578161010001516040516354c23f5960e11b8152600401610a3191815260200190565b81516002556020820151600355606082015160055560a082015160075560e082015160085560c0820151600655604082015160045560808201516009819055610100830151600b556113d290600a906144d8565b600a55815160208301516040808501516060860151608087015160a088015160c089015160e08a01516101008b015196517fc9861b7320a2f8a16197885ca0cdb9a9103b043f5bb3d6b2f2dcf0ea02a357a6996114729990989097969594939291988952602089019790975260408801959095526060870193909352608086019190915260a085015260c084015260e08301526101008201526101200190565b60405180910390a15050565b600e546000906001600160a01b031633146114ac5760405163080e4ebb60e01b815260040160405180910390fd5b6114b46123e9565b6001600160a01b0382166000908152601d6020526040902060106114d6612431565b6114df826122ae565b156115095761150660008360010154138360020154836001015461098b86600101546122a3565b92505b60010154600290910155919050565b6001600160a01b0381166000908152601d602090815260408083208151606081018352815481526001820154938101939093526002810154918301919091529061093190612c64565b61158560405180606001604052806000815260200160008152602001600081525090565b506001600160a01b03166000908152601d6020908152604091829020825160608101845281548152600182015492810192909252600201549181019190915290565b6001600160a01b0381166000908152601e602052604081206010826115ec8383612cba565b9050600061099082612c64565b6000805160206146878339815191526116118161230d565b610d2d612e7c565b600f5460408051637e062a3560e11b815290516000926001600160a01b03169163fc0c546a916004808301926020929190829003018186803b15801561165e57600080fd5b505afa158015611672573d6000803e3d6000fd5b505050506040513d601f19601f8201168201806040525081019061169691906140e0565b6001600160a01b03166318160ddd6040518163ffffffff1660e01b815260040160206040518083038186803b1580156108d157600080fd5b60008060006116db6123e9565b600e546001600160a01b031633146117065760405163080e4ebb60e01b815260040160405180910390fd5b6001600160a01b0389166000908152601e6020526040902060038101546010908a1115611746576040516311a3c16760e11b815260040160405180910390fd5b851580156117645750600b5482600401546117619190614492565b42105b1561179757600b54826004015461177b9190614492565b604051633ede168160e21b8152600401610a3191815260200190565b6117a4610d9a8383612aa9565b6117ae9086614451565b94506000806118c184604051806101000160405290816000820154815260200160018201548152602001600282015481526020016003820154815260200160048201548152602001600582015481526020016006820154815260200160078201548152505084604051806101000160405290816000820160009054906101000a90046001600160801b03166001600160801b03166001600160801b031681526020016000820160109054906101000a90046001600160801b03166001600160801b03166001600160801b0316815260200160018201548152602001600282015481526020016003820154815260200160048201548152602001600582015481526020016006820154815250508e8e61254d565b915091506118dc84600301548d612eb990919063ffffffff16565b9550600061195660405180606001604052806119026118fa8b61204c565b895490612c4d565b61190b8761204c565b6119159190614451565b81526020016119316119268b61204c565b60018a015490612c4d565b61193a8661204c565b6119449190614451565b815260200160008152508c8c8c612ec5565b965090506119648189614451565b975061196f8361204c565b8560000160008282546119829190614451565b9091555061199190508261204c565b8560010160008282546119a49190614451565b925050819055508c8560030160008282546119bf91906145cd565b9091555050600184015460028601556119d78561246a565b611a25576001600160a01b038e166000908152601e60205260408120818155600181018290556002810182905560038101829055600481018290556005810182905560068101829055600701555b82846004016000828254611a3991906145cd565b92505081905550505050505096509650969350505050565b611aab60405180610100016040528060006001600160801b0316815260200160006001600160801b031681526020016000815260200160008152602001600081526020016000815260200160008152602001600081525090565b5060408051610100810182526010546001600160801b038082168352600160801b909104166020820152601154918101919091526012546060820152601354608082015260145460a082015260155460c082015260165460e082015290565b60009182526001602090815260408084206001600160a01b0393909316845291905290205460ff1690565b600080600080611b436123e9565b600e546001600160a01b03163314611b6e5760405163080e4ebb60e01b815260040160405180910390fd5b6001600160a01b0389166000908152601d6020526040812060018101549091611b96836122ae565b1590508080611bf35750886001811115611bc057634e487b7160e01b600052602160045260246000fd5b60008313611bcf576001611bd2565b60005b6001811115611bf157634e487b7160e01b600052602160045260246000fd5b145b15611c1457611c048c8c8b8d612f8f565b9198509650945060019350611c27565b611c1f8c8c8c613023565b919850965094505b87611c6457611c40611c3b610e3e896122a3565b61311c565b60095460125410611c6457604051631ac98e3360e31b815260040160405180910390fd5b600a54611c77610e3e85600001546122a3565b1180611c9e5750600a54611c9c610e3e611c8f61088c565b610e1e87600101546122a3565b115b15611cbc57604051634119d76760e01b815260040160405180910390fd5b50505095509550955095915050565b6001600160a01b0381166000908152601e602052604081206109318161246a565b6001600160a01b0381166000908152601d60205260408120610931816122ae565b6001600160a01b0381166000908152601e60205260408120611d2e8161246a565b611d3b5750600092915050565b60106000611d498383612cba565b90506000808260200151139050610990818360400151856001015461098b86602001516122a3565b611d9560405180606001604052806000815260200160008152602001600081525090565b6001600160a01b0382166000908152601e602052604090206010611db88261246a565b611de35760405180606001604052806000815260200160008152602001600081525092505050919050565b611ded8282612cba565b949350505050565b611e3d60405180610100016040528060008152602001600081526020016000815260200160008152602001600081526020016000815260200160008152602001600081525090565b506001600160a01b03166000908152601e6020908152604091829020825161010081018452815481526001820154928101929092526002810154928201929092526003820154606082015260048201546080820152600582015460a0820152600682015460c082015260079091015460e082015290565b60008281526001602081905260409091200154611ed08161230d565b6109c08383612382565b60006108867f35a7846a2a701fff6f9d61a46ebff5da578c5dcee8bdf361c569f9ea4ee6477183611b0a565b6001600160a01b0381166000908152601d60209081526040808320601e9092528220611f31826122ae565b15611f4f57611f42610e3983613139565b611f4c9084614451565b92505b611f588161246a565b15611f7957611f6f600854610e1e610e3984613139565b611ded9084614451565b5050919050565b6001600160a01b0381166000908152601d60209081526040808320601e9092528220611fab826122ae565b15611fc657611fb984611518565b611fc39084614451565b92505b611fcf8161246a565b15611f795760106000611fe28383612cba565b9050611ff1610d9a848461317b565b611ffa82612c64565b6120049190614451565b6109909086614451565b600061088660008051602061468783398151915283611b0a565b6001600160a01b0381166000908152601e602052604081206010611ded828261317b565b6000610886825b60006001600160ff1b038211156120bd5760405162461bcd60e51b815260206004820152602860248201527f53616665436173743a2076616c756520646f65736e27742066697420696e2061604482015267371034b73a191a9b60c11b6064820152608401610a31565b5090565b606060006120d083600261456f565b6120db906002614492565b67ffffffffffffffff81111561210157634e487b7160e01b600052604160045260246000fd5b6040519080825280601f01601f19166020018201604052801561212b576020820181803683370190505b509050600360fc1b8160008151811061215457634e487b7160e01b600052603260045260246000fd5b60200101906001600160f81b031916908160001a905350600f60fb1b8160018151811061219157634e487b7160e01b600052603260045260246000fd5b60200101906001600160f81b031916908160001a90535060006121b584600261456f565b6121c0906001614492565b90505b6001811115612254576f181899199a1a9b1b9c1cb0b131b232b360811b85600f166010811061220257634e487b7160e01b600052603260045260246000fd5b1a60f81b82828151811061222657634e487b7160e01b600052603260045260246000fd5b60200101906001600160f81b031916908160001a90535060049490941c9361224d81614614565b90506121c3565b5083156109315760405162461bcd60e51b815260206004820181905260248201527f537472696e67733a20686578206c656e67746820696e73756666696369656e746044820152606401610a31565b6000610886826131aa565b80546000901515806122c35750600182015415155b156122d057506001919050565b506000919050565b6000828414611ded576000856122f7576122f2858561458e565b612301565b612301848661458e565b90506109908184612c4d565b610d2d81336131e6565b6123218282611b0a565b610a445760008281526001602081815260408084206001600160a01b0386168086529252808420805460ff19169093179092559051339285917f2f8788117e7eff1d82e926ec794901d17c78024a50270940304540a733656f0d9190a45050565b61238c8282611b0a565b15610a445760008281526001602090815260408083206001600160a01b0385168085529252808320805460ff1916905551339285917ff6391f5c32d9c69d2a47ea670b442974b53935d1edc7fd64eb21e047a839171b9190a45050565b60005460ff161561242f5760405162461bcd60e51b815260206004820152601060248201526f14185d5cd8589b194e881c185d5cd95960821b6044820152606401610a31565b565b6124396123e9565b6010805442906001600160801b0316808211156109c05761245861324a565b6124606133af565b6109c06000601255565b600081600301546000146122d057506001919050565b60008061248b611619565b6003850154600f54604051634903b0d160e01b81526001600482015292935060009261252992859290916001600160a01b0390911690634903b0d19060240160206040518083038186803b1580156124e257600080fd5b505afa1580156124f6573d6000803e3d6000fd5b505050506040513d601f19601f8201168201806040525081019061251a91906142ad565b8860060154886005015461349b565b509050846001015461253a8261204c565b6125449190614451565b95945050505050565b600d546040516370a0823160e01b8152306004820152600091829182916001600160a01b0316906370a082319060240160206040518083038186803b15801561259557600080fd5b505afa1580156125a9573d6000803e3d6000fd5b505050506040513d601f19601f820116820180604052508101906125cd91906142ad565b600c546040516370a0823160e01b81523060048201529192506000916001600160a01b03909116906370a082319060240160206040518083038186803b15801561261657600080fd5b505afa15801561262a573d6000803e3d6000fd5b505050506040513d601f19601f8201168201806040525081019061264e91906142ad565b600f546040516316cd8e2760e21b81529192506001600160a01b031690635b36389c9061268190899089906004016143ff565b600060405180830381600087803b15801561269b57600080fd5b505af11580156126af573d6000803e3d6000fd5b5050600d54600f546040516370a0823160e01b81526001600160a01b03918216600482015260019450911691506370a082319060240160206040518083038186803b1580156126fd57600080fd5b505afa158015612711573d6000803e3d6000fd5b505050506040513d601f19601f8201168201806040525081019061273591906142ad565b1115806127c45750600c54600f546040516370a0823160e01b81526001600160a01b03918216600482015260019291909116906370a082319060240160206040518083038186803b15801561278957600080fd5b505afa15801561279d573d6000803e3d6000fd5b505050506040513d601f19601f820116820180604052508101906127c191906142ad565b11155b156127e2576040516322e04da360e01b815260040160405180910390fd5b600d546040516370a0823160e01b81523060048201526000916001600160a01b0316906370a082319060240160206040518083038186803b15801561282657600080fd5b505afa15801561283a573d6000803e3d6000fd5b505050506040513d601f19601f8201168201806040525081019061285e91906142ad565b600c546040516370a0823160e01b81523060048201529192506000916001600160a01b03909116906370a082319060240160206040518083038186803b1580156128a757600080fd5b505afa1580156128bb573d6000803e3d6000fd5b505050506040513d601f19601f820116820180604052508101906128df91906142ad565b905060006128ed85846145cd565b905060006128fb85846145cd565b600d54604051630852cd8d60e31b8152600481018590529192506001600160a01b0316906342966c6890602401600060405180830381600087803b15801561294257600080fd5b505af1158015612956573d6000803e3d6000fd5b5050600c54604051630852cd8d60e31b8152600481018590526001600160a01b0390911692506342966c689150602401600060405180830381600087803b1580156129a057600080fd5b505af11580156129b4573d6000803e3d6000fd5b505050506129e98c60e001518c60e00151670de0b6b3a76400006129d89190614492565b6129e291906145cd565b8390612eb9565b9750612a1c8c60c001518c60c00151670de0b6b3a7640000612a0b9190614492565b612a1591906145cd565b8290612eb9565b965050505050505094509492505050565b6000612a3e826402540be4006145cd565b612a4d6402540be4008561456f565b61093191906144d8565b612a5f6134e3565b6000805460ff191690557f5db9ee0a495bf2e6ff9c91a7834c1ba4fdd244a5e8aa4e537bd38aeae4b073aa335b6040516001600160a01b03909116815260200160405180910390a1565b6000612ab5838361317b565b60038301546005850155905092915050565b6000806000612ad4611619565b6003860154600f54604051634903b0d160e01b81526000600482018190529394508392612b719286926001600160a01b0390911690634903b0d19060240160206040518083038186803b158015612b2a57600080fd5b505afa158015612b3e573d6000803e3d6000fd5b505050506040513d601f19601f82011682018060405250810190612b6291906142ad565b8a600701548a6006015461349b565b9092509050612b83610d9a83836145cd565b6003880154600f54604051634903b0d160e01b8152600160048201529296506000928392612c219288926001600160a01b0390911690634903b0d19060240160206040518083038186803b158015612bda57600080fd5b505afa158015612bee573d6000803e3d6000fd5b505050506040513d601f19601f82011682018060405250810190612c1291906142ad565b8c600601548c6005015461349b565b9092509050612c33610d9a83836145cd565b965050505050509250929050565b6000610931838361352c565b60006109318383613538565b6000610886826135fd565b600080612c6f61088c565b90506000612c8a828560200151612c4d90919063ffffffff16565b90506000612c9d600654610e1e846122a3565b905080828660000151612cb09190614451565b612544919061458e565b612cde60405180606001604052806000815260200160008152602001600081525090565b6000612ce8611619565b6003850154600f54604051634903b0d160e01b8152600060048201819052939450612d8592859290916001600160a01b0390911690634903b0d19060240160206040518083038186803b158015612d3e57600080fd5b505afa158015612d52573d6000803e3d6000fd5b505050506040513d601f19601f82011682018060405250810190612d7691906142ad565b8860070154886006015461349b565b506003860154600f54604051634903b0d160e01b815260016004820152929350600092612e2492869290916001600160a01b0390911690634903b0d19060240160206040518083038186803b158015612ddd57600080fd5b505afa158015612df1573d6000803e3d6000fd5b505050506040513d601f19601f82011682018060405250810190612e1591906142ad565b8960060154896005015461349b565b5090506040518060600160405280612e3b8461204c565b8854612e479190614451565b8152602001612e558361204c565b8860010154612e649190614451565b81526020018760020154815250935050505092915050565b612e846123e9565b6000805460ff191660011790557f62e78cea01bee320cd4e420270b5ea74000d11b0c9f74754ebdbfc544b05a258612a8c3390565b6000610931838361364f565b6000806000612ede876000896020015113158888613664565b9550909350909150849050612f2057612efc611c3b610e3e846122a3565b60095460125410612f2057604051631ac98e3360e31b815260040160405180910390fd5b6000818860200151612f329190614451565b90506000811215612f565760405163ab7cee1960e01b815260040160405180910390fd5b600081138015612f6e575067016345785d8a00008113155b15612f8457612f84612f7f82612c59565b6137c6565b505094509492505050565b6001600160a01b0384166000908152601d60205260408120819081908180876001811115612fcd57634e487b7160e01b600052602160045260246000fd5b149050612fdb888288613837565b8454929750909550935085908390600090612ff7908490614451565b92505081905550838260010160008282546130129190614451565b909155505050509450945094915050565b6001600160a01b0383166000908152601d6020526040812081908190613048816122ae565b61306557604051634a7ebe1960e01b815260040160405180910390fd5b604080516060810182528254815260018301546020820181905260028401549282019290925260009161309c919083138989613664565b8554929850929650919450909150819083906000906130bc908490614451565b92505081905550838260010160008282546130d79190614451565b909155506130e69050826122ae565b613111576001600160a01b0388166000908152601d6020526040812081815560018101829055600201555b505093509350939050565b80601060020160008282546131319190614492565b909155505050565b8054600090819061314a90826138ab565b9050600061316f600061316961315e61088c565b600188015490612c4d565b906138ab565b9050611ded8183614451565b60006109318360050154836003015461319491906145cd565b6131a4610e3e86600001546122a3565b90612c41565b6000600160ff1b8214156131d157604051631d0742e360e21b815260040160405180910390fd5b600082126131df5781610886565b5060000390565b6131f08282611b0a565b610a4457613208816001600160a01b031660146120c1565b6132138360206120c1565b60405160200161322492919061433f565b60408051601f198184030181529082905262461bcd60e51b8252610a31916004016143cc565b601054429060009061326990610d9a906001600160801b0316846145cd565b9050600061327561088c565b905061328182826144ec565b601760008282546132929190614451565b90915550600090506132a5610d9a611132565b90506132b183826144ec565b601a60008282546132c29190614451565b90915550506010546000906132e790600160801b90046001600160801b0316426145cd565b905060045481106133a8576132fb8161204c565b60185460175461330b919061458e565b61331591906144aa565b6019556133218161204c565b601b54601a54613331919061458e565b61333b91906144aa565b601c819055601754601855601a54601b55601080546001600160801b03428116600160801b0291161790556019546040517fd58b1a969d6ffc9c51fce55b333b20b1f3feace5e8a7ec000f124c01982334849261339f928252602082015260400190565b60405180910390a15b5050505050565b601954601c5460109142916000916133d2916133cc90829061458e565b906138b7565b83549091506000906133f190610d9a906001600160801b0316856145cd565b90506000620151808261340f85600554612c4d90919063ffffffff16565b61341991906144ec565b61342391906144aa565b9050808560010160008282546134399190614451565b909155505084546fffffffffffffffffffffffffffffffff19166001600160801b038516178555600185015460408051918252602082018390527f83b8bd3a9f97bed75f923bfd5746ac7dbb823ba73c2e68e4fa906e29e3da4ab4910161339f565b6000806001876134ab888861456f565b6134b591906144d8565b6134bf91906145cd565b90506134d784612a0b85670de0b6b3a7640000614492565b91509550959350505050565b60005460ff1661242f5760405162461bcd60e51b815260206004820152601460248201527314185d5cd8589b194e881b9bdd081c185d5cd95960621b6044820152606401610a31565b600061093183836138c3565b6000600160ff1b83148061354f5750600160ff1b82145b1561356d57604051630d01a11b60e21b815260040160405180910390fd5b6000806000851261357e5784613583565b846000035b9150600084126135935783613598565b836000035b905060006135a683836138c3565b90506001600160ff1b038111156135d35760405163bf79e8d960e01b815260048101829052602401610a31565b6000198087139086138082186001146135ec57826135f1565b826000035b98975050505050505050565b6000808212156120bd5760405162461bcd60e51b815260206004820181905260248201527f53616665436173743a2076616c7565206d75737420626520706f7369746976656044820152606401610a31565b600061093183670de0b6b3a764000084613985565b60008060008060008860200151905087156136a1576136828761204c565b61368b9061462b565b935061369a610d9a8888613a60565b94506136c5565b6136ae610d9a8888613d12565b93506136b98761204c565b6136c29061462b565b94505b60006136d18287614451565b90506000811380156136eb575067016345785d8a00008113155b15613709576136fc612f7f82612c59565b613706818761458e565b95505b600080831361372557600061371e8489614451565b1315613734565b60006137318489614451565b12155b90508061375457604051630e1a706360e41b815260040160405180910390fd5b80156137a3576000613774610e3e61376b866122a3565b6133cc8b6122a3565b905061378a6137828261204c565b8d5190612c4d565b6137939061462b565b955061379f868861458e565b9450505b6137ac86613f7d565b6137b6908561458e565b9350505050945094509450949050565b6137cf8161204c565b600e546001600160a01b03166000908152601d6020526040812060010180549091906137fc908490614451565b90915550506040518181527f56dd3b38618f9202d3cd3e3b1b0b979b53c56ca0b3847420ce3b2f2cc2cff7df9060200160405180910390a150565b6000806000841561386a5761384b8661204c565b6138549061462b565b9250613863610d9a8786613a60565b915061388e565b613877610d9a8786613d12565b92506138828661204c565b61388b9061462b565b91505b61389783613f7d565b6138a09061462b565b905093509350939050565b60006109318383613fc7565b60006109318383613fdd565b60008080600019848609848602925082811083820303915050670de0b6b3a764000081106139075760405163698d9a0160e11b815260048101829052602401610a31565b600080670de0b6b3a76400008688099150506706f05b59d3b1ffff8111826139415780670de0b6b3a7640000850401945050505050610886565b620400008285030493909111909103600160ee1b02919091177faccb18165bd6fe31ae1cf318dc5b51eee0e1ba569b88cd74c1773b91fac106690201905092915050565b6000808060001985870985870292508281108382030391505080600014156139ce578382816139c457634e487b7160e01b600052601260045260246000fd5b0492505050610931565b8381106139f857604051631dcf306360e21b81526004810182905260248101859052604401610a31565b600084868809600260036001881981018916988990049182028318808302840302808302840302808302840302808302840302808302840302918202909203026000889003889004909101858311909403939093029303949094049190911702949350505050565b600d5460405163140e25ad60e31b8152600481018490526000916001600160a01b03169063a0712d6890602401600060405180830381600087803b158015613aa757600080fd5b505af1158015613abb573d6000803e3d6000fd5b5050600f54604051630b68372160e31b815260006004820181905260016024830152604482018890526064820187905293506001600160a01b039091169150635b41b90890608401602060405180830381600087803b158015613b1d57600080fd5b505af1158015613b31573d6000803e3d6000fd5b505050506040513d601f19601f82011682018060405250810190613b5591906142ad565b600c54604051630852cd8d60e31b8152600481018390529192506001600160a01b0316906342966c6890602401600060405180830381600087803b158015613b9c57600080fd5b505af1158015613bb0573d6000803e3d6000fd5b505050506000600f60009054906101000a90046001600160a01b03166001600160a01b03166392526c0c6040518163ffffffff1660e01b815260040160206040518083038186803b158015613c0457600080fd5b505afa158015613c18573d6000803e3d6000fd5b505050506040513d601f19601f82011682018060405250810190613c3c91906142ad565b9050613c488282612a2d565b925060006402540be400613c5c838661456f565b613c6691906144d8565b9050613cf1600c60009054906101000a90046001600160a01b03166001600160a01b03166318160ddd6040518163ffffffff1660e01b815260040160206040518083038186803b158015613cb957600080fd5b505afa158015613ccd573d6000803e3d6000fd5b505050506040513d601f19601f82011682018060405250810190612a1591906142ad565b60158054600090613d03908490614492565b90915550939695505050505050565b600c5460405163140e25ad60e31b8152600481018490526000916001600160a01b03169063a0712d6890602401600060405180830381600087803b158015613d5957600080fd5b505af1158015613d6d573d6000803e3d6000fd5b5050600f54604051630b68372160e31b815260016004820152600060248201819052604482018890526064820187905293506001600160a01b039091169150635b41b90890608401602060405180830381600087803b158015613dcf57600080fd5b505af1158015613de3573d6000803e3d6000fd5b505050506040513d601f19601f82011682018060405250810190613e0791906142ad565b600d54604051630852cd8d60e31b8152600481018390529192506001600160a01b0316906342966c6890602401600060405180830381600087803b158015613e4e57600080fd5b505af1158015613e62573d6000803e3d6000fd5b505050506000600f60009054906101000a90046001600160a01b03166001600160a01b03166392526c0c6040518163ffffffff1660e01b815260040160206040518083038186803b158015613eb657600080fd5b505afa158015613eca573d6000803e3d6000fd5b505050506040513d601f19601f82011682018060405250810190613eee91906142ad565b9050613efa8282612a2d565b925060006402540be400613f0e838661456f565b613f1891906144d8565b9050613f6b600d60009054906101000a90046001600160a01b03166001600160a01b03166318160ddd6040518163ffffffff1660e01b815260040160206040518083038186803b158015613cb957600080fd5b60168054600090613d03908490614492565b600080613f8f600654610e1e856122a3565b9050613fa9601060040154613fa383612c59565b90612eb9565b60138054600090613fbb908490614492565b90915550909392505050565b6000818312613fd65781610931565b5090919050565b6000600160ff1b831480613ff45750600160ff1b82145b156140125760405163b3c754a360e01b815260040160405180910390fd5b600080600085126140235784614028565b846000035b915060008412614038578361403d565b836000035b9050600061405483670de0b6b3a764000084613985565b90506001600160ff1b0381111561408157604051637cb4bef560e01b815260048101829052602401610a31565b60001980871390861380821860011461409a57826135f1565b6135f18361462b565b806040810183101561088657600080fd5b80358015158114610af157600080fd5b6000602082840312156140d5578081fd5b813561093181614671565b6000602082840312156140f1578081fd5b815161093181614671565b600080600060808486031215614110578182fd5b833561411b81614671565b925061412a85602086016140a3565b9150606084013590509250925092565b60008060008060a0858703121561414f578081fd5b843561415a81614671565b93506020850135925061417086604087016140a3565b9396929550929360800135925050565b60008060008060008060e08789031215614198578182fd5b86356141a381614671565b9550602087013594506141b988604089016140a3565b93506080870135925060a087013591506141d560c088016140b4565b90509295509295509295565b600080600080600060a086880312156141f8578081fd5b853561420381614671565b94506020860135935060408601359250606086013560028110614224578182fd5b9150614232608087016140b4565b90509295509295909350565b60006020828403121561424f578081fd5b5035919050565b60008060408385031215614268578182fd5b82359150602083013561427a81614671565b809150509250929050565b600060208284031215614296578081fd5b81356001600160e01b031981168114610931578182fd5b6000602082840312156142be578081fd5b5051919050565b600061012082840312156142d7578081fd5b6142df614419565b823581526020830135602082015260408301356040820152606083013560608201526080830135608082015260a083013560a082015260c083013560c082015260e083013560e08201526101008084013581830152508091505092915050565b7f416363657373436f6e74726f6c3a206163636f756e74200000000000000000008152600083516143778160178501602088016145e4565b7001034b99036b4b9b9b4b733903937b6329607d1b60179184019182015283516143a88160288401602088016145e4565b01602801949350505050565b60608101604084833760409190910191909152919050565b60208152600082518060208401526143eb8160408501602087016145e4565b601f01601f19169190910160400192915050565b828152606081016040836020840137600081529392505050565b604051610120810167ffffffffffffffff8111828210171561444b57634e487b7160e01b600052604160045260246000fd5b60405290565b600080821280156001600160ff1b038490038513161561447357614473614645565b600160ff1b839003841281161561448c5761448c614645565b50500190565b600082198211156144a5576144a5614645565b500190565b6000826144b9576144b961465b565b600160ff1b8214600019841416156144d3576144d3614645565b500590565b6000826144e7576144e761465b565b500490565b60006001600160ff1b038184138284138082168684048611161561451257614512614645565b600160ff1b8487128281168783058912161561453057614530614645565b85871292508782058712848416161561454b5761454b614645565b8785058712818416161561456157614561614645565b505050929093029392505050565b600081600019048311821515161561458957614589614645565b500290565b60008083128015600160ff1b8501841216156145ac576145ac614645565b6001600160ff1b03840183138116156145c7576145c7614645565b50500390565b6000828210156145df576145df614645565b500390565b60005b838110156145ff5781810151838201526020016145e7565b8381111561460e576000848401525b50505050565b60008161462357614623614645565b506000190190565b6000600160ff1b82141561464157614641614645565b0390565b634e487b7160e01b600052601160045260246000fd5b634e487b7160e01b600052601260045260246000fd5b6001600160a01b0381168114610d2d57600080fdfeaf290d8680820aad922855f39b306097b20e28774d6c1ad35a20325630c3a02ca264697066735822122025419044b79a4d93b4e88b1bb941f923052bbfdf0e0cff6fad1e27f48be167d264736f6c63430008040033af290d8680820aad922855f39b306097b20e28774d6c1ad35a20325630c3a02c35a7846a2a701fff6f9d61a46ebff5da578c5dcee8bdf361c569f9ea4ee64771",
  "devdoc": {
    "kind": "dev",
    "methods": {
      "changePosition(address,uint256,uint256,uint8,bool)": {
        "params": {
          "isLiquidation": "Transaction is a liquidation (true) or a regular transaction (false)"
        }
      },
      "getGlobalPosition()": {
        "returns": {
          "_0": "Global position"
        }
      },
      "getLpFundingPayments(address)": {
        "params": {
          "account": "Liquidity Provider"
        },
        "returns": {
          "upcomingFundingPayment": "Funding payment. 18 decimals"
        }
      },
      "getLpLiquidity(address)": {
        "params": {
          "account": "Liquidity Provider"
        }
      },
      "getLpOpenNotional(address)": {
        "params": {
          "account": "Liquidity Provider"
        }
      },
      "getLpPosition(address)": {
        "params": {
          "account": "Address to get the LP position from"
        },
        "returns": {
          "_0": "Liquidity Provider position"
        }
      },
      "getLpPositionAfterWithdrawal(address)": {
        "params": {
          "account": "Liquidity Provider"
        },
        "returns": {
          "_0": "(Active) Liquidity Provider position"
        }
      },
      "getLpTradingFees(address)": {
        "params": {
          "account": "Liquidity Provider"
        },
        "returns": {
          "tradingFeesEarned": "Trading fees earned by the Liquidity Provider. 18 decimals"
        }
      },
      "getLpUnrealizedPnL(address)": {
        "params": {
          "account": "Liquidity Provider"
        },
        "returns": {
          "pnl": "Unrealized profit and loss. 18 decimals"
        }
      },
      "getPendingPnL(address)": {
        "params": {
          "account": "Address to get the pnL from"
        },
        "returns": {
          "pnL": "Profit and Loss of an user"
        }
      },
      "getRoleAdmin(bytes32)": {
        "details": "Returns the admin role that controls `role`. See {grantRole} and {revokeRole}. To change a role's admin, use {_setRoleAdmin}."
      },
      "getTotalLiquidityProvided()": {
        "returns": {
          "_0": "market twap. 18 decimals"
        }
      },
      "getTraderFundingPayments(address)": {
        "params": {
          "account": "Trader"
        },
        "returns": {
          "upcomingFundingPayment": "Funding payment. 18 decimals"
        }
      },
      "getTraderPosition(address)": {
        "params": {
          "account": "Address to get the trading position from"
        },
        "returns": {
          "_0": "Trader position"
        }
      },
      "getTraderUnrealizedPnL(address)": {
        "params": {
          "account": "Trader"
        },
        "returns": {
          "pnl": "Unrealized profit and loss. 18 decimals"
        }
      },
      "getUserDebt(address)": {
        "params": {
          "account": "Address to get the pnL from"
        },
        "returns": {
          "debt": "Debt of an user"
        }
      },
      "grantRole(bytes32,address)": {
        "details": "Grants `role` to `account`. If `account` had not been already granted `role`, emits a {RoleGranted} event. Requirements: - the caller must have ``role``'s admin role. May emit a {RoleGranted} event."
      },
      "hasRole(bytes32,address)": {
        "details": "Returns `true` if `account` has been granted `role`."
      },
      "indexPrice()": {
        "returns": {
          "_0": "Index price"
        }
      },
      "marketPrice()": {
        "returns": {
          "_0": "lastPrice Last traded price"
        }
      },
      "paused()": {
        "details": "Returns true if the contract is paused, and false otherwise."
      },
      "provideLiquidity(address,uint256[2],uint256)": {
        "params": {
          "account": "Liquidity provider",
          "amounts": "Amount of virtual tokens ([vQuote, vBase]) provided. 18 decimals",
          "minLpAmount": "Minimum amount of Lp tokens minted. 18 decimals"
        },
        "returns": {
          "tradingFees": "Generated profit generated from trading fees"
        }
      },
      "removeLiquidity(address,uint256,uint256[2],uint256,uint256,bool)": {
        "params": {
          "account": "Account of the LP to remove liquidity from",
          "isLiquidation": "Transaction is a liquidation (true) or a regular transaction (false)",
          "liquidityAmountToRemove": "Amount of liquidity to be removed from the pool. 18 decimals",
          "minAmount": "Minimum amount that the user is willing to accept, in vQuote if LONG, in vBase if SHORT. 18 decimals",
          "minVTokenAmounts": "Minimum amount of virtual tokens [vQuote, vBase] withdrawn from the curve pool. 18 decimals",
          "proposedAmount": "Amount of tokens to be sold, in vBase if LONG, in vQuote if SHORT. 18 decimals"
        },
        "returns": {
          "profit": "Profit realized"
        }
      },
      "renounceRole(bytes32,address)": {
        "details": "Revokes `role` from the calling account. Roles are often managed via {grantRole} and {revokeRole}: this function's purpose is to provide a mechanism for accounts to lose their privileges if they are compromised (such as when a trusted device is misplaced). If the calling account had been revoked `role`, emits a {RoleRevoked} event. Requirements: - the caller must be `account`. May emit a {RoleRevoked} event."
      },
      "revokeRole(bytes32,address)": {
        "details": "Revokes `role` from `account`. If `account` had been granted `role`, emits a {RoleRevoked} event. Requirements: - the caller must have ``role``'s admin role. May emit a {RoleRevoked} event."
      },
      "supportsInterface(bytes4)": {
        "details": "See {IERC165-supportsInterface}."
      }
    },
    "version": 1
  },
  "userdoc": {
    "errors": {
      "PRBMathSD59x18__AbsInputTooSmall()": [
        {
          "notice": "Emitted when the input is MIN_SD59x18."
        }
      ],
      "PRBMathSD59x18__DivInputTooSmall()": [
        {
          "notice": "Emitted when one of the inputs is MIN_SD59x18."
        }
      ],
      "PRBMathSD59x18__DivOverflow(uint256)": [
        {
          "notice": "Emitted when one of the intermediary unsigned results overflows SD59x18."
        }
      ],
      "PRBMathSD59x18__MulInputTooSmall()": [
        {
          "notice": "Emitted when one of the inputs is MIN_SD59x18."
        }
      ],
      "PRBMathSD59x18__MulOverflow(uint256)": [
        {
          "notice": "Emitted when the intermediary absolute result overflows SD59x18."
        }
      ],
      "PRBMath__MulDivFixedPointOverflow(uint256)": [
        {
          "notice": "Emitted when the result overflows uint256."
        }
      ],
      "PRBMath__MulDivOverflow(uint256,uint256)": [
        {
          "notice": "Emitted when the result overflows uint256."
        }
      ],
      "Perpetual_AttemptReducePosition()": [
        {
          "notice": "Emitted when the user attempts to reduce their position using extendPosition"
        }
      ],
      "Perpetual_AttemptReversePosition()": [
        {
          "notice": "Emitted when the user attempts to reverse their position using changePosition"
        }
      ],
      "Perpetual_ExcessiveBlockTradeAmount()": [
        {
          "notice": "Emitted when the price impact of a position is too high"
        }
      ],
      "Perpetual_InsuranceFeeInvalid(int256)": [
        {
          "notice": "Emitted when the proposed insurance fee is insufficient/excessive"
        }
      ],
      "Perpetual_InvalidAdminFee()": [
        {
          "notice": "Emitted when the curve admin fee is invalid"
        }
      ],
      "Perpetual_LPOpenPosition()": [
        {
          "notice": "Emitted when the liquidity provider has an open position"
        }
      ],
      "Perpetual_LPWithdrawExceedsBalance()": [
        {
          "notice": "Emitted when the user attempts to withdraw more liquidity than they have deposited"
        }
      ],
      "Perpetual_LockPeriodInvalid(uint256)": [
        {
          "notice": "Emitted when the proposed lp lock period is insufficient/excessive"
        }
      ],
      "Perpetual_LockPeriodNotReached(uint256)": [
        {
          "notice": "Emitted when the user attempts remove liquidity too early"
        }
      ],
      "Perpetual_LpAmountDeviation()": [
        {
          "notice": "Emitted when the user attempts provide liquidity with skewed ratios"
        }
      ],
      "Perpetual_LpDebtCoefInvalid(int256)": [
        {
          "notice": "Emitted when the proposed lp debt coefficient is insufficient/excessive"
        }
      ],
      "Perpetual_MarketBalanceTooLow()": [
        {
          "notice": "Emitted when a token balance of the market is lte 1"
        }
      ],
      "Perpetual_MarketEqualFees()": [
        {
          "notice": "Emitted when market mid fee does not equal out fee"
        }
      ],
      "Perpetual_MaxBlockAmountInvalid(uint256)": [
        {
          "notice": "Emitted when the proposed maximum block trade amount is insufficient"
        }
      ],
      "Perpetual_MaxLiquidityProvided()": [
        {
          "notice": "Emitted when the max tvl is reached"
        }
      ],
      "Perpetual_MaxPositionSize()": [
        {
          "notice": "Emitted when the position exceeds the max position size"
        }
      ],
      "Perpetual_NoOpenPosition()": [
        {
          "notice": "Emitted when the user does not have an open position"
        }
      ],
      "Perpetual_ProposedAmountExceedsMaxMarketPrice()": [
        {
          "notice": "Emitted when proposed amount is greater than maxVQuoteAmount"
        }
      ],
      "Perpetual_ProposedAmountExceedsPositionSize()": [
        {
          "notice": "Emitted when proposed amount is greater than position size"
        }
      ],
      "Perpetual_SenderNotClearingHouse()": [
        {
          "notice": "Emitted when the sender is not the clearing house"
        }
      ],
      "Perpetual_SenderNotClearingHouseOwner()": [
        {
          "notice": "Emitted when the sender is not the clearing house owner"
        }
      ],
      "Perpetual_SensitivityInvalid(int256)": [
        {
          "notice": "Emitted when the proposed funding rate sensitivity is insufficient/excessive"
        }
      ],
      "Perpetual_TradingFeeInvalid(int256)": [
        {
          "notice": "Emitted when the proposed trading fee is insufficient/excessive"
        }
      ],
      "Perpetual_TwapFrequencyInvalid(uint256)": [
        {
          "notice": "Emitted when the proposed twap frequency is insufficient/excessive"
        }
      ],
      "Perpetual_VirtualTokenApprovalConstructor(uint256)": [
        {
          "notice": "Emitted when the constructor fails to give approval of a virtual token to the market"
        }
      ],
      "Perpetual_ZeroAddressConstructor(uint256)": [
        {
          "notice": "Emitted when the zero address is provided as a parameter in the constructor"
        }
      ]
    },
    "events": {
      "DustGenerated(uint256)": {
        "notice": "Emitted when (base) dust is generated"
      },
      "FundingRateUpdated(int256,int256)": {
        "notice": "Emitted when funding rate is updated"
      },
      "Log(string)": {
        "notice": "Emitted when swap with cryptoswap pool fails"
      },
      "PerpetualParametersChanged(uint256,uint256,uint256,int256,uint256,int256,int256,int256,uint256)": {
        "notice": "Emitted when parameters are changed"
      },
      "TwapUpdated(int256,int256)": {
        "notice": "Emitted when twap is updated"
      }
    },
    "kind": "user",
    "methods": {
      "clearingHouse()": {
        "notice": "Clearing House contract"
      },
      "getGlobalPosition()": {
        "notice": "Get global market position"
      },
      "getLpFundingPayments(address)": {
        "notice": "Get the approximate funding payments for a Liquidity Provider"
      },
      "getLpLiquidity(address)": {
        "notice": "Get the lp tokens owned by a Liquidity Provider"
      },
      "getLpOpenNotional(address)": {
        "notice": "Get the dollar value of the liquidity provided by an Liquidity Provider"
      },
      "getLpPosition(address)": {
        "notice": "Get the position of a liquidity provider"
      },
      "getLpPositionAfterWithdrawal(address)": {
        "notice": "Get the (active) position of a liquidity provider after withdrawing liquidity"
      },
      "getLpTradingFees(address)": {
        "notice": "Get the trading fees earned by a Liquidity Provider"
      },
      "getLpUnrealizedPnL(address)": {
        "notice": "Get the unrealized profit and Loss of a Liquidity Provider"
      },
      "getPendingPnL(address)": {
        "notice": "Get the Profit and Loss of a user"
      },
      "getTotalLiquidityProvided()": {
        "notice": "Get the market Total Liquidity provided to the Crypto Swap pool"
      },
      "getTraderFundingPayments(address)": {
        "notice": "Get the approximate funding payments for a trader"
      },
      "getTraderPosition(address)": {
        "notice": "Get the position of a trader"
      },
      "getTraderUnrealizedPnL(address)": {
        "notice": "Get the unrealized profit and Loss of a trader"
      },
      "getUserDebt(address)": {
        "notice": "Get the user debt of an user"
      },
      "indexPrice()": {
        "notice": "Return the current off-chain exchange rate for vBase/vQuote"
      },
      "market()": {
        "notice": "Curve CryptoSwap pool"
      },
      "marketPrice()": {
        "notice": "Return the last traded price (used for TWAP)"
      },
      "pause()": {
        "notice": "Pause the contract"
      },
      "provideLiquidity(address,uint256[2],uint256)": {
        "notice": "Provide liquidity to the pool"
      },
      "removeLiquidity(address,uint256,uint256[2],uint256,uint256,bool)": {
        "notice": "Remove liquidity from the pool"
      },
      "unpause()": {
        "notice": "Unpause the contract"
      },
      "vBase()": {
        "notice": "vBase token (traded on CryptoSwap pool)"
      },
      "vQuote()": {
        "notice": "vQuote token (traded on CryptoSwap pool)"
      }
    },
    "notice": "Handles all the trading logic. Interact with the CryptoSwap pool",
    "version": 1
  },
  "storageLayout": {
    "storage": [
      {
        "astId": 737,
        "contract": "contracts/Perpetual.sol:Perpetual",
        "label": "_paused",
        "offset": 0,
        "slot": "0",
        "type": "t_bool"
      },
      {
        "astId": 70,
        "contract": "contracts/Perpetual.sol:Perpetual",
        "label": "_roles",
        "offset": 0,
        "slot": "1",
        "type": "t_mapping(t_bytes32,t_struct(RoleData)65_storage)"
      },
      {
        "astId": 9760,
        "contract": "contracts/Perpetual.sol:Perpetual",
        "label": "riskWeight",
        "offset": 0,
        "slot": "2",
        "type": "t_uint256"
      },
      {
        "astId": 9763,
        "contract": "contracts/Perpetual.sol:Perpetual",
        "label": "maxLiquidityProvided",
        "offset": 0,
        "slot": "3",
        "type": "t_uint256"
      },
      {
        "astId": 9766,
        "contract": "contracts/Perpetual.sol:Perpetual",
        "label": "twapFrequency",
        "offset": 0,
        "slot": "4",
        "type": "t_uint256"
      },
      {
        "astId": 9769,
        "contract": "contracts/Perpetual.sol:Perpetual",
        "label": "sensitivity",
        "offset": 0,
        "slot": "5",
        "type": "t_int256"
      },
      {
        "astId": 9772,
        "contract": "contracts/Perpetual.sol:Perpetual",
        "label": "tradingFee",
        "offset": 0,
        "slot": "6",
        "type": "t_int256"
      },
      {
        "astId": 9775,
        "contract": "contracts/Perpetual.sol:Perpetual",
        "label": "insuranceFee",
        "offset": 0,
        "slot": "7",
        "type": "t_int256"
      },
      {
        "astId": 9778,
        "contract": "contracts/Perpetual.sol:Perpetual",
        "label": "lpDebtCoef",
        "offset": 0,
        "slot": "8",
        "type": "t_int256"
      },
      {
        "astId": 9781,
        "contract": "contracts/Perpetual.sol:Perpetual",
        "label": "maxBlockTradeAmount",
        "offset": 0,
        "slot": "9",
        "type": "t_uint256"
      },
      {
        "astId": 9784,
        "contract": "contracts/Perpetual.sol:Perpetual",
        "label": "maxPosition",
        "offset": 0,
        "slot": "10",
        "type": "t_uint256"
      },
      {
        "astId": 9787,
        "contract": "contracts/Perpetual.sol:Perpetual",
        "label": "lockPeriod",
        "offset": 0,
        "slot": "11",
        "type": "t_uint256"
      },
      {
        "astId": 9792,
        "contract": "contracts/Perpetual.sol:Perpetual",
        "label": "vBase",
        "offset": 0,
        "slot": "12",
        "type": "t_contract(IVBase)16155"
      },
      {
        "astId": 9797,
        "contract": "contracts/Perpetual.sol:Perpetual",
        "label": "vQuote",
        "offset": 0,
        "slot": "13",
        "type": "t_contract(IVQuote)16162"
      },
      {
        "astId": 9802,
        "contract": "contracts/Perpetual.sol:Perpetual",
        "label": "clearingHouse",
        "offset": 0,
        "slot": "14",
        "type": "t_contract(IClearingHouse)14906"
      },
      {
        "astId": 9807,
        "contract": "contracts/Perpetual.sol:Perpetual",
        "label": "market",
        "offset": 0,
        "slot": "15",
        "type": "t_contract(ICryptoSwap)15276"
      },
      {
        "astId": 9810,
        "contract": "contracts/Perpetual.sol:Perpetual",
        "label": "globalPosition",
        "offset": 0,
        "slot": "16",
        "type": "t_struct(GlobalPosition)16674_storage"
      },
      {
        "astId": 9812,
        "contract": "contracts/Perpetual.sol:Perpetual",
        "label": "oracleCumulativeAmount",
        "offset": 0,
        "slot": "23",
        "type": "t_int256"
      },
      {
        "astId": 9814,
        "contract": "contracts/Perpetual.sol:Perpetual",
        "label": "oracleCumulativeAmountAtBeginningOfPeriod",
        "offset": 0,
        "slot": "24",
        "type": "t_int256"
      },
      {
        "astId": 9817,
        "contract": "contracts/Perpetual.sol:Perpetual",
        "label": "oracleTwap",
        "offset": 0,
        "slot": "25",
        "type": "t_int256"
      },
      {
        "astId": 9819,
        "contract": "contracts/Perpetual.sol:Perpetual",
        "label": "marketCumulativeAmount",
        "offset": 0,
        "slot": "26",
        "type": "t_int256"
      },
      {
        "astId": 9821,
        "contract": "contracts/Perpetual.sol:Perpetual",
        "label": "marketCumulativeAmountAtBeginningOfPeriod",
        "offset": 0,
        "slot": "27",
        "type": "t_int256"
      },
      {
        "astId": 9824,
        "contract": "contracts/Perpetual.sol:Perpetual",
        "label": "marketTwap",
        "offset": 0,
        "slot": "28",
        "type": "t_int256"
      },
      {
        "astId": 9829,
        "contract": "contracts/Perpetual.sol:Perpetual",
        "label": "traderPosition",
        "offset": 0,
        "slot": "29",
        "type": "t_mapping(t_address,t_struct(TraderPosition)16657_storage)"
      },
      {
        "astId": 9834,
        "contract": "contracts/Perpetual.sol:Perpetual",
        "label": "lpPosition",
        "offset": 0,
        "slot": "30",
        "type": "t_mapping(t_address,t_struct(LiquidityProviderPosition)16650_storage)"
      }
    ],
    "types": {
      "t_address": {
        "encoding": "inplace",
        "label": "address",
        "numberOfBytes": "20"
      },
      "t_bool": {
        "encoding": "inplace",
        "label": "bool",
        "numberOfBytes": "1"
      },
      "t_bytes32": {
        "encoding": "inplace",
        "label": "bytes32",
        "numberOfBytes": "32"
      },
      "t_contract(IClearingHouse)14906": {
        "encoding": "inplace",
        "label": "contract IClearingHouse",
        "numberOfBytes": "20"
      },
      "t_contract(ICryptoSwap)15276": {
        "encoding": "inplace",
        "label": "contract ICryptoSwap",
        "numberOfBytes": "20"
      },
      "t_contract(IVBase)16155": {
        "encoding": "inplace",
        "label": "contract IVBase",
        "numberOfBytes": "20"
      },
      "t_contract(IVQuote)16162": {
        "encoding": "inplace",
        "label": "contract IVQuote",
        "numberOfBytes": "20"
      },
      "t_int256": {
        "encoding": "inplace",
        "label": "int256",
        "numberOfBytes": "32"
      },
      "t_mapping(t_address,t_bool)": {
        "encoding": "mapping",
        "key": "t_address",
        "label": "mapping(address => bool)",
        "numberOfBytes": "32",
        "value": "t_bool"
      },
      "t_mapping(t_address,t_struct(LiquidityProviderPosition)16650_storage)": {
        "encoding": "mapping",
        "key": "t_address",
        "label": "mapping(address => struct LibPerpetual.LiquidityProviderPosition)",
        "numberOfBytes": "32",
        "value": "t_struct(LiquidityProviderPosition)16650_storage"
      },
      "t_mapping(t_address,t_struct(TraderPosition)16657_storage)": {
        "encoding": "mapping",
        "key": "t_address",
        "label": "mapping(address => struct LibPerpetual.TraderPosition)",
        "numberOfBytes": "32",
        "value": "t_struct(TraderPosition)16657_storage"
      },
      "t_mapping(t_bytes32,t_struct(RoleData)65_storage)": {
        "encoding": "mapping",
        "key": "t_bytes32",
        "label": "mapping(bytes32 => struct AccessControl.RoleData)",
        "numberOfBytes": "32",
        "value": "t_struct(RoleData)65_storage"
      },
      "t_struct(GlobalPosition)16674_storage": {
        "encoding": "inplace",
        "label": "struct LibPerpetual.GlobalPosition",
        "members": [
          {
            "astId": 16659,
            "contract": "contracts/Perpetual.sol:Perpetual",
            "label": "timeOfLastTrade",
            "offset": 0,
            "slot": "0",
            "type": "t_uint128"
          },
          {
            "astId": 16661,
            "contract": "contracts/Perpetual.sol:Perpetual",
            "label": "timeOfLastTwapUpdate",
            "offset": 16,
            "slot": "0",
            "type": "t_uint128"
          },
          {
            "astId": 16663,
            "contract": "contracts/Perpetual.sol:Perpetual",
            "label": "cumFundingRate",
            "offset": 0,
            "slot": "1",
            "type": "t_int256"
          },
          {
            "astId": 16665,
            "contract": "contracts/Perpetual.sol:Perpetual",
            "label": "currentBlockTradeAmount",
            "offset": 0,
            "slot": "2",
            "type": "t_uint256"
          },
          {
            "astId": 16667,
            "contract": "contracts/Perpetual.sol:Perpetual",
            "label": "totalTradingFeesGrowth",
            "offset": 0,
            "slot": "3",
            "type": "t_uint256"
          },
          {
            "astId": 16669,
            "contract": "contracts/Perpetual.sol:Perpetual",
            "label": "totalLiquidityProvided",
            "offset": 0,
            "slot": "4",
            "type": "t_uint256"
          },
          {
            "astId": 16671,
            "contract": "contracts/Perpetual.sol:Perpetual",
            "label": "totalBaseFeesGrowth",
            "offset": 0,
            "slot": "5",
            "type": "t_uint256"
          },
          {
            "astId": 16673,
            "contract": "contracts/Perpetual.sol:Perpetual",
            "label": "totalQuoteFeesGrowth",
            "offset": 0,
            "slot": "6",
            "type": "t_uint256"
          }
        ],
        "numberOfBytes": "224"
      },
      "t_struct(LiquidityProviderPosition)16650_storage": {
        "encoding": "inplace",
        "label": "struct LibPerpetual.LiquidityProviderPosition",
        "members": [
          {
            "astId": 16635,
            "contract": "contracts/Perpetual.sol:Perpetual",
            "label": "openNotional",
            "offset": 0,
            "slot": "0",
            "type": "t_int256"
          },
          {
            "astId": 16637,
            "contract": "contracts/Perpetual.sol:Perpetual",
            "label": "positionSize",
            "offset": 0,
            "slot": "1",
            "type": "t_int256"
          },
          {
            "astId": 16639,
            "contract": "contracts/Perpetual.sol:Perpetual",
            "label": "cumFundingRate",
            "offset": 0,
            "slot": "2",
            "type": "t_int256"
          },
          {
            "astId": 16641,
            "contract": "contracts/Perpetual.sol:Perpetual",
            "label": "liquidityBalance",
            "offset": 0,
            "slot": "3",
            "type": "t_uint256"
          },
          {
            "astId": 16643,
            "contract": "contracts/Perpetual.sol:Perpetual",
            "label": "depositTime",
            "offset": 0,
            "slot": "4",
            "type": "t_uint256"
          },
          {
            "astId": 16645,
            "contract": "contracts/Perpetual.sol:Perpetual",
            "label": "totalTradingFeesGrowth",
            "offset": 0,
            "slot": "5",
            "type": "t_uint256"
          },
          {
            "astId": 16647,
            "contract": "contracts/Perpetual.sol:Perpetual",
            "label": "totalBaseFeesGrowth",
            "offset": 0,
            "slot": "6",
            "type": "t_uint256"
          },
          {
            "astId": 16649,
            "contract": "contracts/Perpetual.sol:Perpetual",
            "label": "totalQuoteFeesGrowth",
            "offset": 0,
            "slot": "7",
            "type": "t_uint256"
          }
        ],
        "numberOfBytes": "256"
      },
      "t_struct(RoleData)65_storage": {
        "encoding": "inplace",
        "label": "struct AccessControl.RoleData",
        "members": [
          {
            "astId": 62,
            "contract": "contracts/Perpetual.sol:Perpetual",
            "label": "members",
            "offset": 0,
            "slot": "0",
            "type": "t_mapping(t_address,t_bool)"
          },
          {
            "astId": 64,
            "contract": "contracts/Perpetual.sol:Perpetual",
            "label": "adminRole",
            "offset": 0,
            "slot": "1",
            "type": "t_bytes32"
          }
        ],
        "numberOfBytes": "64"
      },
      "t_struct(TraderPosition)16657_storage": {
        "encoding": "inplace",
        "label": "struct LibPerpetual.TraderPosition",
        "members": [
          {
            "astId": 16652,
            "contract": "contracts/Perpetual.sol:Perpetual",
            "label": "openNotional",
            "offset": 0,
            "slot": "0",
            "type": "t_int256"
          },
          {
            "astId": 16654,
            "contract": "contracts/Perpetual.sol:Perpetual",
            "label": "positionSize",
            "offset": 0,
            "slot": "1",
            "type": "t_int256"
          },
          {
            "astId": 16656,
            "contract": "contracts/Perpetual.sol:Perpetual",
            "label": "cumFundingRate",
            "offset": 0,
            "slot": "2",
            "type": "t_int256"
          }
        ],
        "numberOfBytes": "96"
      },
      "t_uint128": {
        "encoding": "inplace",
        "label": "uint128",
        "numberOfBytes": "16"
      },
      "t_uint256": {
        "encoding": "inplace",
        "label": "uint256",
        "numberOfBytes": "32"
      }
    }
  }
}