{
  "address": "0x865C437d081133cbAa6495aDD1Bc7586022681A5",
  "abi": [
    {
      "inputs": [
        {
          "internalType": "contract IERC20Metadata",
          "name": "initialReserveToken",
          "type": "address"
        },
        {
          "internalType": "uint256",
          "name": "initialTokenMaxMintCap",
          "type": "uint256"
        }
      ],
      "stateMutability": "nonpayable",
      "type": "constructor"
    },
    {
      "inputs": [],
      "name": "UA_ExcessiveTokenMintCapReached",
      "type": "error"
    },
    {
      "inputs": [],
      "name": "UA_InvalidReserveTokenIndex",
      "type": "error"
    },
    {
      "inputs": [],
      "name": "UA_ReserveTokenAlreadyAssigned",
      "type": "error"
    },
    {
      "inputs": [],
      "name": "UA_ReserveTokenZeroAddress",
      "type": "error"
    },
    {
      "anonymous": false,
      "inputs": [
        {
          "indexed": true,
          "internalType": "address",
          "name": "owner",
          "type": "address"
        },
        {
          "indexed": true,
          "internalType": "address",
          "name": "spender",
          "type": "address"
        },
        {
          "indexed": false,
          "internalType": "uint256",
          "name": "value",
          "type": "uint256"
        }
      ],
      "name": "Approval",
      "type": "event"
    },
    {
      "anonymous": false,
      "inputs": [
        {
          "indexed": true,
          "internalType": "contract IERC20Metadata",
          "name": "newToken",
          "type": "address"
        },
        {
          "indexed": false,
          "internalType": "uint256",
          "name": "numReserveTokens",
          "type": "uint256"
        }
      ],
      "name": "ReserveTokenAdded",
      "type": "event"
    },
    {
      "anonymous": false,
      "inputs": [
        {
          "indexed": true,
          "internalType": "contract IERC20Metadata",
          "name": "token",
          "type": "address"
        },
        {
          "indexed": false,
          "internalType": "uint256",
          "name": "newMaxMintCap",
          "type": "uint256"
        }
      ],
      "name": "ReserveTokenMaxMintCapUpdated",
      "type": "event"
    },
    {
      "anonymous": false,
      "inputs": [
        {
          "indexed": true,
          "internalType": "bytes32",
          "name": "role",
          "type": "bytes32"
        },
        {
          "indexed": true,
          "internalType": "bytes32",
          "name": "previousAdminRole",
          "type": "bytes32"
        },
        {
          "indexed": true,
          "internalType": "bytes32",
          "name": "newAdminRole",
          "type": "bytes32"
        }
      ],
      "name": "RoleAdminChanged",
      "type": "event"
    },
    {
      "anonymous": false,
      "inputs": [
        {
          "indexed": true,
          "internalType": "bytes32",
          "name": "role",
          "type": "bytes32"
        },
        {
          "indexed": true,
          "internalType": "address",
          "name": "account",
          "type": "address"
        },
        {
          "indexed": true,
          "internalType": "address",
          "name": "sender",
          "type": "address"
        }
      ],
      "name": "RoleGranted",
      "type": "event"
    },
    {
      "anonymous": false,
      "inputs": [
        {
          "indexed": true,
          "internalType": "bytes32",
          "name": "role",
          "type": "bytes32"
        },
        {
          "indexed": true,
          "internalType": "address",
          "name": "account",
          "type": "address"
        },
        {
          "indexed": true,
          "internalType": "address",
          "name": "sender",
          "type": "address"
        }
      ],
      "name": "RoleRevoked",
      "type": "event"
    },
    {
      "anonymous": false,
      "inputs": [
        {
          "indexed": true,
          "internalType": "address",
          "name": "from",
          "type": "address"
        },
        {
          "indexed": true,
          "internalType": "address",
          "name": "to",
          "type": "address"
        },
        {
          "indexed": false,
          "internalType": "uint256",
          "name": "value",
          "type": "uint256"
        }
      ],
      "name": "Transfer",
      "type": "event"
    },
    {
      "inputs": [],
      "name": "DEFAULT_ADMIN_ROLE",
      "outputs": [
        {
          "internalType": "bytes32",
          "name": "",
          "type": "bytes32"
        }
      ],
      "stateMutability": "view",
      "type": "function"
    },
    {
      "inputs": [],
      "name": "GOVERNANCE",
      "outputs": [
        {
          "internalType": "bytes32",
          "name": "",
          "type": "bytes32"
        }
      ],
      "stateMutability": "view",
      "type": "function"
    },
    {
      "inputs": [],
      "name": "MANAGER",
      "outputs": [
        {
          "internalType": "bytes32",
          "name": "",
          "type": "bytes32"
        }
      ],
      "stateMutability": "view",
      "type": "function"
    },
    {
      "inputs": [
        {
          "internalType": "contract IERC20Metadata",
          "name": "newReserveToken",
          "type": "address"
        },
        {
          "internalType": "uint256",
          "name": "tokenMaxMintCap",
          "type": "uint256"
        }
      ],
      "name": "addReserveToken",
      "outputs": [],
      "stateMutability": "nonpayable",
      "type": "function"
    },
    {
      "inputs": [
        {
          "internalType": "address",
          "name": "",
          "type": "address"
        },
        {
          "internalType": "address",
          "name": "",
          "type": "address"
        }
      ],
      "name": "allowance",
      "outputs": [
        {
          "internalType": "uint256",
          "name": "",
          "type": "uint256"
        }
      ],
      "stateMutability": "view",
      "type": "function"
    },
    {
      "inputs": [
        {
          "internalType": "address",
          "name": "spender",
          "type": "address"
        },
        {
          "internalType": "uint256",
          "name": "amount",
          "type": "uint256"
        }
      ],
      "name": "approve",
      "outputs": [
        {
          "internalType": "bool",
          "name": "",
          "type": "bool"
        }
      ],
      "stateMutability": "nonpayable",
      "type": "function"
    },
    {
      "inputs": [
        {
          "internalType": "address",
          "name": "",
          "type": "address"
        }
      ],
      "name": "balanceOf",
      "outputs": [
        {
          "internalType": "uint256",
          "name": "",
          "type": "uint256"
        }
      ],
      "stateMutability": "view",
      "type": "function"
    },
    {
      "inputs": [
        {
          "internalType": "uint256",
          "name": "tokenIdx",
          "type": "uint256"
        },
        {
          "internalType": "uint256",
          "name": "newMaxMintCap",
          "type": "uint256"
        }
      ],
      "name": "changeReserveTokenMaxMintCap",
      "outputs": [],
      "stateMutability": "nonpayable",
      "type": "function"
    },
    {
      "inputs": [],
      "name": "decimals",
      "outputs": [
        {
          "internalType": "uint8",
          "name": "",
          "type": "uint8"
        }
      ],
      "stateMutability": "view",
      "type": "function"
    },
    {
      "inputs": [],
      "name": "getNumReserveTokens",
      "outputs": [
        {
          "internalType": "uint256",
          "name": "",
          "type": "uint256"
        }
      ],
      "stateMutability": "view",
      "type": "function"
    },
    {
      "inputs": [
        {
          "internalType": "bytes32",
          "name": "role",
          "type": "bytes32"
        }
      ],
      "name": "getRoleAdmin",
      "outputs": [
        {
          "internalType": "bytes32",
          "name": "",
          "type": "bytes32"
        }
      ],
      "stateMutability": "view",
      "type": "function"
    },
    {
      "inputs": [
        {
          "internalType": "bytes32",
          "name": "role",
          "type": "bytes32"
        },
        {
          "internalType": "address",
          "name": "account",
          "type": "address"
        }
      ],
      "name": "grantRole",
      "outputs": [],
      "stateMutability": "nonpayable",
      "type": "function"
    },
    {
      "inputs": [
        {
          "internalType": "bytes32",
          "name": "role",
          "type": "bytes32"
        },
        {
          "internalType": "address",
          "name": "account",
          "type": "address"
        }
      ],
      "name": "hasRole",
      "outputs": [
        {
          "internalType": "bool",
          "name": "",
          "type": "bool"
        }
      ],
      "stateMutability": "view",
      "type": "function"
    },
    {
      "inputs": [
        {
          "internalType": "address",
          "name": "account",
          "type": "address"
        }
      ],
      "name": "isGovernor",
      "outputs": [
        {
          "internalType": "bool",
          "name": "",
          "type": "bool"
        }
      ],
      "stateMutability": "view",
      "type": "function"
    },
    {
      "inputs": [
        {
          "internalType": "address",
          "name": "account",
          "type": "address"
        }
      ],
      "name": "isManager",
      "outputs": [
        {
          "internalType": "bool",
          "name": "",
          "type": "bool"
        }
      ],
      "stateMutability": "view",
      "type": "function"
    },
    {
      "inputs": [
        {
          "internalType": "uint256",
          "name": "tokenIdx",
          "type": "uint256"
        },
        {
          "internalType": "uint256",
          "name": "amount",
          "type": "uint256"
        }
      ],
      "name": "mintWithReserve",
      "outputs": [],
      "stateMutability": "nonpayable",
      "type": "function"
    },
    {
      "inputs": [],
      "name": "name",
      "outputs": [
        {
          "internalType": "string",
          "name": "",
          "type": "string"
        }
      ],
      "stateMutability": "view",
      "type": "function"
    },
    {
      "inputs": [
        {
          "internalType": "bytes32",
          "name": "role",
          "type": "bytes32"
        },
        {
          "internalType": "address",
          "name": "account",
          "type": "address"
        }
      ],
      "name": "renounceRole",
      "outputs": [],
      "stateMutability": "nonpayable",
      "type": "function"
    },
    {
      "inputs": [
        {
          "internalType": "uint256",
          "name": "",
          "type": "uint256"
        }
      ],
      "name": "reserveTokens",
      "outputs": [
        {
          "internalType": "contract IERC20Metadata",
          "name": "asset",
          "type": "address"
        },
        {
          "internalType": "uint256",
          "name": "currentMintCap",
          "type": "uint256"
        },
        {
          "internalType": "uint256",
          "name": "maxMintCap",
          "type": "uint256"
        }
      ],
      "stateMutability": "view",
      "type": "function"
    },
    {
      "inputs": [
        {
          "internalType": "bytes32",
          "name": "role",
          "type": "bytes32"
        },
        {
          "internalType": "address",
          "name": "account",
          "type": "address"
        }
      ],
      "name": "revokeRole",
      "outputs": [],
      "stateMutability": "nonpayable",
      "type": "function"
    },
    {
      "inputs": [
        {
          "internalType": "bytes4",
          "name": "interfaceId",
          "type": "bytes4"
        }
      ],
      "name": "supportsInterface",
      "outputs": [
        {
          "internalType": "bool",
          "name": "",
          "type": "bool"
        }
      ],
      "stateMutability": "view",
      "type": "function"
    },
    {
      "inputs": [],
      "name": "symbol",
      "outputs": [
        {
          "internalType": "string",
          "name": "",
          "type": "string"
        }
      ],
      "stateMutability": "view",
      "type": "function"
    },
    {
      "inputs": [],
      "name": "totalSupply",
      "outputs": [
        {
          "internalType": "uint256",
          "name": "",
          "type": "uint256"
        }
      ],
      "stateMutability": "view",
      "type": "function"
    },
    {
      "inputs": [
        {
          "internalType": "address",
          "name": "to",
          "type": "address"
        },
        {
          "internalType": "uint256",
          "name": "amount",
          "type": "uint256"
        }
      ],
      "name": "transfer",
      "outputs": [
        {
          "internalType": "bool",
          "name": "",
          "type": "bool"
        }
      ],
      "stateMutability": "nonpayable",
      "type": "function"
    },
    {
      "inputs": [
        {
          "internalType": "address",
          "name": "from",
          "type": "address"
        },
        {
          "internalType": "address",
          "name": "to",
          "type": "address"
        },
        {
          "internalType": "uint256",
          "name": "amount",
          "type": "uint256"
        }
      ],
      "name": "transferFrom",
      "outputs": [
        {
          "internalType": "bool",
          "name": "",
          "type": "bool"
        }
      ],
      "stateMutability": "nonpayable",
      "type": "function"
    },
    {
      "inputs": [
        {
          "internalType": "uint256",
          "name": "tokenIdx",
          "type": "uint256"
        },
        {
          "internalType": "uint256",
          "name": "amount",
          "type": "uint256"
        }
      ],
      "name": "withdraw",
      "outputs": [],
      "stateMutability": "nonpayable",
      "type": "function"
    }
  ],
  "transactionHash": "0x34e87f3ba5a3aefdd40dd14f96d8f3656c500db6b7acad456614eb14f17c774f",
  "args": [
    "0x1156737600BD3D41030892CB358641C279935270",
    "115792089237316195423570985008687907853269984665640564039457584007913129639935"
  ],
  "numDeployments": 1,
  "solcInputHash": "e1cef607481b161ae69d7ea60025156b",
  "bytecode": "0x60806040523480156200001157600080fd5b50604051620023e6380380620023e683398101604081905262000034916200075e565b604080518082018252601981527f496e6372656d656e7420556e6974206f66204163636f756e7400000000000000602080830191825283518085019094526002845261554160f01b9084015281519192916200009391600091620006b8565b508051620000a9906001906020840190620006b8565b505050620000cd600080516020620023c6833981519152336200014160201b60201c565b620000e8600080516020620023c68339815191528062000151565b62000103600080516020620023a68339815191523362000141565b6200012d600080516020620023a6833981519152600080516020620023c683398151915262000151565b6200013982826200019c565b505062000941565b6200014d828262000363565b5050565b600082815260056020526040808220600101805490849055905190918391839186917fbd79b86ffe0ab8e8776151514217cd7cacd52c909f66475c3af44e129f0b00ff9190a4505050565b600080516020620023c6833981519152620001b78162000407565b6001600160a01b038316620001df57604051631715e99b60e11b815260040160405180910390fd5b60005b6006548110156200026857836001600160a01b0316600682815481106200021957634e487b7160e01b600052603260045260246000fd5b60009182526020909120600390910201546001600160a01b03161415620002535760405163f32698dd60e01b815260040160405180910390fd5b806200025f816200090d565b915050620001e2565b50604080516060810182526001600160a01b0385811680835260006020808501828152858701898152600680546001810182559481905296517ff652222313e28459528d920b65115c16c04f3efc82aaedc97be59f3f377c0d3f600390950294850180546001600160a01b0319169190971617909555517ff652222313e28459528d920b65115c16c04f3efc82aaedc97be59f3f377c0d4083015592517ff652222313e28459528d920b65115c16c04f3efc82aaedc97be59f3f377c0d41909101559154925192835290917fc3844645062a80a5a7c7168c8278cb95a5068635e0b2e34bd25bf9f8397398d5910160405180910390a2505050565b60008281526005602090815260408083206001600160a01b038516845290915290205460ff166200014d5760008281526005602090815260408083206001600160a01b03851684529091529020805460ff19166001179055620003c33390565b6001600160a01b0316816001600160a01b0316837f2f8788117e7eff1d82e926ec794901d17c78024a50270940304540a733656f0d60405160405180910390a45050565b62000413813362000416565b50565b60008281526005602090815260408083206001600160a01b038516845290915290205460ff166200014d5762000462816001600160a01b03166014620004bc60201b62000da01760201c565b6200047883602062000da0620004bc821b17811c565b6040516020016200048b92919062000798565b60408051601f198184030181529082905262461bcd60e51b8252620004b39160040162000811565b60405180910390fd5b60606000620004cd83600262000861565b620004da90600262000846565b6001600160401b038111156200050057634e487b7160e01b600052604160045260246000fd5b6040519080825280601f01601f1916602001820160405280156200052b576020820181803683370190505b509050600360fc1b816000815181106200055557634e487b7160e01b600052603260045260246000fd5b60200101906001600160f81b031916908160001a905350600f60fb1b816001815181106200059357634e487b7160e01b600052603260045260246000fd5b60200101906001600160f81b031916908160001a9053506000620005b984600262000861565b620005c690600162000846565b90505b600181111562000660576f181899199a1a9b1b9c1cb0b131b232b360811b85600f16601081106200060a57634e487b7160e01b600052603260045260246000fd5b1a60f81b8282815181106200062f57634e487b7160e01b600052603260045260246000fd5b60200101906001600160f81b031916908160001a90535060049490941c936200065881620008b6565b9050620005c9565b508315620006b15760405162461bcd60e51b815260206004820181905260248201527f537472696e67733a20686578206c656e67746820696e73756666696369656e746044820152606401620004b3565b9392505050565b828054620006c690620008d0565b90600052602060002090601f016020900481019282620006ea576000855562000735565b82601f106200070557805160ff191683800117855562000735565b8280016001018555821562000735579182015b828111156200073557825182559160200191906001019062000718565b506200074392915062000747565b5090565b5b8082111562000743576000815560010162000748565b6000806040838503121562000771578182fd5b82516001600160a01b038116811462000788578283fd5b6020939093015192949293505050565b7f416363657373436f6e74726f6c3a206163636f756e7420000000000000000000815260008351620007d281601785016020880162000883565b7001034b99036b4b9b9b4b733903937b6329607d1b60179184019182015283516200080581602884016020880162000883565b01602801949350505050565b60208152600082518060208401526200083281604085016020870162000883565b601f01601f19169190910160400192915050565b600082198211156200085c576200085c6200092b565b500190565b60008160001904831182151516156200087e576200087e6200092b565b500290565b60005b83811015620008a057818101518382015260200162000886565b83811115620008b0576000848401525b50505050565b600081620008c857620008c86200092b565b506000190190565b600181811c90821680620008e557607f821691505b602082108114156200090757634e487b7160e01b600052602260045260246000fd5b50919050565b60006000198214156200092457620009246200092b565b5060010190565b634e487b7160e01b600052601160045260246000fd5b611a5580620009516000396000f3fe608060405234801561001057600080fd5b506004361061018e5760003560e01c806370a08231116100de578063a9059cbb11610097578063dd62ed3e11610071578063dd62ed3e1461039b578063e43581b8146103c6578063ec7d84ca146103d9578063f3ae2415146103e157600080fd5b8063a9059cbb1461033d578063d031370b14610350578063d547741f1461038857600080fd5b806370a08231146102d457806388b2549e146102f457806391d148541461030757806395d89b411461031a5780639c68499714610322578063a217fddf1461033557600080fd5b806323b872dd1161014b578063313ce56711610125578063313ce56714610281578063342842041461029b57806336568abe146102ae578063441a3e70146102c157600080fd5b806323b872dd14610236578063248a9ca3146102495780632f2ff15d1461026c57600080fd5b806301ffc9a71461019357806306fdde03146101bb578063095ea7b3146101d057806314627834146101e357806318160ddd146102065780631b2df8501461020f575b600080fd5b6101a66101a136600461166e565b6103f4565b60405190151581526020015b60405180910390f35b6101c361042b565b6040516101b29190611769565b6101a66101de3660046115e7565b6104b9565b6101f86000805160206119e083398151915281565b6040519081526020016101b2565b6101f860025481565b6101f87faf290d8680820aad922855f39b306097b20e28774d6c1ad35a20325630c3a02c81565b6101a66102443660046115a7565b610525565b6101f8610257366004611632565b60009081526005602052604090206001015490565b61027f61027a36600461164a565b610607565b005b610289601281565b60405160ff90911681526020016101b2565b61027f6102a93660046115e7565b610631565b61027f6102bc36600461164a565b6107ef565b61027f6102cf366004611696565b610872565b6101f86102e2366004611553565b60036020526000908152604090205481565b61027f610302366004611696565b6109cb565b6101a661031536600461164a565b610ab6565b6101c3610ae1565b61027f610330366004611696565b610aee565b6101f8600081565b6101a661034b3660046115e7565b610c92565b61036361035e366004611632565b610cf8565b604080516001600160a01b0390941684526020840192909252908201526060016101b2565b61027f61039636600461164a565b610d35565b6101f86103a936600461156f565b600460209081526000928352604080842090915290825290205481565b6101a66103d4366004611553565b610d5a565b6006546101f8565b6101a66103ef366004611553565b610d74565b60006001600160e01b03198216637965db0b60e01b148061042557506301ffc9a760e01b6001600160e01b03198316145b92915050565b600080546104389061195e565b80601f01602080910402602001604051908101604052809291908181526020018280546104649061195e565b80156104b15780601f10610486576101008083540402835291602001916104b1565b820191906000526020600020905b81548152906001019060200180831161049457829003601f168201915b505050505081565b3360008181526004602090815260408083206001600160a01b038716808552925280832085905551919290917f8c5be1e5ebec7d5bd14f71427d1e84f3dd0314c0f7b2291e5b200ac8c7c3b925906105149086815260200190565b60405180910390a350600192915050565b6001600160a01b038316600090815260046020908152604080832033845290915281205460001981146105815761055c83826118e1565b6001600160a01b03861660009081526004602090815260408083203384529091529020555b6001600160a01b038516600090815260036020526040812080548592906105a99084906118e1565b90915550506001600160a01b0380851660008181526003602052604090819020805487019055519091871690600080516020611a00833981519152906105f29087815260200190565b60405180910390a360019150505b9392505050565b60008281526005602052604090206001015461062281610f82565b61062c8383610f8f565b505050565b6000805160206119e083398151915261064981610f82565b6001600160a01b03831661067057604051631715e99b60e11b815260040160405180910390fd5b60005b6006548110156106f357836001600160a01b0316600682815481106106a857634e487b7160e01b600052603260045260246000fd5b60009182526020909120600390910201546001600160a01b031614156106e15760405163f32698dd60e01b815260040160405180910390fd5b806106eb81611999565b915050610673565b50604080516060810182526001600160a01b0385811680835260006020808501828152858701898152600680546001810182559481905296517ff652222313e28459528d920b65115c16c04f3efc82aaedc97be59f3f377c0d3f600390950294850180546001600160a01b0319169190971617909555517ff652222313e28459528d920b65115c16c04f3efc82aaedc97be59f3f377c0d4083015592517ff652222313e28459528d920b65115c16c04f3efc82aaedc97be59f3f377c0d41909101559154925192835290917fc3844645062a80a5a7c7168c8278cb95a5068635e0b2e34bd25bf9f8397398d591015b60405180910390a2505050565b6001600160a01b03811633146108645760405162461bcd60e51b815260206004820152602f60248201527f416363657373436f6e74726f6c3a2063616e206f6e6c792072656e6f756e636560448201526e103937b632b9903337b91039b2b63360891b60648201526084015b60405180910390fd5b61086e8282611015565b5050565b600654610881906001906118e1565b8211156108a1576040516395d5798160e01b815260040160405180910390fd5b6000600683815481106108c457634e487b7160e01b600052603260045260246000fd5b60009182526020909120600390910201546001600160a01b031690506108ea338361107c565b816006848154811061090c57634e487b7160e01b600052603260045260246000fd5b9060005260206000209060030201600101600082825461092c91906118e1565b9250508190555060006109af826001600160a01b031663313ce5676040518163ffffffff1660e01b815260040160206040518083038186803b15801561097157600080fd5b505afa158015610985573d6000803e3d6000fd5b505050506040513d601f19601f820116820180604052508101906109a991906116b7565b846110e6565b90506109c56001600160a01b038316338361114e565b50505050565b6000805160206119e08339815191526109e381610f82565b6006546109f2906001906118e1565b831115610a12576040516395d5798160e01b815260040160405180910390fd5b8160068481548110610a3457634e487b7160e01b600052603260045260246000fd5b90600052602060002090600302016002018190555060068381548110610a6a57634e487b7160e01b600052603260045260246000fd5b6000918252602091829020600390910201546040518481526001600160a01b03909116917fb3f7cf8ec8bc55a0b2075146ce21acf8210a54deee75db14bd734335aaaae18191016107e2565b60009182526005602090815260408084206001600160a01b0393909316845291905290205460ff1690565b600180546104389061195e565b600654610afd906001906118e1565b821115610b1d576040516395d5798160e01b815260040160405180910390fd5b600060068381548110610b4057634e487b7160e01b600052603260045260246000fd5b6000918252602080832060408051606081018252600390940290910180546001600160a01b031680855260018201548585015260029091015484830152815163313ce56760e01b81529151939550610bf393909263313ce5679260048082019391829003018186803b158015610bb557600080fd5b505afa158015610bc9573d6000803e3d6000fd5b505050506040513d601f19601f82011682018060405250810190610bed91906116b7565b846111b1565b90508160400151818360200151610c0a919061179c565b1115610c295760405163a1c61d3b60e01b815260040160405180910390fd5b8151610c40906001600160a01b0316333086611212565b8060068581548110610c6257634e487b7160e01b600052603260045260246000fd5b90600052602060002090600302016001016000828254610c82919061179c565b909155506109c59050338261124a565b33600090815260036020526040812080548391908390610cb39084906118e1565b90915550506001600160a01b03831660008181526003602052604090819020805485019055513390600080516020611a00833981519152906105149086815260200190565b60068181548110610d0857600080fd5b60009182526020909120600390910201805460018201546002909201546001600160a01b03909116925083565b600082815260056020526040902060010154610d5081610f82565b61062c8383611015565b60006104256000805160206119e083398151915283610ab6565b60006104257faf290d8680820aad922855f39b306097b20e28774d6c1ad35a20325630c3a02c83610ab6565b60606000610daf8360026118c2565b610dba90600261179c565b67ffffffffffffffff811115610de057634e487b7160e01b600052604160045260246000fd5b6040519080825280601f01601f191660200182016040528015610e0a576020820181803683370190505b509050600360fc1b81600081518110610e3357634e487b7160e01b600052603260045260246000fd5b60200101906001600160f81b031916908160001a905350600f60fb1b81600181518110610e7057634e487b7160e01b600052603260045260246000fd5b60200101906001600160f81b031916908160001a9053506000610e948460026118c2565b610e9f90600161179c565b90505b6001811115610f33576f181899199a1a9b1b9c1cb0b131b232b360811b85600f1660108110610ee157634e487b7160e01b600052603260045260246000fd5b1a60f81b828281518110610f0557634e487b7160e01b600052603260045260246000fd5b60200101906001600160f81b031916908160001a90535060049490941c93610f2c81611947565b9050610ea2565b5083156106005760405162461bcd60e51b815260206004820181905260248201527f537472696e67733a20686578206c656e67746820696e73756666696369656e74604482015260640161085b565b610f8c813361129c565b50565b610f998282610ab6565b61086e5760008281526005602090815260408083206001600160a01b03851684529091529020805460ff19166001179055610fd13390565b6001600160a01b0316816001600160a01b0316837f2f8788117e7eff1d82e926ec794901d17c78024a50270940304540a733656f0d60405160405180910390a45050565b61101f8282610ab6565b1561086e5760008281526005602090815260408083206001600160a01b0385168085529252808320805460ff1916905551339285917ff6391f5c32d9c69d2a47ea670b442974b53935d1edc7fd64eb21e047a839171b9190a45050565b6001600160a01b038216600090815260036020526040812080548392906110a49084906118e1565b90915550506002805482900390556040518181526000906001600160a01b03841690600080516020611a00833981519152906020015b60405180910390a35050565b600060ff8316601214156110fb575080610425565b601260ff8416101561112e576111128360126118f8565b61111d90600a611817565b61112790836117b4565b9050610425565b6111396012846118f8565b61114490600a611817565b61060090836118c2565b6040516001600160a01b03831660248201526044810182905261062c90849063a9059cbb60e01b906064015b60408051601f198184030181529190526020810180516001600160e01b03166001600160e01b031990931692909217909152611300565b600060ff8316601214156111c6575080610425565b601260ff841610156111f2576111dd8360126118f8565b6111e890600a611817565b61112790836118c2565b6111fd6012846118f8565b61120890600a611817565b61060090836117b4565b6040516001600160a01b03808516602483015283166044820152606481018290526109c59085906323b872dd60e01b9060840161117a565b806002600082825461125c919061179c565b90915550506001600160a01b038216600081815260036020908152604080832080548601905551848152600080516020611a0083398151915291016110da565b6112a68282610ab6565b61086e576112be816001600160a01b03166014610da0565b6112c9836020610da0565b6040516020016112da9291906116f4565b60408051601f198184030181529082905262461bcd60e51b825261085b91600401611769565b6000611355826040518060400160405280602081526020017f5361666545524332303a206c6f772d6c6576656c2063616c6c206661696c6564815250856001600160a01b03166113d29092919063ffffffff16565b80519091501561062c57808060200190518101906113739190611612565b61062c5760405162461bcd60e51b815260206004820152602a60248201527f5361666545524332303a204552433230206f7065726174696f6e20646964206e6044820152691bdd081cdd58d8d9595960b21b606482015260840161085b565b60606113e184846000856113e9565b949350505050565b60608247101561144a5760405162461bcd60e51b815260206004820152602660248201527f416464726573733a20696e73756666696369656e742062616c616e636520666f6044820152651c8818d85b1b60d21b606482015260840161085b565b6001600160a01b0385163b6114a15760405162461bcd60e51b815260206004820152601d60248201527f416464726573733a2063616c6c20746f206e6f6e2d636f6e7472616374000000604482015260640161085b565b600080866001600160a01b031685876040516114bd91906116d8565b60006040518083038185875af1925050503d80600081146114fa576040519150601f19603f3d011682016040523d82523d6000602084013e6114ff565b606091505b509150915061150f82828661151a565b979650505050505050565b60608315611529575081610600565b8251156115395782518084602001fd5b8160405162461bcd60e51b815260040161085b9190611769565b600060208284031215611564578081fd5b8135610600816119ca565b60008060408385031215611581578081fd5b823561158c816119ca565b9150602083013561159c816119ca565b809150509250929050565b6000806000606084860312156115bb578081fd5b83356115c6816119ca565b925060208401356115d6816119ca565b929592945050506040919091013590565b600080604083850312156115f9578182fd5b8235611604816119ca565b946020939093013593505050565b600060208284031215611623578081fd5b81518015158114610600578182fd5b600060208284031215611643578081fd5b5035919050565b6000806040838503121561165c578182fd5b82359150602083013561159c816119ca565b60006020828403121561167f578081fd5b81356001600160e01b031981168114610600578182fd5b600080604083850312156116a8578182fd5b50508035926020909101359150565b6000602082840312156116c8578081fd5b815160ff81168114610600578182fd5b600082516116ea81846020870161191b565b9190910192915050565b7f416363657373436f6e74726f6c3a206163636f756e742000000000000000000081526000835161172c81601785016020880161191b565b7001034b99036b4b9b9b4b733903937b6329607d1b601791840191820152835161175d81602884016020880161191b565b01602801949350505050565b602081526000825180602084015261178881604085016020870161191b565b601f01601f19169190910160400192915050565b600082198211156117af576117af6119b4565b500190565b6000826117cf57634e487b7160e01b81526012600452602481fd5b500490565b600181815b8085111561180f5781600019048211156117f5576117f56119b4565b8085161561180257918102915b93841c93908002906117d9565b509250929050565b600061060060ff84168360008261183057506001610425565b8161183d57506000610425565b8160018114611853576002811461185d57611879565b6001915050610425565b60ff84111561186e5761186e6119b4565b50506001821b610425565b5060208310610133831016604e8410600b841016171561189c575081810a610425565b6118a683836117d4565b80600019048211156118ba576118ba6119b4565b029392505050565b60008160001904831182151516156118dc576118dc6119b4565b500290565b6000828210156118f3576118f36119b4565b500390565b600060ff821660ff841680821015611912576119126119b4565b90039392505050565b60005b8381101561193657818101518382015260200161191e565b838111156109c55750506000910152565b600081611956576119566119b4565b506000190190565b600181811c9082168061197257607f821691505b6020821081141561199357634e487b7160e01b600052602260045260246000fd5b50919050565b60006000198214156119ad576119ad6119b4565b5060010190565b634e487b7160e01b600052601160045260246000fd5b6001600160a01b0381168114610f8c57600080fdfe35a7846a2a701fff6f9d61a46ebff5da578c5dcee8bdf361c569f9ea4ee64771ddf252ad1be2c89b69c2b068fc378daa952ba7f163c4a11628f55a4df523b3efa26469706673582212205a949bf509f98c7ebd9872587d642943ec9e2fcc51aefccfa0cf7c0c1c13aa1864736f6c63430008040033af290d8680820aad922855f39b306097b20e28774d6c1ad35a20325630c3a02c35a7846a2a701fff6f9d61a46ebff5da578c5dcee8bdf361c569f9ea4ee64771",
  "devdoc": {
    "kind": "dev",
    "methods": {
      "approve(address,uint256)": {
        "details": "Sets `amount` as the allowance of `spender` over the caller's tokens. Returns a boolean value indicating whether the operation succeeded. IMPORTANT: Beware that changing an allowance with this method brings the risk that someone may use both the old and the new allowance by unfortunate transaction ordering. One possible solution to mitigate this race condition is to first reduce the spender's allowance to 0 and set the desired value afterwards: https://github.com/ethereum/EIPs/issues/20#issuecomment-263524729 Emits an {Approval} event."
      },
      "getNumReserveTokens()": {
        "returns": {
          "_0": "Number of reserve tokens"
        }
      },
      "getRoleAdmin(bytes32)": {
        "details": "Returns the admin role that controls `role`. See {grantRole} and {revokeRole}. To change a role's admin, use {_setRoleAdmin}."
      },
      "grantRole(bytes32,address)": {
        "details": "Grants `role` to `account`. If `account` had not been already granted `role`, emits a {RoleGranted} event. Requirements: - the caller must have ``role``'s admin role. May emit a {RoleGranted} event."
      },
      "hasRole(bytes32,address)": {
        "details": "Returns `true` if `account` has been granted `role`."
      },
      "mintWithReserve(uint256,uint256)": {
        "params": {
          "amount": "Amount of reserve token. Might not be 18 decimals",
          "tokenIdx": "Index of token white listed reserve token to add to the protocol"
        }
      },
      "renounceRole(bytes32,address)": {
        "details": "Revokes `role` from the calling account. Roles are often managed via {grantRole} and {revokeRole}: this function's purpose is to provide a mechanism for accounts to lose their privileges if they are compromised (such as when a trusted device is misplaced). If the calling account had been revoked `role`, emits a {RoleRevoked} event. Requirements: - the caller must be `account`. May emit a {RoleRevoked} event."
      },
      "revokeRole(bytes32,address)": {
        "details": "Revokes `role` from `account`. If `account` had been granted `role`, emits a {RoleRevoked} event. Requirements: - the caller must have ``role``'s admin role. May emit a {RoleRevoked} event."
      },
      "supportsInterface(bytes4)": {
        "details": "See {IERC165-supportsInterface}."
      },
      "transfer(address,uint256)": {
        "details": "Moves `amount` tokens from the caller's account to `to`. Returns a boolean value indicating whether the operation succeeded. Emits a {Transfer} event."
      },
      "transferFrom(address,address,uint256)": {
        "details": "Moves `amount` tokens from `from` to `to` using the allowance mechanism. `amount` is then deducted from the caller's allowance. Returns a boolean value indicating whether the operation succeeded. Emits a {Transfer} event."
      },
      "withdraw(uint256,uint256)": {
        "params": {
          "amount": "UA amount. 18 decimals",
          "tokenIdx": "Index of token white listed reserve token to add to the protocol"
        }
      }
    },
    "version": 1
  },
  "userdoc": {
    "errors": {
      "UA_ExcessiveTokenMintCapReached()": [
        {
          "notice": "Emitted when the UA amount to mint with the token exceed the max cap of this token"
        }
      ],
      "UA_InvalidReserveTokenIndex()": [
        {
          "notice": "Emitted when the proposed reserve token index doesn't match any index in the reserve token list"
        }
      ],
      "UA_ReserveTokenAlreadyAssigned()": [
        {
          "notice": "Emitted when the proposed reserve token is already registered"
        }
      ],
      "UA_ReserveTokenZeroAddress()": [
        {
          "notice": "Emitted when the proposed reserve token address is equal to the zero address"
        }
      ]
    },
    "events": {
      "ReserveTokenAdded(address,uint256)": {
        "notice": "Emitted when new reserve token is added"
      },
      "ReserveTokenMaxMintCapUpdated(address,uint256)": {
        "notice": "Emitted when the max mint cap of a reserve token is updated"
      }
    },
    "kind": "user",
    "methods": {
      "getNumReserveTokens()": {
        "notice": "Return the number of reserve tokens"
      },
      "mintWithReserve(uint256,uint256)": {
        "notice": "Mint UA with USDC, 1:1 backed"
      },
      "withdraw(uint256,uint256)": {
        "notice": "Burn UA in exchange of USDC"
      }
    },
    "notice": "Unit of Account (UA) is a USDC-backed token used as the unit of account accross Increment",
    "version": 1
  },
  "storageLayout": {
    "storage": [
      {
        "astId": 18432,
        "contract": "contracts/tokens/UA.sol:UA",
        "label": "name",
        "offset": 0,
        "slot": "0",
        "type": "t_string_storage"
      },
      {
        "astId": 18435,
        "contract": "contracts/tokens/UA.sol:UA",
        "label": "symbol",
        "offset": 0,
        "slot": "1",
        "type": "t_string_storage"
      },
      {
        "astId": 18442,
        "contract": "contracts/tokens/UA.sol:UA",
        "label": "totalSupply",
        "offset": 0,
        "slot": "2",
        "type": "t_uint256"
      },
      {
        "astId": 18447,
        "contract": "contracts/tokens/UA.sol:UA",
        "label": "balanceOf",
        "offset": 0,
        "slot": "3",
        "type": "t_mapping(t_address,t_uint256)"
      },
      {
        "astId": 18454,
        "contract": "contracts/tokens/UA.sol:UA",
        "label": "allowance",
        "offset": 0,
        "slot": "4",
        "type": "t_mapping(t_address,t_mapping(t_address,t_uint256))"
      },
      {
        "astId": 70,
        "contract": "contracts/tokens/UA.sol:UA",
        "label": "_roles",
        "offset": 0,
        "slot": "5",
        "type": "t_mapping(t_bytes32,t_struct(RoleData)65_storage)"
      },
      {
        "astId": 18689,
        "contract": "contracts/tokens/UA.sol:UA",
        "label": "reserveTokens",
        "offset": 0,
        "slot": "6",
        "type": "t_array(t_struct(ReserveToken)16006_storage)dyn_storage"
      }
    ],
    "types": {
      "t_address": {
        "encoding": "inplace",
        "label": "address",
        "numberOfBytes": "20"
      },
      "t_array(t_struct(ReserveToken)16006_storage)dyn_storage": {
        "base": "t_struct(ReserveToken)16006_storage",
        "encoding": "dynamic_array",
        "label": "struct IUA.ReserveToken[]",
        "numberOfBytes": "32"
      },
      "t_bool": {
        "encoding": "inplace",
        "label": "bool",
        "numberOfBytes": "1"
      },
      "t_bytes32": {
        "encoding": "inplace",
        "label": "bytes32",
        "numberOfBytes": "32"
      },
      "t_contract(IERC20Metadata)2130": {
        "encoding": "inplace",
        "label": "contract IERC20Metadata",
        "numberOfBytes": "20"
      },
      "t_mapping(t_address,t_bool)": {
        "encoding": "mapping",
        "key": "t_address",
        "label": "mapping(address => bool)",
        "numberOfBytes": "32",
        "value": "t_bool"
      },
      "t_mapping(t_address,t_mapping(t_address,t_uint256))": {
        "encoding": "mapping",
        "key": "t_address",
        "label": "mapping(address => mapping(address => uint256))",
        "numberOfBytes": "32",
        "value": "t_mapping(t_address,t_uint256)"
      },
      "t_mapping(t_address,t_uint256)": {
        "encoding": "mapping",
        "key": "t_address",
        "label": "mapping(address => uint256)",
        "numberOfBytes": "32",
        "value": "t_uint256"
      },
      "t_mapping(t_bytes32,t_struct(RoleData)65_storage)": {
        "encoding": "mapping",
        "key": "t_bytes32",
        "label": "mapping(bytes32 => struct AccessControl.RoleData)",
        "numberOfBytes": "32",
        "value": "t_struct(RoleData)65_storage"
      },
      "t_string_storage": {
        "encoding": "bytes",
        "label": "string",
        "numberOfBytes": "32"
      },
      "t_struct(ReserveToken)16006_storage": {
        "encoding": "inplace",
        "label": "struct IUA.ReserveToken",
        "members": [
          {
            "astId": 16001,
            "contract": "contracts/tokens/UA.sol:UA",
            "label": "asset",
            "offset": 0,
            "slot": "0",
            "type": "t_contract(IERC20Metadata)2130"
          },
          {
            "astId": 16003,
            "contract": "contracts/tokens/UA.sol:UA",
            "label": "currentMintCap",
            "offset": 0,
            "slot": "1",
            "type": "t_uint256"
          },
          {
            "astId": 16005,
            "contract": "contracts/tokens/UA.sol:UA",
            "label": "maxMintCap",
            "offset": 0,
            "slot": "2",
            "type": "t_uint256"
          }
        ],
        "numberOfBytes": "96"
      },
      "t_struct(RoleData)65_storage": {
        "encoding": "inplace",
        "label": "struct AccessControl.RoleData",
        "members": [
          {
            "astId": 62,
            "contract": "contracts/tokens/UA.sol:UA",
            "label": "members",
            "offset": 0,
            "slot": "0",
            "type": "t_mapping(t_address,t_bool)"
          },
          {
            "astId": 64,
            "contract": "contracts/tokens/UA.sol:UA",
            "label": "adminRole",
            "offset": 0,
            "slot": "1",
            "type": "t_bytes32"
          }
        ],
        "numberOfBytes": "64"
      },
      "t_uint256": {
        "encoding": "inplace",
        "label": "uint256",
        "numberOfBytes": "32"
      }
    }
  }
}