{
  "address": "0x2DB303E9614b498a8823D1E2F38f50692b4c69A6",
  "abi": [
    {
      "inputs": [
        {
          "internalType": "contract IERC20Metadata",
          "name": "_ua",
          "type": "address"
        }
      ],
      "stateMutability": "nonpayable",
      "type": "constructor"
    },
    {
      "inputs": [],
      "name": "PRBMathSD59x18__MulInputTooSmall",
      "type": "error"
    },
    {
      "inputs": [
        {
          "internalType": "uint256",
          "name": "rAbs",
          "type": "uint256"
        }
      ],
      "name": "PRBMathSD59x18__MulOverflow",
      "type": "error"
    },
    {
      "inputs": [
        {
          "internalType": "uint256",
          "name": "prod1",
          "type": "uint256"
        }
      ],
      "name": "PRBMath__MulDivFixedPointOverflow",
      "type": "error"
    },
    {
      "inputs": [
        {
          "internalType": "uint256",
          "name": "prod1",
          "type": "uint256"
        },
        {
          "internalType": "uint256",
          "name": "denominator",
          "type": "uint256"
        }
      ],
      "name": "PRBMath__MulDivOverflow",
      "type": "error"
    },
    {
      "inputs": [],
      "name": "Vault_ClearingHouseZeroAddress",
      "type": "error"
    },
    {
      "inputs": [],
      "name": "Vault_CollateralAlreadyWhiteListed",
      "type": "error"
    },
    {
      "inputs": [],
      "name": "Vault_ExcessiveCollateralWeight",
      "type": "error"
    },
    {
      "inputs": [],
      "name": "Vault_InsufficientBalance",
      "type": "error"
    },
    {
      "inputs": [],
      "name": "Vault_InsufficientCollateralWeight",
      "type": "error"
    },
    {
      "inputs": [],
      "name": "Vault_InsuranceZeroAddress",
      "type": "error"
    },
    {
      "inputs": [],
      "name": "Vault_MaxCollateralAmountExceeded",
      "type": "error"
    },
    {
      "inputs": [],
      "name": "Vault_OracleZeroAddress",
      "type": "error"
    },
    {
      "inputs": [],
      "name": "Vault_SenderNotClearingHouse",
      "type": "error"
    },
    {
      "inputs": [],
      "name": "Vault_SenderNotClearingHouseNorInsurance",
      "type": "error"
    },
    {
      "inputs": [],
      "name": "Vault_UADebt",
      "type": "error"
    },
    {
      "inputs": [],
      "name": "Vault_UnsupportedCollateral",
      "type": "error"
    },
    {
      "inputs": [],
      "name": "Vault_WithdrawExcessiveAmount",
      "type": "error"
    },
    {
      "inputs": [],
      "name": "Vault_WithdrawReductionRatioTooHigh",
      "type": "error"
    },
    {
      "inputs": [
        {
          "internalType": "uint8",
          "name": "paramIndex",
          "type": "uint8"
        }
      ],
      "name": "Vault_ZeroAddressConstructor",
      "type": "error"
    },
    {
      "anonymous": false,
      "inputs": [
        {
          "indexed": false,
          "internalType": "contract IClearingHouse",
          "name": "newClearingHouse",
          "type": "address"
        }
      ],
      "name": "ClearingHouseChanged",
      "type": "event"
    },
    {
      "anonymous": false,
      "inputs": [
        {
          "indexed": false,
          "internalType": "contract IERC20Metadata",
          "name": "asset",
          "type": "address"
        },
        {
          "indexed": false,
          "internalType": "uint256",
          "name": "weight",
          "type": "uint256"
        },
        {
          "indexed": false,
          "internalType": "uint256",
          "name": "maxAmount",
          "type": "uint256"
        }
      ],
      "name": "CollateralAdded",
      "type": "event"
    },
    {
      "anonymous": false,
      "inputs": [
        {
          "indexed": false,
          "internalType": "contract IERC20Metadata",
          "name": "asset",
          "type": "address"
        },
        {
          "indexed": false,
          "internalType": "uint256",
          "name": "newMaxAmount",
          "type": "uint256"
        }
      ],
      "name": "CollateralMaxAmountChanged",
      "type": "event"
    },
    {
      "anonymous": false,
      "inputs": [
        {
          "indexed": false,
          "internalType": "contract IERC20Metadata",
          "name": "asset",
          "type": "address"
        },
        {
          "indexed": false,
          "internalType": "uint256",
          "name": "newWeight",
          "type": "uint256"
        }
      ],
      "name": "CollateralWeightChanged",
      "type": "event"
    },
    {
      "anonymous": false,
      "inputs": [
        {
          "indexed": true,
          "internalType": "address",
          "name": "user",
          "type": "address"
        },
        {
          "indexed": true,
          "internalType": "address",
          "name": "asset",
          "type": "address"
        },
        {
          "indexed": false,
          "internalType": "uint256",
          "name": "amount",
          "type": "uint256"
        }
      ],
      "name": "Deposit",
      "type": "event"
    },
    {
      "anonymous": false,
      "inputs": [
        {
          "indexed": false,
          "internalType": "contract IInsurance",
          "name": "newInsurance",
          "type": "address"
        }
      ],
      "name": "InsuranceChanged",
      "type": "event"
    },
    {
      "anonymous": false,
      "inputs": [
        {
          "indexed": false,
          "internalType": "contract IOracle",
          "name": "newOracle",
          "type": "address"
        }
      ],
      "name": "OracleChanged",
      "type": "event"
    },
    {
      "anonymous": false,
      "inputs": [
        {
          "indexed": true,
          "internalType": "bytes32",
          "name": "role",
          "type": "bytes32"
        },
        {
          "indexed": true,
          "internalType": "bytes32",
          "name": "previousAdminRole",
          "type": "bytes32"
        },
        {
          "indexed": true,
          "internalType": "bytes32",
          "name": "newAdminRole",
          "type": "bytes32"
        }
      ],
      "name": "RoleAdminChanged",
      "type": "event"
    },
    {
      "anonymous": false,
      "inputs": [
        {
          "indexed": true,
          "internalType": "bytes32",
          "name": "role",
          "type": "bytes32"
        },
        {
          "indexed": true,
          "internalType": "address",
          "name": "account",
          "type": "address"
        },
        {
          "indexed": true,
          "internalType": "address",
          "name": "sender",
          "type": "address"
        }
      ],
      "name": "RoleGranted",
      "type": "event"
    },
    {
      "anonymous": false,
      "inputs": [
        {
          "indexed": true,
          "internalType": "bytes32",
          "name": "role",
          "type": "bytes32"
        },
        {
          "indexed": true,
          "internalType": "address",
          "name": "account",
          "type": "address"
        },
        {
          "indexed": true,
          "internalType": "address",
          "name": "sender",
          "type": "address"
        }
      ],
      "name": "RoleRevoked",
      "type": "event"
    },
    {
      "anonymous": false,
      "inputs": [
        {
          "indexed": false,
          "internalType": "address",
          "name": "beneficiary",
          "type": "address"
        },
        {
          "indexed": false,
          "internalType": "uint256",
          "name": "amount",
          "type": "uint256"
        }
      ],
      "name": "TraderBadDebtGenerated",
      "type": "event"
    },
    {
      "anonymous": false,
      "inputs": [
        {
          "indexed": true,
          "internalType": "address",
          "name": "user",
          "type": "address"
        },
        {
          "indexed": true,
          "internalType": "address",
          "name": "asset",
          "type": "address"
        },
        {
          "indexed": false,
          "internalType": "uint256",
          "name": "amount",
          "type": "uint256"
        }
      ],
      "name": "Withdraw",
      "type": "event"
    },
    {
      "inputs": [],
      "name": "DEFAULT_ADMIN_ROLE",
      "outputs": [
        {
          "internalType": "bytes32",
          "name": "",
          "type": "bytes32"
        }
      ],
      "stateMutability": "view",
      "type": "function"
    },
    {
      "inputs": [],
      "name": "GOVERNANCE",
      "outputs": [
        {
          "internalType": "bytes32",
          "name": "",
          "type": "bytes32"
        }
      ],
      "stateMutability": "view",
      "type": "function"
    },
    {
      "inputs": [],
      "name": "MANAGER",
      "outputs": [
        {
          "internalType": "bytes32",
          "name": "",
          "type": "bytes32"
        }
      ],
      "stateMutability": "view",
      "type": "function"
    },
    {
      "inputs": [],
      "name": "UA",
      "outputs": [
        {
          "internalType": "contract IERC20Metadata",
          "name": "",
          "type": "address"
        }
      ],
      "stateMutability": "view",
      "type": "function"
    },
    {
      "inputs": [],
      "name": "UA_IDX",
      "outputs": [
        {
          "internalType": "uint256",
          "name": "",
          "type": "uint256"
        }
      ],
      "stateMutability": "view",
      "type": "function"
    },
    {
      "inputs": [
        {
          "internalType": "contract IERC20Metadata",
          "name": "asset",
          "type": "address"
        },
        {
          "internalType": "uint256",
          "name": "weight",
          "type": "uint256"
        },
        {
          "internalType": "uint256",
          "name": "maxAmount",
          "type": "uint256"
        }
      ],
      "name": "addWhiteListedCollateral",
      "outputs": [],
      "stateMutability": "nonpayable",
      "type": "function"
    },
    {
      "inputs": [
        {
          "internalType": "contract IERC20Metadata",
          "name": "asset",
          "type": "address"
        },
        {
          "internalType": "uint256",
          "name": "newMaxAmount",
          "type": "uint256"
        }
      ],
      "name": "changeCollateralMaxAmount",
      "outputs": [],
      "stateMutability": "nonpayable",
      "type": "function"
    },
    {
      "inputs": [
        {
          "internalType": "contract IERC20Metadata",
          "name": "asset",
          "type": "address"
        },
        {
          "internalType": "uint256",
          "name": "newWeight",
          "type": "uint256"
        }
      ],
      "name": "changeCollateralWeight",
      "outputs": [],
      "stateMutability": "nonpayable",
      "type": "function"
    },
    {
      "inputs": [],
      "name": "clearingHouse",
      "outputs": [
        {
          "internalType": "contract IClearingHouse",
          "name": "",
          "type": "address"
        }
      ],
      "stateMutability": "view",
      "type": "function"
    },
    {
      "inputs": [
        {
          "internalType": "address",
          "name": "user",
          "type": "address"
        },
        {
          "internalType": "uint256",
          "name": "amount",
          "type": "uint256"
        },
        {
          "internalType": "contract IERC20Metadata",
          "name": "depositToken",
          "type": "address"
        }
      ],
      "name": "deposit",
      "outputs": [],
      "stateMutability": "nonpayable",
      "type": "function"
    },
    {
      "inputs": [
        {
          "internalType": "address",
          "name": "user",
          "type": "address"
        },
        {
          "internalType": "uint256",
          "name": "tokenIdx",
          "type": "uint256"
        }
      ],
      "name": "getBalance",
      "outputs": [
        {
          "internalType": "int256",
          "name": "",
          "type": "int256"
        }
      ],
      "stateMutability": "view",
      "type": "function"
    },
    {
      "inputs": [
        {
          "internalType": "uint256",
          "name": "tokenIdx",
          "type": "uint256"
        },
        {
          "internalType": "int256",
          "name": "collateralBalance",
          "type": "int256"
        }
      ],
      "name": "getDiscountedCollateralUSDValue",
      "outputs": [
        {
          "internalType": "int256",
          "name": "",
          "type": "int256"
        }
      ],
      "stateMutability": "view",
      "type": "function"
    },
    {
      "inputs": [],
      "name": "getNumberOfCollaterals",
      "outputs": [
        {
          "internalType": "uint256",
          "name": "",
          "type": "uint256"
        }
      ],
      "stateMutability": "view",
      "type": "function"
    },
    {
      "inputs": [
        {
          "internalType": "address",
          "name": "user",
          "type": "address"
        },
        {
          "internalType": "bool",
          "name": "isDiscounted",
          "type": "bool"
        }
      ],
      "name": "getReserveValue",
      "outputs": [
        {
          "internalType": "int256",
          "name": "",
          "type": "int256"
        }
      ],
      "stateMutability": "view",
      "type": "function"
    },
    {
      "inputs": [
        {
          "internalType": "bytes32",
          "name": "role",
          "type": "bytes32"
        }
      ],
      "name": "getRoleAdmin",
      "outputs": [
        {
          "internalType": "bytes32",
          "name": "",
          "type": "bytes32"
        }
      ],
      "stateMutability": "view",
      "type": "function"
    },
    {
      "inputs": [],
      "name": "getTotalValueLocked",
      "outputs": [
        {
          "internalType": "int256",
          "name": "",
          "type": "int256"
        }
      ],
      "stateMutability": "view",
      "type": "function"
    },
    {
      "inputs": [
        {
          "internalType": "uint256",
          "name": "idx",
          "type": "uint256"
        }
      ],
      "name": "getWhiteListedCollateral",
      "outputs": [
        {
          "components": [
            {
              "internalType": "contract IERC20Metadata",
              "name": "asset",
              "type": "address"
            },
            {
              "internalType": "uint256",
              "name": "weight",
              "type": "uint256"
            },
            {
              "internalType": "uint8",
              "name": "decimals",
              "type": "uint8"
            },
            {
              "internalType": "uint256",
              "name": "currentAmount",
              "type": "uint256"
            },
            {
              "internalType": "uint256",
              "name": "maxAmount",
              "type": "uint256"
            }
          ],
          "internalType": "struct IVault.Collateral",
          "name": "",
          "type": "tuple"
        }
      ],
      "stateMutability": "view",
      "type": "function"
    },
    {
      "inputs": [
        {
          "internalType": "bytes32",
          "name": "role",
          "type": "bytes32"
        },
        {
          "internalType": "address",
          "name": "account",
          "type": "address"
        }
      ],
      "name": "grantRole",
      "outputs": [],
      "stateMutability": "nonpayable",
      "type": "function"
    },
    {
      "inputs": [
        {
          "internalType": "bytes32",
          "name": "role",
          "type": "bytes32"
        },
        {
          "internalType": "address",
          "name": "account",
          "type": "address"
        }
      ],
      "name": "hasRole",
      "outputs": [
        {
          "internalType": "bool",
          "name": "",
          "type": "bool"
        }
      ],
      "stateMutability": "view",
      "type": "function"
    },
    {
      "inputs": [],
      "name": "insurance",
      "outputs": [
        {
          "internalType": "contract IInsurance",
          "name": "",
          "type": "address"
        }
      ],
      "stateMutability": "view",
      "type": "function"
    },
    {
      "inputs": [
        {
          "internalType": "address",
          "name": "account",
          "type": "address"
        }
      ],
      "name": "isGovernor",
      "outputs": [
        {
          "internalType": "bool",
          "name": "",
          "type": "bool"
        }
      ],
      "stateMutability": "view",
      "type": "function"
    },
    {
      "inputs": [
        {
          "internalType": "address",
          "name": "account",
          "type": "address"
        }
      ],
      "name": "isManager",
      "outputs": [
        {
          "internalType": "bool",
          "name": "",
          "type": "bool"
        }
      ],
      "stateMutability": "view",
      "type": "function"
    },
    {
      "inputs": [],
      "name": "oracle",
      "outputs": [
        {
          "internalType": "contract IOracle",
          "name": "",
          "type": "address"
        }
      ],
      "stateMutability": "view",
      "type": "function"
    },
    {
      "inputs": [
        {
          "internalType": "bytes32",
          "name": "role",
          "type": "bytes32"
        },
        {
          "internalType": "address",
          "name": "account",
          "type": "address"
        }
      ],
      "name": "renounceRole",
      "outputs": [],
      "stateMutability": "nonpayable",
      "type": "function"
    },
    {
      "inputs": [
        {
          "internalType": "bytes32",
          "name": "role",
          "type": "bytes32"
        },
        {
          "internalType": "address",
          "name": "account",
          "type": "address"
        }
      ],
      "name": "revokeRole",
      "outputs": [],
      "stateMutability": "nonpayable",
      "type": "function"
    },
    {
      "inputs": [
        {
          "internalType": "contract IClearingHouse",
          "name": "newClearingHouse",
          "type": "address"
        }
      ],
      "name": "setClearingHouse",
      "outputs": [],
      "stateMutability": "nonpayable",
      "type": "function"
    },
    {
      "inputs": [
        {
          "internalType": "contract IInsurance",
          "name": "newInsurance",
          "type": "address"
        }
      ],
      "name": "setInsurance",
      "outputs": [],
      "stateMutability": "nonpayable",
      "type": "function"
    },
    {
      "inputs": [
        {
          "internalType": "contract IOracle",
          "name": "newOracle",
          "type": "address"
        }
      ],
      "name": "setOracle",
      "outputs": [],
      "stateMutability": "nonpayable",
      "type": "function"
    },
    {
      "inputs": [
        {
          "internalType": "address",
          "name": "liquidator",
          "type": "address"
        },
        {
          "internalType": "address",
          "name": "liquidatee",
          "type": "address"
        }
      ],
      "name": "settleLiquidationOnCollaterals",
      "outputs": [],
      "stateMutability": "nonpayable",
      "type": "function"
    },
    {
      "inputs": [
        {
          "internalType": "address",
          "name": "user",
          "type": "address"
        },
        {
          "internalType": "int256",
          "name": "amount",
          "type": "int256"
        }
      ],
      "name": "settlePnL",
      "outputs": [],
      "stateMutability": "nonpayable",
      "type": "function"
    },
    {
      "inputs": [
        {
          "internalType": "bytes4",
          "name": "interfaceId",
          "type": "bytes4"
        }
      ],
      "name": "supportsInterface",
      "outputs": [
        {
          "internalType": "bool",
          "name": "",
          "type": "bool"
        }
      ],
      "stateMutability": "view",
      "type": "function"
    },
    {
      "inputs": [
        {
          "internalType": "contract IERC20Metadata",
          "name": "",
          "type": "address"
        }
      ],
      "name": "tokenToCollateralIdx",
      "outputs": [
        {
          "internalType": "uint256",
          "name": "",
          "type": "uint256"
        }
      ],
      "stateMutability": "view",
      "type": "function"
    },
    {
      "inputs": [
        {
          "internalType": "address",
          "name": "user",
          "type": "address"
        },
        {
          "internalType": "uint256",
          "name": "amount",
          "type": "uint256"
        }
      ],
      "name": "transferUa",
      "outputs": [],
      "stateMutability": "nonpayable",
      "type": "function"
    },
    {
      "inputs": [
        {
          "internalType": "address",
          "name": "user",
          "type": "address"
        },
        {
          "internalType": "uint256",
          "name": "amount",
          "type": "uint256"
        },
        {
          "internalType": "contract IERC20Metadata",
          "name": "withdrawToken",
          "type": "address"
        }
      ],
      "name": "withdraw",
      "outputs": [],
      "stateMutability": "nonpayable",
      "type": "function"
    },
    {
      "inputs": [
        {
          "internalType": "address",
          "name": "user",
          "type": "address"
        },
        {
          "internalType": "contract IERC20Metadata",
          "name": "withdrawToken",
          "type": "address"
        }
      ],
      "name": "withdrawAll",
      "outputs": [],
      "stateMutability": "nonpayable",
      "type": "function"
    }
  ],
  "transactionHash": "0x757219ed30e0c6c8f54ce473d817ef0b6ae06f76263ea4ebac91860d499a961c",
  "args": [
    "0x865C437d081133cbAa6495aDD1Bc7586022681A5"
  ],
  "numDeployments": 1,
  "solcInputHash": "e1cef607481b161ae69d7ea60025156b",
  "bytecode": "0x60a06040523480156200001157600080fd5b506040516200366938038062003669833981016040819052620000349162000730565b6200004f60008051602062003649833981519152336200010f565b6200006a60008051602062003649833981519152806200011f565b6200008560008051602062003629833981519152336200010f565b620000af60008051602062003629833981519152600080516020620036498339815191526200011f565b6001600160a01b038116620000df5760405163356b644560e01b8152600060048201526024015b60405180910390fd5b6001600160601b0319606082901b166080526200010881670de0b6b3a76400006000196200016a565b5062000902565b6200011b8282620003ea565b5050565b600082815260208190526040808220600101805490849055905190918391839186917fbd79b86ffe0ab8e8776151514217cd7cacd52c909f66475c3af44e129f0b00ff9190a4505050565b6000805160206200364983398151915262000185816200048a565b662386f26fc10000831015620001ae57604051632e01c96360e01b815260040160405180910390fd5b670de0b6b3a7640000831115620001d857604051635f08f99d60e01b815260040160405180910390fd5b60005b6004548110156200026157846001600160a01b0316600482815481106200021257634e487b7160e01b600052603260045260246000fd5b60009182526020909120600590910201546001600160a01b031614156200024c576040516353dc2d7560e01b815260040160405180910390fd5b806200025881620008ce565b915050620001db565b5060046040518060a00160405280866001600160a01b03168152602001858152602001866001600160a01b031663313ce5676040518163ffffffff1660e01b815260040160206040518083038186803b158015620002be57600080fd5b505afa158015620002d3573d6000803e3d6000fd5b505050506040513d601f19601f82011682018060405250810190620002f9919062000759565b60ff908116825260006020808401829052604093840188905285546001808201885596835291819020855160059093020180546001600160a01b0319166001600160a01b03909316929092178255840151818601559183015160028301805460ff191691909216179055606082015160038201556080909101516004918201555462000386919062000867565b6001600160a01b0385166000818152600560209081526040918290209390935580519182529181018590529081018390527f11f8990ac38271f23dea447d5728e9914fca7cea2edda43af6c43c415f8bc30b9060600160405180910390a150505050565b6000828152602081815260408083206001600160a01b038516845290915290205460ff166200011b576000828152602081815260408083206001600160a01b03851684529091529020805460ff19166001179055620004463390565b6001600160a01b0316816001600160a01b0316837f2f8788117e7eff1d82e926ec794901d17c78024a50270940304540a733656f0d60405160405180910390a45050565b62000496813362000499565b50565b6000828152602081815260408083206001600160a01b038516845290915290205460ff166200011b57620004e3816001600160a01b031660146200053460201b620015af1760201c565b620004f9836020620015af62000534821b17811c565b6040516020016200050c9291906200077c565b60408051601f198184030181529082905262461bcd60e51b8252620000d691600401620007f5565b606060006200054583600262000845565b620005529060026200082a565b6001600160401b038111156200057857634e487b7160e01b600052604160045260246000fd5b6040519080825280601f01601f191660200182016040528015620005a3576020820181803683370190505b509050600360fc1b81600081518110620005cd57634e487b7160e01b600052603260045260246000fd5b60200101906001600160f81b031916908160001a905350600f60fb1b816001815181106200060b57634e487b7160e01b600052603260045260246000fd5b60200101906001600160f81b031916908160001a90535060006200063184600262000845565b6200063e9060016200082a565b90505b6001811115620006d8576f181899199a1a9b1b9c1cb0b131b232b360811b85600f16601081106200068257634e487b7160e01b600052603260045260246000fd5b1a60f81b828281518110620006a757634e487b7160e01b600052603260045260246000fd5b60200101906001600160f81b031916908160001a90535060049490941c93620006d081620008b4565b905062000641565b508315620007295760405162461bcd60e51b815260206004820181905260248201527f537472696e67733a20686578206c656e67746820696e73756666696369656e746044820152606401620000d6565b9392505050565b60006020828403121562000742578081fd5b81516001600160a01b038116811462000729578182fd5b6000602082840312156200076b578081fd5b815160ff8116811462000729578182fd5b7f416363657373436f6e74726f6c3a206163636f756e7420000000000000000000815260008351620007b681601785016020880162000881565b7001034b99036b4b9b9b4b733903937b6329607d1b6017918401918201528351620007e981602884016020880162000881565b01602801949350505050565b60208152600082518060208401526200081681604085016020870162000881565b601f01601f19169190910160400192915050565b60008219821115620008405762000840620008ec565b500190565b6000816000190483118215151615620008625762000862620008ec565b500290565b6000828210156200087c576200087c620008ec565b500390565b60005b838110156200089e57818101518382015260200162000884565b83811115620008ae576000848401525b50505050565b600081620008c657620008c6620008ec565b506000190190565b6000600019821415620008e557620008e5620008ec565b5060010190565b634e487b7160e01b600052601160045260246000fd5b60805160601c612cd0620009596000396000818161047b015281816105f001528181610c1b015281816111d10152818161131501528181611495015281816117c001528181611dd90152611f820152612cd06000f3fe608060405234801561001057600080fd5b50600436106102115760003560e01c80636cd7751f11610125578063c52e8c41116100ad578063e43581b81161007c578063e43581b81461051f578063f3ae241514610532578063f45346dc14610545578063fb6d681414610558578063feb8cbe91461044057600080fd5b8063c52e8c4114610476578063cf209c771461049d578063d547741f146104f9578063d76bedff1461050c57600080fd5b806391d14854116100f457806391d148541461042d578063a217fddf14610440578063a780b00614610448578063b26025aa1461045b578063bbffd7191461046357600080fd5b80636cd7751f146103e15780637adbf973146103f45780637dc0d1d01461040757806389cf32041461041a57600080fd5b80632b04e840116101a8578063449323d811610177578063449323d81461038257806352f8884514610395578063586b4ecc146103a857806362990d2f146103bb57806369328dec146103ce57600080fd5b80632b04e8401461031e5780632f2ff15d1461035457806334cc89a21461036757806336568abe1461036f57600080fd5b806314627834116101e457806314627834146102ac5780631b2df850146102c1578063248a9ca3146102e857806329122eb01461030b57600080fd5b806301ffc9a714610216578063040332cb1461023e57806309cae2c81461026c5780630af9680014610281575b600080fd5b61022961022436600461288f565b61056b565b60405190151581526020015b60405180910390f35b61025e61024c366004612738565b60056020526000908152604090205481565b604051908152602001610235565b61027f61027a3660046127b9565b6105a2565b005b600154610294906001600160a01b031681565b6040516001600160a01b039091168152602001610235565b61025e600080516020612c7b83398151915281565b61025e7faf290d8680820aad922855f39b306097b20e28774d6c1ad35a20325630c3a02c81565b61025e6102f6366004612853565b60009081526020819052604090206001015490565b61025e61031936600461278c565b61067f565b61025e61032c3660046127cb565b6001600160a01b03919091166000908152600660209081526040808320938352929052205490565b61027f61036236600461286b565b610692565b60045461025e565b61027f61037d36600461286b565b6106bc565b61027f610390366004612738565b61073b565b61025e6103a3366004612903565b6107d0565b61027f6103b6366004612754565b61087d565b61027f6103c93660046127cb565b610b97565b61027f6103dc3660046127f6565b610bcd565b61027f6103ef366004612738565b610cc3565b61027f610402366004612738565b610d50565b600354610294906001600160a01b031681565b600254610294906001600160a01b031681565b61022961043b36600461286b565b610ddd565b61025e600081565b61027f6104563660046128b7565b610e06565b61025e611076565b61027f6104713660046127cb565b611137565b6102947f000000000000000000000000000000000000000000000000000000000000000081565b6104b06104ab366004612853565b6111f8565b604051610235919081516001600160a01b031681526020808301519082015260408083015160ff1690820152606080830151908201526080918201519181019190915260a00190565b61027f61050736600461286b565b6112b4565b61027f61051a3660046127cb565b6112d9565b61022961052d366004612738565b6113de565b610229610540366004612738565b6113f8565b61027f6105533660046127f6565b611424565b61027f6105663660046127cb565b611459565b60006001600160e01b03198216637965db0b60e01b148061059c57506301ffc9a760e01b6001600160e01b03198316145b92915050565b6001546001600160a01b031633146105cc576040516257034d60e91b815260040160405180910390fd5b6001600160a01b0381166000908152600560205260409020548015158061062457507f00000000000000000000000000000000000000000000000000000000000000006001600160a01b0316826001600160a01b0316145b6106415760405163a84d9d9760e01b815260040160405180910390fd5b6001600160a01b03831660009081526006602090815260408083208484529091529020546106788461067283611791565b8561179c565b50505b5050565b600061068b8383611a04565b9392505050565b6000828152602081905260409020600101546106ad81611b3e565b6106b78383611b4b565b505050565b6001600160a01b03811633146107315760405162461bcd60e51b815260206004820152602f60248201527f416363657373436f6e74726f6c3a2063616e206f6e6c792072656e6f756e636560448201526e103937b632b9903337b91039b2b63360891b60648201526084015b60405180910390fd5b61067b8282611bcf565b600080516020612c7b83398151915261075381611b3e565b6001600160a01b03821661077a5760405163017638ad60e71b815260040160405180910390fd5b600180546001600160a01b0319166001600160a01b0384169081179091556040519081527fd0654f5900f9e7e4e605a19334306e6a2786bbf960ac0484a4c12feb6428fe2f906020015b60405180910390a15050565b6004546000906107e290600190612b8f565b8311156108025760405163a84d9d9760e01b815260040160405180910390fd5b61068b6004848154811061082657634e487b7160e01b600052603260045260246000fd5b6000918252602090912060059091020154600480546001600160a01b03909216918690811061086557634e487b7160e01b600052603260045260246000fd5b90600052602060002090600502016001015484611c34565b6001546001600160a01b031633146108a7576040516257034d60e91b815260040160405180910390fd5b6001600160a01b0381166000908152600660209081526040808320838052909152812054906108dd6108d883612c27565b611791565b90506004600060015b8254811015610ad3576001600160a01b03861660009081526006602090815260408083208484529091528120549250821315610ac15760006109f3600160009054906101000a90046001600160a01b03166001600160a01b0316638053fcbe6040518163ffffffff1660e01b815260040160206040518083038186803b15801561096f57600080fd5b505afa158015610983573d6000803e3d6000fd5b505050506040513d601f19601f820116820180604052508101906109a791906128eb565b6109ed6108d88786815481106109cd57634e487b7160e01b600052603260045260246000fd5b60009182526020909120600590910201546001600160a01b031687611cea565b90611d86565b905084811015610a5057610a3f8888868581548110610a2257634e487b7160e01b600052603260045260246000fd5b9060005260206000209060050201610a3987611791565b85611d92565b610a499086612b8f565b9450610abf565b6000610a5c8683611e33565b90506000610a766108d8610a6f84611e3f565b8790611e4a565b9050610ab28a8a888781548110610a9d57634e487b7160e01b600052603260045260246000fd5b9060005260206000209060050201848b611d92565b5060009650505050610ad3565b505b80610acb81612c0c565b9150506108e6565b508215610b8f576002546040516327a0bb3360e01b8152600481018590526001600160a01b03909116906327a0bb3390602401600060405180830381600087803b158015610b2057600080fd5b505af1158015610b34573d6000803e3d6000fd5b50505050610b4c856000610b4786611e3f565b611e56565b604080516001600160a01b0387168152602081018590527f83094b81291821441f3fed4d86b7776d68df539841c55aa0d173bbbd60d1c60c910160405180910390a15b505050505050565b6001546001600160a01b03163314610bc1576040516257034d60e91b815260040160405180910390fd5b61067b82600083611e56565b6001546001600160a01b03163314610bf7576040516257034d60e91b815260040160405180910390fd5b6001600160a01b03811660009081526005602052604090205480151580610c4f57507f00000000000000000000000000000000000000000000000000000000000000006001600160a01b0316826001600160a01b0316145b610c6c5760405163a84d9d9760e01b815260040160405180910390fd5b6000610caf60048381548110610c9257634e487b7160e01b600052603260045260246000fd5b600091825260209091206002600590920201015460ff1685611e93565b9050610cbc85828561179c565b5050505050565b600080516020612c7b833981519152610cdb81611b3e565b6001600160a01b038216610d02576040516363788cbd60e01b815260040160405180910390fd5b600280546001600160a01b0319166001600160a01b0384169081179091556040519081527f6b7cc3294ba6328c864b090682147d055e6dfff6c9ccece6f22dee66c6c251cf906020016107c4565b600080516020612c7b833981519152610d6881611b3e565b6001600160a01b038216610d8f57604051632ed2e9a560e21b815260040160405180910390fd5b600380546001600160a01b0319166001600160a01b0384169081179091556040519081527f0e05ae75e8b926552cf6fcd744d19f422561e3ced1e426868730852702dbe418906020016107c4565b6000918252602082815260408084206001600160a01b0393909316845291905290205460ff1690565b600080516020612c7b833981519152610e1e81611b3e565b662386f26fc10000831015610e4657604051632e01c96360e01b815260040160405180910390fd5b670de0b6b3a7640000831115610e6f57604051635f08f99d60e01b815260040160405180910390fd5b60005b600454811015610ef257846001600160a01b031660048281548110610ea757634e487b7160e01b600052603260045260246000fd5b60009182526020909120600590910201546001600160a01b03161415610ee0576040516353dc2d7560e01b815260040160405180910390fd5b80610eea81612c0c565b915050610e72565b5060046040518060a00160405280866001600160a01b03168152602001858152602001866001600160a01b031663313ce5676040518163ffffffff1660e01b815260040160206040518083038186803b158015610f4e57600080fd5b505afa158015610f62573d6000803e3d6000fd5b505050506040513d601f19601f82011682018060405250810190610f869190612924565b60ff908116825260006020808401829052604093840188905285546001808201885596835291819020855160059093020180546001600160a01b0319166001600160a01b03909316929092178255840151818601559183015160028301805460ff19169190921617905560608201516003820155608090910151600491820155546110119190612b8f565b6001600160a01b0385166000818152600560209081526040918290209390935580519182529181018590529081018390527f11f8990ac38271f23dea447d5728e9914fca7cea2edda43af6c43c415f8bc30b906060015b60405180910390a150505050565b6000600481805b82548110156111305760006110c28483815481106110ab57634e487b7160e01b600052603260045260246000fd5b906000526020600020906005020160030154611e3f565b9050600081131561111d576111108483815481106110f057634e487b7160e01b600052603260045260246000fd5b60009182526020909120600590910201546001600160a01b031682611cea565b61111a9084612a09565b92505b508061112881612c0c565b91505061107d565b5092915050565b6001546001600160a01b0316331480159061115d57506002546001600160a01b03163314155b1561117b57604051633689403d60e21b815260040160405180910390fd5b80600460008154811061119e57634e487b7160e01b600052603260045260246000fd5b906000526020600020906005020160030160008282546111be9190612b8f565b9091555061067b90506001600160a01b037f0000000000000000000000000000000000000000000000000000000000000000168383611efb565b6112366040518060a0016040528060006001600160a01b0316815260200160008152602001600060ff16815260200160008152602001600081525090565b6004828154811061125757634e487b7160e01b600052603260045260246000fd5b60009182526020918290206040805160a081018252600590930290910180546001600160a01b03168352600181015493830193909352600283015460ff169082015260038201546060820152600490910154608082015292915050565b6000828152602081905260409020600101546112cf81611b3e565b6106b78383611bcf565b600080516020612c7b8339815191526112f181611b3e565b6001600160a01b0383166000908152600560205260409020548015158061134957507f00000000000000000000000000000000000000000000000000000000000000006001600160a01b0316846001600160a01b0316145b6113665760405163a84d9d9760e01b815260040160405180910390fd5b826004828154811061138857634e487b7160e01b600052603260045260246000fd5b600091825260209182902060046005909202010191909155604080516001600160a01b03871681529182018590527f6af11b7b0fa3a0001eea86cdc01b08604d3c974ef76506801c330db8aca293c59101611068565b600061059c600080516020612c7b83398151915283610ddd565b600061059c7faf290d8680820aad922855f39b306097b20e28774d6c1ad35a20325630c3a02c83610ddd565b6001546001600160a01b0316331461144e576040516257034d60e91b815260040160405180910390fd5b6106b7838383611f5e565b600080516020612c7b83398151915261147181611b3e565b6001600160a01b038316600090815260056020526040902054801515806114c957507f00000000000000000000000000000000000000000000000000000000000000006001600160a01b0316846001600160a01b0316145b6114e65760405163a84d9d9760e01b815260040160405180910390fd5b662386f26fc1000083101561150e57604051632e01c96360e01b815260040160405180910390fd5b670de0b6b3a764000083111561153757604051635f08f99d60e01b815260040160405180910390fd5b826004828154811061155957634e487b7160e01b600052603260045260246000fd5b600091825260209182902060016005909202010191909155604080516001600160a01b03871681529182018590527f961e2483fa09e9fd159361d604d3c547aca03801b1ce4c758b036e9bacd8c0829101611068565b606060006115be836002612b70565b6115c9906002612a4a565b67ffffffffffffffff8111156115ef57634e487b7160e01b600052604160045260246000fd5b6040519080825280601f01601f191660200182016040528015611619576020820181803683370190505b509050600360fc1b8160008151811061164257634e487b7160e01b600052603260045260246000fd5b60200101906001600160f81b031916908160001a905350600f60fb1b8160018151811061167f57634e487b7160e01b600052603260045260246000fd5b60200101906001600160f81b031916908160001a90535060006116a3846002612b70565b6116ae906001612a4a565b90505b6001811115611742576f181899199a1a9b1b9c1cb0b131b232b360811b85600f16601081106116f057634e487b7160e01b600052603260045260246000fd5b1a60f81b82828151811061171457634e487b7160e01b600052603260045260246000fd5b60200101906001600160f81b031916908160001a90535060049490941c9361173b81612bf5565b90506116b1565b50831561068b5760405162461bcd60e51b815260206004820181905260248201527f537472696e67733a20686578206c656e67746820696e73756666696369656e746044820152606401610728565b600061059c82612111565b6001600160a01b038116600090815260056020526040902054801515806117f457507f00000000000000000000000000000000000000000000000000000000000000006001600160a01b0316826001600160a01b0316145b6118115760405163a84d9d9760e01b815260040160405180910390fd5b6001600160a01b038416600090815260066020908152604080832083805290915281205490811215611856576040516362422bc160e11b815260040160405180910390fd5b6001600160a01b03851660009081526006602090815260408083208584529091529020548061188486611e3f565b13156118a3576040516306ed1da360e51b815260040160405180910390fd5b600483815481106118c457634e487b7160e01b600052603260045260246000fd5b9060005260206000209060050201600301548511156118f6576040516301d8c68960e51b815260040160405180910390fd5b846004848154811061191857634e487b7160e01b600052603260045260246000fd5b906000526020600020906005020160030160008282546119389190612b8f565b909155506119559050868461194c88611e3f565b610b4790612c27565b60006119986004858154811061197b57634e487b7160e01b600052603260045260246000fd5b600091825260209091206002600590920201015460ff1687612167565b90506119ae6001600160a01b0386168883611efb565b846001600160a01b0316876001600160a01b03167f9b1bfa7fa9ee420a16e124f794c35ac9f90472acc99140eb2f6447c714cad8eb836040516119f391815260200190565b60405180910390a350505050505050565b600060048180805b8354811015611b34576001600160a01b038716600090815260066020908152604080832084845290915290205492508215611b22578515611ad257611ac1848281548110611a6a57634e487b7160e01b600052603260045260246000fd5b600091825260209091206005909102015485546001600160a01b0390911690869084908110611aa957634e487b7160e01b600052603260045260246000fd5b90600052602060002090600502016001015485611c34565b611acb9083612a09565b9150611b22565b611b15848281548110611af557634e487b7160e01b600052603260045260246000fd5b60009182526020909120600590910201546001600160a01b031684611cea565b611b1f9083612a09565b91505b80611b2c81612c0c565b915050611a0c565b5095945050505050565b611b4881336121c8565b50565b611b558282610ddd565b61067b576000828152602081815260408083206001600160a01b03851684529091529020805460ff19166001179055611b8b3390565b6001600160a01b0316816001600160a01b0316837f2f8788117e7eff1d82e926ec794901d17c78024a50270940304540a733656f0d60405160405180910390a45050565b611bd98282610ddd565b1561067b576000828152602081815260408083206001600160a01b0385168085529252808320805460ff1916905551339285917ff6391f5c32d9c69d2a47ea670b442974b53935d1edc7fd64eb21e047a839171b9190a45050565b600080611c4a611c4385611e3f565b8490611e4a565b60035460405163fa481db960e01b81526001600160a01b038881166004830152602482018790529293506000929091169063fa481db99060440160206040518083038186803b158015611c9c57600080fd5b505afa158015611cb0573d6000803e3d6000fd5b505050506040513d601f19601f82011682018060405250810190611cd491906128eb565b9050611ce08282611e4a565b9695505050505050565b60035460405163fa481db960e01b81526001600160a01b03848116600483015260248201849052600092839291169063fa481db99060440160206040518083038186803b158015611d3a57600080fd5b505afa158015611d4e573d6000803e3d6000fd5b505050506040513d601f19601f82011682018060405250810190611d7291906128eb565b9050611d7e8382611e4a565b949350505050565b600061068b838361222c565b6000611da3856000610b4785611e3f565b83546001600160a01b0316600090815260056020526040902054611dcc90869061194c86611e3f565b611e016001600160a01b037f000000000000000000000000000000000000000000000000000000000000000016873085612238565b83546001600160a01b0316600090815260056020526040902054611e2a908790610b4786611e3f565b50949350505050565b600061068b8383612270565b600061059c82612285565b600061068b83836122ef565b6001600160a01b038316600090815260066020908152604080832085845290915281208054839290611e89908490612a09565b9091555050505050565b600060ff831660121415611ea857508061059c565b601260ff84161015611edb57611ebf836012612ba6565b611eca90600a612ac5565b611ed49083612b70565b905061059c565b611ee6601284612ba6565b611ef190600a612ac5565b61068b9083612a62565b6040516001600160a01b0383166024820152604481018290526106b790849063a9059cbb60e01b906064015b60408051601f198184030181529190526020810180516001600160e01b03166001600160e01b0319909316929092179091526123b4565b6001600160a01b03811660009081526005602052604090205480151580611fb657507f00000000000000000000000000000000000000000000000000000000000000006001600160a01b0316826001600160a01b0316145b611fd35760405163a84d9d9760e01b815260040160405180910390fd5b600060048281548110611ff657634e487b7160e01b600052603260045260246000fd5b60009182526020822060026005909202019081015490925061201b9060ff1686611e93565b905081600401548183600301546120329190612a4a565b111561205157604051630313841f60e61b815260040160405180910390fd5b806004848154811061207357634e487b7160e01b600052603260045260246000fd5b906000526020600020906005020160030160008282546120939190612a4a565b909155506120a790508684610b4784611e3f565b6120bc6001600160a01b038516873088612238565b836001600160a01b0316866001600160a01b03167f5548c837ab068cf56a2c2479df0882a4922fd203edb7517321831d95078c5f628760405161210191815260200190565b60405180910390a3505050505050565b6000808212156121635760405162461bcd60e51b815260206004820181905260248201527f53616665436173743a2076616c7565206d75737420626520706f7369746976656044820152606401610728565b5090565b600060ff83166012141561217c57508061059c565b601260ff841610156121a857612193836012612ba6565b61219e90600a612ac5565b611ed49083612a62565b6121b3601284612ba6565b6121be90600a612ac5565b61068b9083612b70565b6121d28282610ddd565b61067b576121ea816001600160a01b031660146115af565b6121f58360206115af565b604051602001612206929190612961565b60408051601f198184030181529082905262461bcd60e51b8252610728916004016129d6565b600061068b8383612486565b6040516001600160a01b03808516602483015283166044820152606481018290526106789085906323b872dd60e01b90608401611f27565b600061068b83670de0b6b3a764000084612548565b60006001600160ff1b038211156121635760405162461bcd60e51b815260206004820152602860248201527f53616665436173743a2076616c756520646f65736e27742066697420696e2061604482015267371034b73a191a9b60c11b6064820152608401610728565b6000600160ff1b8314806123065750600160ff1b82145b1561232457604051630d01a11b60e21b815260040160405180910390fd5b60008060008512612335578461233a565b846000035b91506000841261234a578361234f565b836000035b9050600061235d8383612486565b90506001600160ff1b0381111561238a5760405163bf79e8d960e01b815260048101829052602401610728565b6000198087139086138082186001146123a357826123a8565b826000035b98975050505050505050565b6000612409826040518060400160405280602081526020017f5361666545524332303a206c6f772d6c6576656c2063616c6c206661696c6564815250856001600160a01b03166126249092919063ffffffff16565b8051909150156106b757808060200190518101906124279190612837565b6106b75760405162461bcd60e51b815260206004820152602a60248201527f5361666545524332303a204552433230206f7065726174696f6e20646964206e6044820152691bdd081cdd58d8d9595960b21b6064820152608401610728565b60008080600019848609848602925082811083820303915050670de0b6b3a764000081106124ca5760405163698d9a0160e11b815260048101829052602401610728565b600080670de0b6b3a76400008688099150506706f05b59d3b1ffff8111826125045780670de0b6b3a764000085040194505050505061059c565b620400008285030493909111909103600160ee1b02919091177faccb18165bd6fe31ae1cf318dc5b51eee0e1ba569b88cd74c1773b91fac106690201905092915050565b6000808060001985870985870292508281108382030391505080600014156125915783828161258757634e487b7160e01b600052601260045260246000fd5b049250505061068b565b8381106125bb57604051631dcf306360e21b81526004810182905260248101859052604401610728565b60008486880960026001871981018816978890046003810283188082028403028082028403028082028403028082028403028082028403029081029092039091026000889003889004909101858311909403939093029303949094049190911702949350505050565b6060611d7e8484600085856001600160a01b0385163b6126865760405162461bcd60e51b815260206004820152601d60248201527f416464726573733a2063616c6c20746f206e6f6e2d636f6e74726163740000006044820152606401610728565b600080866001600160a01b031685876040516126a29190612945565b60006040518083038185875af1925050503d80600081146126df576040519150601f19603f3d011682016040523d82523d6000602084013e6126e4565b606091505b50915091506126f48282866126ff565b979650505050505050565b6060831561270e57508161068b565b82511561271e5782518084602001fd5b8160405162461bcd60e51b815260040161072891906129d6565b600060208284031215612749578081fd5b813561068b81612c57565b60008060408385031215612766578081fd5b823561277181612c57565b9150602083013561278181612c57565b809150509250929050565b6000806040838503121561279e578182fd5b82356127a981612c57565b9150602083013561278181612c6c565b60008060408385031215612766578182fd5b600080604083850312156127dd578182fd5b82356127e881612c57565b946020939093013593505050565b60008060006060848603121561280a578081fd5b833561281581612c57565b925060208401359150604084013561282c81612c57565b809150509250925092565b600060208284031215612848578081fd5b815161068b81612c6c565b600060208284031215612864578081fd5b5035919050565b6000806040838503121561287d578182fd5b82359150602083013561278181612c57565b6000602082840312156128a0578081fd5b81356001600160e01b03198116811461068b578182fd5b6000806000606084860312156128cb578081fd5b83356128d681612c57565b95602085013595506040909401359392505050565b6000602082840312156128fc578081fd5b5051919050565b60008060408385031215612915578182fd5b50508035926020909101359150565b600060208284031215612935578081fd5b815160ff8116811461068b578182fd5b60008251612957818460208701612bc9565b9190910192915050565b7f416363657373436f6e74726f6c3a206163636f756e7420000000000000000000815260008351612999816017850160208801612bc9565b7001034b99036b4b9b9b4b733903937b6329607d1b60179184019182015283516129ca816028840160208801612bc9565b01602801949350505050565b60208152600082518060208401526129f5816040850160208701612bc9565b601f01601f19169190910160400192915050565b600080821280156001600160ff1b0384900385131615612a2b57612a2b612c41565b600160ff1b8390038412811615612a4457612a44612c41565b50500190565b60008219821115612a5d57612a5d612c41565b500190565b600082612a7d57634e487b7160e01b81526012600452602481fd5b500490565b600181815b80851115612abd578160001904821115612aa357612aa3612c41565b80851615612ab057918102915b93841c9390800290612a87565b509250929050565b600061068b60ff841683600082612ade5750600161059c565b81612aeb5750600061059c565b8160018114612b015760028114612b0b57612b27565b600191505061059c565b60ff841115612b1c57612b1c612c41565b50506001821b61059c565b5060208310610133831016604e8410600b8410161715612b4a575081810a61059c565b612b548383612a82565b8060001904821115612b6857612b68612c41565b029392505050565b6000816000190483118215151615612b8a57612b8a612c41565b500290565b600082821015612ba157612ba1612c41565b500390565b600060ff821660ff841680821015612bc057612bc0612c41565b90039392505050565b60005b83811015612be4578181015183820152602001612bcc565b838111156106785750506000910152565b600081612c0457612c04612c41565b506000190190565b6000600019821415612c2057612c20612c41565b5060010190565b6000600160ff1b821415612c3d57612c3d612c41565b0390565b634e487b7160e01b600052601160045260246000fd5b6001600160a01b0381168114611b4857600080fd5b8015158114611b4857600080fdfe35a7846a2a701fff6f9d61a46ebff5da578c5dcee8bdf361c569f9ea4ee64771a2646970667358221220e8d2a4c91e6eaac8b336ddeb802ae18b134526155d7ba6cf855ff45cbd4c6f3b64736f6c63430008040033af290d8680820aad922855f39b306097b20e28774d6c1ad35a20325630c3a02c35a7846a2a701fff6f9d61a46ebff5da578c5dcee8bdf361c569f9ea4ee64771",
  "devdoc": {
    "kind": "dev",
    "methods": {
      "deposit(address,uint256,address)": {
        "details": "No differentiated treatment of deposit in the UA token and other collaterals",
        "params": {
          "amount": "Amount to be used as the collateral of the position. Might not be 18 decimals",
          "depositToken": "Token to be used for the collateral of the position",
          "user": "Account to deposit to"
        }
      },
      "getNumberOfCollaterals()": {
        "returns": {
          "_0": "List of Collateral tokens"
        }
      },
      "getReserveValue(address,bool)": {
        "params": {
          "isDiscounted": "Whether or not the reserve value should be discounted by the weight of the collateral",
          "user": "User address"
        },
        "returns": {
          "_0": "reserveValue Value of collaterals in USD. 18 decimals"
        }
      },
      "getRoleAdmin(bytes32)": {
        "details": "Returns the admin role that controls `role`. See {grantRole} and {revokeRole}. To change a role's admin, use {_setRoleAdmin}."
      },
      "getTotalValueLocked()": {
        "returns": {
          "_0": "Total Value Locked (tvl) in USD. 18 decimals"
        }
      },
      "getWhiteListedCollateral(uint256)": {
        "returns": {
          "_0": "Collateral The collateral at the index provided"
        }
      },
      "grantRole(bytes32,address)": {
        "details": "Grants `role` to `account`. If `account` had not been already granted `role`, emits a {RoleGranted} event. Requirements: - the caller must have ``role``'s admin role. May emit a {RoleGranted} event."
      },
      "hasRole(bytes32,address)": {
        "details": "Returns `true` if `account` has been granted `role`."
      },
      "renounceRole(bytes32,address)": {
        "details": "Revokes `role` from the calling account. Roles are often managed via {grantRole} and {revokeRole}: this function's purpose is to provide a mechanism for accounts to lose their privileges if they are compromised (such as when a trusted device is misplaced). If the calling account had been revoked `role`, emits a {RoleRevoked} event. Requirements: - the caller must be `account`. May emit a {RoleRevoked} event."
      },
      "revokeRole(bytes32,address)": {
        "details": "Revokes `role` from `account`. If `account` had been granted `role`, emits a {RoleRevoked} event. Requirements: - the caller must have ``role``'s admin role. May emit a {RoleRevoked} event."
      },
      "settleLiquidationOnCollaterals(address,address)": {
        "params": {
          "liquidatee": "Liquidatee",
          "liquidator": "Liquidator"
        }
      },
      "settlePnL(address,int256)": {
        "params": {
          "amount": "PnL amount in UA to apply. 18 decimals",
          "user": "Account to apply the PnL to"
        }
      },
      "supportsInterface(bytes4)": {
        "details": "See {IERC165-supportsInterface}."
      },
      "transferUa(address,uint256)": {
        "params": {
          "amount": "Amount of UA tokens to be withdrawn. 18 decimals",
          "user": "Account to withdraw UA tokens to"
        }
      },
      "withdraw(address,uint256,address)": {
        "details": "Unlike `deposit`, differentiated treatment of withdrawals in the UA token and other collaterals",
        "params": {
          "amount": "Amount to withdraw from the vault. Might not be 18 decimals (decimals of the token)",
          "user": "Account to withdraw from",
          "withdrawToken": "Token to be withdrawn from the vault"
        }
      },
      "withdrawAll(address,address)": {
        "params": {
          "user": "Account to withdraw from",
          "withdrawToken": "Token to be withdrawn from the vault"
        }
      }
    },
    "version": 1
  },
  "userdoc": {
    "errors": {
      "PRBMathSD59x18__MulInputTooSmall()": [
        {
          "notice": "Emitted when one of the inputs is MIN_SD59x18."
        }
      ],
      "PRBMathSD59x18__MulOverflow(uint256)": [
        {
          "notice": "Emitted when the intermediary absolute result overflows SD59x18."
        }
      ],
      "PRBMath__MulDivFixedPointOverflow(uint256)": [
        {
          "notice": "Emitted when the result overflows uint256."
        }
      ],
      "PRBMath__MulDivOverflow(uint256,uint256)": [
        {
          "notice": "Emitted when the result overflows uint256."
        }
      ],
      "Vault_ClearingHouseZeroAddress()": [
        {
          "notice": "Emitted when the proposed clearingHouse address is equal to the zero address"
        }
      ],
      "Vault_CollateralAlreadyWhiteListed()": [
        {
          "notice": "Emitted when owner tries to whitelist a collateral already whitelisted"
        }
      ],
      "Vault_ExcessiveCollateralWeight()": [
        {
          "notice": "Emitted when the proposed collateral weight is above the limit"
        }
      ],
      "Vault_InsufficientBalance()": [
        {
          "notice": "Emitted when a user attempts to withdraw more collateral than available in vault"
        }
      ],
      "Vault_InsufficientCollateralWeight()": [
        {
          "notice": "Emitted when the proposed collateral weight is under the limit"
        }
      ],
      "Vault_InsuranceZeroAddress()": [
        {
          "notice": "Emitted when the proposed insurance address is equal to the zero address"
        }
      ],
      "Vault_MaxCollateralAmountExceeded()": [
        {
          "notice": "Emitted when a user attempts to withdraw more collateral than available in vault"
        }
      ],
      "Vault_OracleZeroAddress()": [
        {
          "notice": "Emitted when the proposed oracle address is equal to the zero address"
        }
      ],
      "Vault_SenderNotClearingHouse()": [
        {
          "notice": "Emitted when the sender is not the clearing house"
        }
      ],
      "Vault_SenderNotClearingHouseNorInsurance()": [
        {
          "notice": "Emitted when the sender is not the clearing house, nor the insurance"
        }
      ],
      "Vault_UADebt()": [
        {
          "notice": "Emitted when user tries to withdraw collateral while having a UA debt"
        }
      ],
      "Vault_UnsupportedCollateral()": [
        {
          "notice": "Emitted when a user attempts to use a token which is not whitelisted as collateral"
        }
      ],
      "Vault_WithdrawExcessiveAmount()": [
        {
          "notice": "Emitted when a user attempts to withdraw more than their balance"
        }
      ],
      "Vault_WithdrawReductionRatioTooHigh()": [
        {
          "notice": "Emitted when a user attempts to withdraw with a reduction ratio above 1e18"
        }
      ],
      "Vault_ZeroAddressConstructor(uint8)": [
        {
          "notice": "Emitted when the zero address is provided as a parameter in the constructor"
        }
      ]
    },
    "events": {
      "ClearingHouseChanged(address)": {
        "notice": "Emitted when a new ClearingHouse is connected to the vault"
      },
      "CollateralAdded(address,uint256,uint256)": {
        "notice": "Emitted when a new Oracle is connected to the vault"
      },
      "CollateralMaxAmountChanged(address,uint256)": {
        "notice": "Emitted when a collateral max amount changed"
      },
      "CollateralWeightChanged(address,uint256)": {
        "notice": "Emitted when a collateral weight changed"
      },
      "Deposit(address,address,uint256)": {
        "notice": "Emitted when collateral is deposited into the vault"
      },
      "InsuranceChanged(address)": {
        "notice": "Emitted when a new Insurance is connected to the vault"
      },
      "OracleChanged(address)": {
        "notice": "Emitted when a new Oracle is connected to the vault"
      },
      "TraderBadDebtGenerated(address,uint256)": {
        "notice": "Emitted when bad debt is settled for by the insurance reserve"
      },
      "Withdraw(address,address,uint256)": {
        "notice": "Emitted when collateral is withdrawn from the vault"
      }
    },
    "kind": "user",
    "methods": {
      "addWhiteListedCollateral(address,uint256,uint256)": {
        "notice": "Add a new token to the list of white listed ERC20 which can be used as collaterals"
      },
      "changeCollateralMaxAmount(address,uint256)": {
        "notice": "Change max amount of a white listed collateral         Useful as a risk mitigation measure in case one collateral drops in value"
      },
      "changeCollateralWeight(address,uint256)": {
        "notice": "Change weight of a white listed collateral         Useful as a risk mitigation measure in case one collateral drops in value"
      },
      "deposit(address,uint256,address)": {
        "notice": "Deposit reserveTokens to account"
      },
      "getNumberOfCollaterals()": {
        "notice": "Get all collateral tokens available for margin trading"
      },
      "getReserveValue(address,bool)": {
        "notice": "Get the balance of a trader, accounted for in USD. 18 decimals"
      },
      "getTotalValueLocked()": {
        "notice": "Get all value of all tokens deposited into the vault"
      },
      "getWhiteListedCollateral(uint256)": {
        "notice": "Get one collateral token available for margin trading"
      },
      "settleLiquidationOnCollaterals(address,address)": {
        "notice": "Allow liquidator to buy back collateral(s) of liquidated user at discounted price whereby settling his debt"
      },
      "settlePnL(address,int256)": {
        "notice": "Withdraw tokens from account"
      },
      "tokenToCollateralIdx(address)": {
        "notice": "Map white listed collateral tokens to their whiteListedCollaterals indexes"
      },
      "transferUa(address,uint256)": {
        "notice": "Transfer UA tokens from the vaultThe balance of the user from whom the UA tokens are been withdrawn must be updated (separately)"
      },
      "withdraw(address,uint256,address)": {
        "notice": "Withdraw tokens from account"
      },
      "withdrawAll(address,address)": {
        "notice": "Withdraw all tokens from account"
      }
    },
    "notice": "Keeps track of all token reserves for all market",
    "version": 1
  },
  "storageLayout": {
    "storage": [
      {
        "astId": 70,
        "contract": "contracts/Vault.sol:Vault",
        "label": "_roles",
        "offset": 0,
        "slot": "0",
        "type": "t_mapping(t_bytes32,t_struct(RoleData)65_storage)"
      },
      {
        "astId": 13094,
        "contract": "contracts/Vault.sol:Vault",
        "label": "clearingHouse",
        "offset": 0,
        "slot": "1",
        "type": "t_contract(IClearingHouse)14906"
      },
      {
        "astId": 13098,
        "contract": "contracts/Vault.sol:Vault",
        "label": "insurance",
        "offset": 0,
        "slot": "2",
        "type": "t_contract(IInsurance)15360"
      },
      {
        "astId": 13102,
        "contract": "contracts/Vault.sol:Vault",
        "label": "oracle",
        "offset": 0,
        "slot": "3",
        "type": "t_contract(IOracle)15498"
      },
      {
        "astId": 13106,
        "contract": "contracts/Vault.sol:Vault",
        "label": "whiteListedCollaterals",
        "offset": 0,
        "slot": "4",
        "type": "t_array(t_struct(Collateral)16184_storage)dyn_storage"
      },
      {
        "astId": 13113,
        "contract": "contracts/Vault.sol:Vault",
        "label": "tokenToCollateralIdx",
        "offset": 0,
        "slot": "5",
        "type": "t_mapping(t_contract(IERC20Metadata)2130,t_uint256)"
      },
      {
        "astId": 13119,
        "contract": "contracts/Vault.sol:Vault",
        "label": "balances",
        "offset": 0,
        "slot": "6",
        "type": "t_mapping(t_address,t_mapping(t_uint256,t_int256))"
      }
    ],
    "types": {
      "t_address": {
        "encoding": "inplace",
        "label": "address",
        "numberOfBytes": "20"
      },
      "t_array(t_struct(Collateral)16184_storage)dyn_storage": {
        "base": "t_struct(Collateral)16184_storage",
        "encoding": "dynamic_array",
        "label": "struct IVault.Collateral[]",
        "numberOfBytes": "32"
      },
      "t_bool": {
        "encoding": "inplace",
        "label": "bool",
        "numberOfBytes": "1"
      },
      "t_bytes32": {
        "encoding": "inplace",
        "label": "bytes32",
        "numberOfBytes": "32"
      },
      "t_contract(IClearingHouse)14906": {
        "encoding": "inplace",
        "label": "contract IClearingHouse",
        "numberOfBytes": "20"
      },
      "t_contract(IERC20Metadata)2130": {
        "encoding": "inplace",
        "label": "contract IERC20Metadata",
        "numberOfBytes": "20"
      },
      "t_contract(IInsurance)15360": {
        "encoding": "inplace",
        "label": "contract IInsurance",
        "numberOfBytes": "20"
      },
      "t_contract(IOracle)15498": {
        "encoding": "inplace",
        "label": "contract IOracle",
        "numberOfBytes": "20"
      },
      "t_int256": {
        "encoding": "inplace",
        "label": "int256",
        "numberOfBytes": "32"
      },
      "t_mapping(t_address,t_bool)": {
        "encoding": "mapping",
        "key": "t_address",
        "label": "mapping(address => bool)",
        "numberOfBytes": "32",
        "value": "t_bool"
      },
      "t_mapping(t_address,t_mapping(t_uint256,t_int256))": {
        "encoding": "mapping",
        "key": "t_address",
        "label": "mapping(address => mapping(uint256 => int256))",
        "numberOfBytes": "32",
        "value": "t_mapping(t_uint256,t_int256)"
      },
      "t_mapping(t_bytes32,t_struct(RoleData)65_storage)": {
        "encoding": "mapping",
        "key": "t_bytes32",
        "label": "mapping(bytes32 => struct AccessControl.RoleData)",
        "numberOfBytes": "32",
        "value": "t_struct(RoleData)65_storage"
      },
      "t_mapping(t_contract(IERC20Metadata)2130,t_uint256)": {
        "encoding": "mapping",
        "key": "t_contract(IERC20Metadata)2130",
        "label": "mapping(contract IERC20Metadata => uint256)",
        "numberOfBytes": "32",
        "value": "t_uint256"
      },
      "t_mapping(t_uint256,t_int256)": {
        "encoding": "mapping",
        "key": "t_uint256",
        "label": "mapping(uint256 => int256)",
        "numberOfBytes": "32",
        "value": "t_int256"
      },
      "t_struct(Collateral)16184_storage": {
        "encoding": "inplace",
        "label": "struct IVault.Collateral",
        "members": [
          {
            "astId": 16175,
            "contract": "contracts/Vault.sol:Vault",
            "label": "asset",
            "offset": 0,
            "slot": "0",
            "type": "t_contract(IERC20Metadata)2130"
          },
          {
            "astId": 16177,
            "contract": "contracts/Vault.sol:Vault",
            "label": "weight",
            "offset": 0,
            "slot": "1",
            "type": "t_uint256"
          },
          {
            "astId": 16179,
            "contract": "contracts/Vault.sol:Vault",
            "label": "decimals",
            "offset": 0,
            "slot": "2",
            "type": "t_uint8"
          },
          {
            "astId": 16181,
            "contract": "contracts/Vault.sol:Vault",
            "label": "currentAmount",
            "offset": 0,
            "slot": "3",
            "type": "t_uint256"
          },
          {
            "astId": 16183,
            "contract": "contracts/Vault.sol:Vault",
            "label": "maxAmount",
            "offset": 0,
            "slot": "4",
            "type": "t_uint256"
          }
        ],
        "numberOfBytes": "160"
      },
      "t_struct(RoleData)65_storage": {
        "encoding": "inplace",
        "label": "struct AccessControl.RoleData",
        "members": [
          {
            "astId": 62,
            "contract": "contracts/Vault.sol:Vault",
            "label": "members",
            "offset": 0,
            "slot": "0",
            "type": "t_mapping(t_address,t_bool)"
          },
          {
            "astId": 64,
            "contract": "contracts/Vault.sol:Vault",
            "label": "adminRole",
            "offset": 0,
            "slot": "1",
            "type": "t_bytes32"
          }
        ],
        "numberOfBytes": "64"
      },
      "t_uint256": {
        "encoding": "inplace",
        "label": "uint256",
        "numberOfBytes": "32"
      },
      "t_uint8": {
        "encoding": "inplace",
        "label": "uint8",
        "numberOfBytes": "1"
      }
    }
  }
}