{
  "address": "0x4D04f98d0DB00020BCd8cd9d488B88E763D4FDc9",
  "abi": [
    {
      "inputs": [
        {
          "internalType": "contract IClearingHouse",
          "name": "_clearingHouse",
          "type": "address"
        }
      ],
      "stateMutability": "nonpayable",
      "type": "constructor"
    },
    {
      "inputs": [
        {
          "internalType": "uint256",
          "name": "prod1",
          "type": "uint256"
        }
      ],
      "name": "PRBMath__MulDivFixedPointOverflow",
      "type": "error"
    },
    {
      "inputs": [],
      "name": "clearingHouse",
      "outputs": [
        {
          "internalType": "contract IClearingHouse",
          "name": "",
          "type": "address"
        }
      ],
      "stateMutability": "view",
      "type": "function"
    },
    {
      "inputs": [
        {
          "internalType": "uint256",
          "name": "idx",
          "type": "uint256"
        }
      ],
      "name": "getBaseDust",
      "outputs": [
        {
          "internalType": "uint256",
          "name": "",
          "type": "uint256"
        }
      ],
      "stateMutability": "view",
      "type": "function"
    },
    {
      "inputs": [
        {
          "internalType": "uint256",
          "name": "idx",
          "type": "uint256"
        },
        {
          "internalType": "uint256",
          "name": "vQuoteAmountToSpend",
          "type": "uint256"
        }
      ],
      "name": "getExpectedVBaseAmount",
      "outputs": [
        {
          "internalType": "uint256",
          "name": "",
          "type": "uint256"
        }
      ],
      "stateMutability": "view",
      "type": "function"
    },
    {
      "inputs": [
        {
          "internalType": "uint256",
          "name": "idx",
          "type": "uint256"
        },
        {
          "internalType": "uint256",
          "name": "vBaseAmountToSpend",
          "type": "uint256"
        }
      ],
      "name": "getExpectedVQuoteAmount",
      "outputs": [
        {
          "internalType": "uint256",
          "name": "",
          "type": "uint256"
        }
      ],
      "stateMutability": "view",
      "type": "function"
    },
    {
      "inputs": [
        {
          "internalType": "uint256",
          "name": "idx",
          "type": "uint256"
        },
        {
          "internalType": "address",
          "name": "account",
          "type": "address"
        }
      ],
      "name": "getFundingPayments",
      "outputs": [
        {
          "internalType": "int256",
          "name": "upcomingFundingPayment",
          "type": "int256"
        }
      ],
      "stateMutability": "view",
      "type": "function"
    },
    {
      "inputs": [
        {
          "internalType": "uint256",
          "name": "idx",
          "type": "uint256"
        }
      ],
      "name": "getGlobalPosition",
      "outputs": [
        {
          "components": [
            {
              "internalType": "uint128",
              "name": "timeOfLastTrade",
              "type": "uint128"
            },
            {
              "internalType": "uint128",
              "name": "timeOfLastTwapUpdate",
              "type": "uint128"
            },
            {
              "internalType": "int256",
              "name": "cumFundingRate",
              "type": "int256"
            },
            {
              "internalType": "int256",
              "name": "blockStartPrice",
              "type": "int256"
            }
          ],
          "internalType": "struct LibPerpetual.GlobalPosition",
          "name": "",
          "type": "tuple"
        }
      ],
      "stateMutability": "view",
      "type": "function"
    },
    {
      "inputs": [
        {
          "internalType": "uint256",
          "name": "idx",
          "type": "uint256"
        },
        {
          "internalType": "address",
          "name": "account",
          "type": "address"
        }
      ],
      "name": "getLpPosition",
      "outputs": [
        {
          "components": [
            {
              "internalType": "int256",
              "name": "openNotional",
              "type": "int256"
            },
            {
              "internalType": "int256",
              "name": "positionSize",
              "type": "int256"
            },
            {
              "internalType": "int256",
              "name": "cumFundingRate",
              "type": "int256"
            },
            {
              "internalType": "uint256",
              "name": "liquidityBalance",
              "type": "uint256"
            }
          ],
          "internalType": "struct LibPerpetual.UserPosition",
          "name": "",
          "type": "tuple"
        }
      ],
      "stateMutability": "view",
      "type": "function"
    },
    {
      "inputs": [
        {
          "internalType": "uint256",
          "name": "idx",
          "type": "uint256"
        },
        {
          "internalType": "address",
          "name": "account",
          "type": "address"
        }
      ],
      "name": "getLpReserveValue",
      "outputs": [
        {
          "internalType": "int256",
          "name": "",
          "type": "int256"
        }
      ],
      "stateMutability": "view",
      "type": "function"
    },
    {
      "inputs": [
        {
          "internalType": "uint256",
          "name": "idx",
          "type": "uint256"
        },
        {
          "internalType": "address",
          "name": "trader",
          "type": "address"
        },
        {
          "internalType": "uint256",
          "name": "iter",
          "type": "uint256"
        }
      ],
      "name": "getProposedAmount",
      "outputs": [
        {
          "internalType": "uint256",
          "name": "amountIn",
          "type": "uint256"
        },
        {
          "internalType": "uint256",
          "name": "amountOut",
          "type": "uint256"
        }
      ],
      "stateMutability": "view",
      "type": "function"
    },
    {
      "inputs": [
        {
          "internalType": "uint256",
          "name": "idx",
          "type": "uint256"
        },
        {
          "internalType": "address",
          "name": "account",
          "type": "address"
        }
      ],
      "name": "getTraderPosition",
      "outputs": [
        {
          "components": [
            {
              "internalType": "int256",
              "name": "openNotional",
              "type": "int256"
            },
            {
              "internalType": "int256",
              "name": "positionSize",
              "type": "int256"
            },
            {
              "internalType": "int256",
              "name": "cumFundingRate",
              "type": "int256"
            },
            {
              "internalType": "uint256",
              "name": "liquidityBalance",
              "type": "uint256"
            }
          ],
          "internalType": "struct LibPerpetual.UserPosition",
          "name": "",
          "type": "tuple"
        }
      ],
      "stateMutability": "view",
      "type": "function"
    },
    {
      "inputs": [
        {
          "internalType": "uint256",
          "name": "idx",
          "type": "uint256"
        },
        {
          "internalType": "address",
          "name": "account",
          "type": "address"
        }
      ],
      "name": "getTraderReserveValue",
      "outputs": [
        {
          "internalType": "int256",
          "name": "",
          "type": "int256"
        }
      ],
      "stateMutability": "view",
      "type": "function"
    },
    {
      "inputs": [
        {
          "internalType": "uint256",
          "name": "idx",
          "type": "uint256"
        },
        {
          "internalType": "address",
          "name": "account",
          "type": "address"
        }
      ],
      "name": "getUnrealizedPnL",
      "outputs": [
        {
          "internalType": "int256",
          "name": "",
          "type": "int256"
        }
      ],
      "stateMutability": "view",
      "type": "function"
    },
    {
      "inputs": [
        {
          "internalType": "uint256",
          "name": "idx",
          "type": "uint256"
        }
      ],
      "name": "indexPrice",
      "outputs": [
        {
          "internalType": "int256",
          "name": "",
          "type": "int256"
        }
      ],
      "stateMutability": "view",
      "type": "function"
    },
    {
      "inputs": [
        {
          "internalType": "uint256",
          "name": "idx",
          "type": "uint256"
        }
      ],
      "name": "marketPrice",
      "outputs": [
        {
          "internalType": "uint256",
          "name": "",
          "type": "uint256"
        }
      ],
      "stateMutability": "view",
      "type": "function"
    }
  ],
  "transactionHash": "0x6b03b2dcbbc3524beb2fb13d93eac906ce39238fe60000027d4ca4615e120130",
  "args": [
    "0xE6a00Bf6De69226E23df9652820fAc5a422DD2B8"
  ],
  "solcInputHash": "c4314880627295fbb14e2440e0d164b2",
  "bytecode": "0x608060405234801561001057600080fd5b506040516113d63803806113d683398101604081905261002f916100b8565b6001600160a01b0381166100935760405162461bcd60e51b815260206004820152602160248201527f436c656172696e67486f75736520616464726573732063616e6e6f74206265206044820152600360fc1b606482015260840160405180910390fd5b600080546001600160a01b0319166001600160a01b03929092169190911790556100e6565b6000602082840312156100c9578081fd5b81516001600160a01b03811681146100df578182fd5b9392505050565b6112e1806100f56000396000f3fe608060405234801561001057600080fd5b50600436106100ea5760003560e01c806366e910dd1161008c578063ce48674f11610066578063ce48674f14610250578063d25540ee14610263578063d67f932614610276578063f82a61ec1461029e57600080fd5b806366e910dd146101d257806387a95401146101e5578063cc2923c5146101f857600080fd5b806326818f17116100c857806326818f171461018657806326b59eae146101995780633adec5a7146101ac57806351aa4c9d146101bf57600080fd5b80630af96800146100ef5780631fb4ef671461011f5780631fdbc3c814610140575b600080fd5b600054610102906001600160a01b031681565b6040516001600160a01b0390911681526020015b60405180910390f35b61013261012d36600461111b565b6102b1565b604051908152602001610116565b61015361014e366004611133565b6103a4565b60405161011691908151815260208083015190820152604080830151908201526060918201519181019190915260800190565b610132610194366004611133565b6104ce565b6101326101a7366004611199565b6105c7565b6101326101ba36600461111b565b6106f1565b6101326101cd366004611199565b6107a6565b6101536101e0366004611133565b6108d0565b6101326101f3366004611133565b6109a7565b61020b61020636600461111b565b610a65565b604051610116919060006080820190506001600160801b0380845116835280602085015116602084015250604083015160408301526060830151606083015292915050565b61013261025e366004611133565b610b71565b610132610271366004611133565b610c1e565b610289610284366004611162565b610cdc565b60408051928352602083019190915201610116565b6101326102ac36600461111b565b610e08565b60008054604051632cd0f65560e11b8152600481018490526001600160a01b03909116906359a1ecaa9060240160206040518083038186803b1580156102f657600080fd5b505afa15801561030a573d6000803e3d6000fd5b505050506040513d601f19601f8201168201806040525081019061032e919061104f565b6001600160a01b03166310bace8c6040518163ffffffff1660e01b815260040160206040518083038186803b15801561036657600080fd5b505afa15801561037a573d6000803e3d6000fd5b505050506040513d601f19601f8201168201806040525081019061039e919061106b565b92915050565b6103cf6040518060800160405280600081526020016000815260200160008152602001600081525090565b600054604051632cd0f65560e11b8152600481018590526001600160a01b03909116906359a1ecaa9060240160206040518083038186803b15801561041357600080fd5b505afa158015610427573d6000803e3d6000fd5b505050506040513d601f19601f8201168201806040525081019061044b919061104f565b60405163cefc499360e01b81526001600160a01b038481166004830152919091169063cefc4993906024015b60806040518083038186803b15801561048f57600080fd5b505afa1580156104a3573d6000803e3d6000fd5b505050506040513d601f19601f820116820180604052508101906104c791906110d6565b9392505050565b60008054604051632cd0f65560e11b8152600481018590526001600160a01b03909116906359a1ecaa9060240160206040518083038186803b15801561051357600080fd5b505afa158015610527573d6000803e3d6000fd5b505050506040513d601f19601f8201168201806040525081019061054b919061104f565b60405163544305bf60e01b81526001600160a01b038481166004830152919091169063544305bf906024015b60206040518083038186803b15801561058f57600080fd5b505afa1580156105a3573d6000803e3d6000fd5b505050506040513d601f19601f820116820180604052508101906104c7919061106b565b60008054604051632cd0f65560e11b8152600481018590526001600160a01b03909116906359a1ecaa9060240160206040518083038186803b15801561060c57600080fd5b505afa158015610620573d6000803e3d6000fd5b505050506040513d601f19601f82011682018060405250810190610644919061104f565b6001600160a01b03166380f556056040518163ffffffff1660e01b815260040160206040518083038186803b15801561067c57600080fd5b505afa158015610690573d6000803e3d6000fd5b505050506040513d601f19601f820116820180604052508101906106b4919061104f565b60405163556d6e9f60e01b81526000600482015260016024820152604481018490526001600160a01b03919091169063556d6e9f90606401610577565b60008054604051632cd0f65560e11b8152600481018490526001600160a01b03909116906359a1ecaa9060240160206040518083038186803b15801561073657600080fd5b505afa15801561074a573d6000803e3d6000fd5b505050506040513d601f19601f8201168201806040525081019061076e919061104f565b6001600160a01b03166345a153886040518163ffffffff1660e01b815260040160206040518083038186803b15801561036657600080fd5b60008054604051632cd0f65560e11b8152600481018590526001600160a01b03909116906359a1ecaa9060240160206040518083038186803b1580156107eb57600080fd5b505afa1580156107ff573d6000803e3d6000fd5b505050506040513d601f19601f82011682018060405250810190610823919061104f565b6001600160a01b03166380f556056040518163ffffffff1660e01b815260040160206040518083038186803b15801561085b57600080fd5b505afa15801561086f573d6000803e3d6000fd5b505050506040513d601f19601f82011682018060405250810190610893919061104f565b60405163556d6e9f60e01b81526001600482015260006024820152604481018490526001600160a01b03919091169063556d6e9f90606401610577565b6108fb6040518060800160405280600081526020016000815260200160008152602001600081525090565b600054604051632cd0f65560e11b8152600481018590526001600160a01b03909116906359a1ecaa9060240160206040518083038186803b15801561093f57600080fd5b505afa158015610953573d6000803e3d6000fd5b505050506040513d601f19601f82011682018060405250810190610977919061104f565b604051630f272c5b60e31b81526001600160a01b038481166004830152919091169063793962d890602401610477565b60008060009054906101000a90046001600160a01b03166001600160a01b031663fbfa77cf6040518163ffffffff1660e01b815260040160206040518083038186803b1580156109f657600080fd5b505afa158015610a0a573d6000803e3d6000fd5b505050506040513d601f19601f82011682018060405250810190610a2e919061104f565b6040516387a9540160e01b8152600481018590526001600160a01b03848116602483015291909116906387a9540190604401610577565b6040805160808101825260008082526020820181905281830181905260608201819052549151632cd0f65560e11b81526004810184905290916001600160a01b0316906359a1ecaa9060240160206040518083038186803b158015610ac957600080fd5b505afa158015610add573d6000803e3d6000fd5b505050506040513d601f19601f82011682018060405250810190610b01919061104f565b6001600160a01b0316639027b59e6040518163ffffffff1660e01b815260040160806040518083038186803b158015610b3957600080fd5b505afa158015610b4d573d6000803e3d6000fd5b505050506040513d601f19601f8201168201806040525081019061039e9190611083565b60008054604051632cd0f65560e11b8152600481018590526001600160a01b03909116906359a1ecaa9060240160206040518083038186803b158015610bb657600080fd5b505afa158015610bca573d6000803e3d6000fd5b505050506040513d601f19601f82011682018060405250810190610bee919061104f565b604051632847ded360e11b81526001600160a01b038481166004830152919091169063508fbda690602401610577565b60008060009054906101000a90046001600160a01b03166001600160a01b031663fbfa77cf6040518163ffffffff1660e01b815260040160206040518083038186803b158015610c6d57600080fd5b505afa158015610c81573d6000803e3d6000fd5b505050506040513d601f19601f82011682018060405250810190610ca5919061104f565b60405163692aa07760e11b8152600481018590526001600160a01b038481166024830152919091169063d25540ee90604401610577565b6000806000610ceb86866108d0565b6020015190506000811315610d1657610d0381610f08565b9250610d0f86846107a6565b9150610dfe565b6000610d29610d2483611263565b610f08565b905060009250610d42610d3b886106f1565b8290610f63565b93506000600a610d5386600d611229565b610d5d9190611209565b90506000600a610d6e876007611229565b610d789190611209565b905060005b87811015610ddc576002610d9184846111f1565b610d9b9190611209565b9650610da78a886105c7565b955083861415610db657610ddc565b83861015610dc657869150610dca565b8692505b80610dd481611248565b915050610d7d565b5082851015610df557819550610df289876105c7565b94505b50505050610e00565b505b935093915050565b60008054604051632cd0f65560e11b81526004810184905261039e916001600160a01b0316906359a1ecaa9060240160206040518083038186803b158015610e4f57600080fd5b505afa158015610e63573d6000803e3d6000fd5b505050506040513d601f19601f82011682018060405250810190610e87919061104f565b600054604051630f272c5b60e31b81526001600160a01b03918216600482015291169063793962d89060240160806040518083038186803b158015610ecb57600080fd5b505afa158015610edf573d6000803e3d6000fd5b505050506040513d601f19601f82011682018060405250810190610f0391906110d6565b602001515b600080821215610f5f5760405162461bcd60e51b815260206004820181905260248201527f53616665436173743a2076616c7565206d75737420626520706f73697469766560448201526064015b60405180910390fd5b5090565b60006104c7838360006104c7838360008080600019848609848602925082811083820303915050670de0b6b3a76400008110610fb55760405163698d9a0160e11b815260048101829052602401610f56565b600080670de0b6b3a76400008688099150506706f05b59d3b1ffff811182610fef5780670de0b6b3a764000085040194505050505061039e565b620400008285030493909111909103600160ee1b02919091177faccb18165bd6fe31ae1cf318dc5b51eee0e1ba569b88cd74c1773b91fac106690201905092915050565b80516001600160801b038116811461104a57600080fd5b919050565b600060208284031215611060578081fd5b81516104c781611293565b60006020828403121561107c578081fd5b5051919050565b600060808284031215611094578081fd5b61109c6111ba565b6110a583611033565b81526110b360208401611033565b602082015260408301516040820152606083015160608201528091505092915050565b6000608082840312156110e7578081fd5b6110ef6111ba565b825181526020830151602082015260408301516040820152606083015160608201528091505092915050565b60006020828403121561112c578081fd5b5035919050565b60008060408385031215611145578081fd5b82359150602083013561115781611293565b809150509250929050565b600080600060608486031215611176578081fd5b83359250602084013561118881611293565b929592945050506040919091013590565b600080604083850312156111ab578182fd5b50508035926020909101359150565b6040516080810167ffffffffffffffff811182821017156111eb57634e487b7160e01b600052604160045260246000fd5b60405290565b600082198211156112045761120461127d565b500190565b60008261122457634e487b7160e01b81526012600452602481fd5b500490565b60008160001904831182151516156112435761124361127d565b500290565b600060001982141561125c5761125c61127d565b5060010190565b6000600160ff1b8214156112795761127961127d565b0390565b634e487b7160e01b600052601160045260246000fd5b6001600160a01b03811681146112a857600080fd5b5056fea26469706673582212207f8cb7e5879b22ec0f429dd1c18a9c65cff9002b58ca8af402c6fd2dd778095364736f6c63430008040033",
  "devdoc": {
    "kind": "dev",
    "methods": {
      "getBaseDust(uint256)": {
        "returns": {
          "_0": "Base balance of Governance. 18 decimals"
        }
      },
      "getExpectedVBaseAmount(uint256,uint256)": {
        "details": "It's up to the client to apply a reduction of this amount (e.g. -1%) to then use it as `minAmount` in `extendPosition`TODO: store market address to avoid second call",
        "params": {
          "idx": "Index of the perpetual market",
          "vQuoteAmountToSpend": "Amount of vQuote to be exchanged against some vBase. 18 decimals"
        }
      },
      "getExpectedVQuoteAmount(uint256,uint256)": {
        "details": "It's up to the client to apply a reduction of this amount (e.g. -1%) to then use it as `minAmount` in `extendPosition`TODO: store market address to avoid second call",
        "params": {
          "idx": "Index of the perpetual market",
          "vBaseAmountToSpend": "Amount of vBase to be exchanged against some vQuote. 18 decimals"
        }
      },
      "getFundingPayments(uint256,address)": {
        "params": {
          "account": "Trader to get the funding payments",
          "idx": "Index of the perpetual market"
        }
      },
      "getGlobalPosition(uint256)": {
        "params": {
          "idx": "Index of the perpetual market"
        }
      },
      "getLpPosition(uint256,address)": {
        "params": {
          "account": "Address to get the LP position from",
          "idx": "Index of the perpetual market"
        }
      },
      "getLpReserveValue(uint256,address)": {
        "params": {
          "account": "Address to get the portfolio value from",
          "idx": "Index of the perpetual market"
        }
      },
      "getProposedAmount(uint256,address,uint256)": {
        "details": "Solidity implementation to minimize the node calls once has to make when finding proposed amountShould not be called from another contractTODO: use reductionRatio parameters",
        "params": {
          "idx": "Index of the perpetual market",
          "iter": "Maximum iterations",
          "trader": "Account"
        }
      },
      "getTraderPosition(uint256,address)": {
        "params": {
          "account": "Address to get the trading position from",
          "idx": "Index of the perpetual market"
        }
      },
      "getTraderReserveValue(uint256,address)": {
        "params": {
          "account": "Address to get the portfolio value from",
          "idx": "Index of the perpetual market"
        }
      },
      "getUnrealizedPnL(uint256,address)": {
        "params": {
          "account": "Trader to get the unrealized PnL from",
          "idx": "Index of the perpetual market"
        }
      },
      "indexPrice(uint256)": {
        "params": {
          "idx": "Index of the perpetual market"
        }
      },
      "marketPrice(uint256)": {
        "params": {
          "idx": "Index of the perpetual market"
        }
      }
    },
    "title": "Clearing House Helper Contract",
    "version": 1
  },
  "userdoc": {
    "errors": {
      "PRBMath__MulDivFixedPointOverflow(uint256)": [
        {
          "notice": "Emitted when the result overflows uint256."
        }
      ]
    },
    "kind": "user",
    "methods": {
      "getBaseDust(uint256)": {
        "notice": "Get the current (base) dust balance"
      },
      "getExpectedVBaseAmount(uint256,uint256)": {
        "notice": "Return amount for vBase one would receive for exchanging `vQuoteAmountToSpend` in a select market (excluding slippage)"
      },
      "getExpectedVQuoteAmount(uint256,uint256)": {
        "notice": "Return amount for vQuote one would receive for exchanging `vBaseAmountToSpend` in a select market (excluding slippage)"
      },
      "getFundingPayments(uint256,address)": {
        "notice": "Calculate missed funding payments"
      },
      "getLpPosition(uint256,address)": {
        "notice": "Get Lp position"
      },
      "getLpReserveValue(uint256,address)": {
        "notice": "Get the portfolio value of an Lp"
      },
      "getProposedAmount(uint256,address,uint256)": {
        "notice": "Get the proposed amount needed to close a position"
      },
      "getTraderPosition(uint256,address)": {
        "notice": "Get trader position"
      },
      "getTraderReserveValue(uint256,address)": {
        "notice": "Get the portfolio value of a trader"
      },
      "indexPrice(uint256)": {
        "notice": "Return the current off-chain exchange rate for vBase/vQuote"
      },
      "marketPrice(uint256)": {
        "notice": "Return the last traded price (used for TWAP)"
      }
    },
    "notice": "Access vault / perpetual / market getters through this contract",
    "version": 1
  },
  "storageLayout": {
    "storage": [
      {
        "astId": 3639,
        "contract": "contracts/ClearingHouseViewer.sol:ClearingHouseViewer",
        "label": "clearingHouse",
        "offset": 0,
        "slot": "0",
        "type": "t_contract(IClearingHouse)7217"
      }
    ],
    "types": {
      "t_contract(IClearingHouse)7217": {
        "encoding": "inplace",
        "label": "contract IClearingHouse",
        "numberOfBytes": "20"
      }
    }
  }
}