{
  "address": "0xE6a00Bf6De69226E23df9652820fAc5a422DD2B8",
  "abi": [
    {
      "inputs": [
        {
          "internalType": "contract IVault",
          "name": "_vault",
          "type": "address"
        }
      ],
      "stateMutability": "nonpayable",
      "type": "constructor"
    },
    {
      "inputs": [],
      "name": "PRBMathSD59x18__AbsInputTooSmall",
      "type": "error"
    },
    {
      "inputs": [],
      "name": "PRBMathSD59x18__DivInputTooSmall",
      "type": "error"
    },
    {
      "inputs": [
        {
          "internalType": "uint256",
          "name": "rAbs",
          "type": "uint256"
        }
      ],
      "name": "PRBMathSD59x18__DivOverflow",
      "type": "error"
    },
    {
      "inputs": [],
      "name": "PRBMathSD59x18__MulInputTooSmall",
      "type": "error"
    },
    {
      "inputs": [
        {
          "internalType": "uint256",
          "name": "rAbs",
          "type": "uint256"
        }
      ],
      "name": "PRBMathSD59x18__MulOverflow",
      "type": "error"
    },
    {
      "inputs": [
        {
          "internalType": "uint256",
          "name": "prod1",
          "type": "uint256"
        }
      ],
      "name": "PRBMath__MulDivFixedPointOverflow",
      "type": "error"
    },
    {
      "inputs": [
        {
          "internalType": "uint256",
          "name": "prod1",
          "type": "uint256"
        },
        {
          "internalType": "uint256",
          "name": "denominator",
          "type": "uint256"
        }
      ],
      "name": "PRBMath__MulDivOverflow",
      "type": "error"
    },
    {
      "anonymous": false,
      "inputs": [
        {
          "indexed": true,
          "internalType": "uint256",
          "name": "idx",
          "type": "uint256"
        },
        {
          "indexed": true,
          "internalType": "address",
          "name": "user",
          "type": "address"
        },
        {
          "indexed": true,
          "internalType": "address",
          "name": "asset",
          "type": "address"
        },
        {
          "indexed": false,
          "internalType": "uint256",
          "name": "amount",
          "type": "uint256"
        }
      ],
      "name": "Deposit",
      "type": "event"
    },
    {
      "anonymous": false,
      "inputs": [
        {
          "indexed": true,
          "internalType": "uint256",
          "name": "idx",
          "type": "uint256"
        },
        {
          "indexed": false,
          "internalType": "int256",
          "name": "profit",
          "type": "int256"
        }
      ],
      "name": "DustSold",
      "type": "event"
    },
    {
      "anonymous": false,
      "inputs": [
        {
          "indexed": true,
          "internalType": "uint256",
          "name": "idx",
          "type": "uint256"
        },
        {
          "indexed": true,
          "internalType": "address",
          "name": "user",
          "type": "address"
        },
        {
          "indexed": false,
          "internalType": "enum LibPerpetual.Side",
          "name": "direction",
          "type": "uint8"
        },
        {
          "indexed": false,
          "internalType": "int256",
          "name": "addedOpenNotional",
          "type": "int256"
        },
        {
          "indexed": false,
          "internalType": "int256",
          "name": "addedPositionSize",
          "type": "int256"
        }
      ],
      "name": "ExtendPosition",
      "type": "event"
    },
    {
      "anonymous": false,
      "inputs": [
        {
          "indexed": false,
          "internalType": "uint256",
          "name": "amount",
          "type": "uint256"
        }
      ],
      "name": "InsuranceRemoved",
      "type": "event"
    },
    {
      "anonymous": false,
      "inputs": [
        {
          "indexed": true,
          "internalType": "uint256",
          "name": "idx",
          "type": "uint256"
        },
        {
          "indexed": true,
          "internalType": "address",
          "name": "liquidatee",
          "type": "address"
        },
        {
          "indexed": true,
          "internalType": "address",
          "name": "liquidator",
          "type": "address"
        },
        {
          "indexed": false,
          "internalType": "uint256",
          "name": "notional",
          "type": "uint256"
        }
      ],
      "name": "LiquidationCall",
      "type": "event"
    },
    {
      "anonymous": false,
      "inputs": [
        {
          "indexed": true,
          "internalType": "uint256",
          "name": "idx",
          "type": "uint256"
        },
        {
          "indexed": true,
          "internalType": "address",
          "name": "liquidityProvider",
          "type": "address"
        },
        {
          "indexed": true,
          "internalType": "address",
          "name": "asset",
          "type": "address"
        },
        {
          "indexed": false,
          "internalType": "uint256",
          "name": "amount",
          "type": "uint256"
        }
      ],
      "name": "LiquidityProvided",
      "type": "event"
    },
    {
      "anonymous": false,
      "inputs": [
        {
          "indexed": true,
          "internalType": "uint256",
          "name": "idx",
          "type": "uint256"
        },
        {
          "indexed": true,
          "internalType": "address",
          "name": "liquidityProvider",
          "type": "address"
        },
        {
          "indexed": false,
          "internalType": "uint256",
          "name": "removedLiquidity",
          "type": "uint256"
        },
        {
          "indexed": false,
          "internalType": "uint256",
          "name": "quoteTokens",
          "type": "uint256"
        },
        {
          "indexed": false,
          "internalType": "uint256",
          "name": "baseTokens",
          "type": "uint256"
        },
        {
          "indexed": false,
          "internalType": "int256",
          "name": "profit",
          "type": "int256"
        }
      ],
      "name": "LiquidityRemoved",
      "type": "event"
    },
    {
      "anonymous": false,
      "inputs": [
        {
          "indexed": true,
          "internalType": "contract IPerpetual",
          "name": "perpetual",
          "type": "address"
        },
        {
          "indexed": false,
          "internalType": "uint256",
          "name": "numPerpetuals",
          "type": "uint256"
        }
      ],
      "name": "MarketAdded",
      "type": "event"
    },
    {
      "anonymous": false,
      "inputs": [
        {
          "indexed": false,
          "internalType": "address",
          "name": "account",
          "type": "address"
        }
      ],
      "name": "Paused",
      "type": "event"
    },
    {
      "anonymous": false,
      "inputs": [
        {
          "indexed": true,
          "internalType": "uint256",
          "name": "idx",
          "type": "uint256"
        },
        {
          "indexed": true,
          "internalType": "address",
          "name": "user",
          "type": "address"
        },
        {
          "indexed": false,
          "internalType": "int256",
          "name": "reducedOpenNotional",
          "type": "int256"
        },
        {
          "indexed": false,
          "internalType": "int256",
          "name": "reducedPositionSize",
          "type": "int256"
        }
      ],
      "name": "ReducePosition",
      "type": "event"
    },
    {
      "anonymous": false,
      "inputs": [
        {
          "indexed": true,
          "internalType": "address",
          "name": "sender",
          "type": "address"
        },
        {
          "indexed": true,
          "internalType": "address",
          "name": "recipient",
          "type": "address"
        }
      ],
      "name": "TransferOwner",
      "type": "event"
    },
    {
      "anonymous": false,
      "inputs": [
        {
          "indexed": true,
          "internalType": "address",
          "name": "sender",
          "type": "address"
        },
        {
          "indexed": true,
          "internalType": "address",
          "name": "recipient",
          "type": "address"
        }
      ],
      "name": "TransferOwnerClaim",
      "type": "event"
    },
    {
      "anonymous": false,
      "inputs": [
        {
          "indexed": false,
          "internalType": "address",
          "name": "account",
          "type": "address"
        }
      ],
      "name": "Unpaused",
      "type": "event"
    },
    {
      "anonymous": false,
      "inputs": [
        {
          "indexed": true,
          "internalType": "uint256",
          "name": "idx",
          "type": "uint256"
        },
        {
          "indexed": true,
          "internalType": "address",
          "name": "user",
          "type": "address"
        },
        {
          "indexed": true,
          "internalType": "address",
          "name": "asset",
          "type": "address"
        },
        {
          "indexed": false,
          "internalType": "uint256",
          "name": "amount",
          "type": "uint256"
        }
      ],
      "name": "Withdraw",
      "type": "event"
    },
    {
      "inputs": [],
      "name": "INSURANCE_FEE",
      "outputs": [
        {
          "internalType": "int256",
          "name": "",
          "type": "int256"
        }
      ],
      "stateMutability": "view",
      "type": "function"
    },
    {
      "inputs": [],
      "name": "INSURANCE_RATIO",
      "outputs": [
        {
          "internalType": "uint256",
          "name": "",
          "type": "uint256"
        }
      ],
      "stateMutability": "view",
      "type": "function"
    },
    {
      "inputs": [],
      "name": "LIQUIDATION_REWARD",
      "outputs": [
        {
          "internalType": "uint256",
          "name": "",
          "type": "uint256"
        }
      ],
      "stateMutability": "view",
      "type": "function"
    },
    {
      "inputs": [],
      "name": "MIN_MARGIN",
      "outputs": [
        {
          "internalType": "int256",
          "name": "",
          "type": "int256"
        }
      ],
      "stateMutability": "view",
      "type": "function"
    },
    {
      "inputs": [],
      "name": "MIN_MARGIN_AT_CREATION",
      "outputs": [
        {
          "internalType": "int256",
          "name": "",
          "type": "int256"
        }
      ],
      "stateMutability": "view",
      "type": "function"
    },
    {
      "inputs": [
        {
          "internalType": "contract IPerpetual",
          "name": "perp",
          "type": "address"
        }
      ],
      "name": "allowListPerpetual",
      "outputs": [],
      "stateMutability": "nonpayable",
      "type": "function"
    },
    {
      "inputs": [],
      "name": "claimOwner",
      "outputs": [],
      "stateMutability": "nonpayable",
      "type": "function"
    },
    {
      "inputs": [
        {
          "internalType": "uint256",
          "name": "idx",
          "type": "uint256"
        },
        {
          "internalType": "uint256",
          "name": "proposedAmount",
          "type": "uint256"
        },
        {
          "internalType": "uint256",
          "name": "minAmount",
          "type": "uint256"
        },
        {
          "internalType": "contract IERC20",
          "name": "token",
          "type": "address"
        }
      ],
      "name": "closePositionWithdrawCollateral",
      "outputs": [],
      "stateMutability": "nonpayable",
      "type": "function"
    },
    {
      "inputs": [
        {
          "internalType": "uint256",
          "name": "idx",
          "type": "uint256"
        },
        {
          "internalType": "uint256",
          "name": "amount",
          "type": "uint256"
        },
        {
          "internalType": "contract IERC20",
          "name": "token",
          "type": "address"
        }
      ],
      "name": "deposit",
      "outputs": [],
      "stateMutability": "nonpayable",
      "type": "function"
    },
    {
      "inputs": [
        {
          "internalType": "uint256",
          "name": "idx",
          "type": "uint256"
        },
        {
          "internalType": "uint256",
          "name": "amount",
          "type": "uint256"
        },
        {
          "internalType": "enum LibPerpetual.Side",
          "name": "direction",
          "type": "uint8"
        },
        {
          "internalType": "uint256",
          "name": "minAmount",
          "type": "uint256"
        }
      ],
      "name": "extendPosition",
      "outputs": [
        {
          "internalType": "int256",
          "name": "addedOpenNotional",
          "type": "int256"
        },
        {
          "internalType": "int256",
          "name": "addedPositionSize",
          "type": "int256"
        }
      ],
      "stateMutability": "nonpayable",
      "type": "function"
    },
    {
      "inputs": [
        {
          "internalType": "uint256",
          "name": "idx",
          "type": "uint256"
        },
        {
          "internalType": "uint256",
          "name": "collateralAmount",
          "type": "uint256"
        },
        {
          "internalType": "contract IERC20",
          "name": "token",
          "type": "address"
        },
        {
          "internalType": "uint256",
          "name": "positionAmount",
          "type": "uint256"
        },
        {
          "internalType": "enum LibPerpetual.Side",
          "name": "direction",
          "type": "uint8"
        },
        {
          "internalType": "uint256",
          "name": "minAmount",
          "type": "uint256"
        }
      ],
      "name": "extendPositionWithCollateral",
      "outputs": [
        {
          "internalType": "int256",
          "name": "",
          "type": "int256"
        },
        {
          "internalType": "int256",
          "name": "",
          "type": "int256"
        }
      ],
      "stateMutability": "nonpayable",
      "type": "function"
    },
    {
      "inputs": [],
      "name": "getNumMarkets",
      "outputs": [
        {
          "internalType": "uint256",
          "name": "",
          "type": "uint256"
        }
      ],
      "stateMutability": "view",
      "type": "function"
    },
    {
      "inputs": [
        {
          "internalType": "uint256",
          "name": "idx",
          "type": "uint256"
        },
        {
          "internalType": "address",
          "name": "liquidatee",
          "type": "address"
        },
        {
          "internalType": "uint256",
          "name": "proposedAmount",
          "type": "uint256"
        }
      ],
      "name": "liquidate",
      "outputs": [],
      "stateMutability": "nonpayable",
      "type": "function"
    },
    {
      "inputs": [
        {
          "internalType": "uint256",
          "name": "idx",
          "type": "uint256"
        },
        {
          "internalType": "address",
          "name": "account",
          "type": "address"
        },
        {
          "internalType": "int256",
          "name": "ratio",
          "type": "int256"
        }
      ],
      "name": "marginIsValid",
      "outputs": [
        {
          "internalType": "bool",
          "name": "",
          "type": "bool"
        }
      ],
      "stateMutability": "view",
      "type": "function"
    },
    {
      "inputs": [
        {
          "internalType": "uint256",
          "name": "idx",
          "type": "uint256"
        },
        {
          "internalType": "address",
          "name": "account",
          "type": "address"
        }
      ],
      "name": "marginRatio",
      "outputs": [
        {
          "internalType": "int256",
          "name": "",
          "type": "int256"
        }
      ],
      "stateMutability": "view",
      "type": "function"
    },
    {
      "inputs": [],
      "name": "owner",
      "outputs": [
        {
          "internalType": "address",
          "name": "",
          "type": "address"
        }
      ],
      "stateMutability": "view",
      "type": "function"
    },
    {
      "inputs": [],
      "name": "pause",
      "outputs": [],
      "stateMutability": "nonpayable",
      "type": "function"
    },
    {
      "inputs": [],
      "name": "paused",
      "outputs": [
        {
          "internalType": "bool",
          "name": "",
          "type": "bool"
        }
      ],
      "stateMutability": "view",
      "type": "function"
    },
    {
      "inputs": [],
      "name": "pendingOwner",
      "outputs": [
        {
          "internalType": "address",
          "name": "",
          "type": "address"
        }
      ],
      "stateMutability": "view",
      "type": "function"
    },
    {
      "inputs": [
        {
          "internalType": "uint256",
          "name": "",
          "type": "uint256"
        }
      ],
      "name": "perpetuals",
      "outputs": [
        {
          "internalType": "contract IPerpetual",
          "name": "",
          "type": "address"
        }
      ],
      "stateMutability": "view",
      "type": "function"
    },
    {
      "inputs": [
        {
          "internalType": "uint256",
          "name": "idx",
          "type": "uint256"
        },
        {
          "internalType": "uint256",
          "name": "amount",
          "type": "uint256"
        },
        {
          "internalType": "uint256",
          "name": "minLpAmount",
          "type": "uint256"
        },
        {
          "internalType": "contract IERC20",
          "name": "token",
          "type": "address"
        }
      ],
      "name": "provideLiquidity",
      "outputs": [
        {
          "internalType": "uint256",
          "name": "wadAmount",
          "type": "uint256"
        },
        {
          "internalType": "uint256",
          "name": "baseAmount",
          "type": "uint256"
        }
      ],
      "stateMutability": "nonpayable",
      "type": "function"
    },
    {
      "inputs": [
        {
          "internalType": "uint256",
          "name": "idx",
          "type": "uint256"
        },
        {
          "internalType": "uint256",
          "name": "proposedAmount",
          "type": "uint256"
        },
        {
          "internalType": "uint256",
          "name": "minAmount",
          "type": "uint256"
        }
      ],
      "name": "reducePosition",
      "outputs": [],
      "stateMutability": "nonpayable",
      "type": "function"
    },
    {
      "inputs": [
        {
          "internalType": "uint256",
          "name": "amount",
          "type": "uint256"
        },
        {
          "internalType": "contract IERC20",
          "name": "token",
          "type": "address"
        }
      ],
      "name": "removeInsurance",
      "outputs": [],
      "stateMutability": "nonpayable",
      "type": "function"
    },
    {
      "inputs": [
        {
          "internalType": "uint256",
          "name": "idx",
          "type": "uint256"
        },
        {
          "internalType": "uint256",
          "name": "liquidityAmountToRemove",
          "type": "uint256"
        },
        {
          "internalType": "uint256[2]",
          "name": "minVTokenAmounts",
          "type": "uint256[2]"
        }
      ],
      "name": "removeLiquidity",
      "outputs": [],
      "stateMutability": "nonpayable",
      "type": "function"
    },
    {
      "inputs": [
        {
          "internalType": "uint256",
          "name": "idx",
          "type": "uint256"
        },
        {
          "internalType": "uint256",
          "name": "proposedAmount",
          "type": "uint256"
        },
        {
          "internalType": "uint256",
          "name": "minAmount",
          "type": "uint256"
        },
        {
          "internalType": "contract IERC20",
          "name": "token",
          "type": "address"
        }
      ],
      "name": "sellDust",
      "outputs": [],
      "stateMutability": "nonpayable",
      "type": "function"
    },
    {
      "inputs": [
        {
          "internalType": "uint256",
          "name": "idx",
          "type": "uint256"
        },
        {
          "internalType": "uint256",
          "name": "proposedAmount",
          "type": "uint256"
        },
        {
          "internalType": "uint256",
          "name": "minAmount",
          "type": "uint256"
        },
        {
          "internalType": "contract IERC20",
          "name": "token",
          "type": "address"
        }
      ],
      "name": "settleLiquidityProvider",
      "outputs": [],
      "stateMutability": "nonpayable",
      "type": "function"
    },
    {
      "inputs": [
        {
          "internalType": "address",
          "name": "recipient",
          "type": "address"
        },
        {
          "internalType": "bool",
          "name": "direct",
          "type": "bool"
        }
      ],
      "name": "transferOwner",
      "outputs": [],
      "stateMutability": "nonpayable",
      "type": "function"
    },
    {
      "inputs": [],
      "name": "unpause",
      "outputs": [],
      "stateMutability": "nonpayable",
      "type": "function"
    },
    {
      "inputs": [],
      "name": "vault",
      "outputs": [
        {
          "internalType": "contract IVault",
          "name": "",
          "type": "address"
        }
      ],
      "stateMutability": "view",
      "type": "function"
    },
    {
      "inputs": [
        {
          "internalType": "uint256",
          "name": "idx",
          "type": "uint256"
        },
        {
          "internalType": "uint256",
          "name": "amount",
          "type": "uint256"
        },
        {
          "internalType": "contract IERC20",
          "name": "token",
          "type": "address"
        }
      ],
      "name": "withdraw",
      "outputs": [],
      "stateMutability": "nonpayable",
      "type": "function"
    }
  ],
  "transactionHash": "0x2edcae15b8d0eddacdb4471110af68ff6455a90ae1a8d3cd1b35db9858d14999",
  "args": [
    "0xc44dB9557B120d2527065619EA82eE2C192c93d4"
  ],
  "solcInputHash": "c4314880627295fbb14e2440e0d164b2",
  "bytecode": "0x60806040523480156200001157600080fd5b50604051620035ca380380620035ca833981016040819052620000349162000104565b600080546001600160a01b0319163390811782556040519091907f5bb496b3f951b55d3a1d8e479725a4d25bdc7644fc355f0b71c540354820a1c5908290a36001805460ff60a01b191681556002556001600160a01b038116620000de5760405162461bcd60e51b815260206004820152601960248201527f5661756c7420616464726573732063616e6e6f74206265203000000000000000604482015260640160405180910390fd5b600380546001600160a01b0319166001600160a01b039290921691909117905562000134565b60006020828403121562000116578081fd5b81516001600160a01b03811681146200012d578182fd5b9392505050565b61348680620001446000396000f3fe608060405234801561001057600080fd5b50600436106101da5760003560e01c80636a170acf11610104578063ad0d7594116100a2578063cf81afaa11610071578063cf81afaa146103d9578063e30c3978146103ec578063eee8a168146103ff578063fbfa77cf1461040d57600080fd5b8063ad0d75941461039d578063afc3083c146103ab578063c63ec8ff146103be578063c8401fd3146103d157600080fd5b8063818cdf7a116100de578063818cdf7a1461035c5780638456cb591461036f5780638da5cb5b146103775780638dbdbe6d1461038a57600080fd5b80636a170acf1461032357806379bd1eac14610336578063813b118b1461034957600080fd5b80633bd1adec1161017c5780635912adf91161014b5780635912adf9146102ab57806359a1ecaa146102be57806359f77e2d146102e95780635c975abb1461031157600080fd5b80633bd1adec146102795780633f4ba83a1461028157806345301eda146102895780634d175c9c1461029c57600080fd5b80631d48cd96116101b85780631d48cd96146102285780632046cc2e1461023b578063295c39a51461024e5780633aa75d421461025657600080fd5b80630ad58d2f146101df5780630d48c4cb146101f45780631573b57714610207575b600080fd5b6101f26101ed366004612fc2565b610420565b005b6101f26102023660046130ba565b6105bd565b61021566038d7ea4c6800081565b6040519081526020015b60405180910390f35b6101f2610236366004612e1f565b61086b565b6101f26102493660046130ba565b61091a565b600454610215565b610269610264366004612f2d565b610abc565b604051901515815260200161021f565b6101f2610ad5565b6101f2610b7b565b610215610297366004612f09565b610baf565b61021567016345785d8a000081565b6101f26102b93660046130ba565b610c18565b6102d16102cc366004612ef1565b610ef6565b6040516001600160a01b03909116815260200161021f565b6102fc6102f7366004612ffa565b610f20565b6040805192835260208301919091520161021f565b600154600160a01b900460ff16610269565b6101f261033136600461308f565b610f7a565b6101f2610344366004612f2d565b610fdf565b6102fc610357366004613053565b611422565b6102fc61036a3660046130ba565b611493565b6101f2611733565b6000546102d1906001600160a01b031681565b6101f2610398366004612fc2565b611765565b61021566354a6ba7a1800081565b6101f26103b9366004612f87565b6117c0565b6101f26103cc366004612f09565b61198d565b610215611c6e565b6101f26103e7366004612dcb565b611c89565b6001546102d1906001600160a01b031681565b6102156658d15e1762800081565b6003546102d1906001600160a01b031681565b60028054141561044b5760405162461bcd60e51b815260040161044290613313565b60405180910390fd5b60028055600154600160a01b900460ff16156104795760405162461bcd60e51b815260040161044290613285565b600354604051637a8b6cad60e01b81526000916001600160a01b031690637a8b6cad906104b39087903390889088906001906004016131fb565b602060405180830381600087803b1580156104cd57600080fd5b505af11580156104e1573d6000803e3d6000fd5b505050506040513d601f19601f820116820180604052508101906105059190612e3b565b905061052484336102646658d15e1762800066c3663566a5800061334a565b6105645760405162461bcd60e51b81526020600482015260116024820152702737ba1032b737bab3b41036b0b933b4b760791b6044820152606401610442565b816001600160a01b0316336001600160a01b0316857ffeb2000dca3e617cd6f3a8bbb63014bb54a124aac6ccbf73ee7229b4cd01f120846040516105aa91815260200190565b60405180910390a4505060016002555050565b6000546001600160a01b031633146105e75760405162461bcd60e51b8152600401610442906132f0565b60006004858154811061060a57634e487b7160e01b600052603260045260246000fd5b60009182526020909120015460405163016d183f60e41b81526001600160a01b03909116906316d183f09061064790309088908890600401613195565b606060405180830381600087803b15801561066157600080fd5b505af1158015610675573d6000803e3d6000fd5b505050506040513d601f19601f820116820180604052508101906106999190612e53565b600354604051631b27ecdd60e21b81529194506001600160a01b03169250636c9fb37491506106d3906001903090869083906004016131d5565b600060405180830381600087803b1580156106ed57600080fd5b505af1158015610701573d6000803e3d6000fd5b505060035460405163da77cedb60e01b8152600093506001600160a01b03909116915063da77cedb9061073f9060019030908890839060040161322b565b602060405180830381600087803b15801561075957600080fd5b505af115801561076d573d6000803e3d6000fd5b505050506040513d601f19601f820116820180604052508101906107919190612e3b565b1161079b57600080fd5b6040516370a0823160e01b815230600482015261082a9033906001600160a01b038516906370a08231906024015b60206040518083038186803b1580156107e157600080fd5b505afa1580156107f5573d6000803e3d6000fd5b505050506040513d601f19601f820116820180604052508101906108199190612e3b565b6001600160a01b0385169190611d97565b847f96d0284e042317c02550d6522426b8938bc365bc6c2fd42594b358ff2fbdd5e68260405161085c91815260200190565b60405180910390a25050505050565b6000546001600160a01b031633146108955760405162461bcd60e51b8152600401610442906132f0565b6004805460018101825560008290527f8a35acfbc15ff81a39ae7d344fd709f28e8600b4aa8c65c6b64bfe7fe36bd19b0180546001600160a01b0319166001600160a01b03841690811790915590546040519081527fa64754291535175942be6f35fba8deab36d97ea608b17d06cc5efb985e17215f9060200160405180910390a250565b60028054141561093c5760405162461bcd60e51b815260040161044290613313565b60028055600154600160a01b900460ff161561096a5760405162461bcd60e51b815260040161044290613285565b610975848484611dee565b60006109818533611f77565b805190915015801561099557506020810151155b6109d55760405162461bcd60e51b81526020600482015260116024820152702430b99037b832b7103837b9b4ba34b7b760791b6044820152606401610442565b60035460405163da77cedb60e01b81526000916001600160a01b03169063da77cedb90610a0d9089903390889060019060040161322b565b602060405180830381600087803b158015610a2757600080fd5b505af1158015610a3b573d6000803e3d6000fd5b505050506040513d601f19601f82011682018060405250810190610a5f9190612e3b565b9050826001600160a01b0316336001600160a01b0316877ffeb2000dca3e617cd6f3a8bbb63014bb54a124aac6ccbf73ee7229b4cd01f12084604051610aa791815260200190565b60405180910390a45050600160025550505050565b600081610ac98585610baf565b121590505b9392505050565b6001546001600160a01b03163314610b235760405162461bcd60e51b81526020600482015260116024820152702727aa2fa822a72224a723afa7aba722a960791b6044820152606401610442565b6000805460405133926001600160a01b03909216917f5bb496b3f951b55d3a1d8e479725a4d25bdc7644fc355f0b71c540354820a1c591a3600080546001600160a01b03199081163317909155600180549091169055565b6000546001600160a01b03163314610ba55760405162461bcd60e51b8152600401610442906132f0565b610bad61204a565b565b600080610bbc8484611f77565b51905080610bd557670de0b6b3a7640000915050610c12565b6000610be185856120e7565b90506000610bef868661216d565b90506000610bfd87876121cb565b9050610c0b83828487612229565b9450505050505b92915050565b600280541415610c3a5760405162461bcd60e51b815260040161044290613313565b60028055600154600160a01b900460ff1615610c685760405162461bcd60e51b815260040161044290613285565b60008311610c885760405162461bcd60e51b8152600401610442906132af565b600080600060048781548110610cae57634e487b7160e01b600052603260045260246000fd5b60009182526020909120015460405163c34ec19160e01b81526001600160a01b039091169063c34ec19190610ceb9033908a908a90600401613195565b606060405180830381600087803b158015610d0557600080fd5b505af1158015610d19573d6000803e3d6000fd5b505050506040513d601f19601f82011682018060405250810190610d3d9190612e53565b600354604051631b27ecdd60e21b815293965091945092506001600160a01b031690636c9fb37490610d7a908a90339086906001906004016131d5565b600060405180830381600087803b158015610d9457600080fd5b505af1158015610da8573d6000803e3d6000fd5b505050506000610db8883361225b565b8051909150158015610dcc57506020810151155b8015610dda57506060810151155b15610eaa5760035460405163da77cedb60e01b81526000916001600160a01b03169063da77cedb90610e16908c9033908b90879060040161322b565b602060405180830381600087803b158015610e3057600080fd5b505af1158015610e44573d6000803e3d6000fd5b505050506040513d601f19601f82011682018060405250810190610e689190612e3b565b11610eaa5760405162461bcd60e51b8152602060048201526012602482015271496e73756666696369656e742066756e647360701b6044820152606401610442565b604080518581526020810185905233918a917f28aa9c84e84e65c4385164f79a05eef8f049be39030879697a3e251f74a3d474910160405180910390a350506001600255505050505050565b60048181548110610f0657600080fd5b6000918252602090912001546001600160a01b0316905081565b600080610f3760015460ff600160a01b9091041690565b15610f545760405162461bcd60e51b815260040161044290613285565b610f5f8888886122e2565b610f6b88868686611422565b91509150965096945050505050565b600280541415610f9c5760405162461bcd60e51b815260040161044290613313565b60028055600154600160a01b900460ff1615610fca5760405162461bcd60e51b815260040161044290613285565b610fd5838383611dee565b5050600160025550565b6002805414156110015760405162461bcd60e51b815260040161044290613313565b60028055600154600160a01b900460ff161561102f5760405162461bcd60e51b815260040161044290613285565b60003390506004848154811061105557634e487b7160e01b600052603260045260246000fd5b600091825260208220015460408051632cd8a36160e21b815290516001600160a01b039092169263b3628d849260048084019382900301818387803b15801561109d57600080fd5b505af11580156110b1573d6000803e3d6000fd5b5050505060006110ca6110c48686611f77565b516123cb565b9050806111195760405162461bcd60e51b815260206004820152601c60248201527f4e6f20706f736974696f6e2063757272656e746c79206f70656e6564000000006044820152606401610442565b61112b85856658d15e17628000610abc565b1561116a5760405162461bcd60e51b815260206004820152600f60248201526e13585c99da5b881a5cc81d985b1a59608a1b6044820152606401610442565b60006004868154811061118d57634e487b7160e01b600052603260045260246000fd5b600091825260208220015460405163016d183f60e41b81526001600160a01b03909116916316d183f0916111c8918991899190600401613195565b606060405180830381600087803b1580156111e257600080fd5b505af11580156111f6573d6000803e3d6000fd5b505050506040513d601f19601f8201168201806040525081019061121a9190612e53565b92505050600061122a8787611f77565b805190915015801561123e57506020810151155b6112bf5760405162461bcd60e51b815260206004820152604660248201527f50726f706f73656420616d6f756e7420696e73756666696369656e7420746f2060448201527f6c69717569646174652074686520706f736974696f6e20696e2069747320656e60648201526574697265747960d01b608482015260a401610442565b60006112d28466354a6ba7a180006123d6565b905060006112df826123e2565b6112e9908561338b565b600354604051631b27ecdd60e21b81529192506001600160a01b031690636c9fb37490611321908c908c9086906001906004016131d5565b600060405180830381600087803b15801561133b57600080fd5b505af115801561134f573d6000803e3d6000fd5b50506003546001600160a01b03169150636c9fb37490508a88611371866123e2565b60016040518563ffffffff1660e01b815260040161139294939291906131d5565b600060405180830381600087803b1580156113ac57600080fd5b505af11580156113c0573d6000803e3d6000fd5b50505050856001600160a01b0316886001600160a01b03168a7f19a800bd1189221901c32c4ced18afe41c45969c0b5e97b8ebf4124e169339cc8860405161140a91815260200190565b60405180910390a45050600160025550505050505050565b6000806002805414156114475760405162461bcd60e51b815260040161044290613313565b60028055600154600160a01b900460ff16156114755760405162461bcd60e51b815260040161044290613285565b611481868686866123ed565b60016002559097909650945050505050565b6000806002805414156114b85760405162461bcd60e51b815260040161044290613313565b60028055600154600160a01b900460ff16156114e65760405162461bcd60e51b815260040161044290613285565b846115215760405162461bcd60e51b815260206004820152600b60248201526a16995c9bc8185b5bdd5b9d60aa1b6044820152606401610442565b60035460405163a45052c960e01b81526001600160a01b039091169063a45052c99061155a90899033908a9089906000906004016131fb565b602060405180830381600087803b15801561157457600080fd5b505af1158015611588573d6000803e3d6000fd5b505050506040513d601f19601f820116820180604052508101906115ac9190612e3b565b91506000600487815481106115d157634e487b7160e01b600052603260045260246000fd5b600091825260209091200154604051630577392b60e31b81526001600160a01b0390911690632bb9c9589061160e90339087908a90600401613195565b6040805180830381600087803b15801561162757600080fd5b505af115801561163b573d6000803e3d6000fd5b505050506040513d601f19601f8201168201806040525081019061165f9190612f64565b909250905080156116d457600354604051631b27ecdd60e21b81526001600160a01b0390911690636c9fb374906116a1908a90339086906000906004016131d5565b600060405180830381600087803b1580156116bb57600080fd5b505af11580156116cf573d6000803e3d6000fd5b505050505b836001600160a01b0316336001600160a01b0316887ff2460e83503d3438ae777542c8cce71cd5e03aa2e741d95ebcf23afe0bb1728a8960405161171a91815260200190565b60405180910390a4506001600255909590945092505050565b6000546001600160a01b0316331461175d5760405162461bcd60e51b8152600401610442906132f0565b610bad6126ab565b6002805414156117875760405162461bcd60e51b815260040161044290613313565b60028055600154600160a01b900460ff16156117b55760405162461bcd60e51b815260040161044290613285565b610fd58383836122e2565b6002805414156117e25760405162461bcd60e51b815260040161044290613313565b60028055600154600160a01b900460ff16156118105760405162461bcd60e51b815260040161044290613285565b60008060006004868154811061183657634e487b7160e01b600052603260045260246000fd5b6000918252602090912001546040516305150ecb60e11b81526001600160a01b0390911690630a2a1d969061187390339089908990600401613138565b606060405180830381600087803b15801561188d57600080fd5b505af11580156118a1573d6000803e3d6000fd5b505050506040513d601f19601f820116820180604052508101906118c59190612e53565b600354604051631b27ecdd60e21b815293965091945092506001600160a01b031690636c9fb37490611902908990339086906000906004016131d5565b600060405180830381600087803b15801561191c57600080fd5b505af1158015611930573d6000803e3d6000fd5b50506040805188815260208101879052908101859052606081018490523392508891507fbfbde33446e87f42c62fac46c3afc53a396db358065e60ce2ce9b67e2c0d4e989060800160405180910390a35050600160025550505050565b6000546001600160a01b031633146119b75760405162461bcd60e51b8152600401610442906132f0565b6003546040805163836d5e3760e01b815290516000926001600160a01b03169163836d5e37916004808301926020929190829003018186803b1580156119fc57600080fd5b505afa158015611a10573d6000803e3d6000fd5b505050506040513d601f19601f82011682018060405250810190611a349190612e3b565b600354604051637a8b6cad60e01b81529192506000916001600160a01b0390911690637a8b6cad90611a739084903090899089906001906004016131fb565b602060405180830381600087803b158015611a8d57600080fd5b505af1158015611aa1573d6000803e3d6000fd5b505050506040513d601f19601f82011682018060405250810190611ac59190612e3b565b11611b125760405162461bcd60e51b815260206004820152601760248201527f556e7375636365737366756c207769746864726177616c0000000000000000006044820152606401610442565b6040516370a0823160e01b8152306004820152611b449033906001600160a01b038516906370a08231906024016107c9565b60035460405163a4a3ec5160e01b815260006004820181905230602483015291611bd2916001600160a01b039091169063a4a3ec519060440160206040518083038186803b158015611b9557600080fd5b505afa158015611ba9573d6000803e3d6000fd5b505050506040513d601f19601f82011682018060405250810190611bcd9190612e3b565b612710565b9050611be68267016345785d8a00006123d6565b811015611c355760405162461bcd60e51b815260206004820152601760248201527f496e737572616e6365206973206e6f7420656e6f7567680000000000000000006044820152606401610442565b6040518481527f72bf0414a0ef58085c552e0481124322b66511733d37fa0482fd454ec21873d49060200160405180910390a150505050565b611c866658d15e1762800066c3663566a5800061334a565b81565b6000546001600160a01b03163314611cb35760405162461bcd60e51b8152600401610442906132f0565b6001600160a01b038216611cf85760405162461bcd60e51b815260206004820152600c60248201526b5a45524f5f4144445245535360a01b6044820152606401610442565b8015611d4a57600080546001600160a01b0319166001600160a01b0384169081178255604051909133917f5bb496b3f951b55d3a1d8e479725a4d25bdc7644fc355f0b71c540354820a1c59190a35050565b600180546001600160a01b0319166001600160a01b03841690811790915560405133907f87f5c8846f4c51400fa448cfb84edcec5cc0f333b6d20a5b903e050823dcb66790600090a35050565b604080516001600160a01b038416602482015260448082018490528251808303909101815260649091019091526020810180516001600160e01b031663a9059cbb60e01b179052611de990849061271b565b505050565b60008211611e0e5760405162461bcd60e51b8152600401610442906132af565b600080600060048681548110611e3457634e487b7160e01b600052603260045260246000fd5b60009182526020909120015460405163016d183f60e41b81526001600160a01b03909116906316d183f090611e7190339089908990600401613195565b606060405180830381600087803b158015611e8b57600080fd5b505af1158015611e9f573d6000803e3d6000fd5b505050506040513d601f19601f82011682018060405250810190611ec39190612e53565b600354604051631b27ecdd60e21b815293965091945092506001600160a01b031690636c9fb37490611f00908990339086906001906004016131d5565b600060405180830381600087803b158015611f1a57600080fd5b505af1158015611f2e573d6000803e3d6000fd5b505060408051868152602081018690523393508992507f28aa9c84e84e65c4385164f79a05eef8f049be39030879697a3e251f74a3d474910160405180910390a3505050505050565b611fa26040518060800160405280600081526020016000815260200160008152602001600081525090565b60048381548110611fc357634e487b7160e01b600052603260045260246000fd5b600091825260209091200154604051630f272c5b60e31b81526001600160a01b0384811660048301529091169063793962d8906024015b60806040518083038186803b15801561201257600080fd5b505afa158015612026573d6000803e3d6000fd5b505050506040513d601f19601f82011682018060405250810190610ace9190612e80565b600154600160a01b900460ff1661209a5760405162461bcd60e51b815260206004820152601460248201527314185d5cd8589b194e881b9bdd081c185d5cd95960621b6044820152606401610442565b6001805460ff60a01b191690557f5db9ee0a495bf2e6ff9c91a7834c1ba4fdd244a5e8aa4e537bd38aeae4b073aa335b6040516001600160a01b03909116815260200160405180910390a1565b6003546040516387a9540160e01b8152600481018490526001600160a01b03838116602483015260009216906387a95401906044015b60206040518083038186803b15801561213557600080fd5b505afa158015612149573d6000803e3d6000fd5b505050506040513d601f19601f82011682018060405250810190610ace9190612e3b565b60006004838154811061219057634e487b7160e01b600052603260045260246000fd5b600091825260209091200154604051632847ded360e11b81526001600160a01b0384811660048301529091169063508fbda69060240161211d565b6000600483815481106121ee57634e487b7160e01b600052603260045260246000fd5b60009182526020909120015460405163544305bf60e01b81526001600160a01b0384811660048301529091169063544305bf9060240161211d565b6000612252612237836123cb565b85612242868961334a565b61224c919061334a565b906127ed565b95945050505050565b6122866040518060800160405280600081526020016000815260200160008152602001600081525090565b600483815481106122a757634e487b7160e01b600052603260045260246000fd5b60009182526020909120015460405163cefc499360e01b81526001600160a01b0384811660048301529091169063cefc499390602401611ffa565b60035460405163a45052c960e01b81526000916001600160a01b03169063a45052c99061231c9087903390889088906001906004016131fb565b602060405180830381600087803b15801561233657600080fd5b505af115801561234a573d6000803e3d6000fd5b505050506040513d601f19601f8201168201806040525081019061236e9190612e3b565b1161237857600080fd5b806001600160a01b0316336001600160a01b0316847f2c0f148b435140de488c1b34647f1511c646f7077e87007bacf22ef9977a16d8856040516123be91815260200190565b60405180910390a4505050565b6000610c12826127f9565b6000610ace8383612835565b6000610c1282612841565b600080600085116124405760405162461bcd60e51b815260206004820152601860248201527f54686520616d6f756e742063616e2774206265206e756c6c00000000000000006044820152606401610442565b60006004878154811061246357634e487b7160e01b600052603260045260246000fd5b6000918252602090912001546040516316d5ce6360e21b81526001600160a01b0390911690635b57398c906124a29033908a908a908a90600401613162565b606060405180830381600087803b1580156124bc57600080fd5b505af11580156124d0573d6000803e3d6000fd5b505050506040513d601f19601f820116820180604052508101906124f49190612e53565b91945092509050600061251766038d7ea4c68000612511866123cb565b906128af565b600354604051631b27ecdd60e21b81529192506001600160a01b031690636c9fb3749061255090600090309086906001906004016131d5565b600060405180830381600087803b15801561256a57600080fd5b505af115801561257e573d6000803e3d6000fd5b5050505060008183612590919061338b565b600354604051631b27ecdd60e21b81529192506001600160a01b031690636c9fb374906125c8908c90339086906001906004016131d5565b600060405180830381600087803b1580156125e257600080fd5b505af11580156125f6573d6000803e3d6000fd5b5050505061261989336658d15e1762800066c3663566a58000610264919061334a565b6126595760405162461bcd60e51b81526020600482015260116024820152702737ba1032b737bab3b41036b0b933b4b760791b6044820152606401610442565b336001600160a01b0316897f0ae497e6575eb6790830f766dd54d34d4a0e47af179edbf7d13c2bbe51a6083b898888604051612697939291906131b6565b60405180910390a350505094509492505050565b600154600160a01b900460ff16156126d55760405162461bcd60e51b815260040161044290613285565b6001805460ff60a01b1916600160a01b1790557f62e78cea01bee320cd4e420270b5ea74000d11b0c9f74754ebdbfc544b05a2586120ca3390565b6000610c12826128bb565b6000612770826040518060400160405280602081526020017f5361666545524332303a206c6f772d6c6576656c2063616c6c206661696c6564815250856001600160a01b031661290d9092919063ffffffff16565b805190915015611de9578080602001905181019061278e9190612e03565b611de95760405162461bcd60e51b815260206004820152602a60248201527f5361666545524332303a204552433230206f7065726174696f6e20646964206e6044820152691bdd081cdd58d8d9595960b21b6064820152608401610442565b6000610ace8383612924565b6000600160ff1b82141561282057604051631d0742e360e21b815260040160405180910390fd5b6000821261282e5781610c12565b5060000390565b6000610ace83836129f6565b60006001600160ff1b038211156128ab5760405162461bcd60e51b815260206004820152602860248201527f53616665436173743a2076616c756520646f65736e27742066697420696e2061604482015267371034b73a191a9b60c11b6064820152608401610442565b5090565b6000610ace8383612ab8565b6000808212156128ab5760405162461bcd60e51b815260206004820181905260248201527f53616665436173743a2076616c7565206d75737420626520706f7369746976656044820152606401610442565b606061291c8484600085612b7a565b949350505050565b6000600160ff1b83148061293b5750600160ff1b82145b156129595760405163b3c754a360e01b815260040160405180910390fd5b6000806000851261296a578461296f565b846000035b91506000841261297f5783612984565b836000035b9050600061299b83670de0b6b3a764000084612ca2565b90506001600160ff1b038111156129c857604051637cb4bef560e01b815260048101829052602401610442565b6000198087139086138082186001146129e157826129ea565b6129ea836133fa565b98975050505050505050565b60008080600019848609848602925082811083820303915050670de0b6b3a76400008110612a3a5760405163698d9a0160e11b815260048101829052602401610442565b600080670de0b6b3a76400008688099150506706f05b59d3b1ffff811182612a745780670de0b6b3a7640000850401945050505050610c12565b620400008285030493909111909103600160ee1b02919091177faccb18165bd6fe31ae1cf318dc5b51eee0e1ba569b88cd74c1773b91fac106690201905092915050565b6000600160ff1b831480612acf5750600160ff1b82145b15612aed57604051630d01a11b60e21b815260040160405180910390fd5b60008060008512612afe5784612b03565b846000035b915060008412612b135783612b18565b836000035b90506000612b2683836129f6565b90506001600160ff1b03811115612b535760405163bf79e8d960e01b815260048101829052602401610442565b600019808713908613808218600114612b6c57826129ea565b505060000395945050505050565b606082471015612bdb5760405162461bcd60e51b815260206004820152602660248201527f416464726573733a20696e73756666696369656e742062616c616e636520666f6044820152651c8818d85b1b60d21b6064820152608401610442565b843b612c295760405162461bcd60e51b815260206004820152601d60248201527f416464726573733a2063616c6c20746f206e6f6e2d636f6e74726163740000006044820152606401610442565b600080866001600160a01b03168587604051612c45919061311c565b60006040518083038185875af1925050503d8060008114612c82576040519150601f19603f3d011682016040523d82523d6000602084013e612c87565b606091505b5091509150612c97828286612d7e565b979650505050505050565b600080806000198587098587029250828110838203039150508060001415612ceb57838281612ce157634e487b7160e01b600052601260045260246000fd5b0492505050610ace565b838110612d1557604051631dcf306360e21b81526004810182905260248101859052604401610442565b60008486880960026001871981018816978890046003810283188082028403028082028403028082028403028082028403028082028403029081029092039091026000889003889004909101858311909403939093029303949094049190911702949350505050565b60608315612d8d575081610ace565b825115612d9d5782518084602001fd5b8160405162461bcd60e51b81526004016104429190613252565b803560028110612dc657600080fd5b919050565b60008060408385031215612ddd578182fd5b8235612de88161342a565b91506020830135612df881613442565b809150509250929050565b600060208284031215612e14578081fd5b8151610ace81613442565b600060208284031215612e30578081fd5b8135610ace8161342a565b600060208284031215612e4c578081fd5b5051919050565b600080600060608486031215612e67578081fd5b8351925060208401519150604084015190509250925092565b600060808284031215612e91578081fd5b6040516080810181811067ffffffffffffffff82111715612ec057634e487b7160e01b83526041600452602483fd5b8060405250825181526020830151602082015260408301516040820152606083015160608201528091505092915050565b600060208284031215612f02578081fd5b5035919050565b60008060408385031215612f1b578182fd5b823591506020830135612df88161342a565b600080600060608486031215612f41578283fd5b833592506020840135612f538161342a565b929592945050506040919091013590565b60008060408385031215612f76578182fd5b505080516020909101519092909150565b600080600060808486031215612f9b578081fd5b833592506020840135915084608085011115612fb5578081fd5b6040840190509250925092565b600080600060608486031215612fd6578081fd5b83359250602084013591506040840135612fef8161342a565b809150509250925092565b60008060008060008060c08789031215613012578384fd5b8635955060208701359450604087013561302b8161342a565b93506060870135925061304060808801612db7565b915060a087013590509295509295509295565b60008060008060808587031215613068578182fd5b843593506020850135925061307f60408601612db7565b9396929550929360600135925050565b6000806000606084860312156130a3578081fd5b505081359360208301359350604090920135919050565b600080600080608085870312156130cf578182fd5b84359350602085013592506040850135915060608501356130ef8161342a565b939692955090935050565b6002811061311857634e487b7160e01b600052602160045260246000fd5b9052565b6000825161312e8184602087016133ca565b9190910192915050565b6001600160a01b038416815260208101839052608081016040838184013760008152949350505050565b6001600160a01b0385168152602081018490526080810161318660408301856130fa565b82606083015295945050505050565b6001600160a01b039390931683526020830191909152604082015260600190565b606081016131c482866130fa565b602082019390935260400152919050565b9384526001600160a01b0392909216602084015260408301521515606082015260800190565b9485526001600160a01b039384166020860152604085019290925290911660608301521515608082015260a00190565b9384526001600160a01b039283166020850152911660408301521515606082015260800190565b60208152600082518060208401526132718160408501602087016133ca565b601f01601f19169190910160400192915050565b60208082526010908201526f14185d5cd8589b194e881c185d5cd95960821b604082015260600190565b60208082526021908201527f5468652070726f706f73656420616d6f756e742063616e2774206265206e756c6040820152601b60fa1b606082015260800190565b6020808252600990820152682727aa2fa7aba722a960b91b604082015260600190565b6020808252601f908201527f5265656e7472616e637947756172643a207265656e7472616e742063616c6c00604082015260600190565b600080821280156001600160ff1b038490038513161561336c5761336c613414565b600160ff1b839003841281161561338557613385613414565b50500190565b60008083128015600160ff1b8501841216156133a9576133a9613414565b6001600160ff1b03840183138116156133c4576133c4613414565b50500390565b60005b838110156133e55781810151838201526020016133cd565b838111156133f4576000848401525b50505050565b6000600160ff1b82141561341057613410613414565b0390565b634e487b7160e01b600052601160045260246000fd5b6001600160a01b038116811461343f57600080fd5b50565b801515811461343f57600080fdfea2646970667358221220584780cae910ac179218eed37aadf06d1c4dbd5a99c2c3ad7fac9852a727371f64736f6c63430008040033",
  "devdoc": {
    "events": {
      "Deposit(uint256,address,address,uint256)": {
        "params": {
          "amount": "Amount to be used as collateral. Might not be 18 decimals",
          "asset": "Token to be used for the collateral",
          "idx": "Index of the perpetual market",
          "user": "User who deposited collateral"
        }
      },
      "DustSold(uint256,int256)": {
        "params": {
          "idx": "Index of the perpetual market",
          "profit": "Amount of profit generated by the dust sale. 18 decimals"
        }
      },
      "ExtendPosition(uint256,address,uint8,int256,int256)": {
        "params": {
          "addedOpenNotional": "Notional (USD assets/debt) added to the position",
          "addedPositionSize": "positionSize (Base assets/debt) added to the position",
          "direction": "Whether the position is LONG or SHORT",
          "idx": "Index of the perpetual market",
          "user": "User who deposited collateral"
        }
      },
      "InsuranceRemoved(uint256)": {
        "params": {
          "amount": "Amount of insurance reserves withdrawn. 18 decimals"
        }
      },
      "LiquidationCall(uint256,address,address,uint256)": {
        "params": {
          "idx": "Index of the perpetual market",
          "liquidatee": "User who gets liquidated",
          "liquidator": "User who is liquidating",
          "notional": "Notional amount of the liquidatee"
        }
      },
      "LiquidityProvided(uint256,address,address,uint256)": {
        "params": {
          "amount": "Amount of token to be added to the pool. Might not have 18 decimals",
          "asset": "Token to be added to the pool",
          "idx": "Index of the perpetual market",
          "liquidityProvider": "User who provides liquidity"
        }
      },
      "LiquidityRemoved(uint256,address,uint256,uint256,uint256,int256)": {
        "params": {
          "baseTokens": "Amount of vBase proceeds to be removed from the pool. 18 decimals",
          "idx": "Index of the perpetual market",
          "liquidityProvider": "User who provides liquidity",
          "profit": "Profit generated by the liquidity provider. 18 decimals",
          "quoteTokens": "Amount of vQuote proceeds to be removed from the pool. 18 decimals",
          "removedLiquidity": "Amount of liquidity (in LP tokens) to be removed from the pool. 18 decimals"
        }
      },
      "MarketAdded(address,uint256)": {
        "params": {
          "numPerpetuals": "The number of perpetual markets",
          "perpetual": "The new perpetual market"
        }
      },
      "ReducePosition(uint256,address,int256,int256)": {
        "params": {
          "idx": "Index of the perpetual market",
          "reducedOpenNotional": "notional (USD assets/debt) removed from the position",
          "reducedPositionSize": "positionSize (Base assets/debt) removed from the position",
          "user": "User who deposited collateral"
        }
      },
      "Withdraw(uint256,address,address,uint256)": {
        "params": {
          "amount": "Token to be used for the collateral",
          "asset": "Amount to be used as collateral. Might not be 18 decimals",
          "idx": "Index of the perpetual market",
          "user": "User who deposited collateral"
        }
      }
    },
    "kind": "dev",
    "methods": {
      "allowListPerpetual(address)": {
        "params": {
          "perp": "Market to add to the list of supported market"
        }
      },
      "closePositionWithdrawCollateral(uint256,uint256,uint256,address)": {
        "params": {
          "idx": "Index of the perpetual market",
          "minAmount": "Minimum amount that the user is willing to accept, in vQuote if LONG, in vBase if SHORT. 18 decimals",
          "proposedAmount": "Amount of tokens to be sold, in vBase if LONG, in vQuote if SHORT. 18 decimals",
          "token": "Token used for the collateral"
        }
      },
      "deposit(uint256,uint256,address)": {
        "details": "Should only be called by the trader",
        "params": {
          "amount": "Amount to be used as collateral. Might not be 18 decimals",
          "idx": "Index of the perpetual market",
          "token": "Token to be used for the collateral"
        }
      },
      "extendPosition(uint256,uint256,uint8,uint256)": {
        "details": "No number for the leverage is given but the amount in the vault must be bigger than MIN_MARGIN_AT_CREATIONNo checks are done if bought amount exceeds allowance",
        "params": {
          "amount": "Represent amount in vQuote (if long) or vBase (if short) to sell. 18 decimals",
          "direction": "Whether the position is LONG or SHORT",
          "idx": "Index of the perpetual market",
          "minAmount": "Minimum amount that the user is willing to accept. 18 decimals"
        },
        "returns": {
          "addedOpenNotional": "Additional quote asset / liabilities accrued",
          "addedPositionSize": "Additional base asset / liabilities accrued"
        }
      },
      "extendPositionWithCollateral(uint256,uint256,address,uint256,uint8,uint256)": {
        "params": {
          "collateralAmount": "Amount to be used as the collateral of the position. Might not be 18 decimals",
          "direction": "Whether the position is LONG or SHORT",
          "idx": "Index of the perpetual market",
          "minAmount": "Minimum amount that the user is willing to accept. 18 decimals",
          "positionAmount": "Amount to be sold, in vQuote (if long) or vBase (if short). Must be 18 decimals",
          "token": "Token to be used for the collateral of the position"
        }
      },
      "getNumMarkets()": {
        "returns": {
          "_0": "Number of active markets"
        }
      },
      "liquidate(uint256,address,uint256)": {
        "params": {
          "idx": "Index of the perpetual market",
          "liquidatee": "Address of the trader to liquidate",
          "proposedAmount": "Amount of tokens to be sold, in vBase if LONG, in vQuote if SHORT. 18 decimals"
        }
      },
      "marginIsValid(uint256,address,int256)": {
        "params": {
          "account": "Account of the position to get the margin ratio from",
          "idx": "Index of the perpetual market",
          "ratio": "Proposed ratio to compare the position against"
        },
        "returns": {
          "_0": "True if the position exceeds margin ratio, false otherwise"
        }
      },
      "marginRatio(uint256,address)": {
        "params": {
          "account": "Account of the position to get the margin ratio from",
          "idx": "Index of the perpetual market"
        },
        "returns": {
          "_0": "Margin ratio of the position (in 1e18)"
        }
      },
      "paused()": {
        "details": "Returns true if the contract is paused, and false otherwise."
      },
      "provideLiquidity(uint256,uint256,uint256,address)": {
        "params": {
          "amount": "Amount of token to be added to the pool. Might not have 18 decimals",
          "idx": "Index of the perpetual market",
          "minLpAmount": "Minimum amount of Lp tokens minted. 18 decimals",
          "token": "Token to be added to the pool"
        },
        "returns": {
          "baseAmount": "Amount of baseTokens added to the pool. 18 decimals",
          "wadAmount": "Amount of quoteTokens added to the pool. 18 decimals"
        }
      },
      "reducePosition(uint256,uint256,uint256)": {
        "params": {
          "idx": "Index of the perpetual market",
          "minAmount": "Minimum amount that the user is willing to accept, in vQuote if LONG, in vBase if SHORT. 18 decimals",
          "proposedAmount": "Amount of tokens to be sold, in vBase if LONG, in vQuote if SHORT. 18 decimals"
        }
      },
      "removeInsurance(uint256,address)": {
        "params": {
          "amount": "Token withdrawn. 18 decimals",
          "token": "Token to be withdrawn from the vault"
        }
      },
      "removeLiquidity(uint256,uint256,uint256[2])": {
        "params": {
          "idx": "Index of the perpetual market",
          "liquidityAmountToRemove": "Amount of liquidity (in LP tokens) to be removed from the pool. 18 decimals",
          "minVTokenAmounts": "Minimum amount of virtual tokens [vQuote, vBase] withdrawn from the curve pool. 18 decimals"
        }
      },
      "sellDust(uint256,uint256,uint256,address)": {
        "params": {
          "idx": "Index of the perpetual market",
          "minAmount": "Minimum amount that the user is willing to accept, in vQuote if LONG, in vBase if SHORT. 18 decimals",
          "proposedAmount": "Amount of tokens to be sold, in vBase if LONG, in vQuote if SHORT. 18 decimals",
          "token": "Token of the collateral"
        }
      },
      "settleLiquidityProvider(uint256,uint256,uint256,address)": {
        "params": {
          "idx": "Index of the perpetual market",
          "minAmount": "Minimum amount that the user is willing to accept, in vQuote if LONG, in vBase if SHORT. 18 decimals",
          "proposedAmount": "Amount at which to get the LP position (in vBase if LONG, in vQuote if SHORT). 18 decimals"
        }
      },
      "transferOwner(address,bool)": {
        "params": {
          "direct": "If 'true', ownership is directly transferred.",
          "recipient": "Account granted `owner` access control."
        }
      },
      "withdraw(uint256,uint256,address)": {
        "details": "Should only be called by the trader",
        "params": {
          "amount": "Amount of collateral to withdraw. Must be 18 decimals",
          "idx": "Index of the perpetual market",
          "token": "Token of the collateral"
        }
      }
    },
    "stateVariables": {
      "INSURANCE_FEE": {
        "details": "Paid on dollar value of an opened position(0.1%)"
      },
      "INSURANCE_RATIO": {
        "details": "Once the insurance reserve exceed 10% of the tvl, governance can withdraw the insurance fee(10%)"
      },
      "LIQUIDATION_REWARD": {
        "details": "Paid on dollar value of an trader position. important: LIQUIDATION_REWARD >> MIN_MARGIN or liquidations will result in protocol losses(1.5%)"
      },
      "MIN_MARGIN": {
        "details": "2.5%"
      },
      "MIN_MARGIN_AT_CREATION": {
        "details": "2.5% (maintenance margin) + 5.5% = 8%"
      }
    },
    "version": 1
  },
  "userdoc": {
    "errors": {
      "PRBMathSD59x18__AbsInputTooSmall()": [
        {
          "notice": "Emitted when the input is MIN_SD59x18."
        }
      ],
      "PRBMathSD59x18__DivInputTooSmall()": [
        {
          "notice": "Emitted when one of the inputs is MIN_SD59x18."
        }
      ],
      "PRBMathSD59x18__DivOverflow(uint256)": [
        {
          "notice": "Emitted when one of the intermediary unsigned results overflows SD59x18."
        }
      ],
      "PRBMathSD59x18__MulInputTooSmall()": [
        {
          "notice": "Emitted when one of the inputs is MIN_SD59x18."
        }
      ],
      "PRBMathSD59x18__MulOverflow(uint256)": [
        {
          "notice": "Emitted when the intermediary absolute result overflows SD59x18."
        }
      ],
      "PRBMath__MulDivFixedPointOverflow(uint256)": [
        {
          "notice": "Emitted when the result overflows uint256."
        }
      ],
      "PRBMath__MulDivOverflow(uint256,uint256)": [
        {
          "notice": "Emitted when the result overflows uint256."
        }
      ]
    },
    "events": {
      "Deposit(uint256,address,address,uint256)": {
        "notice": "Emitted when collateral is deposited into the vault"
      },
      "DustSold(uint256,int256)": {
        "notice": "Emitted when dust is sold by governance"
      },
      "ExtendPosition(uint256,address,uint8,int256,int256)": {
        "notice": "Emitted when a position is extended/opened"
      },
      "InsuranceRemoved(uint256)": {
        "notice": "Emitted when (exceeding) insurance reserves are withdrawn by governance"
      },
      "LiquidationCall(uint256,address,address,uint256)": {
        "notice": "Emitted when a trader position is liquidated"
      },
      "LiquidityProvided(uint256,address,address,uint256)": {
        "notice": "Emitted when a (additional) liquidity is provided"
      },
      "LiquidityRemoved(uint256,address,uint256,uint256,uint256,int256)": {
        "notice": "Emitted when a (additional) liquidity is removed"
      },
      "MarketAdded(address,uint256)": {
        "notice": "Emitted when new perpetual market is added"
      },
      "ReducePosition(uint256,address,int256,int256)": {
        "notice": "Emitted when a position is reduced/closed"
      },
      "Withdraw(uint256,address,address,uint256)": {
        "notice": "Emitted when collateral is withdrawn from the vault"
      }
    },
    "kind": "user",
    "methods": {
      "INSURANCE_FEE()": {
        "notice": "Insurance fee"
      },
      "INSURANCE_RATIO()": {
        "notice": "Insurance ratio"
      },
      "LIQUIDATION_REWARD()": {
        "notice": "minimum maintenance margin"
      },
      "MIN_MARGIN()": {
        "notice": "minimum maintenance margin"
      },
      "MIN_MARGIN_AT_CREATION()": {
        "notice": "minimum margin when opening a position"
      },
      "allowListPerpetual(address)": {
        "notice": "Add one perpetual market to the list of markets"
      },
      "claimOwner()": {
        "notice": "`pendingOwner` can claim `owner` account."
      },
      "closePositionWithdrawCollateral(uint256,uint256,uint256,address)": {
        "notice": "Single close position function, groups close position and withdraw collateralImportant: `proposedAmount` must be large enough to close the entire position else the function call will fail"
      },
      "deposit(uint256,uint256,address)": {
        "notice": "Deposit tokens into the vault"
      },
      "extendPosition(uint256,uint256,uint8,uint256)": {
        "notice": "Open or increase a position, either long or short"
      },
      "extendPositionWithCollateral(uint256,uint256,address,uint256,uint8,uint256)": {
        "notice": "Single open position function, group collateral deposit and extend position"
      },
      "getNumMarkets()": {
        "notice": "Return the number of active markets"
      },
      "liquidate(uint256,address,uint256)": {
        "notice": "Submit the address of a trader whose position is worth liquidating for a reward"
      },
      "marginIsValid(uint256,address,int256)": {
        "notice": "Determines whether or not a position is valid for a given margin ratio"
      },
      "marginRatio(uint256,address)": {
        "notice": "Get the margin ratio of a trading position (given that, for now, 1 trading position = 1 address)"
      },
      "pause()": {
        "notice": "Pause the contract"
      },
      "perpetuals(uint256)": {
        "notice": "Allowlisted Perpetual contracts"
      },
      "provideLiquidity(uint256,uint256,uint256,address)": {
        "notice": "Provide liquidity to the pool"
      },
      "reducePosition(uint256,uint256,uint256)": {
        "notice": "Reduces, or closes in full, a position from an account holder"
      },
      "removeInsurance(uint256,address)": {
        "notice": "Remove insurance fees exceeding 10% of the TVL from the vault"
      },
      "removeLiquidity(uint256,uint256,uint256[2])": {
        "notice": "Remove liquidity from the pool"
      },
      "sellDust(uint256,uint256,uint256,address)": {
        "notice": "Sell dust in market idx"
      },
      "settleLiquidityProvider(uint256,uint256,uint256,address)": {
        "notice": "Settle liquidity of a liquidity provider"
      },
      "transferOwner(address,bool)": {
        "notice": "Transfer `owner` account."
      },
      "unpause()": {
        "notice": "Unpause the contract"
      },
      "vault()": {
        "notice": "Vault contract"
      },
      "withdraw(uint256,uint256,address)": {
        "notice": "Withdraw tokens from the vault"
      }
    },
    "notice": "Entry point for users to vault and perpetual markets",
    "version": 1
  },
  "storageLayout": {
    "storage": [
      {
        "astId": 9173,
        "contract": "contracts/ClearingHouse.sol:ClearingHouse",
        "label": "owner",
        "offset": 0,
        "slot": "0",
        "type": "t_address"
      },
      {
        "astId": 9175,
        "contract": "contracts/ClearingHouse.sol:ClearingHouse",
        "label": "pendingOwner",
        "offset": 0,
        "slot": "1",
        "type": "t_address"
      },
      {
        "astId": 168,
        "contract": "contracts/ClearingHouse.sol:ClearingHouse",
        "label": "_paused",
        "offset": 20,
        "slot": "1",
        "type": "t_bool"
      },
      {
        "astId": 253,
        "contract": "contracts/ClearingHouse.sol:ClearingHouse",
        "label": "_status",
        "offset": 0,
        "slot": "2",
        "type": "t_uint256"
      },
      {
        "astId": 2254,
        "contract": "contracts/ClearingHouse.sol:ClearingHouse",
        "label": "vault",
        "offset": 0,
        "slot": "3",
        "type": "t_contract(IVault)7840"
      },
      {
        "astId": 2260,
        "contract": "contracts/ClearingHouse.sol:ClearingHouse",
        "label": "perpetuals",
        "offset": 0,
        "slot": "4",
        "type": "t_array(t_contract(IPerpetual)7634)dyn_storage"
      }
    ],
    "types": {
      "t_address": {
        "encoding": "inplace",
        "label": "address",
        "numberOfBytes": "20"
      },
      "t_array(t_contract(IPerpetual)7634)dyn_storage": {
        "base": "t_contract(IPerpetual)7634",
        "encoding": "dynamic_array",
        "label": "contract IPerpetual[]",
        "numberOfBytes": "32"
      },
      "t_bool": {
        "encoding": "inplace",
        "label": "bool",
        "numberOfBytes": "1"
      },
      "t_contract(IPerpetual)7634": {
        "encoding": "inplace",
        "label": "contract IPerpetual",
        "numberOfBytes": "20"
      },
      "t_contract(IVault)7840": {
        "encoding": "inplace",
        "label": "contract IVault",
        "numberOfBytes": "20"
      },
      "t_uint256": {
        "encoding": "inplace",
        "label": "uint256",
        "numberOfBytes": "32"
      }
    }
  }
}