{
  "address": "0xbe3987495D2A52ccbeFc8C0E0275Edd11ADD8850",
  "abi": [
    {
      "name": "TokenExchange",
      "inputs": [
        {
          "name": "buyer",
          "type": "address",
          "indexed": true
        },
        {
          "name": "sold_id",
          "type": "uint256",
          "indexed": false
        },
        {
          "name": "tokens_sold",
          "type": "uint256",
          "indexed": false
        },
        {
          "name": "bought_id",
          "type": "uint256",
          "indexed": false
        },
        {
          "name": "tokens_bought",
          "type": "uint256",
          "indexed": false
        }
      ],
      "anonymous": false,
      "type": "event"
    },
    {
      "name": "AddLiquidity",
      "inputs": [
        {
          "name": "provider",
          "type": "address",
          "indexed": true
        },
        {
          "name": "token_amounts",
          "type": "uint256[2]",
          "indexed": false
        },
        {
          "name": "fee",
          "type": "uint256",
          "indexed": false
        },
        {
          "name": "token_supply",
          "type": "uint256",
          "indexed": false
        }
      ],
      "anonymous": false,
      "type": "event"
    },
    {
      "name": "RemoveLiquidity",
      "inputs": [
        {
          "name": "provider",
          "type": "address",
          "indexed": true
        },
        {
          "name": "token_amounts",
          "type": "uint256[2]",
          "indexed": false
        },
        {
          "name": "token_supply",
          "type": "uint256",
          "indexed": false
        }
      ],
      "anonymous": false,
      "type": "event"
    },
    {
      "name": "RemoveLiquidityOne",
      "inputs": [
        {
          "name": "provider",
          "type": "address",
          "indexed": true
        },
        {
          "name": "token_amount",
          "type": "uint256",
          "indexed": false
        },
        {
          "name": "coin_index",
          "type": "uint256",
          "indexed": false
        },
        {
          "name": "coin_amount",
          "type": "uint256",
          "indexed": false
        }
      ],
      "anonymous": false,
      "type": "event"
    },
    {
      "name": "CommitNewAdmin",
      "inputs": [
        {
          "name": "deadline",
          "type": "uint256",
          "indexed": true
        },
        {
          "name": "admin",
          "type": "address",
          "indexed": true
        }
      ],
      "anonymous": false,
      "type": "event"
    },
    {
      "name": "NewAdmin",
      "inputs": [
        {
          "name": "admin",
          "type": "address",
          "indexed": true
        }
      ],
      "anonymous": false,
      "type": "event"
    },
    {
      "name": "CommitNewParameters",
      "inputs": [
        {
          "name": "deadline",
          "type": "uint256",
          "indexed": true
        },
        {
          "name": "admin_fee",
          "type": "uint256",
          "indexed": false
        },
        {
          "name": "mid_fee",
          "type": "uint256",
          "indexed": false
        },
        {
          "name": "out_fee",
          "type": "uint256",
          "indexed": false
        },
        {
          "name": "fee_gamma",
          "type": "uint256",
          "indexed": false
        },
        {
          "name": "allowed_extra_profit",
          "type": "uint256",
          "indexed": false
        },
        {
          "name": "adjustment_step",
          "type": "uint256",
          "indexed": false
        },
        {
          "name": "ma_half_time",
          "type": "uint256",
          "indexed": false
        }
      ],
      "anonymous": false,
      "type": "event"
    },
    {
      "name": "NewParameters",
      "inputs": [
        {
          "name": "admin_fee",
          "type": "uint256",
          "indexed": false
        },
        {
          "name": "mid_fee",
          "type": "uint256",
          "indexed": false
        },
        {
          "name": "out_fee",
          "type": "uint256",
          "indexed": false
        },
        {
          "name": "fee_gamma",
          "type": "uint256",
          "indexed": false
        },
        {
          "name": "allowed_extra_profit",
          "type": "uint256",
          "indexed": false
        },
        {
          "name": "adjustment_step",
          "type": "uint256",
          "indexed": false
        },
        {
          "name": "ma_half_time",
          "type": "uint256",
          "indexed": false
        }
      ],
      "anonymous": false,
      "type": "event"
    },
    {
      "name": "RampAgamma",
      "inputs": [
        {
          "name": "initial_A",
          "type": "uint256",
          "indexed": false
        },
        {
          "name": "future_A",
          "type": "uint256",
          "indexed": false
        },
        {
          "name": "initial_gamma",
          "type": "uint256",
          "indexed": false
        },
        {
          "name": "future_gamma",
          "type": "uint256",
          "indexed": false
        },
        {
          "name": "initial_time",
          "type": "uint256",
          "indexed": false
        },
        {
          "name": "future_time",
          "type": "uint256",
          "indexed": false
        }
      ],
      "anonymous": false,
      "type": "event"
    },
    {
      "name": "StopRampA",
      "inputs": [
        {
          "name": "current_A",
          "type": "uint256",
          "indexed": false
        },
        {
          "name": "current_gamma",
          "type": "uint256",
          "indexed": false
        },
        {
          "name": "time",
          "type": "uint256",
          "indexed": false
        }
      ],
      "anonymous": false,
      "type": "event"
    },
    {
      "name": "ClaimAdminFee",
      "inputs": [
        {
          "name": "admin",
          "type": "address",
          "indexed": true
        },
        {
          "name": "tokens",
          "type": "uint256",
          "indexed": false
        }
      ],
      "anonymous": false,
      "type": "event"
    },
    {
      "stateMutability": "nonpayable",
      "type": "constructor",
      "inputs": [
        {
          "name": "owner",
          "type": "address"
        },
        {
          "name": "admin_fee_receiver",
          "type": "address"
        },
        {
          "name": "A",
          "type": "uint256"
        },
        {
          "name": "gamma",
          "type": "uint256"
        },
        {
          "name": "mid_fee",
          "type": "uint256"
        },
        {
          "name": "out_fee",
          "type": "uint256"
        },
        {
          "name": "allowed_extra_profit",
          "type": "uint256"
        },
        {
          "name": "fee_gamma",
          "type": "uint256"
        },
        {
          "name": "adjustment_step",
          "type": "uint256"
        },
        {
          "name": "admin_fee",
          "type": "uint256"
        },
        {
          "name": "ma_half_time",
          "type": "uint256"
        },
        {
          "name": "initial_price",
          "type": "uint256"
        },
        {
          "name": "_token",
          "type": "address"
        },
        {
          "name": "_coins",
          "type": "address[2]"
        }
      ],
      "outputs": []
    },
    {
      "stateMutability": "view",
      "type": "function",
      "name": "token",
      "inputs": [],
      "outputs": [
        {
          "name": "",
          "type": "address"
        }
      ]
    },
    {
      "stateMutability": "view",
      "type": "function",
      "name": "coins",
      "inputs": [
        {
          "name": "i",
          "type": "uint256"
        }
      ],
      "outputs": [
        {
          "name": "",
          "type": "address"
        }
      ]
    },
    {
      "stateMutability": "view",
      "type": "function",
      "name": "A",
      "inputs": [],
      "outputs": [
        {
          "name": "",
          "type": "uint256"
        }
      ]
    },
    {
      "stateMutability": "view",
      "type": "function",
      "name": "gamma",
      "inputs": [],
      "outputs": [
        {
          "name": "",
          "type": "uint256"
        }
      ]
    },
    {
      "stateMutability": "view",
      "type": "function",
      "name": "fee",
      "inputs": [],
      "outputs": [
        {
          "name": "",
          "type": "uint256"
        }
      ]
    },
    {
      "stateMutability": "view",
      "type": "function",
      "name": "get_virtual_price",
      "inputs": [],
      "outputs": [
        {
          "name": "",
          "type": "uint256"
        }
      ]
    },
    {
      "stateMutability": "view",
      "type": "function",
      "name": "price_oracle",
      "inputs": [],
      "outputs": [
        {
          "name": "",
          "type": "uint256"
        }
      ]
    },
    {
      "stateMutability": "nonpayable",
      "type": "function",
      "name": "exchange",
      "inputs": [
        {
          "name": "i",
          "type": "uint256"
        },
        {
          "name": "j",
          "type": "uint256"
        },
        {
          "name": "dx",
          "type": "uint256"
        },
        {
          "name": "min_dy",
          "type": "uint256"
        }
      ],
      "outputs": [
        {
          "name": "",
          "type": "uint256"
        }
      ]
    },
    {
      "stateMutability": "nonpayable",
      "type": "function",
      "name": "exchange",
      "inputs": [
        {
          "name": "i",
          "type": "uint256"
        },
        {
          "name": "j",
          "type": "uint256"
        },
        {
          "name": "dx",
          "type": "uint256"
        },
        {
          "name": "min_dy",
          "type": "uint256"
        },
        {
          "name": "receiver",
          "type": "address"
        }
      ],
      "outputs": [
        {
          "name": "",
          "type": "uint256"
        }
      ]
    },
    {
      "stateMutability": "nonpayable",
      "type": "function",
      "name": "exchange_extended",
      "inputs": [
        {
          "name": "i",
          "type": "uint256"
        },
        {
          "name": "j",
          "type": "uint256"
        },
        {
          "name": "dx",
          "type": "uint256"
        },
        {
          "name": "min_dy",
          "type": "uint256"
        },
        {
          "name": "sender",
          "type": "address"
        },
        {
          "name": "receiver",
          "type": "address"
        },
        {
          "name": "cb",
          "type": "bytes"
        }
      ],
      "outputs": [
        {
          "name": "",
          "type": "uint256"
        }
      ]
    },
    {
      "stateMutability": "view",
      "type": "function",
      "name": "get_dy",
      "inputs": [
        {
          "name": "i",
          "type": "uint256"
        },
        {
          "name": "j",
          "type": "uint256"
        },
        {
          "name": "dx",
          "type": "uint256"
        }
      ],
      "outputs": [
        {
          "name": "",
          "type": "uint256"
        }
      ]
    },
    {
      "stateMutability": "nonpayable",
      "type": "function",
      "name": "add_liquidity",
      "inputs": [
        {
          "name": "amounts",
          "type": "uint256[2]"
        },
        {
          "name": "min_mint_amount",
          "type": "uint256"
        }
      ],
      "outputs": [
        {
          "name": "",
          "type": "uint256"
        }
      ]
    },
    {
      "stateMutability": "nonpayable",
      "type": "function",
      "name": "add_liquidity",
      "inputs": [
        {
          "name": "amounts",
          "type": "uint256[2]"
        },
        {
          "name": "min_mint_amount",
          "type": "uint256"
        },
        {
          "name": "receiver",
          "type": "address"
        }
      ],
      "outputs": [
        {
          "name": "",
          "type": "uint256"
        }
      ]
    },
    {
      "stateMutability": "nonpayable",
      "type": "function",
      "name": "remove_liquidity",
      "inputs": [
        {
          "name": "_amount",
          "type": "uint256"
        },
        {
          "name": "min_amounts",
          "type": "uint256[2]"
        }
      ],
      "outputs": []
    },
    {
      "stateMutability": "nonpayable",
      "type": "function",
      "name": "remove_liquidity",
      "inputs": [
        {
          "name": "_amount",
          "type": "uint256"
        },
        {
          "name": "min_amounts",
          "type": "uint256[2]"
        },
        {
          "name": "receiver",
          "type": "address"
        }
      ],
      "outputs": []
    },
    {
      "stateMutability": "view",
      "type": "function",
      "name": "calc_token_amount",
      "inputs": [
        {
          "name": "amounts",
          "type": "uint256[2]"
        }
      ],
      "outputs": [
        {
          "name": "",
          "type": "uint256"
        }
      ]
    },
    {
      "stateMutability": "view",
      "type": "function",
      "name": "calc_withdraw_one_coin",
      "inputs": [
        {
          "name": "token_amount",
          "type": "uint256"
        },
        {
          "name": "i",
          "type": "uint256"
        }
      ],
      "outputs": [
        {
          "name": "",
          "type": "uint256"
        }
      ]
    },
    {
      "stateMutability": "nonpayable",
      "type": "function",
      "name": "remove_liquidity_one_coin",
      "inputs": [
        {
          "name": "token_amount",
          "type": "uint256"
        },
        {
          "name": "i",
          "type": "uint256"
        },
        {
          "name": "min_amount",
          "type": "uint256"
        }
      ],
      "outputs": [
        {
          "name": "",
          "type": "uint256"
        }
      ]
    },
    {
      "stateMutability": "nonpayable",
      "type": "function",
      "name": "remove_liquidity_one_coin",
      "inputs": [
        {
          "name": "token_amount",
          "type": "uint256"
        },
        {
          "name": "i",
          "type": "uint256"
        },
        {
          "name": "min_amount",
          "type": "uint256"
        },
        {
          "name": "receiver",
          "type": "address"
        }
      ],
      "outputs": [
        {
          "name": "",
          "type": "uint256"
        }
      ]
    },
    {
      "stateMutability": "nonpayable",
      "type": "function",
      "name": "claim_admin_fees",
      "inputs": [],
      "outputs": []
    },
    {
      "stateMutability": "nonpayable",
      "type": "function",
      "name": "ramp_A_gamma",
      "inputs": [
        {
          "name": "future_A",
          "type": "uint256"
        },
        {
          "name": "future_gamma",
          "type": "uint256"
        },
        {
          "name": "future_time",
          "type": "uint256"
        }
      ],
      "outputs": []
    },
    {
      "stateMutability": "nonpayable",
      "type": "function",
      "name": "stop_ramp_A_gamma",
      "inputs": [],
      "outputs": []
    },
    {
      "stateMutability": "nonpayable",
      "type": "function",
      "name": "commit_new_parameters",
      "inputs": [
        {
          "name": "_new_mid_fee",
          "type": "uint256"
        },
        {
          "name": "_new_out_fee",
          "type": "uint256"
        },
        {
          "name": "_new_admin_fee",
          "type": "uint256"
        },
        {
          "name": "_new_fee_gamma",
          "type": "uint256"
        },
        {
          "name": "_new_allowed_extra_profit",
          "type": "uint256"
        },
        {
          "name": "_new_adjustment_step",
          "type": "uint256"
        },
        {
          "name": "_new_ma_half_time",
          "type": "uint256"
        }
      ],
      "outputs": []
    },
    {
      "stateMutability": "nonpayable",
      "type": "function",
      "name": "apply_new_parameters",
      "inputs": [],
      "outputs": []
    },
    {
      "stateMutability": "nonpayable",
      "type": "function",
      "name": "revert_new_parameters",
      "inputs": [],
      "outputs": []
    },
    {
      "stateMutability": "nonpayable",
      "type": "function",
      "name": "commit_transfer_ownership",
      "inputs": [
        {
          "name": "_owner",
          "type": "address"
        }
      ],
      "outputs": []
    },
    {
      "stateMutability": "nonpayable",
      "type": "function",
      "name": "apply_transfer_ownership",
      "inputs": [],
      "outputs": []
    },
    {
      "stateMutability": "nonpayable",
      "type": "function",
      "name": "revert_transfer_ownership",
      "inputs": [],
      "outputs": []
    },
    {
      "stateMutability": "nonpayable",
      "type": "function",
      "name": "kill_me",
      "inputs": [],
      "outputs": []
    },
    {
      "stateMutability": "nonpayable",
      "type": "function",
      "name": "unkill_me",
      "inputs": [],
      "outputs": []
    },
    {
      "stateMutability": "nonpayable",
      "type": "function",
      "name": "set_admin_fee_receiver",
      "inputs": [
        {
          "name": "_admin_fee_receiver",
          "type": "address"
        }
      ],
      "outputs": []
    },
    {
      "stateMutability": "view",
      "type": "function",
      "name": "lp_price",
      "inputs": [],
      "outputs": [
        {
          "name": "",
          "type": "uint256"
        }
      ]
    },
    {
      "stateMutability": "view",
      "type": "function",
      "name": "A_gamma_test",
      "inputs": [],
      "outputs": [
        {
          "name": "",
          "type": "uint256[2]"
        }
      ]
    },
    {
      "stateMutability": "view",
      "type": "function",
      "name": "newton_D_test",
      "inputs": [
        {
          "name": "ANN",
          "type": "uint256"
        },
        {
          "name": "gamma",
          "type": "uint256"
        },
        {
          "name": "x_unsorted",
          "type": "uint256[2]"
        }
      ],
      "outputs": [
        {
          "name": "",
          "type": "uint256"
        }
      ]
    },
    {
      "stateMutability": "view",
      "type": "function",
      "name": "newton_y_test",
      "inputs": [
        {
          "name": "ANN",
          "type": "uint256"
        },
        {
          "name": "gamma",
          "type": "uint256"
        },
        {
          "name": "x",
          "type": "uint256[2]"
        },
        {
          "name": "D",
          "type": "uint256"
        },
        {
          "name": "i",
          "type": "uint256"
        }
      ],
      "outputs": [
        {
          "name": "",
          "type": "uint256"
        }
      ]
    },
    {
      "stateMutability": "view",
      "type": "function",
      "name": "xp_test",
      "inputs": [],
      "outputs": [
        {
          "name": "",
          "type": "uint256[2]"
        }
      ]
    },
    {
      "stateMutability": "view",
      "type": "function",
      "name": "fee_test",
      "inputs": [
        {
          "name": "xp",
          "type": "uint256[2]"
        }
      ],
      "outputs": [
        {
          "name": "",
          "type": "uint256"
        }
      ]
    },
    {
      "stateMutability": "view",
      "type": "function",
      "name": "price_scale",
      "inputs": [],
      "outputs": [
        {
          "name": "",
          "type": "uint256"
        }
      ]
    },
    {
      "stateMutability": "view",
      "type": "function",
      "name": "last_prices",
      "inputs": [],
      "outputs": [
        {
          "name": "",
          "type": "uint256"
        }
      ]
    },
    {
      "stateMutability": "view",
      "type": "function",
      "name": "last_prices_timestamp",
      "inputs": [],
      "outputs": [
        {
          "name": "",
          "type": "uint256"
        }
      ]
    },
    {
      "stateMutability": "view",
      "type": "function",
      "name": "initial_A_gamma",
      "inputs": [],
      "outputs": [
        {
          "name": "",
          "type": "uint256"
        }
      ]
    },
    {
      "stateMutability": "view",
      "type": "function",
      "name": "future_A_gamma",
      "inputs": [],
      "outputs": [
        {
          "name": "",
          "type": "uint256"
        }
      ]
    },
    {
      "stateMutability": "view",
      "type": "function",
      "name": "initial_A_gamma_time",
      "inputs": [],
      "outputs": [
        {
          "name": "",
          "type": "uint256"
        }
      ]
    },
    {
      "stateMutability": "view",
      "type": "function",
      "name": "future_A_gamma_time",
      "inputs": [],
      "outputs": [
        {
          "name": "",
          "type": "uint256"
        }
      ]
    },
    {
      "stateMutability": "view",
      "type": "function",
      "name": "allowed_extra_profit",
      "inputs": [],
      "outputs": [
        {
          "name": "",
          "type": "uint256"
        }
      ]
    },
    {
      "stateMutability": "view",
      "type": "function",
      "name": "future_allowed_extra_profit",
      "inputs": [],
      "outputs": [
        {
          "name": "",
          "type": "uint256"
        }
      ]
    },
    {
      "stateMutability": "view",
      "type": "function",
      "name": "fee_gamma",
      "inputs": [],
      "outputs": [
        {
          "name": "",
          "type": "uint256"
        }
      ]
    },
    {
      "stateMutability": "view",
      "type": "function",
      "name": "future_fee_gamma",
      "inputs": [],
      "outputs": [
        {
          "name": "",
          "type": "uint256"
        }
      ]
    },
    {
      "stateMutability": "view",
      "type": "function",
      "name": "adjustment_step",
      "inputs": [],
      "outputs": [
        {
          "name": "",
          "type": "uint256"
        }
      ]
    },
    {
      "stateMutability": "view",
      "type": "function",
      "name": "future_adjustment_step",
      "inputs": [],
      "outputs": [
        {
          "name": "",
          "type": "uint256"
        }
      ]
    },
    {
      "stateMutability": "view",
      "type": "function",
      "name": "ma_half_time",
      "inputs": [],
      "outputs": [
        {
          "name": "",
          "type": "uint256"
        }
      ]
    },
    {
      "stateMutability": "view",
      "type": "function",
      "name": "future_ma_half_time",
      "inputs": [],
      "outputs": [
        {
          "name": "",
          "type": "uint256"
        }
      ]
    },
    {
      "stateMutability": "view",
      "type": "function",
      "name": "mid_fee",
      "inputs": [],
      "outputs": [
        {
          "name": "",
          "type": "uint256"
        }
      ]
    },
    {
      "stateMutability": "view",
      "type": "function",
      "name": "out_fee",
      "inputs": [],
      "outputs": [
        {
          "name": "",
          "type": "uint256"
        }
      ]
    },
    {
      "stateMutability": "view",
      "type": "function",
      "name": "admin_fee",
      "inputs": [],
      "outputs": [
        {
          "name": "",
          "type": "uint256"
        }
      ]
    },
    {
      "stateMutability": "view",
      "type": "function",
      "name": "future_mid_fee",
      "inputs": [],
      "outputs": [
        {
          "name": "",
          "type": "uint256"
        }
      ]
    },
    {
      "stateMutability": "view",
      "type": "function",
      "name": "future_out_fee",
      "inputs": [],
      "outputs": [
        {
          "name": "",
          "type": "uint256"
        }
      ]
    },
    {
      "stateMutability": "view",
      "type": "function",
      "name": "future_admin_fee",
      "inputs": [],
      "outputs": [
        {
          "name": "",
          "type": "uint256"
        }
      ]
    },
    {
      "stateMutability": "view",
      "type": "function",
      "name": "balances",
      "inputs": [
        {
          "name": "arg0",
          "type": "uint256"
        }
      ],
      "outputs": [
        {
          "name": "",
          "type": "uint256"
        }
      ]
    },
    {
      "stateMutability": "view",
      "type": "function",
      "name": "D",
      "inputs": [],
      "outputs": [
        {
          "name": "",
          "type": "uint256"
        }
      ]
    },
    {
      "stateMutability": "view",
      "type": "function",
      "name": "owner",
      "inputs": [],
      "outputs": [
        {
          "name": "",
          "type": "address"
        }
      ]
    },
    {
      "stateMutability": "view",
      "type": "function",
      "name": "future_owner",
      "inputs": [],
      "outputs": [
        {
          "name": "",
          "type": "address"
        }
      ]
    },
    {
      "stateMutability": "view",
      "type": "function",
      "name": "xcp_profit",
      "inputs": [],
      "outputs": [
        {
          "name": "",
          "type": "uint256"
        }
      ]
    },
    {
      "stateMutability": "view",
      "type": "function",
      "name": "xcp_profit_a",
      "inputs": [],
      "outputs": [
        {
          "name": "",
          "type": "uint256"
        }
      ]
    },
    {
      "stateMutability": "view",
      "type": "function",
      "name": "virtual_price",
      "inputs": [],
      "outputs": [
        {
          "name": "",
          "type": "uint256"
        }
      ]
    },
    {
      "stateMutability": "view",
      "type": "function",
      "name": "is_killed",
      "inputs": [],
      "outputs": [
        {
          "name": "",
          "type": "bool"
        }
      ]
    },
    {
      "stateMutability": "view",
      "type": "function",
      "name": "kill_deadline",
      "inputs": [],
      "outputs": [
        {
          "name": "",
          "type": "uint256"
        }
      ]
    },
    {
      "stateMutability": "view",
      "type": "function",
      "name": "transfer_ownership_deadline",
      "inputs": [],
      "outputs": [
        {
          "name": "",
          "type": "uint256"
        }
      ]
    },
    {
      "stateMutability": "view",
      "type": "function",
      "name": "admin_actions_deadline",
      "inputs": [],
      "outputs": [
        {
          "name": "",
          "type": "uint256"
        }
      ]
    },
    {
      "stateMutability": "view",
      "type": "function",
      "name": "admin_fee_receiver",
      "inputs": [],
      "outputs": [
        {
          "name": "",
          "type": "address"
        }
      ]
    }
  ],
  "transactionHash": "0x8f07c89f25555f8f69e84f700a02ccc9cb06bda292ed1f3e0e2bae5cf84ca713",
  "args": [
    "0x69C7c048e7C286B0a8Bcf7cD7620E71Ef7569421",
    "0xeCb456EA5365865EbAb8a2661B0c503410e9B347",
    "200000000",
    "100000000000000",
    "5000000",
    "45000000",
    "100000000000",
    "5000000000000000",
    "5500000000000",
    "5000000000",
    "600",
    "1107680000000000000",
    "0x7afa01502a556bbE2fC1897CC05636a1926b5A52",
    [
      "0x969df9D426eD0322Ce88d3A2644F8C9C19119bc5",
      "0x37f4F74a4f176204633B166BE78aA97Eea06bb35"
    ]
  ],
  "bytecode": "0x6020615afc6080396080518060a01c615af75760e05260206020615afc016080396080518060a01c615af757610100526020610180615afc016080396080518060a01c615af757610120526101a0615afc016020816080396080518060a01c615af757610140526020602082016080396080518060a01c615af757610160525060e051601a5560206040615afc0160803960805160801b6101805260206060615afc01608039608051610180511761018052610180516005556101805160065560206080615afc01608039608051601155602060a0615afc01608039608051601255602060c0615afc01608039608051600955602060e0615afc01608039608051600b556020610100615afc01608039608051600d556020610120615afc016080396080516013556020610160615afc016080396080516001556020610160615afc016080396080516002556020610160615afc01608039608051600355426004556020610140615afc01608039608051600f55670de0b6b3a7640000601d5542624f1a008181830110615af7578082019050905060215561010051602455610120516101a052610140516101c052610160516101e052604e601263313ce567610200526020610200600461021c610140515afa6101e2573d600060003e3d6000fd5b601f3d1115615af75761020051808210615af757808203905090501015615af757601263313ce567610200526020610200600461021c610140515afa61022d573d600060003e3d6000fd5b601f3d1115615af75761020051808210615af75780820390509050600a0a61028052604e601263313ce567610240526020610240600461025c610160515afa61027b573d600060003e3d6000fd5b601f3d1115615af75761024051808210615af757808203905090501015615af757601263313ce567610240526020610240600461025c610160515afa6102c6573d600060003e3d6000fd5b601f3d1115615af75761024051808210615af75780820390509050600a0a6102a052615aa556600436101561000d57612357565b60046000601c37600051346157b35763fc0c546a811861003c57602060a0380360803960805160e052602060e0f35b63c66106578118610086576080380360208160803960805160e052602081602001608039608051610100525060e060043560028110156157b3576020020151610120526020610120f35b63f446c1d081186100ab5761009c6101c061372f565b6101c051610200526020610200f35b63b137392981186100d3576100c16101c061372f565b6101c060200151610200526020610200f35b63ddca3f438118610125576100e96101606136b5565b61016080516101c05280602001516101e052506101c05160e0526101e051610100526101166101a06138a2565b6101a051610200526020610200f35b63bb7b8b8081186101b857670de0b6b3a76400006019546102005261014b6102806139ed565b610280518082028215828483041417156157b357905090506318160ddd6102a05260206102a060046102bc602060a038036080396080515afa610193573d600060003e3d6000fd5b601f3d11156157b3576102a0518080156157b3578204905090506102e05260206102e0f35b6386fc88d381186101dd576101ce610300613dd3565b61030051610320526020610320f35b635b41b90881186101f25733610dc05261020d565b63a64833a08118610275576084358060a01c6157b357610dc0525b6000546157b3576001600055336109a052608060046109c037610dc051610a40526000610a60526004610de0526000610e0052610de0805160200180610a80828460045afa90505050610261610e206146e7565b610e2051610e40526020610e406000600055f35b63b8ca1ad78118610336576084358060a01c6157b357610dc05260a4358060a01c6157b357610de05260c43560040160048135116157b3578080356020018082610e00375050506000546157b35760016000556004610e80526000610ea052610e8060200151610e2051146157b357610dc0516109a052608060046109c037610de051610a405233610a6052610e00805160200180610a80828460045afa90505050610322610e406146e7565b610e4051610e60526020610e606000600055f35b63556d6e9f811861061157602435600435146157b357600260043510156157b357600260243510156157b3576001546020604038036020016080396080518082028215828483041417156157b357905090506104a0526017546104c0526018546104e0526103a561054061372f565b61054080516105005280602001516105205250601954610540526000600854111561042c57610500516105c052610520516105e0526103e56105606136b5565b610560805161060052806020015161062052506105c051610200526105e05161022052610600516102405261062051610260526104236105a0612528565b6105a051610540525b6104c060043560028110156157b35760200201805160443581818301106157b357808201905090508152506104c0516020604038036080396080518082028215828483041417156157b357905090506104c0526104e0516104a0518082028215828483041417156157b35790509050670de0b6b3a7640000808204905090506104e0526105005160e05261052051610100526104c051610120526104e051610140526105405161016052602435610180526104e8610580612cb7565b61058051610560526104c060243560028110156157b3576020020151610560518082106157b3578082039050905060018082106157b3578082039050905061058052610560516104c060243560028110156157b35760200201526000602435116105725761058080516020604038036080396080518080156157b3578204905090508152506105a9565b61058051670de0b6b3a76400008082028215828483041417156157b357905090506104a0518080156157b357820490509050610580525b61058080516104c05160e0526104e051610100526105c86105a06138a2565b6105a051610580518082028215828483041417156157b357905090506402540be400808204905090508082106157b35780820390509050815250610580516105a05260206105a0f35b630b4c7e4d811861062657336109a052610641565b630c3e4b548118610eef576064358060a01c6157b3576109a0525b6000546157b35760016000556020546157b3576000600435116106695760006024351161066c565b60015b156157b35761067c610a0061372f565b610a0080516109c05280602001516109e0525060803803602081608039608051610a0052602081602001608039608051610a205250601754610a4052601854610a605260e036610a8037610a4051610b6052610a6051610b8052610ba060006002818352015b610a40610ba05160028110156157b35760200201516020610ba051026004013581818301106157b35780820190509050610bc052610bc051610a40610ba05160028110156157b3576020020152610bc0516001610ba05160028110156157b357026017015581516001018083528114156106e2575050610a4051610ac052610a6051610ae0526001546020604038036020016080396080518082028215828483041417156157b35790509050610ba052610a40516020604038036080396080518082028215828483041417156157b35790509050610a4052610a6051610ba0518082028215828483041417156157b35790509050670de0b6b3a764000080820490509050610a6052610b60516020604038036080396080518082028215828483041417156157b35790509050610b6052610b8051610ba0518082028215828483041417156157b35790509050670de0b6b3a764000080820490509050610b8052610bc060006002818352015b60006020610bc05102600401351115610915576323b872dd610be05233610c005230610c20526020610bc0510260040135610c40526020610be06064610bfc6000610a00610bc05160028110156157b35760200201515af16108b5573d600060003e3d6000fd5b601f3d11156157b357610be051156157b357610a40610bc05160028110156157b3576020020151610b60610bc05160028110156157b35760200201518082106157b35780820390509050610a80610bc05160028110156157b35760200201525b815160010180835281141561084e57505060006004351161093b5760006024351161093e565b60015b156157b357600854610bc0526000610bc0511161096157601954610b40526109a4565b6109c051610200526109e05161022052610b605161024052610b80516102605261098c610be0612528565b610be051610b4052610bc05142106109a45760016008555b6109c051610200526109e05161022052610a405161024052610a6051610260526109cf610c00612528565b610c0051610be0526318160ddd610c20526020610c206004610c3c602060a038036080396080515afa610a07573d600060003e3d6000fd5b601f3d11156157b357610c2051610c00526000610b405111610a4357610be05161020052610a36610c206139ed565b610c2051610b0052610a87565b610c0051610be0518082028215828483041417156157b35790509050610b40518080156157b357820490509050610c00518082106157b35780820390509050610b00525b6000610b005111156157b3576000610b405111610b1157610be051601955670de0b6b3a7640000601e55670de0b6b3a7640000601c556340c10f19610c20526109a051610c4052610b0051610c60526020610c206044610c3c6000602060a038036080396080515af1610aff573d600060003e3d6000fd5b601f3d11156157b357610c2050610e0e565b610a805161016052610aa05161018052610a40516101a052610a60516101c052610b3c610c20614ff8565b610c2051610b00518082028215828483041417156157b357905090506402540be40080820490509050600181818301106157b35780820190509050610b2052610b008051610b20518082106157b35780820390509050815250610c008051610b005181818301106157b357808201905090508152506340c10f19610c20526109a051610c4052610b0051610c60526020610c206044610c3c6000602060a038036080396080515af1610bf3573d600060003e3d6000fd5b601f3d11156157b357610c20506000610c2052620186a0610b00511115610dd65760043515610c255760243515610c28565b60015b15610dd657606036610c403760043515610c7c57610ae0516020604038036020016080396080518082028215828483041417156157b35790509050610c4052602060403803608039608051610c6052610cbe565b610ac0516020604038036080396080518082028215828483041417156157b35790509050610c4052602060403803602001608039608051610c60526001610c80525b610c4051610b00518082028215828483041417156157b35790509050610c00518080156157b357820490509050610c4052610c4051670de0b6b3a76400008082028215828483041417156157b357905090506020610c80510260040135610c60518082028215828483041417156157b35790509050610b0051610ac0610c805160028110156157b35760200201518082028215828483041417156157b35790509050610c60518082028215828483041417156157b35790509050610c00518080156157b3578204905090508082106157b357808203905090508080156157b357820490509050610c2052610c8051610dd6576ec097ce7bc90715b34b9f1000000000610c20518080156157b357820490509050610c20525b6109c0516106a0526109e0516106c052610a40516106e052610a605161070052610c205161072052610be05161074052610e0e613ed9565b604435610b00511015610e92576008610c20527f536c697070616765000000000000000000000000000000000000000000000000610c4052610c2050610c205180610c4001818260206001820306601f82010390500336823750506308c379a0610be0526020610c0052610c205160206001820306601f8201039050604401610bfcfd5b6109a0517f540ab385f9b5d450a27404172caade516b3ba3f4be88239ac56a2ad1de2a1f5a600435610c2052602435610c4052610b2051610c6052610c0051610c80526080610c20a2610b0051610c20526020610c206000600055f35b635b36389c8118610f03573360e052610f1d565b633eb1719f81186111c0576064358060a01c6157b35760e0525b6000546157b3576001600055608038036020816080396080516101005260208160200160803960805161012052506318160ddd610160526020610160600461017c602060a038036080396080515afa610f7b573d600060003e3d6000fd5b601f3d11156157b35761016051610140526379cc67906101605233610180526004356101a0526020610160604461017c6000602060a038036080396080515af1610fca573d600060003e3d6000fd5b601f3d11156157b35761016050601754610160526018546101805260043560018082106157b357808203905090506101a0526101c060006002818352015b6101606101c05160028110156157b35760200201516101a0518082028215828483041417156157b35790509050610140518080156157b3578204905090506101e05260206101c05102602401356101e051106157b3576101606101c05160028110156157b35760200201516101e0518082106157b3578082039050905060016101c05160028110156157b35702601701556101e0516101606101c05160028110156157b357602002015263a9059cbb6102005260e051610220526101e051610240526020610200604461021c60006101006101c05160028110156157b35760200201515af16110fc573d600060003e3d6000fd5b601f3d11156157b35761020051156157b35781516001018083528114156110085750506019546101c0526101c0516101c0516101a0518082028215828483041417156157b35790509050610140518080156157b3578204905090508082106157b35780820390509050601955337fdd3c0336a16f1b64f172b7bb0dad5b2b3c7c76f91e8c4aafd6aae60dce800153610160516101e0526101805161020052610140516004358082106157b357808203905090506102205260606101e0a26000600055005b638d8ea7278118611447576318160ddd6104c05260206104c060046104dc602060a038036080396080515afa6111fb573d600060003e3d6000fd5b601f3d11156157b3576104c0516104a0526001546020604038036020016080396080518082028215828483041417156157b357905090506104c05261124161052061372f565b61052080516104e0528060200151610500525061125f6105606136b5565b610560805161052052806020015161054052506004356020604038036080396080518082028215828483041417156157b35790509050610560526024356104c0518082028215828483041417156157b35790509050670de0b6b3a764000080820490509050610580526019546105a0526000600854111561130e576104e051610200526105005161022052610520516102405261054051610260526113056105c0612528565b6105c0516105a0525b61052080516105605181818301106157b3578082019050905081525061054080516105805181818301106157b357808201905090508152506104e051610200526105005161022052610520516102405261054051610260526113716105e0612528565b6105e0516105c0526104a0516105c0518082028215828483041417156157b357905090506105a0518080156157b3578204905090506104a0518082106157b357808203905090506105e0526105e0805161056051610160526105805161018052610520516101a052610540516101c0526113ec610600614ff8565b610600516105e0518082028215828483041417156157b357905090506402540be40080820490509050600181818301106157b357808201905090508082106157b357808203905090508152506105e051610600526020610600f35b634fb08c5e81186114ce5761145d61074061372f565b61074080516108205280602001516108405250604060046108603760016108a05260006108c052610820516104a052610840516104c052610860516104e05261088051610500526108a051610520526108c051610540526114bf610780615181565b610780516108e05260206108e0f35b63f1dc3cc981186114e357336109a0526114fe565b630fbcee6e81186117ab576064358060a01c6157b3576109a0525b6000546157b35760016000556020546157b35761151c610a0061372f565b610a0080516109c05280602001516109e0525060a036610a0037600854610aa0526109c0516104a0526109e0516104c052604060046104e0376000610aa0511161052052600161054052611571610ac0615181565b610ac08051610a00526020810151610a40526040810151610a2052606081018051610a60528060200151610a80525050604435610a00511015611625576008610ac0527f536c697070616765000000000000000000000000000000000000000000000000610ae052610ac050610ac05180610ae001818260206001820306601f82010390500336823750506308c379a0610a80526020610aa052610ac05160206001820306601f8201039050604401610a9cfd5b610aa05142106116355760016008555b600160243560028110156157b357026017018054610a00518082106157b357808203905090508155506379cc6790610ac05233610ae052600435610b00526020610ac06044610adc6000602060a038036080396080515af161169c573d600060003e3d6000fd5b601f3d11156157b357610ac05060803803602081608039608051610ac052602081602001608039608051610ae0525063a9059cbb610b00526109a051610b2052610a0051610b40526020610b006044610b1c6000610ac060243560028110156157b35760200201515af1611715573d600060003e3d6000fd5b601f3d11156157b357610b0051156157b3576109c0516106a0526109e0516106c052610a60516106e052610a805161070052610a405161072052610a20516107405261175f613ed9565b337f5ad056f2e28a8cec232015406b843668c1e36cda598127ec3b8c59b8c72773a060406004610b0037610a0051610b40526060610b00a2610a0051610b00526020610b006000600055f35b63c93f49e881186117d1576000546157b35760016000556117ca613a72565b6000600055005b635e24807281186119c857601a5433186157b3576007546201517f81818301106157b357808201905090504211156157b357426201517f81818301106157b3578082019050905060443511156157b35761182c61020061372f565b61020080516101c05280602001516101e052506101c05160801b610200526101e051610200511761020052610f9f60043511156157b35763ee6b280160043510156157b3576402540be3ff60243511156157b35766470de4df82000160243510156157b357670de0b6b3a76400006004358082028215828483041417156157b357905090506101c0518080156157b35782049050905061022052678ac7230489e800016102205110156157b35767016345785d89ffff6102205111156157b357670de0b6b3a76400006024358082028215828483041417156157b357905090506101e0518080156157b35782049050905061022052678ac7230489e800016102205110156157b35767016345785d89ffff6102205111156157b357610200516005554260075560043560801b61024052602435610240511761024052604435600855610240516006557fe35f0559b0642164e286b30df2077ec3a05426617a25db7578fd20ba39a6cd056101c05161026052600435610280526101e0516102a0526024356102c052426102e0526044356103005260c0610260a1005b63244c7c2e8118611a6657601a5433186157b3576119e761020061372f565b61020080516101c05280602001516101e052506101c05160801b610200526101e051610200511761020052610200516005556102005160065542600755426008557f5f0e7fba3d100c9e19446e1c92fe436f0a9a22fe99669360e4fdd6d3de2fc2846101c051610220526101e0516102405242610260526060610220a1005b63a43c33518118611c2757601a5433186157b3576023546157b35760e0600460e0376402540be4016101005110611aa35760125461010052611ab2565b6207a11f6101005111156157b3575b6402540be40060e0511115611ac85760115460e0525b6101005160e051116157b3576402540be400610120511115611aec57601354610120525b670de0b6b3a76400006101405110611b0a57600b5461014052611b17565b60006101405111156157b3575b670de0b6b3a7640000610160511115611b3257600954610160525b670de0b6b3a7640000610180511115611b4d57600d54610180525b62093a806101a05110611b6657600f546101a052611b73565b60006101a05111156157b3575b426203f48081818301106157b357808201905090506101c0526101c0516023556101205160165560e0516014556101005160155561014051600c5561016051600a5561018051600e556101a0516010556101c0517f913fde9a37e1f8ab67876a4d0ce80790d764fcfc5692f4529526df9c6bdde553610120516101e05260e0516102005261010051610220526101405161024052610160516102605261018051610280526101a0516102a05260e06101e0a2005b632a7dd7cd8118611d3c576000546157b3576001600055601a5433186157b35760235442106157b3576000602354146157b35760006023556016546106a0526106a05160135414611c8257611c7a613a72565b6106a0516013555b6014546106c0526106c0516011556015546106e0526106e051601255600c546107005261070051600b55600a546107205261072051600955600e546107405261074051600d556010546107605261076051600f557f1c65bbdc939f346e5d6f0bde1f072819947438d4fc7b182cc59c2f6dc55040876106a051610780526106c0516107a0526106e0516107c052610700516107e05261072051610800526107405161082052610760516108405260e0610780a16000600055005b63226840fb8118611d5757601a5433186157b3576000602355005b636b441a408118611dd6576004358060a01c6157b35760e052601a5433186157b3576022546157b357426203f48081818301106157b35780820190509050610100526101005160225560e051601b5560e051610100517f181aa3aa17d4cbf99265dd4443eba009433d3cde79d60164fde1d1a192beb9356000610120a3005b636a1c05ae8118611e3a57601a5433186157b35760225442106157b3576000602254146157b3576000602255601b5460e05260e051601a5560e0517f71614071b88dee5e0b2ae578a9dd7b2ebbe9ae832ba419dc0242cd065a290b6c6000610100a2005b6386fbf1938118611e5557601a5433186157b3576000602255005b63e36988538118611e7a57601a5433186157b3574260215411156157b3576001602055005b633046f9728118611e9557601a5433186157b3576000602055005b637242e5248118611ebf576004358060a01c6157b35760e052601a5433186157b35760e051602455005b6354f0f7d58118611f3b576002601e548082028215828483041417156157b35790509050611eee610300613dd3565b61030051610340526103405160e052611f08610320615666565b610320518082028215828483041417156157b35790509050670de0b6b3a764000080820490509050610360526020610360f35b63a73cb65f8118611f6b57611f516101c061372f565b6101c0805161020052806020015161022052506040610200f35b6397de838a8118611fa65760406004610200376044356102405260643561026052611f976104a0612528565b6104a0516104c05260206104c0f35b634b7156238118611fee576040600460e03760443561012052606435610140526084356101605260a43561018052611fdf6103e0612cb7565b6103e051610400526020610400f35b6320096be1811861201c5761200360e06136b5565b60e0805161012052806020015161014052506040610120f35b63c5eda64b811861204e5760043560e0526024356101005261203f6101606138a2565b61016051610180526020610180f35b63b9e8c9fd81186120655760015460e052602060e0f35b63c146bf94811861207c5760035460e052602060e0f35b636112c74781186120935760045460e052602060e0f35b63204fe3d581186120aa5760055460e052602060e0f35b63f30cfad581186120c15760065460e052602060e0f35b63e89876ff81186120d85760075460e052602060e0f35b63f9ed959781186120ef5760085460e052602060e0f35b6349fe9e7781186121065760095460e052602060e0f35b63727ced57811861211d57600a5460e052602060e0f35b6372d4f0e2811861213457600b5460e052602060e0f35b63d7c3dcbe811861214b57600c5460e052602060e0f35b63083812e5811861216257600d5460e052602060e0f35b634ea12c7d811861217957600e5460e052602060e0f35b63662b6274811861219057600f5460e052602060e0f35b630c5e23d481186121a75760105460e052602060e0f35b6392526c0c81186121be5760115460e052602060e0f35b63ee8de67581186121d55760125460e052602060e0f35b63fee3f7f981186121ec5760135460e052602060e0f35b637cf9aedc81186122035760145460e052602060e0f35b637d1b060c811861221a5760155460e052602060e0f35b63e382446281186122315760165460e052602060e0f35b634903b0d1811861225857600160043560028110156157b357026017015460e052602060e0f35b630f529ba2811861226f5760195460e052602060e0f35b638da5cb5b811861228657601a5460e052602060e0f35b631ec0cdc1811861229d57601b5460e052602060e0f35b637ba1a74d81186122b457601c5460e052602060e0f35b630b7b594b81186122cb57601d5460e052602060e0f35b630c46b72a81186122e257601e5460e052602060e0f35b639c868ac081186122f95760205460e052602060e0f35b632a42689681186123105760215460e052602060e0f35b63e0a0b58681186123275760225460e052602060e0f35b63405e28f8811861233e5760235460e052602060e0f35b636e42e4d281186123555760245460e052602060e0f35b505b60006000fd5b60e0516101405261010051610160526101205161237b576000612385565b6101605161014051105b1561239a57610100516101405260e051610160525b610140516101805260006101a0526101c0600060ff818352015b610180516101e0526101805161014051610160518082028215828483041417156157b35790509050610180518080156157b35782049050905081818301106157b35780820190509050600280820490509050610180526101e0516101805111612436576101e051610180518082106157b357808203905090506101a052612451565b610180516101e0518082106157b357808203905090506101a0525b60016101a051111561248857610180516101a051670de0b6b3a76400008082028215828483041417156157b357905090501061248b565b60015b1561249e57505061018051815250612526565b81516001018083528114156123b457505060106101c0527f446964206e6f7420636f6e7665726765000000000000000000000000000000006101e0526101c0506101c051806101e001818260206001820306601f82010390500336823750506308c379a06101805260206101a0526101c05160206001820306601f820103905060440161019cfd5b565b610f9f610200511161253b576000612546565b63ee6b280161020051105b156157b3576402540be3ff610220511161256157600061256f565b66470de4df82000161022051105b156157b3576102405161028052610260516102a0526102a0516102805110156125a3576102605161028052610240516102a0525b633b9ac9ff61028051116125b85760006125cd565b6d314dc6448d9338c15b0a0000000161028051105b156157b357655af3107a3fff6102a051670de0b6b3a76400008082028215828483041417156157b35790509050610280518080156157b35782049050905011156157b35760026102805160e0526102a051610100526000610120526126336102e061235d565b6102e0518082028215828483041417156157b357905090506102c052610280516102a05181818301106157b357808201905090506102e052610300600060ff818352015b6102c05161032052673782dace9d900000610280518082028215828483041417156157b357905090506102c0518080156157b3578204905090506102a0518082028215828483041417156157b357905090506102c0518080156157b3578204905090506103405261022051670de0b6b3a764000081818301106157b357808201905090506103605261034051610360511161273d5761034051610360518082106157b35780820390509050600181818301106157b357808201905090506103605261276a565b61036051610340518082106157b35780820390509050600181818301106157b35780820190509050610360525b670de0b6b3a76400006102c0518082028215828483041417156157b35790509050610220518080156157b357820490509050610360518082028215828483041417156157b35790509050610220518080156157b357820490509050610360518082028215828483041417156157b357905090506127108082028215828483041417156157b35790509050610200518080156157b35782049050905061038052673782dace9d900000610340518082028215828483041417156157b35790509050610360518080156157b3578204905090506103a0526102e0516102e0516103a0518082028215828483041417156157b35790509050670de0b6b3a76400008082049050905081818301106157b357808201905090506103805160028082028215828483041417156157b35790509050610340518080156157b35782049050905081818301106157b357808201905090506103a0516102c0518082028215828483041417156157b35790509050670de0b6b3a7640000808204905090508082106157b357808203905090506103c0526102c0516103c0516102e05181818301106157b357808201905090508082028215828483041417156157b357905090506103c0518080156157b3578204905090506103e0526102c0516102c0518082028215828483041417156157b357905090506103c0518080156157b3578204905090506104005261034051670de0b6b3a764000011612a185761040080516102c051610380516103c0518080156157b3578204905090508082028215828483041417156157b35790509050670de0b6b3a76400008082049050905061034051670de0b6b3a76400008082106157b357808203905090508082028215828483041417156157b35790509050610340518080156157b3578204905090508082106157b35780820390509050815250612aae565b61040080516102c051610380516103c0518080156157b3578204905090508082028215828483041417156157b35790509050670de0b6b3a764000080820490509050670de0b6b3a7640000610340518082106157b357808203905090508082028215828483041417156157b35790509050610340518080156157b35782049050905081818301106157b357808201905090508152505b610400516103e05111612ae357610400516103e0518082106157b357808203905090506002808204905090506102c052612afe565b6103e051610400518082106157b357808203905090506102c0525b600061042052610320516102c05111612b3057610320516102c0518082106157b3578082039050905061042052612b4b565b6102c051610320518082106157b35780820390509050610420525b662386f26fc100006102c051808210612b645781612b66565b805b9050905061042051655af3107a40008082028215828483041417156157b357905090501015612c2d5761046060006002818352015b6020610460510261028001516104405261044051670de0b6b3a76400008082028215828483041417156157b357905090506102c0518080156157b35782049050905061048052662386f26fc0ffff6104805111612bf9576000612c09565b68056bc75e2d6310000161048051105b156157b3578151600101808352811415612b9b57505050506102c051815250612cb5565b81516001018083528114156126775750506010610300527f446964206e6f7420636f6e7665726765000000000000000000000000000000006103205261030050610300518061032001818260206001820306601f82010390500336823750506308c379a06102c05260206102e0526103005160206001820306601f82010390506044016102dcfd5b565b610f9f60e05111612cc9576000612cd3565b63ee6b280160e051105b156157b3576402540be3ff6101005111612cee576000612cfc565b66470de4df82000161010051105b156157b35767016345785d89ffff6101605111612d1a576000612d2f565b6d314dc6448d9338c15b0a0000000161016051105b156157b3576101206001610180518082106157b3578082039050905060028110156157b35760200201516101a0527001000000000000000000000000000000006101605110156157b3576002610160510a6101a05160048082028215828483041417156157b357905090508080156157b3578204905090506101c052671bc16d674ec800006101a0518082028215828483041417156157b35790509050610160518080156157b3578204905090506101e05266470de4df81ffff6101e05111612df9576000612e09565b680ad78ebc5ac62000016101e051105b156157b3576101a051655af3107a40008082049050905061016051655af3107a400080820490509050808210612e3f5781612e41565b805b905090506064808210612e545781612e56565b805b9050905061020052610220600060ff818352015b6101c051610240526101e0516101c0518082028215828483041417156157b3579050905060028082028215828483041417156157b35790509050610160518080156157b357820490509050610260526101a0516101c05181818301106157b357808201905090506102805261010051670de0b6b3a764000081818301106157b357808201905090506102a052610260516102a05111612f3457610260516102a0518082106157b35780820390509050600181818301106157b357808201905090506102a052612f61565b6102a051610260518082106157b35780820390509050600181818301106157b357808201905090506102a0525b670de0b6b3a7640000610160518082028215828483041417156157b35790509050610100518080156157b3578204905090506102a0518082028215828483041417156157b35790509050610100518080156157b3578204905090506102a0518082028215828483041417156157b357905090506127108082028215828483041417156157b3579050905060e0518080156157b3578204905090506102c052670de0b6b3a7640000671bc16d674ec80000610260518082028215828483041417156157b357905090506102a0518080156157b35782049050905081818301106157b357808201905090506102e052670de0b6b3a76400006101c0518082028215828483041417156157b35790509050610280516102e0518082028215828483041417156157b3579050905081818301106157b357808201905090506102c05181818301106157b3578082019050905061030052610160516102e0518082028215828483041417156157b35790509050610320526103205161030051106130ff576103008051610320518082106157b35780820390509050815250613115565b610240516002808204905090506101c05261334c565b610300516101c0518080156157b357820490509050610340526102c051610340518080156157b3578204905090506103605261030051670de0b6b3a7640000610160518082028215828483041417156157b3579050905081818301106157b35780820190509050610340518080156157b35782049050905061036051670de0b6b3a76400008082028215828483041417156157b35790509050610260518080156157b35782049050905081818301106157b35780820190509050610380526103608051670de0b6b3a7640000610280518082028215828483041417156157b35790509050610340518080156157b35782049050905081818301106157b357808201905090508152506103605161038051106132495761038051610360518082106157b357808203905090506101c05261325b565b610240516002808204905090506101c0525b60006103a052610240516101c0511161328d57610240516101c0518082106157b357808203905090506103a0526132a8565b6101c051610240518082106157b357808203905090506103a0525b610200516101c051655af3107a4000808204905090508082106132cb57816132cd565b805b905090506103a051101561334c576101c051670de0b6b3a76400008082028215828483041417156157b35790509050610160518080156157b3578204905090506103c052662386f26fc0ffff6103c05111613329576000613339565b68056bc75e2d631000016103c051105b156157b35750506101c0518152506133d4565b8151600101808352811415612e6a5750506010610220527f446964206e6f7420636f6e7665726765000000000000000000000000000000006102405261022050610220518061024001818260206001820306601f82010390500336823750506308c379a06101e0526020610200526102205160206001820306601f82010390506044016101fcfd5b565b60e051670de0b6b3a7640000808204905090506101005260e05161010051670de0b6b3a76400008082028215828483041417156157b357905090508082106157b3578082039050905061012052603b6101005111156134395760008152506136b3565b670de0b6b3a76400006101006101005110156157b3576101005160020a8080156157b357820490509050610140526101205161347b57610140518152506136b3565b670de0b6b3a7640000610160526706f05b59d3b2000061018052670de0b6b3a76400006101a05260006101c0526101e0600160ff818352015b6101e051670de0b6b3a76400008082028215828483041417156157b357905090506102005261020051670de0b6b3a76400008082106157b3578082039050905061022052610220516101205111613524576102208051610120518082106157b35780820390509050815250613548565b61012051610220518082106157b35780820390509050610220526101c051156101c0525b6101605161022051610180518082028215828483041417156157b35790509050670de0b6b3a7640000808204905090508082028215828483041417156157b35790509050610200518080156157b357820490509050610160526101c0516135ca576101a080516101605181818301106157b357808201905090508152506135e5565b6101a08051610160518082106157b357808203905090508152505b6402540be40061016051101561362b575050610140516101a0518082028215828483041417156157b35790509050670de0b6b3a7640000808204905090508152506136b3565b81516001018083528114156134b457505060106101e0527f446964206e6f7420636f6e766572676500000000000000000000000000000000610200526101e0506101e0518061020001818260206001820306601f82010390500336823750506308c379a06101a05260206101c0526101e05160206001820306601f82010390506044016101bcfd5b565b6017546020604038036080396080518082028215828483041417156157b3579050905081526018546020604038036020016080396080518082028215828483041417156157b357905090506001548082028215828483041417156157b35790509050670de0b6b3a764000080820490509050816020015250565b60085460e052600654610100526fffffffffffffffffffffffffffffffff6101005116610120526101005160801c6101405260e05142101561389057600554610160526007546101805260e08051610180518082106157b3578082039050905081525042610180518082106157b357808203905090506101805260e051610180518082106157b357808203905090506101a0526101605160801c6101a0518082028215828483041417156157b3579050905061014051610180518082028215828483041417156157b3579050905081818301106157b3578082019050905060e0518080156157b357820490509050610140526fffffffffffffffffffffffffffffffff61016051166101a0518082028215828483041417156157b3579050905061012051610180518082028215828483041417156157b3579050905081818301106157b3578082019050905060e0518080156157b357820490509050610120525b61014051815261012051816020015250565b600b546101205260e0516101005181818301106157b357808201905090506101405261012051670de0b6b3a76400008082028215828483041417156157b3579050905061012051670de0b6b3a764000081818301106157b35780820190509050673782dace9d90000060e0518082028215828483041417156157b35790509050610140518080156157b357820490509050610100518082028215828483041417156157b35790509050610140518080156157b3578204905090508082106157b357808203905090508080156157b35782049050905061014052601154610140518082028215828483041417156157b35790509050601254670de0b6b3a7640000610140518082106157b357808203905090508082028215828483041417156157b3579050905081818301106157b35780820190509050670de0b6b3a764000080820490509050815250565b610200516002808204905090506102205261020051670de0b6b3a76400008082028215828483041417156157b3579050905060015460028082028215828483041417156157b357905090508080156157b357820490509050610240526102205160e0526102405161010052600161012052613a6961026061235d565b61026051815250565b613a7d6104e061372f565b6104e080516104a05280602001516104c05250601c546104e052601d54610500526080380360208160803960805161052052602081602001608039608051610540525061056060006002818352015b6370a0823161058052306105a0526020610580602461059c6105206105605160028110156157b35760200201515afa613b0a573d600060003e3d6000fd5b601f3d11156157b3576105805160016105605160028110156157b35702601701558151600101808352811415613acc575050601e5461056052610500516104e0511115613cca576104e051610500518082106157b357808203905090506013548082028215828483041417156157b357905090506404a817c80080820490509050610580526000610580511115613cca576024546105a05260006105a05114613cca5761056051670de0b6b3a76400008082028215828483041417156157b3579050905061056051610580518082106157b357808203905090508080156157b357820490509050670de0b6b3a76400008082106157b357808203905090506105c052636962f845610600526105a051610620526105c051610640526020610600604461061c6000602060a038036080396080515af1613c4e573d600060003e3d6000fd5b601f3d11156157b357610600516105e0526104e080516105805160028082028215828483041417156157b357905090508082106157b357808203905090508152506104e051601c556105a0517f6059a38198b1dc42b3791087d1ff0fbd72b3179553c25f678cd246f52ffaaf596105e051610600526020610600a25b6318160ddd6105a05260206105a060046105bc602060a038036080396080515afa613cfa573d600060003e3d6000fd5b601f3d11156157b3576105a051610580526104a051610620526104c05161064052613d266105c06136b5565b6105c0805161066052806020015161068052506106205161020052610640516102205261066051610240526106805161026052613d64610600612528565b610600516105a0526105a051601955670de0b6b3a76400006105a05161020052613d8f6105c06139ed565b6105c0518082028215828483041417156157b35790509050610580518080156157b357820490509050601e55610500516104e0511115613dd1576104e051601d555b565b6002546102405260045461026052426102605110613dfb5761024051815250613ed756613ed7565b600f54610280526003546102a05242610260518082106157b35780820390509050670de0b6b3a76400008082028215828483041417156157b35790509050610280518080156157b35782049050905060e052613e586102e06133d6565b6102e0516102c0526102a051670de0b6b3a76400006102c0518082106157b357808203905090508082028215828483041417156157b35790509050610240516102c0518082028215828483041417156157b3579050905081818301106157b35780820190509050670de0b6b3a764000080820490509050815250613ed7565b565b60025461076052600354610780526001546107a0526004546107c05260006107e052426107c0511015613fe357600f5461080052426107c0518082106157b35780820390509050670de0b6b3a76400008082028215828483041417156157b35790509050610800518080156157b35782049050905060e052613f5c6108406133d6565b610840516108205261078051670de0b6b3a7640000610820518082106157b357808203905090508082028215828483041417156157b3579050905061076051610820518082028215828483041417156157b3579050905081818301106157b35780820190509050670de0b6b3a7640000808204905090506107605261076051600255426004555b610740516108005261074051614027576106a051610200526106c051610220526106e05161024052610700516102605261401e610820612528565b61082051610800525b600061072051116140f1576106e05161082052610700516108405261082051620f4240808204905090506108605261082080516108605181818301106157b357808201905090508152506107a051610860518082028215828483041417156157b35790509050610700516106a05160e0526106c051610100526108205161012052610840516101405261080051610160526001610180526140c9610880612cb7565b610880518082106157b357808203905090508080156157b357820490509050610780526140fa565b61072051610780525b610780516003556318160ddd610840526020610840600461085c602060a038036080396080515afa614131573d600060003e3d6000fd5b601f3d11156157b3576108405161082052601c5461084052601e5461086052610800516002808204905090506108805261080051670de0b6b3a76400008082028215828483041417156157b3579050905060026107a0518082028215828483041417156157b357905090508080156157b3578204905090506108a052670de0b6b3a76400006108c052670de0b6b3a76400006108e0526000610860511115614310576108805160e0526108a051610100526001610120526141f361092061235d565b6109205161090052670de0b6b3a7640000610900518082028215828483041417156157b35790509050610820518080156157b3578204905090506108e052610840516108e0518082028215828483041417156157b35790509050610860518080156157b3578204905090506108c05260085461092052610860516108e0511061427d576000614283565b61092051155b156142ff576004610940527f4c6f7373000000000000000000000000000000000000000000000000000000006109605261094050610940518061096001818260206001820306601f82010390500336823750506308c379a0610900526020610920526109405160206001820306601f820103905060440161091cfd5b600161092051186143105760006008555b6108c051601c5561076051670de0b6b3a76400008082028215828483041417156157b357905090506107a0518080156157b35782049050905061090052670de0b6b3a7640000610900511161438357670de0b6b3a7640000610900518082106157b35780820390509050610900526143a3565b6109008051670de0b6b3a76400008082106157b357808203905090508152505b600d5461090051600a808204905090508082106143c057816143c2565b805b9050905061092052601f546109405261094051156143e1576000614467565b6108c05160026009548082028215828483041417156157b3579050905081818301106157b357808201905090506108e05160028082028215828483041417156157b35790509050670de0b6b3a76400008082106157b357808203905090501161444b576000614467565b61092051610900511161445f576000614467565b600061086051115b15614478576001610940526001601f555b61094051156146c15761092051610900511161449557600061449d565b600061086051115b156146c1576107a05161090051610920518082106157b357808203905090508082028215828483041417156157b3579050905061092051610760518082028215828483041417156157b3579050905081818301106157b35780820190509050610900518080156157b3578204905090506107e0526106e05161088052610700516107e0518082028215828483041417156157b357905090506107a0518080156157b3578204905090506108a0526106a051610200526106c0516102205261088051610240526108a05161026052614575610980612528565b6109805161096052610960516002808204905090506108805261096051670de0b6b3a76400008082028215828483041417156157b3579050905060026107e0518082028215828483041417156157b357905090508080156157b3578204905090506108a052670de0b6b3a76400006108805160e0526108a0516101005260016101205261460361098061235d565b610980518082028215828483041417156157b35790509050610820518080156157b35782049050905061086052670de0b6b3a76400006108605111614649576000614680565b6108c0516002610860518082028215828483041417156157b35790509050670de0b6b3a76400008082106157b35780820390509050115b6146a7576000601f55610800516019556108e051601e556146e5613a72566146e5566146c1565b6107e0516001556109605160195561086051601e556146e5565b610800516019556108e051601e5561094051156146e5576000601f556146e5613a72565b565b6020546157b3576109e0516109c051146157b35760026109c05110156157b35760026109e05110156157b3576000610a005111156157b35761472a610b0061372f565b610b008051610ac0528060200151610ae05250601754610b0052601854610b2052604036610b403760803803602081608039608051610b8052602081602001608039608051610ba05250610b006109e05160028110156157b3576020020151610bc052610b006109c05160028110156157b3576020020151610be052610be051610a005181818301106157b35780820190509050610b006109c05160028110156157b3576020020152610b006109c05160028110156157b357602002015160016109c05160028110156157b3570260170155600154610c0052610b00516020604038036080396080518082028215828483041417156157b35790509050610b0052610b2051610c00518082028215828483041417156157b357905090506020604038036020016080396080518082028215828483041417156157b35790509050670de0b6b3a764000080820490509050610b2052602060403803608039608051610c2052602060403803602001608039608051610c405260016109c051186148d057602060403803602001608039608051610c2052602060403803608039608051610c40525b600854610c60526000610c605111156149cd57610be08051610c20518082028215828483041417156157b3579050905081525060006109c051111561494057610be051610c00518082028215828483041417156157b35790509050670de0b6b3a764000080820490509050610be0525b610b006109c05160028110156157b3576020020151610c8052610be051610b006109c05160028110156157b3576020020152610ac05161020052610ae05161022052610b005161024052610b20516102605261499d610ca0612528565b610ca051601955610c8051610b006109c05160028110156157b3576020020152610c605142106149cd5760016008555b610b006109e05160028110156157b3576020020151610ac05160e052610ae05161010052610b005161012052610b205161014052601954610160526109e05161018052614a1b610c80612cb7565b610c80518082106157b35780820390509050610b6052610b006109e05160028110156157b357602002018051610b60518082106157b35780820390509050815250610b60805160018082106157b3578082039050905081525060006109e0511115614ab757610b6051670de0b6b3a76400008082028215828483041417156157b35790509050610c00518080156157b357820490509050610b60525b610b608051610c40518080156157b357820490509050815250610b608051610b005160e052610b205161010052614aef610c806138a2565b610c8051610b60518082028215828483041417156157b357905090506402540be400808204905090508082106157b35780820390509050815250610a2051610b60511015614bae576008610c80527f536c697070616765000000000000000000000000000000000000000000000000610ca052610c8050610c805180610ca001818260206001820306601f82010390500336823750506308c379a0610c40526020610c6052610c805160206001820306601f8201039050604401610c5cfd5b610bc08051610b60518082106157b35780820390509050815250610bc05160016109e05160028110156157b35702601701556004610cc0526000610ce052610cc060200151610aa05118614c63576323b872dd610d00526109a051610d205230610d4052610a0051610d60526020610d006064610d1c6000610b806109c05160028110156157b35760200201515af1614c4c573d600060003e3d6000fd5b601f3d11156157b357610d0051156157b357614dbd565b610b806109c05160028110156157b3576020020151610c80526370a08231610cc05230610ce0526020610cc06024610cdc610c80515afa614ca9573d600060003e3d6000fd5b601f3d11156157b357610cc051610ca0526000610a80600480602084610cc00101826020850160045afa5050805182019150506109a051602082610cc0010152602081019050610a4051602082610cc0010152602081019050610c8051602082610cc0010152602081019050610a0051602082610cc0010152602081019050610b6051602082610cc001015260208101905080610cc052610cc0505060006000610cc051610ce06000610a60515af1614d67573d600060003e3d6000fd5b610a00516370a08231610cc05230610ce0526020610cc06024610cdc610c80515afa614d98573d600060003e3d6000fd5b601f3d11156157b357610cc051610ca0518082106157b35780820390509050186157b3575b63a9059cbb610c8052610a4051610ca052610b6051610cc0526020610c806044610c9c6000610b806109e05160028110156157b35760200201515af1614e08573d600060003e3d6000fd5b601f3d11156157b357610c8051156157b357610bc08051610c40518082028215828483041417156157b3579050905081525060006109e0511115614e7757610bc051610c00518082028215828483041417156157b35790509050670de0b6b3a764000080820490509050610bc0525b610bc051610b006109e05160028110156157b3576020020152620186a0610a005111614ea4576000614eae565b620186a0610b6051115b15614f6e57610a0051610c20518082028215828483041417156157b35790509050610c8052610b6051610c40518082028215828483041417156157b35790509050610ca0526109c05115614f3757610ca051670de0b6b3a76400008082028215828483041417156157b35790509050610c80518080156157b357820490509050610b4052614f6e565b610c8051670de0b6b3a76400008082028215828483041417156157b35790509050610ca0518080156157b357820490509050610b40525b610ac0516106a052610ae0516106c052610b00516106e052610b205161070052610b405161072052600061074052614fa4613ed9565b6109a0517fb2e76ae99761dc136e598d4a629bb347eccb9532a5f8bbd72e18467c3c34cc986109c051610c8052610a0051610ca0526109e051610cc052610b6051610ce0526080610c80a2610b6051815250565b6101a05160e0526101c051610100526150126102006138a2565b6102005160028082028215828483041417156157b357905090506004808204905090506101e05260006102005261024060006002818352015b6020610240510261016001516102205261020080516102205181818301106157b35780820190509050815250815160010180835281141561504b575050610200516002808204905090506102205260006102405261028060006002818352015b602061028051026101600151610260526102205161026051116150fb57610240805161022051610260518082106157b3578082039050905081818301106157b3578082019050905081525061512a565b610240805161026051610220518082106157b3578082039050905081818301106157b357808201905090508152505b81516001018083528114156150ab5750506101e051610240518082028215828483041417156157b35790509050610200518080156157b357820490509050620186a081818301106157b35780820190509050815250565b6318160ddd610580526020610580600461059c602060a038036080396080515afa6151b1573d600060003e3d6000fd5b601f3d11156157b3576105805161056052610560516104e051116157b35760026105005110156157b357601754610580526018546105a05260006105c0526001546020604038036020016080396080518082028215828483041417156157b357905090506105e052610580516020604038036080396080518082028215828483041417156157b35790509050610600526105a0516105e0518082028215828483041417156157b35790509050670de0b6b3a76400008082049050905061062052610500516152a757670de0b6b3a76400006020604038036080396080518082028215828483041417156157b357905090506105e0525b610520516152bb576019546105c0526152ef565b6104a051610200526104c05161022052610600516102405261062051610260526152e6610640612528565b610640516105c0525b6105c051610640526106005160e05261062051610100526153116106806138a2565b61068051610660526104e051610640518082028215828483041417156157b35790509050610560518080156157b3578204905090506106805261064080516106805161066051610680518082028215828483041417156157b357905090506404a817c80080820490509050600181818301106157b357808201905090508082106157b357808203905090508082106157b357808203905090508152506104a05160e0526104c0516101005261060051610120526106205161014052610640516101605261050051610180526153e76106c0612cb7565b6106c0516106a0526106006105005160028110156157b35760200201516106a0518082106157b35780820390509050670de0b6b3a76400008082028215828483041417156157b357905090506105e0518080156157b3578204905090506106c0526106a0516106006105005160028110156157b357602002015260006106e05261054051615476576000615494565b620186a06106c0511161548a576000615494565b620186a06104e051115b156156375760006107005260206040380360803960805161072052600161050051186154fa57610580516020604038036080396080518082028215828483041417156157b357905090506107005260206040380360200160803960805161072052615526565b6105a0516020604038036020016080396080518082028215828483041417156157b35790509050610700525b61070051610680518082028215828483041417156157b357905090506105c0518080156157b3578204905090506107005261070051670de0b6b3a76400008082028215828483041417156157b357905090506106c051610720518082028215828483041417156157b35790509050610680516105806105005160028110156157b35760200201518082028215828483041417156157b35790509050610720518082028215828483041417156157b357905090506105c0518080156157b3578204905090508082106157b357808203905090508080156157b3578204905090506106e05261050051615637576ec097ce7bc90715b34b9f10000000006106e0518080156157b3578204905090506106e0525b6106c05181526106e0516020820152610640516040820152606081016106005181526106205181602001525050565b60e0516156775760008152506157b1565b60e051670de0b6b3a764000081818301106157b357808201905090506002808204905090506101005260e051610120526101406000610100818352015b6101205161010051186156cf575050610120518152506157b1565b610100516101205260e051670de0b6b3a76400008082028215828483041417156157b35790509050610100518080156157b3578204905090506101005181818301106157b357808201905090506002808204905090506101005281516001018083528114156156b45750506010610140527f446964206e6f7420636f6e7665726765000000000000000000000000000000006101605261014050610140518061016001818260206001820306601f82010390500336823750506308c379a0610100526020610120526101405160206001820306601f820103905060440161011cfd5b565b600080fd5b6102ed615aa5036102ed6102c0396102ed615aa5036101a051816102c00152806102e0016101c05181526101e05181602001525080610320016102805181526102a0518160200152508060a0016102c0f35b600080fd"
}