{
  "address": "0x74645758E24D4C8097B010603F3517Dd22403098",
  "abi": [
    {
      "inputs": [
        {
          "internalType": "contract IERC20",
          "name": "_token",
          "type": "address"
        },
        {
          "internalType": "contract IVault",
          "name": "_vault",
          "type": "address"
        }
      ],
      "stateMutability": "nonpayable",
      "type": "constructor"
    },
    {
      "anonymous": false,
      "inputs": [
        {
          "indexed": false,
          "internalType": "uint256",
          "name": "amount",
          "type": "uint256"
        }
      ],
      "name": "LiquidityWithdrawn",
      "type": "event"
    },
    {
      "anonymous": false,
      "inputs": [
        {
          "indexed": true,
          "internalType": "address",
          "name": "sender",
          "type": "address"
        },
        {
          "indexed": true,
          "internalType": "address",
          "name": "recipient",
          "type": "address"
        }
      ],
      "name": "TransferOwner",
      "type": "event"
    },
    {
      "anonymous": false,
      "inputs": [
        {
          "indexed": true,
          "internalType": "address",
          "name": "sender",
          "type": "address"
        },
        {
          "indexed": true,
          "internalType": "address",
          "name": "recipient",
          "type": "address"
        }
      ],
      "name": "TransferOwnerClaim",
      "type": "event"
    },
    {
      "inputs": [],
      "name": "claimOwner",
      "outputs": [],
      "stateMutability": "nonpayable",
      "type": "function"
    },
    {
      "inputs": [],
      "name": "owner",
      "outputs": [
        {
          "internalType": "address",
          "name": "",
          "type": "address"
        }
      ],
      "stateMutability": "view",
      "type": "function"
    },
    {
      "inputs": [],
      "name": "pendingOwner",
      "outputs": [
        {
          "internalType": "address",
          "name": "",
          "type": "address"
        }
      ],
      "stateMutability": "view",
      "type": "function"
    },
    {
      "inputs": [
        {
          "internalType": "uint256",
          "name": "amount",
          "type": "uint256"
        }
      ],
      "name": "settleDebt",
      "outputs": [],
      "stateMutability": "nonpayable",
      "type": "function"
    },
    {
      "inputs": [],
      "name": "token",
      "outputs": [
        {
          "internalType": "contract IERC20",
          "name": "",
          "type": "address"
        }
      ],
      "stateMutability": "view",
      "type": "function"
    },
    {
      "inputs": [
        {
          "internalType": "address",
          "name": "recipient",
          "type": "address"
        },
        {
          "internalType": "bool",
          "name": "direct",
          "type": "bool"
        }
      ],
      "name": "transferOwner",
      "outputs": [],
      "stateMutability": "nonpayable",
      "type": "function"
    },
    {
      "inputs": [],
      "name": "vault",
      "outputs": [
        {
          "internalType": "contract IVault",
          "name": "",
          "type": "address"
        }
      ],
      "stateMutability": "view",
      "type": "function"
    },
    {
      "inputs": [],
      "name": "withdrawRemainder",
      "outputs": [],
      "stateMutability": "nonpayable",
      "type": "function"
    }
  ],
  "transactionHash": "0x89c957f615c5b7c7c31e6cdf3d42ae27722c4a1d6db99db2c43fd5d45d4922fa",
  "args": [
    "0xA7983A9149405D0BE7a740E2f9c1Bd2537EdA310",
    "0xc44dB9557B120d2527065619EA82eE2C192c93d4"
  ],
  "solcInputHash": "c4314880627295fbb14e2440e0d164b2",
  "bytecode": "0x608060405234801561001057600080fd5b50604051610aa5380380610aa583398101604081905261002f9161013a565b600080546001600160a01b0319163390811782556040519091907f5bb496b3f951b55d3a1d8e479725a4d25bdc7644fc355f0b71c540354820a1c5908290a36001600160a01b0382166100be5760405162461bcd60e51b8152602060048201526012602482015271546f6b656e207a65726f206164647265737360701b60448201526064015b60405180910390fd5b6001600160a01b0381166101095760405162461bcd60e51b81526020600482015260126024820152715661756c74207a65726f206164647265737360701b60448201526064016100b5565b600280546001600160a01b039384166001600160a01b0319918216179091556003805492909316911617905561018b565b6000806040838503121561014c578182fd5b825161015781610173565b602084015190925061016881610173565b809150509250929050565b6001600160a01b038116811461018857600080fd5b50565b61090b8061019a6000396000f3fe608060405234801561001057600080fd5b50600436106100885760003560e01c8063cf81afaa1161005b578063cf81afaa146100e1578063e30c3978146100f4578063fbfa77cf14610107578063fc0c546a1461011a57600080fd5b806327a0bb331461008d5780633bd1adec146100a25780638b9b1cbd146100aa5780638da5cb5b146100b2575b600080fd5b6100a061009b366004610815565b61012d565b005b6100a0610231565b6100a06102d7565b6000546100c5906001600160a01b031681565b6040516001600160a01b03909116815260200160405180910390f35b6100a06100ef3660046107b6565b6103e9565b6001546100c5906001600160a01b031681565b6003546100c5906001600160a01b031681565b6002546100c5906001600160a01b031681565b6003546001600160a01b0316331461014457600080fd5b6002546040516370a0823160e01b8152306004820152339183916001600160a01b03909116906370a082319060240160206040518083038186803b15801561018b57600080fd5b505afa15801561019f573d6000803e3d6000fd5b505050506040513d601f19601f820116820180604052508101906101c3919061082d565b10156102165760405162461bcd60e51b815260206004820152601e60248201527f496e73756666696369656e7420696e737572616e63652062616c616e6365000060448201526064015b60405180910390fd5b60025461022d906001600160a01b03168284610513565b5050565b6001546001600160a01b0316331461027f5760405162461bcd60e51b81526020600482015260116024820152702727aa2fa822a72224a723afa7aba722a960791b604482015260640161020d565b6000805460405133926001600160a01b03909216917f5bb496b3f951b55d3a1d8e479725a4d25bdc7644fc355f0b71c540354820a1c591a3600080546001600160a01b03199081163317909155600180549091169055565b6000546001600160a01b0316331461031d5760405162461bcd60e51b81526020600482015260096024820152682727aa2fa7aba722a960b91b604482015260640161020d565b6002546040516370a0823160e01b81523060048201526000916001600160a01b0316906370a082319060240160206040518083038186803b15801561036157600080fd5b505afa158015610375573d6000803e3d6000fd5b505050506040513d601f19601f82011682018060405250810190610399919061082d565b6002549091506103b3906001600160a01b03163383610513565b6040518181527f73ce532f480864bd2fccd1bcdbb4c8151f02cd9450c4f3e5b834ef74503abdb29060200160405180910390a150565b6000546001600160a01b0316331461042f5760405162461bcd60e51b81526020600482015260096024820152682727aa2fa7aba722a960b91b604482015260640161020d565b6001600160a01b0382166104745760405162461bcd60e51b815260206004820152600c60248201526b5a45524f5f4144445245535360a01b604482015260640161020d565b80156104c657600080546001600160a01b0319166001600160a01b0384169081178255604051909133917f5bb496b3f951b55d3a1d8e479725a4d25bdc7644fc355f0b71c540354820a1c59190a35050565b600180546001600160a01b0319166001600160a01b03841690811790915560405133907f87f5c8846f4c51400fa448cfb84edcec5cc0f333b6d20a5b903e050823dcb66790600090a35050565b604080516001600160a01b038416602482015260448082018490528251808303909101815260649091019091526020810180516001600160e01b031663a9059cbb60e01b17905261056590849061056a565b505050565b60006105bf826040518060400160405280602081526020017f5361666545524332303a206c6f772d6c6576656c2063616c6c206661696c6564815250856001600160a01b031661063c9092919063ffffffff16565b80519091501561056557808060200190518101906105dd91906107f9565b6105655760405162461bcd60e51b815260206004820152602a60248201527f5361666545524332303a204552433230206f7065726174696f6e20646964206e6044820152691bdd081cdd58d8d9595960b21b606482015260840161020d565b606061064b8484600085610655565b90505b9392505050565b6060824710156106b65760405162461bcd60e51b815260206004820152602660248201527f416464726573733a20696e73756666696369656e742062616c616e636520666f6044820152651c8818d85b1b60d21b606482015260840161020d565b843b6107045760405162461bcd60e51b815260206004820152601d60248201527f416464726573733a2063616c6c20746f206e6f6e2d636f6e7472616374000000604482015260640161020d565b600080866001600160a01b031685876040516107209190610845565b60006040518083038185875af1925050503d806000811461075d576040519150601f19603f3d011682016040523d82523d6000602084013e610762565b606091505b509150915061077282828661077d565b979650505050505050565b6060831561078c57508161064e565b82511561079c5782518084602001fd5b8160405162461bcd60e51b815260040161020d9190610861565b600080604083850312156107c8578182fd5b82356001600160a01b03811681146107de578283fd5b915060208301356107ee816108c4565b809150509250929050565b60006020828403121561080a578081fd5b815161064e816108c4565b600060208284031215610826578081fd5b5035919050565b60006020828403121561083e578081fd5b5051919050565b60008251610857818460208701610894565b9190910192915050565b6020815260008251806020840152610880816040850160208701610894565b601f01601f19169190910160400192915050565b60005b838110156108af578181015183820152602001610897565b838111156108be576000848401525b50505050565b80151581146108d257600080fd5b5056fea264697066735822122077cb194ae497d8dacdfd762fbb73dc359e2a292782795dae0adb718cae8827f764736f6c63430008040033",
  "devdoc": {
    "kind": "dev",
    "methods": {
      "settleDebt(uint256)": {
        "params": {
          "amount": "Amount of tokens to settle"
        }
      },
      "transferOwner(address,bool)": {
        "params": {
          "direct": "If 'true', ownership is directly transferred.",
          "recipient": "Account granted `owner` access control."
        }
      },
      "withdrawRemainder()": {
        "details": "Only be called by the owner of the contract"
      }
    },
    "version": 1
  },
  "userdoc": {
    "events": {
      "LiquidityWithdrawn(uint256)": {
        "notice": "Emitted when insurance reserves are withdrawn by governance"
      }
    },
    "kind": "user",
    "methods": {
      "claimOwner()": {
        "notice": "`pendingOwner` can claim `owner` account."
      },
      "settleDebt(uint256)": {
        "notice": "Settle bad debt generated by the vault"
      },
      "token()": {
        "notice": "Insurance token"
      },
      "transferOwner(address,bool)": {
        "notice": "Transfer `owner` account."
      },
      "vault()": {
        "notice": "Vault contract"
      },
      "withdrawRemainder()": {
        "notice": "Remain remaining balance of the contract"
      }
    },
    "notice": "Pays out Vault in case of default",
    "version": 1
  },
  "storageLayout": {
    "storage": [
      {
        "astId": 9173,
        "contract": "contracts/Insurance.sol:Insurance",
        "label": "owner",
        "offset": 0,
        "slot": "0",
        "type": "t_address"
      },
      {
        "astId": 9175,
        "contract": "contracts/Insurance.sol:Insurance",
        "label": "pendingOwner",
        "offset": 0,
        "slot": "1",
        "type": "t_address"
      },
      {
        "astId": 4091,
        "contract": "contracts/Insurance.sol:Insurance",
        "label": "token",
        "offset": 0,
        "slot": "2",
        "type": "t_contract(IERC20)906"
      },
      {
        "astId": 4095,
        "contract": "contracts/Insurance.sol:Insurance",
        "label": "vault",
        "offset": 0,
        "slot": "3",
        "type": "t_contract(IVault)7840"
      }
    ],
    "types": {
      "t_address": {
        "encoding": "inplace",
        "label": "address",
        "numberOfBytes": "20"
      },
      "t_contract(IERC20)906": {
        "encoding": "inplace",
        "label": "contract IERC20",
        "numberOfBytes": "20"
      },
      "t_contract(IVault)7840": {
        "encoding": "inplace",
        "label": "contract IVault",
        "numberOfBytes": "20"
      }
    }
  }
}