{
  "address": "0xAe762440aF2f349987a9F3f7F4297ED476bd08a8",
  "abi": [
    {
      "inputs": [
        {
          "internalType": "contract IVBase",
          "name": "_vBase",
          "type": "address"
        },
        {
          "internalType": "contract IVQuote",
          "name": "_vQuote",
          "type": "address"
        },
        {
          "internalType": "contract ICryptoSwap",
          "name": "_market",
          "type": "address"
        },
        {
          "internalType": "contract IClearingHouse",
          "name": "_clearingHouse",
          "type": "address"
        }
      ],
      "stateMutability": "nonpayable",
      "type": "constructor"
    },
    {
      "inputs": [],
      "name": "PRBMathSD59x18__AbsInputTooSmall",
      "type": "error"
    },
    {
      "inputs": [],
      "name": "PRBMathSD59x18__DivInputTooSmall",
      "type": "error"
    },
    {
      "inputs": [
        {
          "internalType": "uint256",
          "name": "rAbs",
          "type": "uint256"
        }
      ],
      "name": "PRBMathSD59x18__DivOverflow",
      "type": "error"
    },
    {
      "inputs": [],
      "name": "PRBMathSD59x18__MulInputTooSmall",
      "type": "error"
    },
    {
      "inputs": [
        {
          "internalType": "uint256",
          "name": "rAbs",
          "type": "uint256"
        }
      ],
      "name": "PRBMathSD59x18__MulOverflow",
      "type": "error"
    },
    {
      "inputs": [
        {
          "internalType": "uint256",
          "name": "prod1",
          "type": "uint256"
        }
      ],
      "name": "PRBMath__MulDivFixedPointOverflow",
      "type": "error"
    },
    {
      "inputs": [
        {
          "internalType": "uint256",
          "name": "prod1",
          "type": "uint256"
        },
        {
          "internalType": "uint256",
          "name": "denominator",
          "type": "uint256"
        }
      ],
      "name": "PRBMath__MulDivOverflow",
      "type": "error"
    },
    {
      "anonymous": false,
      "inputs": [
        {
          "indexed": false,
          "internalType": "uint256",
          "name": "vBaseAmount",
          "type": "uint256"
        }
      ],
      "name": "DustGenerated",
      "type": "event"
    },
    {
      "anonymous": false,
      "inputs": [
        {
          "indexed": false,
          "internalType": "int256",
          "name": "cumulativeFundingRate",
          "type": "int256"
        },
        {
          "indexed": false,
          "internalType": "int256",
          "name": "fundingRate",
          "type": "int256"
        }
      ],
      "name": "FundingRateUpdated",
      "type": "event"
    },
    {
      "anonymous": false,
      "inputs": [
        {
          "indexed": false,
          "internalType": "string",
          "name": "errorMessage",
          "type": "string"
        }
      ],
      "name": "Log",
      "type": "event"
    },
    {
      "anonymous": false,
      "inputs": [
        {
          "indexed": false,
          "internalType": "int256",
          "name": "newOracleTwap",
          "type": "int256"
        },
        {
          "indexed": false,
          "internalType": "int256",
          "name": "newMarketTwap",
          "type": "int256"
        }
      ],
      "name": "TwapUpdated",
      "type": "event"
    },
    {
      "inputs": [],
      "name": "clearingHouse",
      "outputs": [
        {
          "internalType": "contract IClearingHouse",
          "name": "",
          "type": "address"
        }
      ],
      "stateMutability": "view",
      "type": "function"
    },
    {
      "inputs": [
        {
          "internalType": "address",
          "name": "account",
          "type": "address"
        },
        {
          "internalType": "uint256",
          "name": "amount",
          "type": "uint256"
        },
        {
          "internalType": "enum LibPerpetual.Side",
          "name": "direction",
          "type": "uint8"
        },
        {
          "internalType": "uint256",
          "name": "minAmount",
          "type": "uint256"
        }
      ],
      "name": "extendPosition",
      "outputs": [
        {
          "internalType": "int256",
          "name": "openNotional",
          "type": "int256"
        },
        {
          "internalType": "int256",
          "name": "positionSize",
          "type": "int256"
        },
        {
          "internalType": "int256",
          "name": "fundingPayments",
          "type": "int256"
        }
      ],
      "stateMutability": "nonpayable",
      "type": "function"
    },
    {
      "inputs": [
        {
          "internalType": "address",
          "name": "account",
          "type": "address"
        }
      ],
      "name": "getFundingPayments",
      "outputs": [
        {
          "internalType": "int256",
          "name": "upcomingFundingPayment",
          "type": "int256"
        }
      ],
      "stateMutability": "view",
      "type": "function"
    },
    {
      "inputs": [],
      "name": "getGlobalPosition",
      "outputs": [
        {
          "components": [
            {
              "internalType": "uint128",
              "name": "timeOfLastTrade",
              "type": "uint128"
            },
            {
              "internalType": "uint128",
              "name": "timeOfLastTwapUpdate",
              "type": "uint128"
            },
            {
              "internalType": "int256",
              "name": "cumFundingRate",
              "type": "int256"
            },
            {
              "internalType": "int256",
              "name": "blockStartPrice",
              "type": "int256"
            }
          ],
          "internalType": "struct LibPerpetual.GlobalPosition",
          "name": "",
          "type": "tuple"
        }
      ],
      "stateMutability": "view",
      "type": "function"
    },
    {
      "inputs": [
        {
          "internalType": "address",
          "name": "account",
          "type": "address"
        }
      ],
      "name": "getLpPosition",
      "outputs": [
        {
          "components": [
            {
              "internalType": "int256",
              "name": "openNotional",
              "type": "int256"
            },
            {
              "internalType": "int256",
              "name": "positionSize",
              "type": "int256"
            },
            {
              "internalType": "int256",
              "name": "cumFundingRate",
              "type": "int256"
            },
            {
              "internalType": "uint256",
              "name": "liquidityBalance",
              "type": "uint256"
            }
          ],
          "internalType": "struct LibPerpetual.UserPosition",
          "name": "",
          "type": "tuple"
        }
      ],
      "stateMutability": "view",
      "type": "function"
    },
    {
      "inputs": [],
      "name": "getMarketTwap",
      "outputs": [
        {
          "internalType": "int256",
          "name": "",
          "type": "int256"
        }
      ],
      "stateMutability": "view",
      "type": "function"
    },
    {
      "inputs": [],
      "name": "getOracleTwap",
      "outputs": [
        {
          "internalType": "int256",
          "name": "",
          "type": "int256"
        }
      ],
      "stateMutability": "view",
      "type": "function"
    },
    {
      "inputs": [],
      "name": "getTotalLiquidityProvided",
      "outputs": [
        {
          "internalType": "uint256",
          "name": "",
          "type": "uint256"
        }
      ],
      "stateMutability": "view",
      "type": "function"
    },
    {
      "inputs": [
        {
          "internalType": "address",
          "name": "account",
          "type": "address"
        }
      ],
      "name": "getTraderPosition",
      "outputs": [
        {
          "components": [
            {
              "internalType": "int256",
              "name": "openNotional",
              "type": "int256"
            },
            {
              "internalType": "int256",
              "name": "positionSize",
              "type": "int256"
            },
            {
              "internalType": "int256",
              "name": "cumFundingRate",
              "type": "int256"
            },
            {
              "internalType": "uint256",
              "name": "liquidityBalance",
              "type": "uint256"
            }
          ],
          "internalType": "struct LibPerpetual.UserPosition",
          "name": "",
          "type": "tuple"
        }
      ],
      "stateMutability": "view",
      "type": "function"
    },
    {
      "inputs": [
        {
          "internalType": "address",
          "name": "account",
          "type": "address"
        }
      ],
      "name": "getUnrealizedPnL",
      "outputs": [
        {
          "internalType": "int256",
          "name": "",
          "type": "int256"
        }
      ],
      "stateMutability": "view",
      "type": "function"
    },
    {
      "inputs": [],
      "name": "indexPrice",
      "outputs": [
        {
          "internalType": "int256",
          "name": "",
          "type": "int256"
        }
      ],
      "stateMutability": "view",
      "type": "function"
    },
    {
      "inputs": [],
      "name": "market",
      "outputs": [
        {
          "internalType": "contract ICryptoSwap",
          "name": "",
          "type": "address"
        }
      ],
      "stateMutability": "view",
      "type": "function"
    },
    {
      "inputs": [],
      "name": "marketPrice",
      "outputs": [
        {
          "internalType": "uint256",
          "name": "lastPrice",
          "type": "uint256"
        }
      ],
      "stateMutability": "view",
      "type": "function"
    },
    {
      "inputs": [
        {
          "internalType": "address",
          "name": "account",
          "type": "address"
        },
        {
          "internalType": "uint256",
          "name": "wadAmount",
          "type": "uint256"
        },
        {
          "internalType": "uint256",
          "name": "minLpAmount",
          "type": "uint256"
        }
      ],
      "name": "provideLiquidity",
      "outputs": [
        {
          "internalType": "uint256",
          "name": "baseAmount",
          "type": "uint256"
        },
        {
          "internalType": "int256",
          "name": "fundingPayments",
          "type": "int256"
        }
      ],
      "stateMutability": "nonpayable",
      "type": "function"
    },
    {
      "inputs": [
        {
          "internalType": "address",
          "name": "account",
          "type": "address"
        },
        {
          "internalType": "uint256",
          "name": "proposedAmount",
          "type": "uint256"
        },
        {
          "internalType": "uint256",
          "name": "minAmount",
          "type": "uint256"
        }
      ],
      "name": "reducePosition",
      "outputs": [
        {
          "internalType": "int256",
          "name": "vQuoteProceeds",
          "type": "int256"
        },
        {
          "internalType": "int256",
          "name": "vBaseAmount",
          "type": "int256"
        },
        {
          "internalType": "int256",
          "name": "profit",
          "type": "int256"
        }
      ],
      "stateMutability": "nonpayable",
      "type": "function"
    },
    {
      "inputs": [
        {
          "internalType": "address",
          "name": "account",
          "type": "address"
        },
        {
          "internalType": "uint256",
          "name": "liquidityAmountToRemove",
          "type": "uint256"
        },
        {
          "internalType": "uint256[2]",
          "name": "minVTokenAmounts",
          "type": "uint256[2]"
        }
      ],
      "name": "removeLiquidity",
      "outputs": [
        {
          "internalType": "uint256",
          "name": "quoteAmount",
          "type": "uint256"
        },
        {
          "internalType": "uint256",
          "name": "baseAmount",
          "type": "uint256"
        },
        {
          "internalType": "int256",
          "name": "fundingPayments",
          "type": "int256"
        }
      ],
      "stateMutability": "nonpayable",
      "type": "function"
    },
    {
      "inputs": [
        {
          "internalType": "address",
          "name": "account",
          "type": "address"
        },
        {
          "internalType": "uint256",
          "name": "proposedAmount",
          "type": "uint256"
        },
        {
          "internalType": "uint256",
          "name": "minAmount",
          "type": "uint256"
        }
      ],
      "name": "settleLiquidityProvider",
      "outputs": [
        {
          "internalType": "int256",
          "name": "vQuoteProceeds",
          "type": "int256"
        },
        {
          "internalType": "int256",
          "name": "vBaseAmount",
          "type": "int256"
        },
        {
          "internalType": "int256",
          "name": "profit",
          "type": "int256"
        }
      ],
      "stateMutability": "nonpayable",
      "type": "function"
    },
    {
      "inputs": [],
      "name": "updateTwapAndFundingRate",
      "outputs": [],
      "stateMutability": "nonpayable",
      "type": "function"
    },
    {
      "inputs": [],
      "name": "vBase",
      "outputs": [
        {
          "internalType": "contract IVBase",
          "name": "",
          "type": "address"
        }
      ],
      "stateMutability": "view",
      "type": "function"
    },
    {
      "inputs": [],
      "name": "vQuote",
      "outputs": [
        {
          "internalType": "contract IVQuote",
          "name": "",
          "type": "address"
        }
      ],
      "stateMutability": "view",
      "type": "function"
    }
  ],
  "transactionHash": "0xa9012b397020b152953a34b9c9bfbf66dce9fa4fb262851a902dfd495ce41a63",
  "args": [
    "0x37f4F74a4f176204633B166BE78aA97Eea06bb35",
    "0x969df9D426eD0322Ce88d3A2644F8C9C19119bc5",
    "0xbe3987495D2A52ccbeFc8C0E0275Edd11ADD8850",
    "0xE6a00Bf6De69226E23df9652820fAc5a422DD2B8"
  ],
  "solcInputHash": "c4314880627295fbb14e2440e0d164b2",
  "bytecode": "0x60806040523480156200001157600080fd5b50604051620030d6380380620030d6833981016040819052620000349162000581565b6001600160a01b038416620000845760405162461bcd60e51b8152602060048201526011602482015270076426173652063616e6e6f74206265203607c1b60448201526064015b60405180910390fd5b6001600160a01b038316620000d15760405162461bcd60e51b815260206004820152601260248201527107651756f74652063616e6e6f7420626520360741b60448201526064016200007b565b6001600160a01b0382166200011e5760405162461bcd60e51b815260206004820152601260248201527106d61726b65742063616e6e6f7420626520360741b60448201526064016200007b565b6001600160a01b038116620001765760405162461bcd60e51b815260206004820152601960248201527f436c656172696e67486f7573652063616e6e6f7420626520300000000000000060448201526064016200007b565b600080546001600160a01b03199081166001600160a01b03878116918217909355600180548316878516179055600380548316868516908117909155600280549093169385169390931790915560405163095ea7b360e01b8152600481019290925260001960248301529063095ea7b390604401602060405180830381600087803b1580156200020557600080fd5b505af11580156200021a573d6000803e3d6000fd5b505050506040513d601f19601f8201168201806040525081019062000240919062000558565b620002a85760405162461bcd60e51b815260206004820152603160248201527f4e4f20415050524f56414c2e20544f444f3a20504c5a204348414e47452054486044820152701254c81513c8111554925391c810d05313607a1b60648201526084016200007b565b60015460035460405163095ea7b360e01b81526001600160a01b039182166004820152600019602482015291169063095ea7b390604401602060405180830381600087803b158015620002fa57600080fd5b505af11580156200030f573d6000803e3d6000fd5b505050506040513d601f19601f8201168201806040525081019062000335919062000558565b620003715760405162461bcd60e51b815260206004820152600b60248201526a1393c81054141493d5905360aa1b60448201526064016200007b565b620004c0846001600160a01b03166358c0994a6040518163ffffffff1660e01b815260040160206040518083038186803b158015620003af57600080fd5b505afa158015620003c4573d6000803e3d6000fd5b505050506040513d601f19601f82011682018060405250810190620003ea9190620005e8565b62000474846001600160a01b031663c146bf946040518163ffffffff1660e01b815260040160206040518083038186803b1580156200042857600080fd5b505afa1580156200043d573d6000803e3d6000fd5b505050506040513d601f19601f82011682018060405250810190620004639190620005e8565b620004ca60201b620016d51760201c565b600991909155600c819055604080516080810182526001600160801b0342168082526020820181905260009282018390526060909101839052600160801b810217600455600555600655565b505050506200061a565b6000620004e282620004e860201b620016e61760201c565b92915050565b60006001600160ff1b03821115620005545760405162461bcd60e51b815260206004820152602860248201527f53616665436173743a2076616c756520646f65736e27742066697420696e2061604482015267371034b73a191a9b60c11b60648201526084016200007b565b5090565b6000602082840312156200056a578081fd5b815180151581146200057a578182fd5b9392505050565b6000806000806080858703121562000597578283fd5b8451620005a48162000601565b6020860151909450620005b78162000601565b6040860151909350620005ca8162000601565b6060860151909250620005dd8162000601565b939692955090935050565b600060208284031215620005fa578081fd5b5051919050565b6001600160a01b03811681146200061757600080fd5b50565b612aac806200062a6000396000f3fe608060405234801561001057600080fd5b506004361061012c5760003560e01c8063793962d8116100ad578063b3628d8411610071578063b3628d8414610347578063c34ec19114610351578063c5f1916c14610364578063cefc499314610377578063d57ba73c1461038a57600080fd5b8063793962d8146102345780637f564fea1461027a57806380f556051461028257806389fd335b146102955780639027b59e1461029d57600080fd5b806345a15388116100f457806345a15388146101e05780634bc36bd6146101e8578063508fbda6146101fb578063544305bf1461020e5780635b57398c1461022157600080fd5b80630a2a1d96146101315780630af968001461016457806310bace8c1461018f57806316d183f0146101a55780632bb9c958146101b8575b600080fd5b61014461013f3660046126df565b610392565b604080519384526020840192909252908201526060015b60405180910390f35b600254610177906001600160a01b031681565b6040516001600160a01b03909116815260200161015b565b6101976109df565b60405190815260200161015b565b6101446101b336600461276d565b610a6b565b6101cb6101c636600461276d565b610c39565b6040805192835260208301919091520161015b565b610197610ffc565b600154610177906001600160a01b031681565b6101976102093660046126a7565b611041565b61019761021c3660046126a7565b6110f6565b61014461022f366004612723565b611173565b6102476102423660046126a7565b6113ad565b60405161015b91908151815260208083015190820152604080830151908201526060918201519181019190915260800190565b600954610197565b600354610177906001600160a01b031681565b610197611426565b61030260408051608081018252600080825260208201819052918101829052606081019190915250604080516080810182526004546001600160801b038082168352600160801b90910416602082015260055491810191909152600654606082015290565b60405161015b919060006080820190506001600160801b0380845116835280602085015116602084015250604083015160408301526060830151606083015292915050565b61034f6114db565b005b61014461035f36600461276d565b61150f565b600054610177906001600160a01b031681565b6102476103853660046126a7565b61165c565b600c54610197565b600254600090819081906001600160a01b031633146103cc5760405162461bcd60e51b81526004016103c390612821565b60405180910390fd5b6001600160a01b0386166000908152600e6020526040902060046103ee6114db565b81600301548711156104585760405162461bcd60e51b815260206004820152602d60248201527f43616e6e6f742072656d6f7665206d6f7265206c69717569646974792074686160448201526c1b881314081c1c9bdd9a591959609a1b60648201526084016103c3565b6104628282611754565b9250868260030160008282546104789190612a01565b90915550506001546040516370a0823160e01b81523060048201526000916001600160a01b0316906370a082319060240160206040518083038186803b1580156104c157600080fd5b505afa1580156104d5573d6000803e3d6000fd5b505050506040513d601f19601f820116820180604052508101906104f991906127a1565b600080546040516370a0823160e01b815230600482015292935090916001600160a01b03909116906370a082319060240160206040518083038186803b15801561054257600080fd5b505afa158015610556573d6000803e3d6000fd5b505050506040513d601f19601f8201168201806040525081019061057a91906127a1565b6003546040516316cd8e2760e21b81529192506001600160a01b031690635b36389c906105ad908c908c9060040161286b565b600060405180830381600087803b1580156105c757600080fd5b505af11580156105db573d6000803e3d6000fd5b50506001546003546040516370a0823160e01b81526001600160a01b03918216600482015260009450911691506370a082319060240160206040518083038186803b15801561062957600080fd5b505afa15801561063d573d6000803e3d6000fd5b505050506040513d601f19601f8201168201806040525081019061066191906127a1565b116106a55760405162461bcd60e51b8152602060048201526014602482015273165bdd48189c9bdad9481d1a19481b585c9ad95d60621b60448201526064016103c3565b600080546003546040516370a0823160e01b81526001600160a01b0391821660048201529116906370a082319060240160206040518083038186803b1580156106ed57600080fd5b505afa158015610701573d6000803e3d6000fd5b505050506040513d601f19601f8201168201806040525081019061072591906127a1565b116107695760405162461bcd60e51b8152602060048201526014602482015273165bdd48189c9bdad9481d1a19481b585c9ad95d60621b60448201526064016103c3565b6001546040516370a0823160e01b81523060048201526000916001600160a01b0316906370a082319060240160206040518083038186803b1580156107ad57600080fd5b505afa1580156107c1573d6000803e3d6000fd5b505050506040513d601f19601f820116820180604052508101906107e591906127a1565b600080546040516370a0823160e01b815230600482015292935090916001600160a01b03909116906370a082319060240160206040518083038186803b15801561082e57600080fd5b505afa158015610842573d6000803e3d6000fd5b505050506040513d601f19601f8201168201806040525081019061086691906127a1565b90506108728483612a01565b985061087e8382612a01565b600154604051630852cd8d60e31b8152600481018c90529199506001600160a01b0316906342966c6890602401600060405180830381600087803b1580156108c557600080fd5b505af11580156108d9573d6000803e3d6000fd5b5050600054604051630852cd8d60e31b8152600481018c90526001600160a01b0390911692506342966c689150602401600060405180830381600087803b15801561092357600080fd5b505af1158015610937573d6000803e3d6000fd5b5050505050505050610948856116d5565b82600001600082825461095b9190612885565b9091555061096a9050846116d5565b82600101600082825461097d9190612885565b9091555050600182015415801561099657506003820154155b80156109a157508154155b156109d4576001600160a01b0388166000908152600e602052604081208181556001810182905560028101829055600301555b505093509350939050565b60008060009054906101000a90046001600160a01b03166001600160a01b03166358c0994a6040518163ffffffff1660e01b815260040160206040518083038186803b158015610a2e57600080fd5b505afa158015610a42573d6000803e3d6000fd5b505050506040513d601f19601f82011682018060405250810190610a6691906127a1565b905090565b600254600090819081906001600160a01b03163314610a9c5760405162461bcd60e51b81526004016103c390612821565b6001600160a01b0386166000908152600d602052604090208054600490151580610ac95750600182015415155b610b295760405162461bcd60e51b815260206004820152602b60248201527f4e6f20706f736974696f6e2063757272656e746c79206f70656e656420696e2060448201526a1d1a1a5cc81b585c9ad95d60aa1b60648201526084016103c3565b610b316114db565b60408051608081018252835481526001840154602082015260028401549181019190915260038301546060820152600090610b6d9089896117c2565b9097509095509050610b90610b88610b83610ffc565b6116d5565b6006546118c3565b610bac5760405162461bcd60e51b81526004016103c3906127f1565b610bb68383611902565b610bc09082612885565b935085836000016000828254610bd69190612885565b9250508190555084836001016000828254610bf19190612885565b90915550506001830154610c2d576001600160a01b0389166000908152600d602052604081208181556001810182905560028101829055600301555b50505093509350939050565b60025460009081906001600160a01b03163314610c685760405162461bcd60e51b81526004016103c390612821565b610c706114db565b506001600160a01b0384166000908152600e60205260408120600554600282015414801590610ca25750600281015415155b15610d085760408051608081018252825481526001830154602082015260028301549181019190915260038201546060820152600090610ce190611945565b9050610d04818360020154600460010154610cff8660010154611971565b61197c565b9250505b6000610d12611426565b610d2557610d1e610ffc565b9050610e28565b600354604051634903b0d160e01b815260016004820152610e25916001600160a01b031690634903b0d19060240160206040518083038186803b158015610d6b57600080fd5b505afa158015610d7f573d6000803e3d6000fd5b505050506040513d601f19601f82011682018060405250810190610da391906127a1565b600354604051634903b0d160e01b8152600060048201526001600160a01b0390911690634903b0d19060240160206040518083038186803b158015610de757600080fd5b505afa158015610dfb573d6000803e3d6000fd5b505050506040513d601f19601f82011682018060405250810190610e1f91906127a1565b906119bd565b90505b610e3286826119bd565b60015460405163140e25ad60e31b8152600481018990529195506001600160a01b03169063a0712d6890602401600060405180830381600087803b158015610e7957600080fd5b505af1158015610e8d573d6000803e3d6000fd5b505060005460405163140e25ad60e31b8152600481018890526001600160a01b03909116925063a0712d689150602401600060405180830381600087803b158015610ed757600080fd5b505af1158015610eeb573d6000803e3d6000fd5b50506003546040805180820182528a8152602081018990529051630b4c7e4d60e01b8152600094506001600160a01b039092169250630b4c7e4d91610f3591908a906004016127b9565b602060405180830381600087803b158015610f4f57600080fd5b505af1158015610f63573d6000803e3d6000fd5b505050506040513d601f19601f82011682018060405250810190610f8791906127a1565b9050610f92876116d5565b836000016000828254610fa591906129c2565b90915550610fb49050856116d5565b836001016000828254610fc791906129c2565b90915550506005546002840155600383018054829190600090610feb9084906128c6565b90915550505050505b935093915050565b60035460408051633051afe560e21b815290516000926001600160a01b03169163c146bf94916004808301926020929190829003018186803b158015610a2e57600080fd5b6001600160a01b0381166000908152600d6020908152604080832081516080808201845282548252600183015482860152600283015482850152600390920154606080830191909152835192830184526004546001600160801b038082168552600160801b9091041694830194909452600554928201929092526006549281019290925290826110d083611945565b90506110ed8184604001518460400151610cff8760200151611971565b95945050505050565b6001600160a01b0381166000908152600d6020908152604080832081516080810183528154815260018201549381019390935260028101549183019190915260030154606082015281611148600c5490565b905060006111638284602001516119d090919063ffffffff16565b83519091506110ed908290612885565b600254600090819081906001600160a01b031633146111a45760405162461bcd60e51b81526004016103c390612821565b6001600160a01b0387166000908152600d6020526040812090600490808860018111156111e157634e487b7160e01b600052602160045260246000fd5b146111ed5760006111f0565b60015b9050801561128d576001600160a01b038a166000908152600d602052604081206001015412156112885760405162461bcd60e51b815260206004820152603f60248201527f43616e6e6f74207265647563652f636c6f736520612053484f525420706f736960448201527f74696f6e206279206f70656e696e672061204c4f4e4720706f736974696f6e0060648201526084016103c3565b61131d565b6001600160a01b038a166000908152600d6020526040812060010154131561131d5760405162461bcd60e51b815260206004820152603f60248201527f43616e6e6f74207265647563652f636c6f73652061204c4f4e4720706f73697460448201527f696f6e206279206f70656e696e6720612053484f525420706f736974696f6e0060648201526084016103c3565b6113256114db565b6113308982896119dc565b9096509450611343610b88610b83610ffc565b61135f5760405162461bcd60e51b81526004016103c3906127f1565b6113698383611902565b93508583600001600082825461137f9190612885565b925050819055508483600101600082825461139a9190612885565b90915550505050505b9450945094915050565b6113d86040518060800160405280600081526020016000815260200160008152602001600081525090565b506001600160a01b03166000908152600d6020908152604091829020825160808101845281548152600182015492810192909252600281015492820192909252600390910154606082015290565b60035460408051637e062a3560e11b815290516000926001600160a01b03169163fc0c546a916004808301926020929190829003018186803b15801561146b57600080fd5b505afa15801561147f573d6000803e3d6000fd5b505050506040513d601f19601f820116820180604052508101906114a391906126c3565b6001600160a01b03166318160ddd6040518163ffffffff1660e01b815260040160206040518083038186803b158015610a2e57600080fd5b6004805442906001600160801b03168082111561150a576114fa611a38565b611502611a48565b61150a611bad565b505050565b600254600090819081906001600160a01b031633146115405760405162461bcd60e51b81526004016103c390612821565b6001600160a01b0386166000908152600e6020526040902060046115626114db565b6040805160808101825283548152600184015460208201526002840154918101919091526003830154606082015260009061159e9089896117c2565b90975090955090506115b4610b88610b83610ffc565b6115d05760405162461bcd60e51b81526004016103c3906127f1565b6115da8383611902565b6115e49082612885565b9350858360000160008282546115fa9190612885565b92505081905550848360010160008282546116159190612885565b90915550506001830154610c2d576001600160a01b0389166000908152600e6020526040812081815560018101829055600281018290556003015550505093509350939050565b6116876040518060800160405280600081526020016000815260200160008152602001600081525090565b506001600160a01b03166000908152600e6020908152604091829020825160808101845281548152600182015492810192909252600281015492820192909252600390910154606082015290565b60006116e0826116e6565b92915050565b60006001600160ff1b038211156117505760405162461bcd60e51b815260206004820152602860248201527f53616665436173743a2076616c756520646f65736e27742066697420696e2061604482015267371034b73a191a9b60c11b60648201526084016103c3565b5090565b60008061179384604051806080016040529081600082015481526020016001820154815260200160028201548152602001600382015481525050611cb2565b90506117af6000821385600201548560010154610cff85611971565b6001840154600286015591505092915050565b6000806000806117d187611945565b90506117e281886020015188611d6f565b61187a5760405162461bcd60e51b815260206004820152605b60248201527f416d6f756e74207375626d697474656420746f6f206661722066726f6d20746860448201527f65206d61726b6574207072696365206f662074686520706f736974696f6e206f60648201527f7220657863656564732074686520706f736974696f6e2073697a650000000000608482015260a4016103c3565b600061188c8289602001518989611ddf565b9196509450905060006118a96118a1836116d5565b8a51906119d0565b90506118b58186612885565b935050505093509350939050565b60006118d76118d283856129c2565b611971565b6118e990670de0b6b3a7640000612920565b6118fa8466b1a2bc2ec50000612920565b139392505050565b6000826001015460001461193557611932600084600101541384600201548460010154610cff8760010154611971565b90505b6001820154600284015592915050565b600081606001516000141561195f57506020015160001290565b600061196a83611cb2565b1392915050565b60006116e082611f19565b60008284146119b55760008561199b5761199685856129c2565b6119a5565b6119a584866129c2565b90506119b181846119d0565b9150505b949350505050565b60006119c98383611f55565b9392505050565b60006119c98383611f6a565b6000808315611a0d576119ee856116d5565b6119f790612a18565b9150611a06610b83868561202f565b9050610ff4565b611a1a610b838685612187565b9150611a25856116d5565b611a2e90612a18565b9050935093915050565b611a43610b83610ffc565b600655565b6004544290600090611a6790610b83906001600160801b031684612a01565b90506000611a736109df565b9050611a7f8282612920565b60076000828254611a909190612885565b9091555060009050611aa3610b83610ffc565b9050611aaf8382612920565b600a6000828254611ac09190612885565b9091555050600454600090611ae590600160801b90046001600160801b031642612a01565b90506103848110611ba657611af9816116d5565b600854600754611b0991906129c2565b611b1391906128de565b600955611b1f816116d5565b600b54600a54611b2f91906129c2565b611b3991906128de565b600c819055600754600855600a54600b55600480546001600160801b03428116600160801b0291161790556009546040517fd58b1a969d6ffc9c51fce55b333b20b1f3feace5e8a7ec000f124c019823348492611b9d928252602082015260400190565b60405180910390a15b5050505050565b6004426000611bbb600c5490565b90506000611bc860095490565b90506000611be082611bda81866129c2565b906122ab565b8554909150600090611bff90610b83906001600160801b031687612a01565b905060006201518082611c1a670de0b6b3a7640000866119d0565b611c249190612920565b611c2e91906128de565b905080876001016000828254611c449190612885565b909155505086546fffffffffffffffffffffffffffffffff19166001600160801b038716178755600187015460408051918252602082018390527f83b8bd3a9f97bed75f923bfd5746ac7dbb823ba73c2e68e4fa906e29e3da4ab4910160405180910390a150505050505050565b60006001611d56611cc1611426565b6060850151600354604051634903b0d160e01b8152600160048201526001600160a01b0390911690634903b0d19060240160206040518083038186803b158015611d0a57600080fd5b505afa158015611d1e573d6000803e3d6000fd5b505050506040513d601f19601f82011682018060405250810190611d4291906127a1565b611d4c91906129a3565b610b83919061290c565b8360200151611d659190612885565b6116e091906129c2565b60008315611d9257611d88611d8384611971565b6122b7565b82111590506119c9565b6000611d9d84612a18565b90506000611dc7826002600c54611db491906128de565b600c54611dc19190612885565b906119d0565b905080611dd3856116d5565b13159695505050505050565b60008060008615611e35576000611df68686612187565b9050611e01816116d5565b9250611e0c866116d5565b611e1590612a18565b9350611e2d611e26611d8389611971565b87906119bd565b9150506113a3565b6000611e43611d8388612a18565b90506000611e51878761202f565b905060008083831115611ec657611e688484612a01565b9050611e73816122c2565b15611e8a57611e83816000612187565b9150611ec6565b6040518181527f56dd3b38618f9202d3cd3e3b1b0b979b53c56ca0b3847420ce3b2f2cc2cff7df9060200160405180910390a1611ec6816123b3565b611ecf826116d5565b611ed88a6116d5565b611ee190612a18565b611eeb9190612885565b9550611efa610b838285612a01565b9650611f0984610e1f896122b7565b9450505050509450945094915050565b6000600160ff1b821415611f4057604051631d0742e360e21b815260040160405180910390fd5b60008212611f4e57816116e0565b5060000390565b60006119c983670de0b6b3a7640000846123f1565b6000600160ff1b831480611f815750600160ff1b82145b15611f9f57604051630d01a11b60e21b815260040160405180910390fd5b60008060008512611fb05784611fb5565b846000035b915060008412611fc55783611fca565b836000035b90506000611fd883836124cd565b90506001600160ff1b038111156120055760405163bf79e8d960e01b8152600481018290526024016103c3565b60001980871390861380821860011461201e5782612023565b826000035b98975050505050505050565b60015460405163140e25ad60e31b8152600481018490526000916001600160a01b03169063a0712d6890602401600060405180830381600087803b15801561207657600080fd5b505af115801561208a573d6000803e3d6000fd5b5050600354604051630b68372160e31b8152600060048201526001602482015260448101879052606481018690526001600160a01b039091169250635b41b9089150608401602060405180830381600087803b1580156120e957600080fd5b505af11580156120fd573d6000803e3d6000fd5b505050506040513d601f19601f8201168201806040525081019061212191906127a1565b600054604051630852cd8d60e31b8152600481018390529192506001600160a01b0316906342966c68906024015b600060405180830381600087803b15801561216957600080fd5b505af115801561217d573d6000803e3d6000fd5b5050505092915050565b6000805460405163140e25ad60e31b8152600481018590526001600160a01b039091169063a0712d6890602401600060405180830381600087803b1580156121ce57600080fd5b505af11580156121e2573d6000803e3d6000fd5b5050600354604051630b68372160e31b8152600160048201526000602482015260448101879052606481018690526001600160a01b039091169250635b41b9089150608401602060405180830381600087803b15801561224157600080fd5b505af1158015612255573d6000803e3d6000fd5b505050506040513d601f19601f8201168201806040525081019061227991906127a1565b600154604051630852cd8d60e31b8152600481018390529192506001600160a01b0316906342966c689060240161214f565b60006119c9838361258f565b60006116e082612655565b60035460405163556d6e9f60e01b81526001600482015260006024820181905260448201849052916001600160a01b03169063556d6e9f9060640160206040518083038186803b15801561231557600080fd5b505afa925050508015612345575060408051601f3d908101601f19168201909252612342918101906127a1565b60015b6123aa577fcf34ef537ac33ee1ac626ca1587a0a7e8e51561e5514f8cb36afa1c5102b3bab60405161239a906020808252600f908201526e5377617020696d706f737369626c6560881b604082015260600190565b60405180910390a1506000919050565b50600192915050565b6123bc816116d5565b6002546001600160a01b03166000908152600d6020526040812060010180549091906123e9908490612885565b909155505050565b60008080600019858709858702925082811083820303915050806000141561243a5783828161243057634e487b7160e01b600052601260045260246000fd5b04925050506119c9565b83811061246457604051631dcf306360e21b815260048101829052602481018590526044016103c3565b60008486880960026001871981018816978890046003810283188082028403028082028403028082028403028082028403028082028403029081029092039091026000889003889004909101858311909403939093029303949094049190911702949350505050565b60008080600019848609848602925082811083820303915050670de0b6b3a764000081106125115760405163698d9a0160e11b8152600481018290526024016103c3565b600080670de0b6b3a76400008688099150506706f05b59d3b1ffff81118261254b5780670de0b6b3a76400008504019450505050506116e0565b620400008285030493909111909103600160ee1b02919091177faccb18165bd6fe31ae1cf318dc5b51eee0e1ba569b88cd74c1773b91fac106690201905092915050565b6000600160ff1b8314806125a65750600160ff1b82145b156125c45760405163b3c754a360e01b815260040160405180910390fd5b600080600085126125d557846125da565b846000035b9150600084126125ea57836125ef565b836000035b9050600061260683670de0b6b3a7640000846123f1565b90506001600160ff1b0381111561263357604051637cb4bef560e01b8152600481018290526024016103c3565b60001980871390861380821860011461264c5782612023565b61202383612a18565b6000808212156117505760405162461bcd60e51b815260206004820181905260248201527f53616665436173743a2076616c7565206d75737420626520706f73697469766560448201526064016103c3565b6000602082840312156126b8578081fd5b81356119c981612a5e565b6000602082840312156126d4578081fd5b81516119c981612a5e565b6000806000608084860312156126f3578182fd5b83356126fe81612a5e565b92506020840135915060808401851015612716578081fd5b6040840190509250925092565b60008060008060808587031215612738578081fd5b843561274381612a5e565b93506020850135925060408501356002811061275d578182fd5b9396929550929360600135925050565b600080600060608486031215612781578283fd5b833561278c81612a5e565b95602085013595506040909401359392505050565b6000602082840312156127b2578081fd5b5051919050565b60608101818460005b60028110156127e15781518352602092830192909101906001016127c2565b5050508260408301529392505050565b602080825260169082015275507269636520696d7061637420746f6f206c6172676560501b604082015260600190565b6020808252602a908201527f4f6e6c7920636c656172696e6720686f7573652063616e2063616c6c207468696040820152693990333ab731ba34b7b760b11b606082015260800190565b828152606081016040836020840137600081529392505050565b600080821280156001600160ff1b03849003851316156128a7576128a7612a32565b600160ff1b83900384128116156128c0576128c0612a32565b50500190565b600082198211156128d9576128d9612a32565b500190565b6000826128ed576128ed612a48565b600160ff1b82146000198414161561290757612907612a32565b500590565b60008261291b5761291b612a48565b500490565b60006001600160ff1b038184138284138082168684048611161561294657612946612a32565b600160ff1b8487128281168783058912161561296457612964612a32565b85871292508782058712848416161561297f5761297f612a32565b8785058712818416161561299557612995612a32565b505050929093029392505050565b60008160001904831182151516156129bd576129bd612a32565b500290565b60008083128015600160ff1b8501841216156129e0576129e0612a32565b6001600160ff1b03840183138116156129fb576129fb612a32565b50500390565b600082821015612a1357612a13612a32565b500390565b6000600160ff1b821415612a2e57612a2e612a32565b0390565b634e487b7160e01b600052601160045260246000fd5b634e487b7160e01b600052601260045260246000fd5b6001600160a01b0381168114612a7357600080fd5b5056fea2646970667358221220883836a41e4cbed90bc56adfef8993e11eaef81092838ce529d0ca84729ee78464736f6c63430008040033",
  "devdoc": {
    "events": {
      "DustGenerated(uint256)": {
        "params": {
          "vBaseAmount": "Amount of dust"
        }
      },
      "FundingRateUpdated(int256,int256)": {
        "params": {
          "cumulativeFundingRate": "Cumulative sum of all funding rate updates",
          "fundingRate": "Latest fundingRate update"
        }
      },
      "Log(string)": {
        "params": {
          "errorMessage": "Return error message"
        }
      },
      "TwapUpdated(int256,int256)": {
        "params": {
          "newMarketTwap": "Latest market Time-weighted-average-price",
          "newOracleTwap": "Latest oracle Time-weighted-average-price"
        }
      }
    },
    "kind": "dev",
    "methods": {
      "extendPosition(address,uint256,uint8,uint256)": {
        "details": "No number for the leverage is given but the amount in the vault must be bigger than MIN_MARGIN_AT_CREATIONNo checks are done if bought amount exceeds allowance",
        "params": {
          "account": "Address of the trader",
          "amount": "to be sold, in vQuote (if long) or vBase (if short)",
          "direction": "Long or Short",
          "minAmount": "Minimum amount received back, in vBase (if long) or vQuote (if short)"
        },
        "returns": {
          "fundingPayments": "Settled funding payments",
          "openNotional": "Additional quote asset / liabilities accrued",
          "positionSize": "Additional base asset / liabilities accrued"
        }
      },
      "getFundingPayments(address)": {
        "params": {
          "account": "Trader"
        },
        "returns": {
          "upcomingFundingPayment": "Funding payment. 18 decimals"
        }
      },
      "getGlobalPosition()": {
        "returns": {
          "_0": "Global position"
        }
      },
      "getLpPosition(address)": {
        "params": {
          "account": "Address to get the LP position from"
        },
        "returns": {
          "_0": "Liquidity Provider position"
        }
      },
      "getMarketTwap()": {
        "returns": {
          "_0": "market twap. 18 decimals"
        }
      },
      "getOracleTwap()": {
        "returns": {
          "_0": "oracle twap. 18 decimals"
        }
      },
      "getTotalLiquidityProvided()": {
        "returns": {
          "_0": "market twap. 18 decimals"
        }
      },
      "getTraderPosition(address)": {
        "params": {
          "account": "Address to get the trading position from"
        },
        "returns": {
          "_0": "Trader position"
        }
      },
      "indexPrice()": {
        "returns": {
          "_0": "Index price"
        }
      },
      "marketPrice()": {
        "returns": {
          "lastPrice": "Last traded price"
        }
      },
      "provideLiquidity(address,uint256,uint256)": {
        "params": {
          "account": "Liquidity provider",
          "minLpAmount": "Minimum amount of Lp tokens minted. 18 decimals",
          "wadAmount": "Amount of vQuote provided. 18 decimals"
        },
        "returns": {
          "baseAmount": "Amount of vBase provided. 18 decimals",
          "fundingPayments": "Settled funding payments"
        }
      },
      "reducePosition(address,uint256,uint256)": {
        "params": {
          "account": "Trader account to close position for.",
          "minAmount": "Minimum amount that the user is willing to accept, in vQuote if LONG, in vBase if SHORT. 18 decimals",
          "proposedAmount": "Amount of tokens to be sold, in vBase if LONG, in vQuote if SHORT. 18 decimals"
        },
        "returns": {
          "profit": "Profit realized",
          "vBaseAmount": "Position size reduction",
          "vQuoteProceeds": "Realized quote proceeds from closing the position"
        }
      },
      "removeLiquidity(address,uint256,uint256[2])": {
        "params": {
          "account": "Account of the LP to remove liquidity from",
          "liquidityAmountToRemove": "Amount of liquidity to be removed from the pool. 18 decimals",
          "minVTokenAmounts": "Minimum amount of virtual tokens [vQuote, vBase] withdrawn from the curve pool. 18 decimals"
        },
        "returns": {
          "baseAmount": "Base tokens withdrawn",
          "fundingPayments": "Funding realized",
          "quoteAmount": "Quote tokens withdrawn"
        }
      }
    },
    "version": 1
  },
  "userdoc": {
    "errors": {
      "PRBMathSD59x18__AbsInputTooSmall()": [
        {
          "notice": "Emitted when the input is MIN_SD59x18."
        }
      ],
      "PRBMathSD59x18__DivInputTooSmall()": [
        {
          "notice": "Emitted when one of the inputs is MIN_SD59x18."
        }
      ],
      "PRBMathSD59x18__DivOverflow(uint256)": [
        {
          "notice": "Emitted when one of the intermediary unsigned results overflows SD59x18."
        }
      ],
      "PRBMathSD59x18__MulInputTooSmall()": [
        {
          "notice": "Emitted when one of the inputs is MIN_SD59x18."
        }
      ],
      "PRBMathSD59x18__MulOverflow(uint256)": [
        {
          "notice": "Emitted when the intermediary absolute result overflows SD59x18."
        }
      ],
      "PRBMath__MulDivFixedPointOverflow(uint256)": [
        {
          "notice": "Emitted when the result overflows uint256."
        }
      ],
      "PRBMath__MulDivOverflow(uint256,uint256)": [
        {
          "notice": "Emitted when the result overflows uint256."
        }
      ]
    },
    "events": {
      "DustGenerated(uint256)": {
        "notice": "Emitted when (base) dust is generated"
      },
      "FundingRateUpdated(int256,int256)": {
        "notice": "Emitted when funding rate is updated"
      },
      "Log(string)": {
        "notice": "Emitted when swap with cryptoswap pool fails"
      },
      "TwapUpdated(int256,int256)": {
        "notice": "Emitted when twap is updated"
      }
    },
    "kind": "user",
    "methods": {
      "clearingHouse()": {
        "notice": "Clearing House contract"
      },
      "extendPosition(address,uint256,uint8,uint256)": {
        "notice": "Open or increase a position, either long or short"
      },
      "getFundingPayments(address)": {
        "notice": "Get the missed funding payments for a trader"
      },
      "getGlobalPosition()": {
        "notice": "Get global market position"
      },
      "getLpPosition(address)": {
        "notice": "Get the position of a liquidity provider"
      },
      "getMarketTwap()": {
        "notice": "Get the market Time-weighted-average-price"
      },
      "getOracleTwap()": {
        "notice": "Get the oracle Time-weighted-average-price"
      },
      "getTotalLiquidityProvided()": {
        "notice": "Get the market Total Liquidity provided to the Crypto Swap pool"
      },
      "getTraderPosition(address)": {
        "notice": "Get the position of a trader"
      },
      "indexPrice()": {
        "notice": "Return the current off-chain exchange rate for vBase/vQuote"
      },
      "market()": {
        "notice": "Curve CryptoSwap pool"
      },
      "marketPrice()": {
        "notice": "Return the last traded price (used for TWAP)"
      },
      "provideLiquidity(address,uint256,uint256)": {
        "notice": "Provide liquidity to the pool"
      },
      "reducePosition(address,uint256,uint256)": {
        "notice": "Closes position from account holder"
      },
      "removeLiquidity(address,uint256,uint256[2])": {
        "notice": "Remove liquidity from the pool"
      },
      "vBase()": {
        "notice": "vBase token (traded on CryptoSwap pool)"
      },
      "vQuote()": {
        "notice": "vQuote token (traded on CryptoSwap pool)"
      }
    },
    "notice": "Handles all the trading logic. Interact with the CryptoSwap pool",
    "version": 1
  },
  "storageLayout": {
    "storage": [
      {
        "astId": 4275,
        "contract": "contracts/Perpetual.sol:Perpetual",
        "label": "vBase",
        "offset": 0,
        "slot": "0",
        "type": "t_contract(IVBase)7646"
      },
      {
        "astId": 4280,
        "contract": "contracts/Perpetual.sol:Perpetual",
        "label": "vQuote",
        "offset": 0,
        "slot": "1",
        "type": "t_contract(IVQuote)7653"
      },
      {
        "astId": 4285,
        "contract": "contracts/Perpetual.sol:Perpetual",
        "label": "clearingHouse",
        "offset": 0,
        "slot": "2",
        "type": "t_contract(IClearingHouse)7217"
      },
      {
        "astId": 4290,
        "contract": "contracts/Perpetual.sol:Perpetual",
        "label": "market",
        "offset": 0,
        "slot": "3",
        "type": "t_contract(ICryptoSwap)7425"
      },
      {
        "astId": 4293,
        "contract": "contracts/Perpetual.sol:Perpetual",
        "label": "globalPosition",
        "offset": 0,
        "slot": "4",
        "type": "t_struct(GlobalPosition)8006_storage"
      },
      {
        "astId": 4295,
        "contract": "contracts/Perpetual.sol:Perpetual",
        "label": "oracleCumulativeAmount",
        "offset": 0,
        "slot": "7",
        "type": "t_int256"
      },
      {
        "astId": 4297,
        "contract": "contracts/Perpetual.sol:Perpetual",
        "label": "oracleCumulativeAmountAtBeginningOfPeriod",
        "offset": 0,
        "slot": "8",
        "type": "t_int256"
      },
      {
        "astId": 4299,
        "contract": "contracts/Perpetual.sol:Perpetual",
        "label": "oracleTwap",
        "offset": 0,
        "slot": "9",
        "type": "t_int256"
      },
      {
        "astId": 4301,
        "contract": "contracts/Perpetual.sol:Perpetual",
        "label": "marketCumulativeAmount",
        "offset": 0,
        "slot": "10",
        "type": "t_int256"
      },
      {
        "astId": 4303,
        "contract": "contracts/Perpetual.sol:Perpetual",
        "label": "marketCumulativeAmountAtBeginningOfPeriod",
        "offset": 0,
        "slot": "11",
        "type": "t_int256"
      },
      {
        "astId": 4305,
        "contract": "contracts/Perpetual.sol:Perpetual",
        "label": "marketTwap",
        "offset": 0,
        "slot": "12",
        "type": "t_int256"
      },
      {
        "astId": 4310,
        "contract": "contracts/Perpetual.sol:Perpetual",
        "label": "traderPosition",
        "offset": 0,
        "slot": "13",
        "type": "t_mapping(t_address,t_struct(UserPosition)7997_storage)"
      },
      {
        "astId": 4315,
        "contract": "contracts/Perpetual.sol:Perpetual",
        "label": "lpPosition",
        "offset": 0,
        "slot": "14",
        "type": "t_mapping(t_address,t_struct(UserPosition)7997_storage)"
      }
    ],
    "types": {
      "t_address": {
        "encoding": "inplace",
        "label": "address",
        "numberOfBytes": "20"
      },
      "t_contract(IClearingHouse)7217": {
        "encoding": "inplace",
        "label": "contract IClearingHouse",
        "numberOfBytes": "20"
      },
      "t_contract(ICryptoSwap)7425": {
        "encoding": "inplace",
        "label": "contract ICryptoSwap",
        "numberOfBytes": "20"
      },
      "t_contract(IVBase)7646": {
        "encoding": "inplace",
        "label": "contract IVBase",
        "numberOfBytes": "20"
      },
      "t_contract(IVQuote)7653": {
        "encoding": "inplace",
        "label": "contract IVQuote",
        "numberOfBytes": "20"
      },
      "t_int256": {
        "encoding": "inplace",
        "label": "int256",
        "numberOfBytes": "32"
      },
      "t_mapping(t_address,t_struct(UserPosition)7997_storage)": {
        "encoding": "mapping",
        "key": "t_address",
        "label": "mapping(address => struct LibPerpetual.UserPosition)",
        "numberOfBytes": "32",
        "value": "t_struct(UserPosition)7997_storage"
      },
      "t_struct(GlobalPosition)8006_storage": {
        "encoding": "inplace",
        "label": "struct LibPerpetual.GlobalPosition",
        "members": [
          {
            "astId": 7999,
            "contract": "contracts/Perpetual.sol:Perpetual",
            "label": "timeOfLastTrade",
            "offset": 0,
            "slot": "0",
            "type": "t_uint128"
          },
          {
            "astId": 8001,
            "contract": "contracts/Perpetual.sol:Perpetual",
            "label": "timeOfLastTwapUpdate",
            "offset": 16,
            "slot": "0",
            "type": "t_uint128"
          },
          {
            "astId": 8003,
            "contract": "contracts/Perpetual.sol:Perpetual",
            "label": "cumFundingRate",
            "offset": 0,
            "slot": "1",
            "type": "t_int256"
          },
          {
            "astId": 8005,
            "contract": "contracts/Perpetual.sol:Perpetual",
            "label": "blockStartPrice",
            "offset": 0,
            "slot": "2",
            "type": "t_int256"
          }
        ],
        "numberOfBytes": "96"
      },
      "t_struct(UserPosition)7997_storage": {
        "encoding": "inplace",
        "label": "struct LibPerpetual.UserPosition",
        "members": [
          {
            "astId": 7990,
            "contract": "contracts/Perpetual.sol:Perpetual",
            "label": "openNotional",
            "offset": 0,
            "slot": "0",
            "type": "t_int256"
          },
          {
            "astId": 7992,
            "contract": "contracts/Perpetual.sol:Perpetual",
            "label": "positionSize",
            "offset": 0,
            "slot": "1",
            "type": "t_int256"
          },
          {
            "astId": 7994,
            "contract": "contracts/Perpetual.sol:Perpetual",
            "label": "cumFundingRate",
            "offset": 0,
            "slot": "2",
            "type": "t_int256"
          },
          {
            "astId": 7996,
            "contract": "contracts/Perpetual.sol:Perpetual",
            "label": "liquidityBalance",
            "offset": 0,
            "slot": "3",
            "type": "t_uint256"
          }
        ],
        "numberOfBytes": "128"
      },
      "t_uint128": {
        "encoding": "inplace",
        "label": "uint128",
        "numberOfBytes": "16"
      },
      "t_uint256": {
        "encoding": "inplace",
        "label": "uint256",
        "numberOfBytes": "32"
      }
    }
  }
}