{
  "address": "0xA7983A9149405D0BE7a740E2f9c1Bd2537EdA310",
  "abi": [
    {
      "inputs": [
        {
          "internalType": "string",
          "name": "name",
          "type": "string"
        },
        {
          "internalType": "string",
          "name": "symbol",
          "type": "string"
        },
        {
          "internalType": "uint8",
          "name": "decimals_",
          "type": "uint8"
        }
      ],
      "stateMutability": "nonpayable",
      "type": "constructor"
    },
    {
      "anonymous": false,
      "inputs": [
        {
          "indexed": true,
          "internalType": "address",
          "name": "owner",
          "type": "address"
        },
        {
          "indexed": true,
          "internalType": "address",
          "name": "spender",
          "type": "address"
        },
        {
          "indexed": false,
          "internalType": "uint256",
          "name": "value",
          "type": "uint256"
        }
      ],
      "name": "Approval",
      "type": "event"
    },
    {
      "anonymous": false,
      "inputs": [
        {
          "indexed": true,
          "internalType": "address",
          "name": "from",
          "type": "address"
        },
        {
          "indexed": true,
          "internalType": "address",
          "name": "to",
          "type": "address"
        },
        {
          "indexed": false,
          "internalType": "uint256",
          "name": "value",
          "type": "uint256"
        }
      ],
      "name": "Transfer",
      "type": "event"
    },
    {
      "anonymous": false,
      "inputs": [
        {
          "indexed": true,
          "internalType": "address",
          "name": "sender",
          "type": "address"
        },
        {
          "indexed": true,
          "internalType": "address",
          "name": "recipient",
          "type": "address"
        }
      ],
      "name": "TransferOwner",
      "type": "event"
    },
    {
      "anonymous": false,
      "inputs": [
        {
          "indexed": true,
          "internalType": "address",
          "name": "sender",
          "type": "address"
        },
        {
          "indexed": true,
          "internalType": "address",
          "name": "recipient",
          "type": "address"
        }
      ],
      "name": "TransferOwnerClaim",
      "type": "event"
    },
    {
      "inputs": [],
      "name": "_decimals",
      "outputs": [
        {
          "internalType": "uint8",
          "name": "",
          "type": "uint8"
        }
      ],
      "stateMutability": "view",
      "type": "function"
    },
    {
      "inputs": [
        {
          "internalType": "address",
          "name": "owner",
          "type": "address"
        },
        {
          "internalType": "address",
          "name": "spender",
          "type": "address"
        }
      ],
      "name": "allowance",
      "outputs": [
        {
          "internalType": "uint256",
          "name": "",
          "type": "uint256"
        }
      ],
      "stateMutability": "view",
      "type": "function"
    },
    {
      "inputs": [
        {
          "internalType": "address",
          "name": "spender",
          "type": "address"
        },
        {
          "internalType": "uint256",
          "name": "amount",
          "type": "uint256"
        }
      ],
      "name": "approve",
      "outputs": [
        {
          "internalType": "bool",
          "name": "",
          "type": "bool"
        }
      ],
      "stateMutability": "nonpayable",
      "type": "function"
    },
    {
      "inputs": [
        {
          "internalType": "address",
          "name": "account",
          "type": "address"
        }
      ],
      "name": "balanceOf",
      "outputs": [
        {
          "internalType": "uint256",
          "name": "",
          "type": "uint256"
        }
      ],
      "stateMutability": "view",
      "type": "function"
    },
    {
      "inputs": [],
      "name": "claimOwner",
      "outputs": [],
      "stateMutability": "nonpayable",
      "type": "function"
    },
    {
      "inputs": [],
      "name": "decimals",
      "outputs": [
        {
          "internalType": "uint8",
          "name": "",
          "type": "uint8"
        }
      ],
      "stateMutability": "view",
      "type": "function"
    },
    {
      "inputs": [
        {
          "internalType": "address",
          "name": "spender",
          "type": "address"
        },
        {
          "internalType": "uint256",
          "name": "subtractedValue",
          "type": "uint256"
        }
      ],
      "name": "decreaseAllowance",
      "outputs": [
        {
          "internalType": "bool",
          "name": "",
          "type": "bool"
        }
      ],
      "stateMutability": "nonpayable",
      "type": "function"
    },
    {
      "inputs": [
        {
          "internalType": "address",
          "name": "spender",
          "type": "address"
        },
        {
          "internalType": "uint256",
          "name": "addedValue",
          "type": "uint256"
        }
      ],
      "name": "increaseAllowance",
      "outputs": [
        {
          "internalType": "bool",
          "name": "",
          "type": "bool"
        }
      ],
      "stateMutability": "nonpayable",
      "type": "function"
    },
    {
      "inputs": [
        {
          "internalType": "address",
          "name": "_to",
          "type": "address"
        },
        {
          "internalType": "uint256",
          "name": "_amount",
          "type": "uint256"
        }
      ],
      "name": "mint",
      "outputs": [],
      "stateMutability": "nonpayable",
      "type": "function"
    },
    {
      "inputs": [],
      "name": "name",
      "outputs": [
        {
          "internalType": "string",
          "name": "",
          "type": "string"
        }
      ],
      "stateMutability": "view",
      "type": "function"
    },
    {
      "inputs": [],
      "name": "owner",
      "outputs": [
        {
          "internalType": "address",
          "name": "",
          "type": "address"
        }
      ],
      "stateMutability": "view",
      "type": "function"
    },
    {
      "inputs": [],
      "name": "pendingOwner",
      "outputs": [
        {
          "internalType": "address",
          "name": "",
          "type": "address"
        }
      ],
      "stateMutability": "view",
      "type": "function"
    },
    {
      "inputs": [],
      "name": "symbol",
      "outputs": [
        {
          "internalType": "string",
          "name": "",
          "type": "string"
        }
      ],
      "stateMutability": "view",
      "type": "function"
    },
    {
      "inputs": [],
      "name": "totalSupply",
      "outputs": [
        {
          "internalType": "uint256",
          "name": "",
          "type": "uint256"
        }
      ],
      "stateMutability": "view",
      "type": "function"
    },
    {
      "inputs": [
        {
          "internalType": "address",
          "name": "recipient",
          "type": "address"
        },
        {
          "internalType": "uint256",
          "name": "amount",
          "type": "uint256"
        }
      ],
      "name": "transfer",
      "outputs": [
        {
          "internalType": "bool",
          "name": "",
          "type": "bool"
        }
      ],
      "stateMutability": "nonpayable",
      "type": "function"
    },
    {
      "inputs": [
        {
          "internalType": "address",
          "name": "sender",
          "type": "address"
        },
        {
          "internalType": "address",
          "name": "recipient",
          "type": "address"
        },
        {
          "internalType": "uint256",
          "name": "amount",
          "type": "uint256"
        }
      ],
      "name": "transferFrom",
      "outputs": [
        {
          "internalType": "bool",
          "name": "",
          "type": "bool"
        }
      ],
      "stateMutability": "nonpayable",
      "type": "function"
    },
    {
      "inputs": [
        {
          "internalType": "address",
          "name": "recipient",
          "type": "address"
        },
        {
          "internalType": "bool",
          "name": "direct",
          "type": "bool"
        }
      ],
      "name": "transferOwner",
      "outputs": [],
      "stateMutability": "nonpayable",
      "type": "function"
    }
  ],
  "transactionHash": "0xda089fa0639343ee8ab3da34ecdbfa1a3140de072793c33f4ef09cb876807402",
  "args": [
    "USDC",
    "USDC Mock",
    6
  ],
  "solcInputHash": "c4314880627295fbb14e2440e0d164b2",
  "bytecode": "0x60806040523480156200001157600080fd5b5060405162000ffb38038062000ffb833981016040819052620000349162000228565b8251839083906200004d906003906020850190620000cf565b50805162000063906004906020840190620000cf565b5050600580546001600160a01b031916339081179091556040519091506000907f5bb496b3f951b55d3a1d8e479725a4d25bdc7644fc355f0b71c540354820a1c5908290a36006805460ff909216600160a01b0260ff60a01b1990921691909117905550620002fc9050565b828054620000dd90620002a9565b90600052602060002090601f0160209004810192826200010157600085556200014c565b82601f106200011c57805160ff19168380011785556200014c565b828001600101855582156200014c579182015b828111156200014c5782518255916020019190600101906200012f565b506200015a9291506200015e565b5090565b5b808211156200015a57600081556001016200015f565b600082601f83011262000186578081fd5b81516001600160401b0380821115620001a357620001a3620002e6565b604051601f8301601f19908116603f01168101908282118183101715620001ce57620001ce620002e6565b81604052838152602092508683858801011115620001ea578485fd5b8491505b838210156200020d5785820183015181830184015290820190620001ee565b838211156200021e57848385830101525b9695505050505050565b6000806000606084860312156200023d578283fd5b83516001600160401b038082111562000254578485fd5b620002628783880162000175565b9450602086015191508082111562000278578384fd5b50620002878682870162000175565b925050604084015160ff811681146200029e578182fd5b809150509250925092565b600181811c90821680620002be57607f821691505b60208210811415620002e057634e487b7160e01b600052602260045260246000fd5b50919050565b634e487b7160e01b600052604160045260246000fd5b610cef806200030c6000396000f3fe608060405234801561001057600080fd5b506004361061010b5760003560e01c806340c10f19116100a2578063a457c2d711610071578063a457c2d714610236578063a9059cbb14610249578063cf81afaa1461025c578063dd62ed3e1461026f578063e30c3978146102a857600080fd5b806340c10f19146101c757806370a08231146101da5780638da5cb5b1461020357806395d89b411461022e57600080fd5b8063313ce567116100de578063313ce5671461017657806332424aa31461019657806339509351146101aa5780633bd1adec146101bd57600080fd5b806306fdde0314610110578063095ea7b31461012e57806318160ddd1461015157806323b872dd14610163575b600080fd5b6101186102bb565b6040516101259190610c07565b60405180910390f35b61014161013c366004610bde565b61034d565b6040519015158152602001610125565b6002545b604051908152602001610125565b610141610171366004610b69565b610363565b600654600160a01b900460ff165b60405160ff9091168152602001610125565b60065461018490600160a01b900460ff1681565b6101416101b8366004610bde565b610412565b6101c561044e565b005b6101c56101d5366004610bde565b6104f4565b6101556101e8366004610b16565b6001600160a01b031660009081526020819052604090205490565b600554610216906001600160a01b031681565b6040516001600160a01b039091168152602001610125565b610118610548565b610141610244366004610bde565b610557565b610141610257366004610bde565b6105f0565b6101c561026a366004610ba4565b6105fd565b61015561027d366004610b37565b6001600160a01b03918216600090815260016020908152604080832093909416825291909152205490565b600654610216906001600160a01b031681565b6060600380546102ca90610c7e565b80601f01602080910402602001604051908101604052809291908181526020018280546102f690610c7e565b80156103435780601f1061031857610100808354040283529160200191610343565b820191906000526020600020905b81548152906001019060200180831161032657829003601f168201915b5050505050905090565b600061035a338484610728565b50600192915050565b600061037084848461084c565b6001600160a01b0384166000908152600160209081526040808320338452909152902054828110156103fa5760405162461bcd60e51b815260206004820152602860248201527f45524332303a207472616e7366657220616d6f756e74206578636565647320616044820152676c6c6f77616e636560c01b60648201526084015b60405180910390fd5b6104078533858403610728565b506001949350505050565b3360008181526001602090815260408083206001600160a01b0387168452909152812054909161035a918590610449908690610c5a565b610728565b6006546001600160a01b0316331461049c5760405162461bcd60e51b81526020600482015260116024820152702727aa2fa822a72224a723afa7aba722a960791b60448201526064016103f1565b60055460405133916001600160a01b0316907f5bb496b3f951b55d3a1d8e479725a4d25bdc7644fc355f0b71c540354820a1c590600090a3600580546001600160a01b03199081163317909155600680549091169055565b6005546001600160a01b0316331461053a5760405162461bcd60e51b81526020600482015260096024820152682727aa2fa7aba722a960b91b60448201526064016103f1565b6105448282610a1b565b5050565b6060600480546102ca90610c7e565b3360009081526001602090815260408083206001600160a01b0386168452909152812054828110156105d95760405162461bcd60e51b815260206004820152602560248201527f45524332303a2064656372656173656420616c6c6f77616e63652062656c6f77604482015264207a65726f60d81b60648201526084016103f1565b6105e63385858403610728565b5060019392505050565b600061035a33848461084c565b6005546001600160a01b031633146106435760405162461bcd60e51b81526020600482015260096024820152682727aa2fa7aba722a960b91b60448201526064016103f1565b6001600160a01b0382166106885760405162461bcd60e51b815260206004820152600c60248201526b5a45524f5f4144445245535360a01b60448201526064016103f1565b80156106db57600580546001600160a01b0319166001600160a01b03841690811790915560405133907f5bb496b3f951b55d3a1d8e479725a4d25bdc7644fc355f0b71c540354820a1c590600090a35050565b600680546001600160a01b0319166001600160a01b03841690811790915560405133907f87f5c8846f4c51400fa448cfb84edcec5cc0f333b6d20a5b903e050823dcb66790600090a35050565b6001600160a01b03831661078a5760405162461bcd60e51b8152602060048201526024808201527f45524332303a20617070726f76652066726f6d20746865207a65726f206164646044820152637265737360e01b60648201526084016103f1565b6001600160a01b0382166107eb5760405162461bcd60e51b815260206004820152602260248201527f45524332303a20617070726f766520746f20746865207a65726f206164647265604482015261737360f01b60648201526084016103f1565b6001600160a01b0383811660008181526001602090815260408083209487168084529482529182902085905590518481527f8c5be1e5ebec7d5bd14f71427d1e84f3dd0314c0f7b2291e5b200ac8c7c3b925910160405180910390a3505050565b6001600160a01b0383166108b05760405162461bcd60e51b815260206004820152602560248201527f45524332303a207472616e736665722066726f6d20746865207a65726f206164604482015264647265737360d81b60648201526084016103f1565b6001600160a01b0382166109125760405162461bcd60e51b815260206004820152602360248201527f45524332303a207472616e7366657220746f20746865207a65726f206164647260448201526265737360e81b60648201526084016103f1565b6001600160a01b0383166000908152602081905260409020548181101561098a5760405162461bcd60e51b815260206004820152602660248201527f45524332303a207472616e7366657220616d6f756e7420657863656564732062604482015265616c616e636560d01b60648201526084016103f1565b6001600160a01b038085166000908152602081905260408082208585039055918516815290812080548492906109c1908490610c5a565b92505081905550826001600160a01b0316846001600160a01b03167fddf252ad1be2c89b69c2b068fc378daa952ba7f163c4a11628f55a4df523b3ef84604051610a0d91815260200190565b60405180910390a350505050565b6001600160a01b038216610a715760405162461bcd60e51b815260206004820152601f60248201527f45524332303a206d696e7420746f20746865207a65726f20616464726573730060448201526064016103f1565b8060026000828254610a839190610c5a565b90915550506001600160a01b03821660009081526020819052604081208054839290610ab0908490610c5a565b90915550506040518181526001600160a01b038316906000907fddf252ad1be2c89b69c2b068fc378daa952ba7f163c4a11628f55a4df523b3ef9060200160405180910390a35050565b80356001600160a01b0381168114610b1157600080fd5b919050565b600060208284031215610b27578081fd5b610b3082610afa565b9392505050565b60008060408385031215610b49578081fd5b610b5283610afa565b9150610b6060208401610afa565b90509250929050565b600080600060608486031215610b7d578081fd5b610b8684610afa565b9250610b9460208501610afa565b9150604084013590509250925092565b60008060408385031215610bb6578182fd5b610bbf83610afa565b915060208301358015158114610bd3578182fd5b809150509250929050565b60008060408385031215610bf0578182fd5b610bf983610afa565b946020939093013593505050565b6000602080835283518082850152825b81811015610c3357858101830151858201604001528201610c17565b81811115610c445783604083870101525b50601f01601f1916929092016040019392505050565b60008219821115610c7957634e487b7160e01b81526011600452602481fd5b500190565b600181811c90821680610c9257607f821691505b60208210811415610cb357634e487b7160e01b600052602260045260246000fd5b5091905056fea2646970667358221220f610b889857e5380e536f7fbe2c8d4951c5e2202d15be50e65b4bc657093eb1664736f6c63430008040033",
  "devdoc": {
    "kind": "dev",
    "methods": {
      "allowance(address,address)": {
        "details": "See {IERC20-allowance}."
      },
      "approve(address,uint256)": {
        "details": "See {IERC20-approve}. Requirements: - `spender` cannot be the zero address."
      },
      "balanceOf(address)": {
        "details": "See {IERC20-balanceOf}."
      },
      "decimals()": {
        "details": "Returns the number of decimals used to get its user representation. For example, if `decimals` equals `2`, a balance of `505` tokens should be displayed to a user as `5.05` (`505 / 10 ** 2`). Tokens usually opt for a value of 18, imitating the relationship between Ether and Wei. This is the value {ERC20} uses, unless this function is overridden; NOTE: This information is only used for _display_ purposes: it in no way affects any of the arithmetic of the contract, including {IERC20-balanceOf} and {IERC20-transfer}."
      },
      "decreaseAllowance(address,uint256)": {
        "details": "Atomically decreases the allowance granted to `spender` by the caller. This is an alternative to {approve} that can be used as a mitigation for problems described in {IERC20-approve}. Emits an {Approval} event indicating the updated allowance. Requirements: - `spender` cannot be the zero address. - `spender` must have allowance for the caller of at least `subtractedValue`."
      },
      "increaseAllowance(address,uint256)": {
        "details": "Atomically increases the allowance granted to `spender` by the caller. This is an alternative to {approve} that can be used as a mitigation for problems described in {IERC20-approve}. Emits an {Approval} event indicating the updated allowance. Requirements: - `spender` cannot be the zero address."
      },
      "name()": {
        "details": "Returns the name of the token."
      },
      "symbol()": {
        "details": "Returns the symbol of the token, usually a shorter version of the name."
      },
      "totalSupply()": {
        "details": "See {IERC20-totalSupply}."
      },
      "transfer(address,uint256)": {
        "details": "See {IERC20-transfer}. Requirements: - `recipient` cannot be the zero address. - the caller must have a balance of at least `amount`."
      },
      "transferFrom(address,address,uint256)": {
        "details": "See {IERC20-transferFrom}. Emits an {Approval} event indicating the updated allowance. This is not required by the EIP. See the note at the beginning of {ERC20}. Requirements: - `sender` and `recipient` cannot be the zero address. - `sender` must have a balance of at least `amount`. - the caller must have allowance for ``sender``'s tokens of at least `amount`."
      },
      "transferOwner(address,bool)": {
        "params": {
          "direct": "If 'true', ownership is directly transferred.",
          "recipient": "Account granted `owner` access control."
        }
      }
    },
    "version": 1
  },
  "userdoc": {
    "kind": "user",
    "methods": {
      "claimOwner()": {
        "notice": "`pendingOwner` can claim `owner` account."
      },
      "transferOwner(address,bool)": {
        "notice": "Transfer `owner` account."
      }
    },
    "version": 1
  },
  "storageLayout": {
    "storage": [
      {
        "astId": 298,
        "contract": "contracts/mocks/USDCmock.sol:USDCmock",
        "label": "_balances",
        "offset": 0,
        "slot": "0",
        "type": "t_mapping(t_address,t_uint256)"
      },
      {
        "astId": 304,
        "contract": "contracts/mocks/USDCmock.sol:USDCmock",
        "label": "_allowances",
        "offset": 0,
        "slot": "1",
        "type": "t_mapping(t_address,t_mapping(t_address,t_uint256))"
      },
      {
        "astId": 306,
        "contract": "contracts/mocks/USDCmock.sol:USDCmock",
        "label": "_totalSupply",
        "offset": 0,
        "slot": "2",
        "type": "t_uint256"
      },
      {
        "astId": 308,
        "contract": "contracts/mocks/USDCmock.sol:USDCmock",
        "label": "_name",
        "offset": 0,
        "slot": "3",
        "type": "t_string_storage"
      },
      {
        "astId": 310,
        "contract": "contracts/mocks/USDCmock.sol:USDCmock",
        "label": "_symbol",
        "offset": 0,
        "slot": "4",
        "type": "t_string_storage"
      },
      {
        "astId": 9173,
        "contract": "contracts/mocks/USDCmock.sol:USDCmock",
        "label": "owner",
        "offset": 0,
        "slot": "5",
        "type": "t_address"
      },
      {
        "astId": 9175,
        "contract": "contracts/mocks/USDCmock.sol:USDCmock",
        "label": "pendingOwner",
        "offset": 0,
        "slot": "6",
        "type": "t_address"
      },
      {
        "astId": 8366,
        "contract": "contracts/mocks/USDCmock.sol:USDCmock",
        "label": "_decimals",
        "offset": 20,
        "slot": "6",
        "type": "t_uint8"
      }
    ],
    "types": {
      "t_address": {
        "encoding": "inplace",
        "label": "address",
        "numberOfBytes": "20"
      },
      "t_mapping(t_address,t_mapping(t_address,t_uint256))": {
        "encoding": "mapping",
        "key": "t_address",
        "label": "mapping(address => mapping(address => uint256))",
        "numberOfBytes": "32",
        "value": "t_mapping(t_address,t_uint256)"
      },
      "t_mapping(t_address,t_uint256)": {
        "encoding": "mapping",
        "key": "t_address",
        "label": "mapping(address => uint256)",
        "numberOfBytes": "32",
        "value": "t_uint256"
      },
      "t_string_storage": {
        "encoding": "bytes",
        "label": "string",
        "numberOfBytes": "32"
      },
      "t_uint256": {
        "encoding": "inplace",
        "label": "uint256",
        "numberOfBytes": "32"
      },
      "t_uint8": {
        "encoding": "inplace",
        "label": "uint8",
        "numberOfBytes": "1"
      }
    }
  }
}